:020000040800F2
:10000000B017002001010008FB0A0008CB0100081E
:10001000F90A00086B020008050C00080000000047
:10002000000000000000000000000000FD0A0008C1
:100030006D0200080000000053010008FF0A0008DC
:100040001B0100081B0100081B0100081B01000820
:100050001B0100081B0100081B0100081B01000810
:100060001B0100081B0100081B0100081B01000800
:100070001B0100081B0100081B0100081B010008F0
:100080001B0100081B0100081B0100081B010008E0
:100090001B0100081B0100081B0100081B010008D0
:1000A0001B0100081B0100081B0100081B010008C0
:1000B0001B0100081B0100081B0100081B010008B0
:1000C0001B0100081B0100081B0100081B010008A0
:1000D0001B0100081B0100081B0100081B01000890
:1000E0001B0100081B0100081B010008DFF80CD0F1
:1000F00000F0A4F80048004761020008B017002093
:100100000648804706480047FEE7FEE7FEE7FEE7B1
:10011000FEE7FEE7FEE7FEE7FEE7FEE7BD0B0008B1
:10012000ED000008EFF3108072B6704780F310887E
:100130007047334A1368012B04D04FF0010313605A
:10014000304A1060304A116030484FF080510160F1
:100150007047EFF3108272B62948016891B14FF0F1
:10016000000101602748016829B1EFF3098121E905
:10017000F00F00680160244909680968B1E8F00FD0
:1001800081F3098882F310884EF0040E70471E49EF
:1001900008601C494FF00000086019494FF0010049
:1001A00008601B484FF47F01D0F8002041EA0201AB
:1001B000016016484FF080510160164800680068E1
:1001C00080F3088861B662B670471EF0040F0CBF5A
:1001D000EFF30880EFF3098020E9F00F40F804ED19
:1001E0001EF0040F0CBF80F3088880F3098800B567
:1001F00000F088FF5DF804EB4EF0040E704700003D
:1002000090000020880000208C00002004ED00E019
:1002100020ED00E008ED00E0D2B201E000F8012B93
:10022000491EFBD270470022F6E710B513460A4676
:1002300004461946FFF7F0FF204610BD064C074D57
:1002400006E0E06840F0010394E8070098471034A6
:10025000AC42F6D3FFF74EFF2423000844230008E6
:1002600010B501F095FF002010BDFEE770470000BB
:100270002DE9F84FDFF8B891002409F1040A0AF1DA
:10028000040B23460F270BF1040EC9E00125A540FE
:100290002A40AA427DD1674ED1F804C0ACEB0608D3
:1002A000B44532D014DCBCF1030F3AD009DCBCF108
:1002B000000F2AD0BCF1010F1CD0BCF1020F31D1CC
:1002C0001DE0BCF1110F17D0BCF1120F2AD119E0BB
:1002D000B8F5881F19D006DCB8F5803F15D0B8F501
:1002E000801F1FD111E0B8F5001F0ED0B8F5041F14
:1002F00018D10AE0CB6815E0CB681B1D12E0CB6873
:1003000008330FE0CB680C330CE08B682BB1012B6A
:100310004FF0080303D0456104E0042302E00561C7
:1003200000E00023FF2A01D8064601E000F10406A0
:100330004FEA840501D9A5F12005D6F8008007FA17
:1003400005FC28EA0C0803FA05F548EA0508C6F892
:1003500000804D68ED0062D5374DAE6946F001066C
:10036000AE61AD6924F0030605F001050095334D3B
:1003700006EB050CDCF80850A607360F07FA06F85E
:1003800025EA0805DFF8B880404503D14FF00008A2
:1003900017E044E0DFF8AC80404502D14FF001089F
:1003A0000FE0DFF8A480404502D14FF0020808E0DA
:1003B000DFF89880404502D14FF0030801E04FF08C
:1003C000040808FA06F848EA0508CCF808804D68E1
:1003D000D9F80060ED034D4601D5164300E0964381
:1003E0002E604D68DAF80060AD03554601D516431E
:1003F00000E096432E604D68DBF80060ED025D463C
:1004000001D5164300E096432E604D68DEF800608B
:10041000AD02754601D5164300E096432E60641C7C
:100420000D682A46E5407FF431AFBDE8F88F000043
:1004300000040140000011100010024000000140C3
:1004400000080140000C0140001001400014014070
:100450000AB1016170470904FBE7000001488068A8
:100460007047000004000020074810B5016841F003
:1004700010010160032000F067F8002000F006F88A
:1004800000F024F8002010BD0020024070B50D4D92
:1004900004464FF47A712878B1FBF0F00A490968F4
:1004A000B1FBF0F000F0BEFA48B9102C07D20022E0
:1004B0002146501E00F028F800206C6070BD01201D
:1004C00070BD000004000020100000200C4808B59A
:1004D000816941F001018161816901F001010091AF
:1004E000C16941F08051C161C06900F08050009045
:1004F0000448416821F0E06141F00071416008BDAD
:100500000010024000000140F0B40E4B1B680C4686
:10051000C3F30223C3F10705042D00D90425191DD7
:10052000072901D2002300E0DB1E012606FA05F1AF
:10053000491E214099409E40761E16403143F0BC32
:1005400000F061BB0CED00E0064900F0070208680E
:100550004FF6FF03184040EA0220034A10430860A8
:10056000704700000CED00E00000FA052DE9F047AF
:100570000F46050061D0434E306800F00700B842D6
:1005800009D2306820F0070038433060306800F04E
:100590000700B84251D128683B4C810712D540076B
:1005A00003D5606840F4E06060602878000703D5F8
:1005B000606840F4605060606068A96820F0F000F6
:1005C000084360602878C00728D06868012810D0E8
:1005D0002168022810D0890700292EDA616821F0ED
:1005E000030101436160FFF739FF804641F288391A
:1005F0000DE021688903EFE78901EDE7FFF72EFFA2
:10060000A0EB0801494502D90320BDE8F0876068E6
:10061000696800F00C00B0EB810FEFD1306800F09A
:100620000700B8420BD9306820F00700384330602B
:10063000306800F00700B84201D00120E5E72878D3
:10064000400705D56068E96820F4E0600843606011
:100650002878000706D56068296920F4605040EAD0
:10066000C100606000F018F86168084AC1F3031126
:10067000515CC8400649086006480068FFF706FF5D
:100680000020C2E70020024000100240E2210008E2
:10069000100000200800002012A185B00FC98DE8CD
:1006A0000F0014A0144A006804905168134801F028
:1006B0000C03042B10D0082B0ED1C1F38343C903C4
:1006C0001DF803000AD5516804AAC1F34041515CEA
:1006D0000A4A5043B0FBF1F005B07047084948435F
:1006E000FAE7000002030405060708090A0B0C0DCF
:1006F0000E0F1010010200000010024000127A00DC
:1007000000093D002DE9F84F040070D02078C04D5D
:10071000C00749D06868C0F38100012807D0686825
:10072000C0F38100022809D16868C00306D5286893
:10073000800339D560680028E7D035E06068B0F5FF
:10074000803F0BD010B1B0F5A02F11D0286820F455
:1007500080302860286820F4802002E0286840F477
:1007600080302860606890B1FFF778FE06460AE0A6
:10077000286840F480202860F0E700BFFFF76EFE95
:10078000801B642873D828688003F7D50CE0FFF736
:1007900065FE064605E000BFFFF760FE801B64288B
:1007A000F0D828688003F7D420789A4E80074FF05D
:1007B00001094FF0000839D5686810F00C0F07D018
:1007C0006868C0F38100022809D16868C00306D4B4
:1007D0002868800714D52069012808D110E0206915
:1007E000B0B1C6F80090FFF739FE074605E00AE110
:1007F000FFF734FEC01B0228C4D828688007F7D54D
:100800002868616920F0F80040EAC10028600DE026
:10081000C6F80080FFF722FE074604E0FFF71EFE41
:10082000C01B022823D828688007F7D42078000747
:100830002CD57948A169D9B1C0F80090FFF70EFE18
:10084000074604E0FFF70AFEC01B02280FD8686ABB
:100850008007F7D571484FF4FA510068B0FBF1F00A
:10086000009000BF0098411E0091FAD20EE080E097
:10087000C0F80080FFF7F2FD074604E0FFF7EEFD49
:10088000C01B022875D8686A8007F7D42078400713
:1008900060D5E8690027C00008D4E86940F08050BE
:1008A000E861E869012700F0805000905C48016829
:1008B000C90513D40168834641F480710160FFF7D4
:1008C000CDFD824606E000BFFFF7C8FDA0EB0A00A1
:1008D00064284ED8DBF80000C005F5D5E068012893
:1008E0000AD008B1052813D0286A20F00100286238
:1008F000286A20F0040002E0286A40F00100286223
:10090000E06841F2883B98B1FFF7A8FD82460BE012
:10091000286A40F004002862EEE700BFFFF79EFD62
:10092000A0EB0A0159455AD8286A8007F6D50CE091
:10093000FFF794FD824605E0FFF790FDA0EB0A016A
:1009400059454CD8286A8007F6D41FB1E86920F0D1
:100950008050E861E06988B36968C1F381010229C8
:1009600044D00228C6F8608004D0FFF777FD044623
:1009700038E034E0FFF772FD074604E0FFF76EFD54
:10098000C01B02282BD828688001F7D4206AB0F554
:10099000803F05D16868A16820F400300843686092
:1009A000D4E908010843696821F4741108436860B8
:1009B000C6F86090FFF752FD044606E025E000BF50
:1009C000FFF74CFD001B022809D828688001F7D5E5
:1009D0001BE000BFFFF742FD001B022802D90320E5
:1009E000BDE8F88F28688001F4D40EE00128F7D024
:1009F0006868226A00F48031914204D1616A00F48F
:100A00007010884201D00120EAE70020E8E70000EA
:100A100000100240000042428004424210000020C8
:100A20000070004010B5401EB0F1807F01D301205E
:100A300010BD4FF0E02460610F21601700F0E3F873
:100A40000020A06107202061002010BD70B586B095
:100A5000002418480094019402940394816941F0A1
:100A600010018161816901F010010491816941F0F7
:100A700020018161816901F020010491816941F0C7
:100A80000401816180690C4E00F004004FF40055B0
:100A90000490002229463046FFF7DAFC0120009539
:100AA000CDE901040220039069463046FFF7E0FBE0
:100AB00006B070BD00100240001001401CB51421AA
:100AC0000320CDE900014FF400730022064907A07E
:100AD00000F0ABFF0749086018B1BDE81C4001F009
:100AE000AFB84FF0FF301CBD510D00086C6564318C
:100AF0000000000000000020FEE77047704710B5BE
:100B000000F016FC01F01AF9BDE8104000F01EBC20
:100B100010B590B028216846FFF785FB14210AA87C
:100B2000FFF781FB02200090012004901020002498
:100B3000059007946846FFF7E5FD0F20CDE90A040C
:100B40000C940D9400210AA80E94FFF70FFD10B02D
:100B500010BD0000144910B54868144A10F00C0389
:100B6000134803D0042B01D0082B09D00260496838
:100B7000104AC1F30311515C0268CA40026010BD03
:100B80004A684B6802F470124FF0020413F4803F7D
:100B900004EB924202D04B689B0301D5064B00E068
:100BA000024B5A43E2E700000010024000127A00B4
:100BB00010000020E221000800093D000D480168F6
:100BC00041F00101016041680B4A11404160016838
:100BD0000A4A11400160016821F4802101604168E6
:100BE00021F4FE0141604FF41F0181600449C003FC
:100BF00008607047001002400000FFF8FFFFF6FE9B
:100C000008ED00E0FEE70907090E002804DB00F10B
:100C1000E02080F80014704700F00F0000F1E020A1
:100C200080F8141D70470000002806D00E4910F00F
:100C3000FF0F03D0C0B2085C401C704710F47F4F18
:100C400004D0C0F30720085C0930704710F47F0F10
:100C500004D0C0F30740085C1130704701EB10600E
:100C60000078193070470000F221000802E008C83F
:100C7000121F08C1002AFAD170477047002001E016
:100C800001C1121F002AFBD1704700000348016810
:100C9000814201D001207047002070477000002081
:100CA0002DE9FC411F460446DDE90831DDE90A650E
:100CB000143040600060C4E90827C4E90A310A46DC
:100CC000232118461C3400F005FCD4E90301421826
:100CD000D4E90101104B121F00F00EFB44F81A0B6F
:100CE000002004F801690D4A04F8036BE4E80205EA
:100CF00044F8105901C404F83C0B01C444F87409C9
:100D0000009023460190194604F1440001F088F850
:100D10000020BDE8FC810000791A0008AF1C000823
:100D200010B5029C24F001044472C0E907120021AE
:100D3000C0E9093114304060006010BDF0E90512CF
:100D40004A60D0E900121160406000607047000006
:100D50000A4C4FF400564FF4FA75012231462046F2
:100D6000FFF776FB284600F084FE0022314620463D
:100D7000FFF76EFB284600F07CFEEEE70010014016
:100D8000FFF772FBFFF7C4FEFFF760FEFFF796FE6A
:100D9000FEE710B500F0EAF8BDE81040FFF7F0BF3D
:100DA00030B5134943680A68134402F108049842B5
:100DB0000DD05D885DB94D68AB4208D08D689D420D
:100DC00000D188605D6845605B68851A1D51836845
:100DD000134483420BD05D88002D08D18D68854275
:100DE00000D18B60416859604068991A015130BD4B
:100DF0001C0000202DE9F04F85B09946DDE90EA5D5
:100E0000109CAB46630602D5DFF814C103E0DFF89F
:100E100010C1ACF1110CE30601D524F00104E30785
:100E200001D0302300E0202300260493A3070BD534
:100E3000002A02DA2D26524206E0630701D52B264E
:100E400002E0230700D520260023EE4622B93022F7
:100E50008DF8002001230CE0B9F10A0F14D002F044
:100E60000F0812091CF808800EF803805B1C002A8A
:100E7000F2D1AB4200DD1D46AAEB050214F0110FC2
:100E80004FF0200708D015E00A27B2FBF7F807FB60
:100E90001828B2FBF7F2E5E73EB1002A05DD521E45
:100EA00003E0884200D20770401CB2F1000CA2F1AE
:100EB0000102F6DC26B1884200D20670401C521EA8
:100EC000E40605D508E0884201D2049C0470401C69
:100ED000141EA2F10102F6DC30242E466D1E9E4245
:100EE0000ADD884200D20470401CF6E7884201D235
:100EF000E55C0570401C00E074461D1EA3F1010373
:100F000007DDBBF1000FF1D103E0884200D207708A
:100F1000401C131EA2F10102F7DC05B0BDE8F08F02
:100F2000032300081CB514210A20CDE900014FF469
:100F300080630022034904A000F077FDBDE81C4057
:100F400000F07EBE930D00086D61696E0000000028
:100F500070B5044C044D02E020688047241DAC426B
:100F6000FAD370BD182300081C23000870B5044C88
:100F7000044D02E020688047241DAC42FAD370BDC6
:100F80001C2300082023000810B5FFF7CBF8044A03
:100F90005188491C5180BDE81040FFF7C7B80000D8
:100FA0006400002010B5FFF7BDF80B4C6188491EA6
:100FB00009B2618000290ADC00216180FFF7B6F8E0
:100FC0006068002807D0BDE8104000F033BBBDE8E2
:100FD0001040FFF7ABB810BD6400002070B50028CA
:100FE00033D01A4D296888422FD3696888422CD2A1
:100FF000A0F10C044FF0FF31154800F0C0FB6088F1
:101000004FF4F55610B12088B04208D011A000F07E
:10101000ABF923886288214615A000F0A5F90020CD
:1010200060802680A868844200D2AC60296860682D
:10103000611A401A2969081A28612046FFF7B0FE94
:10104000BDE87040024800F07FBB70BD1C0000206E
:101050008C120020746F20667265652061206261C9
:1010600064206461746120626C6F636B3A0A0000F3
:101070006D656D3A203078253038782C2075736591
:101080006420666C61673A2025642C206D61676975
:101090006320636F64653A203078253034780A0025
:1010A00000487047940000200048704794100020CA
:1010B00010B5FFF74FFD10484FF47A710068B0FB90
:1010C000F1F0401EB0F1807F09D24FF0E0210B4AD1
:1010D0004861FF2010700020886107200861FFF739
:1010E00037FFFFF7E1FF0446FFF7DAFF2146BDE8CF
:1010F000104000F00FBC00001000002023ED00E0C5
:101100007047000070B50546041D2B48016819B1F1
:101110002846884700284DD028A0E16B00F024F92C
:101120002AA0216A00F020F92CA0616A00F01CF9C5
:101130002EA0A16A00F018F930A0E16A00F014F9BD
:1011400032A0216800F010F934A0616800F00CF9B9
:1011500036A0A16800F008F938A0E16800F004F9B1
:101160003AA0216900F000F93CA0616900F0FCF8A8
:101170003EA0A16900F0F8F840A0E16900F0F4F8A1
:1011800042A0216B00F0F0F844A0616B00F0ECF895
:1011900046A0A16B00F0E8F82878400706D500F0DB
:1011A00029FD014645A000F0DFF802E04BA000F069
:1011B000DBF8FEE770BD0000840000207073723A17
:1011C000203078253038780A000000007230303A3C
:1011D000203078253038780A000000007230313A2B
:1011E000203078253038780A000000007230323A1A
:1011F000203078253038780A000000007230333A09
:10120000203078253038780A000000007230343AF7
:10121000203078253038780A000000007230353AE6
:10122000203078253038780A000000007230363AD5
:10123000203078253038780A000000007230373AC4
:10124000203078253038780A000000007230383AB3
:10125000203078253038780A000000007230393AA2
:10126000203078253038780A000000007231303A9A
:10127000203078253038780A000000007231313A89
:10128000203078253038780A000000007231323A78
:10129000203078253038780A00000000206C723A3F
:1012A000203078253038780A000000002070633A3A
:1012B000203078253038780A0000000068617264B8
:1012C000206661756C74206F6E207468726561644D
:1012D0003A2025730D0A0D0A00000000686172644F
:1012E000206661756C74206F6E2068616E646C6539
:1012F000720D0A0D0A00000070B50446121D22F09E
:1013000007000022094D403840F82250521C102A94
:10131000FAD301620021416281624FF0807200F1D4
:101320003005C263C16285E81A0070BDEFBEADDE54
:1013300010B5FEF7F7FE044A1178491C1170BDE89C
:101340001040FEF7F3BE00001800002010B5FEF7B5
:10135000E9FE044A1178491E1170BDE81040FEF7FD
:10136000E5BE0000180000200FB47F2110B503ABCC
:101370000448029A00F0C6FD0248FFF7C1FE10BC07
:101380005DF814FB0C1200200268516002680A60CC
:101390000160486070470268516002680A6001603D
:1013A000486070470268516002680A6001604860E6
:1013B00070474268116042684A6041600860704747
:1013C000D0E900124A60D0E900121160406000606C
:1013D0007047D0E900124A60D0E900121160406005
:1013E000006070472DE9F047002807D0374CC01C3B
:1013F00020F00306E068864202D90020BDE8F087AD
:101400000C2E00D20C264FF0FF31314800F0B7F916
:10141000D4F808C02168E768ACEB0100BA1B4FE0C4
:101420000D186B88E3BB6B681B1A0C3BB34246D3A9
:101430006A6806F11803121A0C3A4FF001094FF4CA
:10144000F55A9A422DD383190C33CA184FF000086D
:10145000A2F800A0A2F80280D5F80480C2E90180B9
:101460006B60A5F8029050680C37B84202D001F1C9
:1014700008028350206930440C3020616269824246
:1014800000D26061A5F800A0654512D1A06842882D
:101490007AB1626890420CD040680844A060F6E7D8
:1014A0000DE0A5F8029068686A1A801A2269104453
:1014B000E3E7074800F048F905F10C009EE768688B
:1014C0008242ADD8024800F03FF996E71C000020A8
:1014D0008C12002010B50346CCB2042A1AD381071F
:1014E00018D1194644EA042343EA034306E008C13D
:1014F000103A08C141F8083B41F8043C102AF6D2E2
:1015000001E008C1121F042AFBD20B4602E000BF13
:1015100003F8014B521EFBD210BD2DE9F0410F46DE
:10152000064600F045F80546C068FFF75BFF04007B
:1015300019D00021EA68FFF7CDFF26720020607203
:1015400008223946204600F0D1F9FEF7EBFD0646A9
:1015500004F10C01281DFFF717FF3046FEF7E6FDEA
:101560002046BDE8F0810020FBE770B5044600206E
:101570002072FEF7D7FD054604F10C00FFF720FFAF
:101580002846FEF7D3FD2046BDE87040FFF726BD94
:1015900070B5044600202072FEF7C4FD054604F134
:1015A0000C00FFF70DFF2846BDE87040FEF7BEBDFA
:1015B000074A002102EB01131B78834202D102EBA0
:1015C00001107047491C0329F4DB0020704700001C
:1015D000340000202DE9F041044616460D46084629
:1015E000FFF7E6FF0746FFF7CFFC381D796800E0FC
:1015F00009688142FCD1FFF7D5FC45F080002072DC
:1016000008223146204600F071F9FEF78BFD0546B1
:1016100004F10C01381DFFF7B7FE2846BDE8F04184
:10162000FEF784BD007A000601D501207047002036
:101630007047000070B5FEF775FD114C05466088D7
:10164000B0B9A068FFF7F0FA0E49401E626851F881
:101650003010143991420BD020700B486160007833
:1016600001F11C01002802F11C0006D0FEF761FD0B
:101670002846BDE87040FEF759BDFEF75AFDF7E772
:1016800064000020AC1200201800002010B50446B1
:10169000FEF748FD024694F834000E4920F00F0092
:1016A000401C84F8340094F8350001EBC00104F1CB
:1016B00014004B6818604B68A3614860064861617C
:1016C000A16B836819438160BDE810401046FEF7A6
:1016D0002DBD0000AC1200206400002010B50446AF
:1016E000FEF720FD04F11401D1E900235360D1E994
:1016F00000231A60A161616194F83520074951F80F
:10170000323001EBC2018B4204D10549A36B8A68D8
:101710009A438A60BDE81040FEF708BDAC12002075
:10172000640000202DE9F04116460A461F46054692
:101730000221FFF74FFF05F11404AC616C61AE8329
:101740006F720020BDE8F08170B50446FEF7EAFC38
:101750000546606904F11401884208D0143800F08D
:101760002BFA2846FEF7E2FCFFF764FF05E0A08BAA
:10177000401CA0832846FEF7D9FC002070BD2DE94F
:10178000F3410446FEF7CEFC0746A08B28B1401E6D
:10179000A0833846FEF7CAFC46E0019870B100F01D
:1017A00029FA06460020306304F11405647A3046B5
:1017B00000F05CFAF4B1012C21D106E03846FEF7C6
:1017C000B5FC6FF00100BDE8FC812C680EE096F8D6
:1017D000351094F82120A4F11400914205D206F1AD
:1017E00014011430FFF7E5FD02E02468AC42EED1AD
:1017F000AC4204D106F114012846FFF7DAFD019846
:10180000002809DD06F1440001AA0021044600F089
:10181000DFFA204600F018FB3846FEF787FCFFF79A
:1018200009FF306B0028CED10020CCE708B509A015
:10183000FFF79AFD0AA0FFF797FD12A0032300907F
:101840000122194612A0FFF78FFDBDE8084018A03D
:10185000FFF78ABD0A205C207C202F0A00000000D0
:101860002D205254202D20202020205468726561A4
:1018700064204F7065726174696E67205379737468
:10188000656D0A004A756C203238203230323000E3
:10189000202F207C205C202020202025642E256401
:1018A0002E2564206275696C642025730A0000008F
:1018B0002032303036202D203230313920436F70C5
:1018C0007972696768742062792072742D74687205
:1018D000656164207465616D0A000000014600E0E6
:1018E000491C0A78002AFBD1081A704710B5002A53
:1018F00007D0034611F8014B03F8014B2CB1521EDF
:10190000F8D110BD03F8011B00E00021521EF9D1EF
:1019100010BD00000A46C11C10B522F0030321F0DF
:101920000301182B20D9A3F118048C421CD3114CAD
:10193000581A18382160E0604FF4F5520A800023ED
:101940000C30C1E901034B804B68194461600A8087
:1019500001224A8048608860002307A10848FFF7F9
:10196000E1FE2068A06010BD0146BDE8104005A062
:10197000FFF7FABC1C0000206865617000000000E1
:101980008C1200206D656D20696E69742C20657263
:10199000726F7220626567696E206164647265733C
:1019A0007320307825782C20616E6420656E642069
:1019B0006164647265737320307825780A000000D2
:1019C00010B50A4900230A4C4B80184604EBC002AC
:1019D000401C526012602028F8DB1F20087003486A
:1019E0004B600C308B604060006010BD64000020D4
:1019F000AC12002010B5074CA068FFF715F9064996
:101A0000401E51F8300014386060BDE810401C30B2
:101A1000FEF7BDBB64000020AC120020014840600E
:101A2000006070477C00002070472DE9FF47894621
:101A3000DDE90C76824601461D4690460120FFF7FF
:101A40006CFD041E0DD02846FFF7CCFC60B1039658
:101A50008DE8A10043464A4651462046FFF720F94B
:101A6000204604B0BDE8F0872046FFF77EFD002049
:101A7000F7E700F0C5B8000070B513480468FEF73A
:101A800051FB05462046FFF729FE042084F8340068
:101A900004F1440000F0B4F92046FFF7C3FD01282B
:101AA00001D1206F58B104F114010848FFF773FC0D
:101AB0002846FEF73BFBBDE87040FFF7BBBD204664
:101AC000FFF766FDF4E700006800002070000020CA
:101AD00000F002F8FCE7000070B527E0FEF722FBFB
:101AE0000546FFF7D3F858B318480168A1F114046C
:101AF000D1E900024260D1E900021060496009604A
:101B0000FFF742FA216F09B1204688472046FFF7C8
:101B100089FD01280FD0FFF745FA2846FEF706FB9E
:101B2000A06AFFF75BFA2046FFF71FFDFFF7AEF84C
:101B30000028D3D170BD2046FFF72AFDFFF732FA07
:101B40002846BDE87040FEF7F1BA000070000020A2
:101B50001FB5202308481F22D9008DE80F0000235D
:101B6000064A07A1783800F00FF804B00248BDE833
:101B70001040783800F064B80C110020D11A000829
:101B80007469646C650000002DE9FF5F92460EAA3F
:101B90000C4692E8E0010A46994683460121FFF788
:101BA00019FD8DE8E0014B46524621465846FFF7A5
:101BB00077F804B0BDE8F09F70B5044690F83400A3
:101BC00000F00F00022802D04FF0FF3070BDFEF78A
:101BD000A9FA054604F11400FFF7FBFB04F14400E9
:101BE00000F078F92846FEF7A1FA2046FFF74EFDEF
:101BF000002070BD014800687047000068000020A8
:101C0000F1B5FEF78FFA05460C480468204600F04F
:101C10002DF804F144006A460021064600F0D8F889
:101C2000304600F011F92846FEF780FAFFF702FD72
:101C3000206B801C00D120630020F8BD68000020CC
:101C400010B590F83610012280F835108A40022134
:101C5000826380F83410FFF7AFFF0348006808B1D3
:101C6000FFF7E8FC002010BD6800002070B50446B6
:101C700090F8340000F00F00012802D04FF0FF3040
:101C800070BDFEF74FFA054694F8340020F00F00BF
:101C9000801C84F834002046FFF720FD04F1440046
:101CA00000F018F92846FEF741FA002070BD10B583
:101CB00004466FF00100206304F11400FFF789FB74
:101CC0002046FFF7E3FCBDE81040FFF7B3BC00007F
:101CD00070B5FEF727FA06461348046894F83400F6
:101CE00000F00F00012819D1D4E90501884215D070
:101CF00004F114000546FFF76CFB94F835000B491E
:101D000001EBC00041680D60416869604560286072
:101D10003046FEF70BFAFFF78DFC02E03046FEF787
:101D200005FA002070BD000068000020AC12002001
:101D3000014800687047000014000020094810B5F1
:101D40000168491C0160FFF755FF016C491E0164E1
:101D500003D1C16B0164FFF7BBFFBDE8104000F089
:101D600003B80000140000202DE9F041FFF7E0FF68
:101D70000646FEF7D7F90746144D1EE060696FF07E
:101D80000041301A143C88421AD22046FEF7D6FF92
:101D9000D4E907108847FFF7CBFF0646607A810732
:101DA00008D5C10706D020F001006072204600F07F
:101DB0004BF802E020F0010060722C68AC42DDD1EB
:101DC0003846BDE8F041FEF7B1B900007C000020C4
:101DD00049B1012904D0022908D003290ED109E014
:101DE000406A10600AE01168416207E0417A21F020
:101DF000020102E0417A41F0020141720020704785
:101E000070B50546FEF78EF904462846FEF796FFA4
:101E10002046FEF78BF92846FFF7BAFB002070BD7D
:101E20002DE9F8439046DDE908450A461F46064677
:101E30000A21FFF7CFFB23463A464146304600953C
:101E4000FEF76EFFBDE8F883F8B50446FEF76AF9C1
:101E500005462046FEF772FF607A20F001006072AE
:101E60002846FEF763F9FFF763FF616A0844A06242
:101E7000FEF758F90546164A0020009202EBC00210
:101E8000694653686FF0004C5DF820200BE0126843
:101E9000A2EBC0067769A66AB74202D0BE1B6645B0
:101EA00003D341F820209A42F1D10948001F01686C
:101EB000491C016004F114010098FFF773FA607A7D
:101EC00040F0010060722846FEF730F90020F8BDAE
:101ED0007C00002070B50446407AC0070ED0FEF7A3
:101EE00021F905462046FEF729FF2846FEF71EF990
:101EF000607A20F001006072002070BD4FF0FF306A
:101F000070BD00002DE9FF4F8946044600EB09072C
:101F100083B080464FF0FF3A4FF0200BA74202D229
:101F20005746C8F1FF3907E1252803D0BC4200D24B
:101F3000207081E000260599491C059108782D281C
:101F400011D02B2812D0202813D0232814D03028C9
:101F500015D00A785546303A0A2A13D205A800F05F
:101F60002CF905461AE046F01006E4E746F00406B0
:101F7000E1E746F00806DEE746F02006DBE746F03C
:101F80000106D8E72A2809D10698491C059120C8DE
:101F90000690002D02DA6D4246F01006CDF800A042
:101FA000059801782E2918D1401C05900178A1F1DF
:101FB00030020A2A04D205A800F0FFF8009008E0D9
:101FC0002A2908D1401C0590069802C80690009165
:101FD0000846002801DA00200090059800210278C8
:101FE000682A01D06C2A02D1401C11460590007865
:101FF0000A236F287DD00CDC63281FD004DC252841
:102000007BD058280DD17EE0642801D0692808D102
:102010007DE070285ED073282CD0752879D0782880
:1020200073D0BC4201D2252020700598641C017831
:10203000D1B3BC4200D22170641C7AE0F00608D40F
:1020400058466D1E002D04DDBC4200D22070641C79
:10205000F7E70699BC4211F8040B069100D22070F4
:10206000584602E0BC4200D22070641C6D1E002D58
:10207000F8DC5EE0069808C8069003B93EA318464F
:10208000FFF72CFC0099002902DD884200DD08469C
:10209000F1060AD459462A466D1E824205DDBC422D
:1020A00000D22170641CF6E752E0002106E0BC4239
:1020B00001D21A782270491C5B1C641C8142F6DB39
:1020C0005A4629466D1E814233DDBC4200D2227041
:1020D000641CF6E7681C02D1082546F0010600984A
:1020E0000296CDE9005006981023394604C80690A0
:1020F0001BE006E001E00CE007E0BC429CD225209A
:1021000016E7082305E046F04006102301E046F0FC
:1021100002066C2901D068291DD0069804C80690D3
:1021200000983946CDE9005002962046FEF762FE3F
:1021300004460598401C05900598007800287FF417
:10214000F3AEB9F1000F11D0BC420DD220700DE0FA
:10215000401E0590EDE7069830F8041B06908AB201
:10216000B007DDD512B2DBE707F8010C07B0A4EB2E
:102170000800BDE8F08F0000284E554C4C290000A7
:1021800000207047002070470020704700207047F3
:1021900010B5FDF7C7FFFEF78BFFFFF747FBFFF713
:1021A0003DFCFFF70DFCFEF7BDFEFFF73DFCFFF722
:1021B000CFFCFFF71FFC002010BD10B5014600202A
:1021C0006FF02F0307E0541C0C60127800EB8000C6
:1021D00003EB400010440A681478303C0A2CF2D318
:1021E00010BD00000000000000000102030406070B
:1021F00008090000010002000100030001000200C4
:1022000001000400010002000100030001000200BF
:1022100001000500010002000100030001000200AE
:10222000010004000100020001000300010002009F
:10223000010006000100020001000300010002008D
:10224000010004000100020001000300010002007F
:10225000010005000100020001000300010002006E
:10226000010004000100020001000300010002005F
:10227000010007000100020001000300010002004C
:10228000010004000100020001000300010002003F
:10229000010005000100020001000300010002002E
:1022A000010004000100020001000300010002001F
:1022B000010006000100020001000300010002000D
:1022C00001000400010002000100030001000200FF
:1022D00001000500010002000100030001000200EE
:1022E00001000400010002000100030001000200DF
:1022F0000100303132333435363738396162636446
:10230000656600303132333435363738394142432F
:10231000444546008D2100088521000881210008E0
:1023200089210008442300080000002094000000D8
:102330006C0C0008D8230008940000201C17000033
:102340007C0C0008000000000100000010000000EC
:10235000000000000024F400000000000000000065
:10236000000000000000000000000000000000006D
:102370000000000000000000010000003800002004
:102380003800002078000000020000004800002013
:1023900048000020200000000A0000005800002033
:1023A000580000202C000000000000000000000089
:1023B000000000000000000000000000000000001D
:1023C000000000000000000000000000000000000D
:0823D000000000000000000005
:04000005080000ED02
:00000001FF
