:020000040800F2
:1000000008180020010100081B0E0008CB010008A1
:10001000190E00086B0200084D10000800000000D7
:100020000000000000000000000000001D0E00089D
:100030006D02000800000000530100081F0E0008B8
:100040001B0100081B0100081B0100081B01000820
:100050001B0100081B0100081B0100081B01000810
:100060001B0100081B0100081B0100081B01000800
:100070001B0100081B0100081B0100081B010008F0
:100080001B0100081B0100081B0100081B010008E0
:100090001B0100081B0100081B0100081B010008D0
:1000A0001B0100081B0100081B0100081B010008C0
:1000B0001B0100081B0100081B0100081B010008B0
:1000C0001B0100081B0100081B0100081B010008A0
:1000D0001B0100081B0100081B0100081B01000890
:1000E0001B0100081B0100081B010008DFF80CD0F1
:1000F00000F0A4F80048004761020008081800203A
:100100000648804706480047FEE7FEE7FEE7FEE7B1
:10011000FEE7FEE7FEE7FEE7FEE7FEE7E90E000882
:10012000ED000008EFF3108072B6704780F310887E
:100130007047334A1368012B04D04FF0010313605A
:10014000304A1060304A116030484FF080510160F1
:100150007047EFF3108272B62948016891B14FF0F1
:10016000000101602748016829B1EFF3098121E905
:10017000F00F00680160244909680968B1E8F00FD0
:1001800081F3098882F310884EF0040E70471E49EF
:1001900008601C494FF00000086019494FF0010049
:1001A00008601B484FF47F01D0F8002041EA0201AB
:1001B000016016484FF080510160164800680068E1
:1001C00080F3088861B662B670471EF0040F0CBF5A
:1001D000EFF30880EFF3098020E9F00F40F804ED19
:1001E0001EF0040F0CBF80F3088880F3098800B567
:1001F00001F0F4F95DF804EB4EF0040E70470000D6
:10020000A8000020A0000020A400002004ED00E0D1
:1002100020ED00E008ED00E0D2B201E000F8012B93
:10022000491EFBD270470022F6E710B513460A4676
:1002300004461946FFF7F0FF204610BD064C074D57
:1002400006E0E06840F0010394E8070098471034A6
:10025000AC42F6D3FFF74EFF742B0008942B000836
:1002600010B502F047FB002010BDFEE77047704755
:100270002DE9F84FDFF8B891002409F1040A0AF1DA
:10028000040B23460F270BF1040EC9E00125A540FE
:100290002A40AA427DD1674ED1F804C0ACEB0608D3
:1002A000B44532D014DCBCF1030F3AD009DCBCF108
:1002B000000F2AD0BCF1010F1CD0BCF1020F31D1CC
:1002C0001DE0BCF1110F17D0BCF1120F2AD119E0BB
:1002D000B8F5881F19D006DCB8F5803F15D0B8F501
:1002E000801F1FD111E0B8F5001F0ED0B8F5041F14
:1002F00018D10AE0CB6815E0CB681B1D12E0CB6873
:1003000008330FE0CB680C330CE08B682BB1012B6A
:100310004FF0080303D0456104E0042302E00561C7
:1003200000E00023FF2A01D8064601E000F10406A0
:100330004FEA840501D9A5F12005D6F8008007FA17
:1003400005FC28EA0C0803FA05F548EA0508C6F892
:1003500000804D68ED0062D5374DAE6946F001066C
:10036000AE61AD6924F0030605F001050095334D3B
:1003700006EB050CDCF80850A607360F07FA06F85E
:1003800025EA0805DFF8B880404503D14FF00008A2
:1003900017E044E0DFF8AC80404502D14FF001089F
:1003A0000FE0DFF8A480404502D14FF0020808E0DA
:1003B000DFF89880404502D14FF0030801E04FF08C
:1003C000040808FA06F848EA0508CCF808804D68E1
:1003D000D9F80060ED034D4601D5164300E0964381
:1003E0002E604D68DAF80060AD03554601D516431E
:1003F00000E096432E604D68DBF80060ED025D463C
:1004000001D5164300E096432E604D68DEF800608B
:10041000AD02754601D5164300E096432E60641C7C
:100420000D682A46E5407FF431AFBDE8F88F000043
:1004300000040140000011100010024000000140C3
:1004400000080140000C0140001001400014014070
:100450008068084000D0012070470AB101617047F0
:100460000904FBE701488068704700000C00002089
:10047000074810B5016841F010010160032000F049
:1004800067F8002000F006F800F024F8002010BD06
:100490000020024070B50D4D04464FF47A71287863
:1004A000B1FBF0F00A490968B1FBF0F000F0DEFAA8
:1004B00048B9102C07D200222146501E00F028F81F
:1004C00000206C6070BD012070BD00000C00002099
:1004D000180000200C4808B5816941F001018161D4
:1004E000816901F001010091C16941F08051C16150
:1004F000C06900F0805000900448416821F0E0613C
:1005000041F00071416008BD001002400000014050
:10051000F0B40E4B1B680C46C3F30223C3F107056E
:10052000042D00D90425191D072901D2002300E05C
:10053000DB1E012606FA05F1491E214099409E4026
:10054000761E16403143F0BC00F081BD0CED00E09A
:10055000064900F0070208684FF6FF03184040EA1A
:100560000220034A10430860704700000CED00E0D1
:100570000000FA052DE9F0470F46050061D0434E13
:10058000306800F00700B84209D2306820F0070058
:1005900038433060306800F00700B84251D1286815
:1005A0003B4C810712D5400703D5606840F4E060FA
:1005B00060602878000703D5606840F46050606090
:1005C0006068A96820F0F000084360602878C007E0
:1005D00028D06868012810D02168022810D0890727
:1005E00000292EDA616821F0030101436160FFF701
:1005F00039FF804641F288390DE021688903EFE731
:100600008901EDE7FFF72EFFA0EB0801494502D96C
:100610000320BDE8F0876068696800F00C00B0EB6B
:10062000810FEFD1306800F00700B8420BD9306875
:1006300020F0070038433060306800F00700B8420F
:1006400001D00120E5E72878400705D56068E96812
:1006500020F4E060084360602878000706D56068F1
:10066000296920F4605040EAC100606000F038F869
:100670006168084AC1F30311515CC840064908602B
:1006800006480068FFF706FF0020C2E7002002408E
:1006900000100240E429000818000020100000208B
:1006A0000448054900684968044AC1F30221515CC5
:1006B000C84070471800002000100240F4290008CC
:1006C0000448054900684968044AC1F3C221515CE5
:1006D000C84070471800002000100240F4290008AC
:1006E00012A185B00FC98DE80F0014A0144A00684C
:1006F00004905168134801F00C03042B10D0082B10
:100700000ED1C1F38343C9031DF803000AD5516814
:1007100004AAC1F34041515C0A4A5043B0FBF1F0D6
:1007200005B0704708494843FAE700000203040592
:10073000060708090A0B0C0D0E0F1010010200002D
:100740000010024000127A0000093D002DE9F84F28
:10075000040070D02078C04DC00749D06868C0F34D
:100760008100012807D06868C0F38100022809D100
:100770006868C00306D52868800339D560680028FA
:10078000E7D035E06068B0F5803F0BD010B1B0F530
:10079000A02F11D0286820F480302860286820F429
:1007A000802002E0286840F480302860606890B1C2
:1007B000FFF758FE06460AE0286840F480202860CB
:1007C000F0E700BFFFF74EFE801B642873D828684F
:1007D0008003F7D50CE0FFF745FE064605E000BFB5
:1007E000FFF740FE801B6428F0D828688003F7D408
:1007F00020789A4E80074FF001094FF0000839D554
:10080000686810F00C0F07D06868C0F381000228F8
:1008100009D16868C00306D42868800714D5206908
:10082000012808D110E02069B0B1C6F80090FFF7A8
:1008300019FE074605E00AE1FFF714FEC01B022877
:10084000C4D828688007F7D52868616920F0F800C7
:1008500040EAC10028600DE0C6F80080FFF702FE04
:10086000074604E0FFF7FEFDC01B022823D82868D6
:100870008007F7D4207800072CD57948A169D9B131
:10088000C0F80090FFF7EEFD074604E0FFF7EAFD31
:10089000C01B02280FD8686A8007F7D571484FF44B
:1008A000FA510068B0FBF1F0009000BF0098411EC3
:1008B0000091FAD20EE080E0C0F80080FFF7D2FD90
:1008C000074604E0FFF7CEFDC01B022875D8686A12
:1008D0008007F7D42078400760D5E8690027C0007A
:1008E00008D4E86940F08050E861E869012700F029
:1008F000805000905C480168C90513D401688346A4
:1009000041F480710160FFF7ADFD824606E000BF53
:10091000FFF7A8FDA0EB0A0064284ED8DBF8000022
:10092000C005F5D5E06801280AD008B1052813D024
:10093000286A20F001002862286A20F0040002E002
:10094000286A40F001002862E06841F2883B98B1D3
:10095000FFF788FD82460BE0286A40F00400286219
:10096000EEE700BFFFF77EFDA0EB0A0159455AD81C
:10097000286A8007F6D50CE0FFF774FD824605E093
:10098000FFF770FDA0EB0A0159454CD8286A800793
:10099000F6D41FB1E86920F08050E861E06988B3BF
:1009A0006968C1F38101022944D00228C6F8608039
:1009B00004D0FFF757FD044638E034E0FFF752FD5E
:1009C000074604E0FFF74EFDC01B02282BD828681D
:1009D0008001F7D4206AB0F5803F05D16868A1682E
:1009E00020F4003008436860D4E9080108436968CE
:1009F00021F4741108436860C6F86090FFF732FD77
:100A0000044606E025E000BFFFF72CFD001B02288E
:100A100009D828688001F7D51BE000BFFFF722FD49
:100A2000001B022802D90320BDE8F88F2868800146
:100A3000F4D40EE00128F7D06868226A00F480310F
:100A4000914204D1616A00F47010884201D0012003
:100A5000EAE70020E8E70000001002400000424200
:100A600080044242180000200070004010B5401E73
:100A7000B0F1807F01D3012010BD4FF0E024606110
:100A80000F21601700F0E3FA0020A0610720206129
:100A9000002010BD70B5040004D094F83900002582
:100AA00010B106E0012070BD84F83850204600F0F7
:100AB00023F8242084F839002068C16821F400510B
:100AC000C160204600F034FA2068016921F49041A9
:100AD00001612068416921F02A0141612068C168F3
:100AE00041F40051C160E563202084F8390084F8A6
:100AF0003A00002070BD000030B585B0002400949D
:100B000001940294039400681449884224D1144843
:100B1000816941F480418161816901F480410491DE
:100B2000816941F00401816180690E4D00F004008B
:100B300004904FF400700090022001900320039075
:100B400069462846FFF794FB2815CDE9000469465D
:100B500028460294FFF78CFB05B030BD00380140F9
:100B600000100240000801402DE9F843044690F8C7
:100B700039001F4616460D46202850D1A5B19EB11A
:100B800094F8380001284AD0012084F838004FF04A
:100B90000008C4F83C80212084F83900FFF762FC8B
:100BA000A6848146E68426E00120BDE8F883E08C37
:100BB000401EE084A0684B46B0F5805F4FF0000215
:100BC0004FF080012046009703D000F00DFAE8B9FD
:100BD0000DE000F009FAC8B928882168C0F30800C0
:100BE0004860206908B16D1C05E0AD1C03E0216878
:100BF00015F8010B4860E08C0028D8D14B46002244
:100C000040212046009700F0EFF908B10320CCE71F
:100C1000202084F8390084F838800020C5E70220BD
:100C2000C3E7000070B586B0002421480094019409
:100C300002940394816941F010018161816901F09E
:100C400010010491816941F020018161816901F005
:100C500020010491816941F008018161816901F0FD
:100C600008010491816941F0040181618069114E9C
:100C700000F004004FF4005504900022294630464D
:100C8000FFF7EBFB01200095CDE901040224694642
:100C900030460394FFF7ECFA4FF4405000900648BA
:100CA000CDE9010469460548FFF7E2FA06B070BDD8
:100CB000001002400010014000001110000C014023
:100CC0002DE9FC411CA000F0FBFD27A000F0F8FD81
:100CD0002F4800F0F5FD0023142228212DA000F05C
:100CE000EEFE2E4CA06010B12DA000F0E9FD142501
:100CF0000320CDE900054FF4007633460022324947
:100D000032A001F044FA4FF0FF37206080B101F0CB
:100D100049FB0220CDE90005334600222D492EA0D3
:100D200001F035FA606018B1BDE8FC4101F03ABB52
:100D30003846BDE8FC81000054686973206973205F
:100D4000616E2052545420746872656164206D6134
:100D50006E6167656D656E74206578706572696D2A
:100D6000656E74210A0000005072657373204B3168
:100D7000206F72204B3220746F2073656E64206187
:100D8000207175657565206D6573736167650A000F
:100D9000202B0008746573745F6D710000000020E3
:100DA0004D65737361676520717565756520637244
:100DB0006561746564207375636365737366756CD0
:100DC0006C79210A0A00000041130008726563650E
:100DD000697665002129000873656E6400000000D3
:100DE0000C4810B50A4901604FF4E131416000211F
:100DF00081600C22C160C0E904128161C161FFF70A
:100E000049FE002803D0BDE81040FFF730BA10BDFE
:100E100000380140AC000020FEE77047704710B575
:100E200000F0F2FC01F03CFBBDE8104000F0FABC21
:100E300030B58FB028216846FFF7F5F914210AA8CC
:100E4000FFF7F1F901210804CDE900100024029414
:100E500002250491CDE907504FF4E010099068464F
:100E6000FFF774FC0F20CDE90A056802CDE90C40BC
:100E700002210AA80E94FFF77DFB0FB030BD0000E1
:100E8000144910B54868144A10F00C03134803D0F5
:100E9000042B01D0082B09D002604968104AC1F325
:100EA0000311515C0268CA40026010BD4A684B6879
:100EB00002F470124FF0020413F4803F04EB9242EC
:100EC00002D04B689B0301D5064B00E0024B5A430E
:100ED000E2E700000010024000127A001800002033
:100EE000E429000800093D000D48016841F00101B6
:100EF000016041680B4A1140416001680A4A114093
:100F00000160016821F480210160416821F4FE0143
:100F100041604FF41F0181600449C00308607047BD
:100F2000001002400000FFF8FFFFF6FE08ED00E0B1
:100F30002DE9F041044600680169E26821F440515E
:100F4000114301612169A068084361690843216870
:100F5000CA6841F20C639A430243CA60206841693F
:100F6000A26921F44071114341611E492068642542
:100F70003226884202D1FFF7A3FB01E0FFF790FB86
:100F800000EBC00101EB001160686FF018078000F2
:100F9000B1FBF0F2B2FBF5F2B1FBF0F37A4303EBF5
:100FA0008202B1FBF0F306EB0212B2FBF5F2B3FBE7
:100FB000F5F302F0F00202EB0312B1FBF0F3B1FB28
:100FC000F0F0B0FBF5F0784303EB800006EB001087
:100FD000B0FBF5F0216800F00F0010448860BDE818
:100FE000F0810000003801402DE9F0419846174695
:100FF0000E460446069D1DE0681C1BD02DB1FFF770
:1010000031FAA0EB0800A84214D92068C16821F485
:10101000D071C1602068416921F001014161202047
:1010200084F8390084F83A00002084F8380003205E
:10103000BDE8F0812068006836EA000004D0002096
:10104000B842D9D00020F3E70120F9E7FEE709070D
:10105000090E002804DB00F1E02080F8001470473E
:1010600000F00F0000F1E02080F8141D7047000030
:10107000002806D00E4910F0FF0F03D0C0B2085C64
:10108000401C704710F47F4F04D0C0F30720085C69
:101090000930704710F47F0F04D0C0F30740085C9C
:1010A0001130704701EB1060007819307047000074
:1010B000FC29000802E008C8121F08C1002AFAD162
:1010C00070477047002001E001C1121F002AFBD1C8
:1010D0007047000003480168814201D00120704739
:1010E00000207047880000202DE9FC411F4604467F
:1010F000DDE90831DDE90A65143040600060C4E9CB
:101100000827C4E90A310A46232118461C3400F096
:10111000B3FCD4E903014218D4E90101104B121FBA
:1011200000F056FB44F81A0B002004F801690D4A40
:1011300004F8036BE4E8020544F8105901C404F80C
:101140003C0B01C444F874090090234601901946F1
:1011500004F1440001F016FA0020BDE8FC81000013
:10116000DD2100081324000810B5029C24F00104BE
:101170004472C0E907120021C0E90931143040600F
:10118000006010BDF0E905124A60D0E9001211605C
:10119000406000607047FFF76BF9FFF749FEFFF70B
:1011A00041FDFFF71DFEFFF78BFDFEE710B500F0D8
:1011B0002BF9BDE81040FFF7EEBF000030B5134932
:1011C00043680A68134402F1080498420DD05D8810
:1011D0005DB94D68AB4208D08D689D4200D18860F2
:1011E0005D6845605B68851A1D51836813448342BE
:1011F0000BD05D88002D08D18D68854200D18B60B1
:10120000416859604068991A015130BD240000209E
:101210002DE9F04F85B09946DDE90EA5109CAB464F
:10122000630602D5DFF814C103E0DFF810C1ACF1AA
:10123000110CE30601D524F00104E30701D03023AB
:1012400000E0202300260493A3070BD5002A02DA2E
:101250002D26524206E0630701D52B2602E0230724
:1012600000D520260023EE4622B930228DF800203A
:1012700001230CE0B9F10A0F14D002F00F08120993
:101280001CF808800EF803805B1C002AF2D1AB42E8
:1012900000DD1D46AAEB050214F0110F4FF02007E8
:1012A00008D015E00A27B2FBF7F807FB1828B2FBB5
:1012B000F7F2E5E73EB1002A05DD521E03E0884261
:1012C00000D20770401CB2F1000CA2F10102F6DC62
:1012D00026B1884200D20670401C521EE40605D595
:1012E00008E0884201D2049C0470401C141EA2F144
:1012F0000102F6DC30242E466D1E9E420ADD884235
:1013000000D20470401CF6E7884201D2E55C05700B
:10131000401C00E074461D1EA3F1010307DDBBF174
:10132000000FF1D103E0884200D20770401C131E69
:10133000A2F10102F7DC05B0BDE8F08F0D2B00082B
:1013400008B50B4C4FF0FF352B4604226946A068C8
:1013500000F0FAFB010007D006A000BF00F0B0FAD1
:10136000C82000F038FFEFE70CA00099F6E7000076
:1013700000000020446174612072656365697669CC
:101380006E67206572726F722C206572726F7220A8
:10139000636F64653A3078256C780A00546865207C
:1013A0006461746120726563656976656420746840
:1013B00069732074696D65206172653A25640A005D
:1013C0001CB514210A20CDE900014FF480630022EE
:1013D000034904A000F0DBFEBDE81C4000F0E2BFC2
:1013E000AD1100086D61696E0000000070B5044C1D
:1013F000044D02E020688047241DAC42FAD370BD42
:10140000682B00086C2B000870B5044C044D02E0FA
:1014100020688047241DAC42FAD370BD6C2B0008B5
:10142000702B000810B5FEF77DFE044A5188491C58
:101430005180BDE81040FEF779BE00007C0000201E
:1014400010B5FEF76FFE0B4C6188491E09B2618032
:1014500000290ADC00216180FEF768FE6068002830
:1014600007D0BDE8104000F0B7BCBDE81040FEF763
:101470005DBE10BD7C00002070B5002833D01A4D31
:10148000296888422FD3696888422CD2A0F10C04C5
:101490004FF0FF31154800F044FD60884FF4F556D9
:1014A00010B12088B04208D011A000F009FA2388BA
:1014B0006288214615A000F003FA00206080268093
:1014C000A868844200D2AC6029686068611A401A3A
:1014D0002969081A28612046FFF770FEBDE87040B0
:1014E000024800F003BD70BD24000020E41200207B
:1014F000746F20667265652061206261642064619A
:10150000746120626C6F636B3A0A00006D656D3A1E
:10151000203078253038782C207573656420666C0F
:1015200061673A2025642C206D6167696320636FD1
:1015300064653A203078253034780A0000487047D6
:10154000EC00002000487047EC10002010B5FFF7B9
:1015500097FC10484FF47A710068B0FBF1F0401E20
:10156000B0F1807F09D24FF0E0210B4A4861FF20A3
:1015700010700020886107200861FFF737FFFFF730
:10158000E1FF0446FFF7DAFF2146BDE8104000F016
:1015900073BD00001800002023ED00E070B5044684
:1015A000FFF740FF4FF47A750EE00A2805D12B466D
:1015B00001220D210848FFF7D7FA2146641C2B466B
:1015C00001220548FFF7D0FA20780028EDD1BDE8C8
:1015D0007040FFF735BF0000AC00002070B5054635
:1015E000041D2B48016819B12846884700284DD0B2
:1015F00028A0E16B00F064F92AA0216A00F060F9EC
:101600002CA0616A00F05CF92EA0A16A00F058F9E4
:1016100030A0E16A00F054F932A0216800F050F9DE
:1016200034A0616800F04CF936A0A16800F048F9D8
:1016300038A0E16800F044F93AA0216900F040F9CF
:101640003CA0616900F03CF93EA0A16900F038F9C6
:1016500040A0E16900F034F942A0216B00F030F9BC
:1016600044A0616B00F02CF946A0A16B00F028F9B2
:101670002878400706D500F06FFE014645A000F02F
:101680001FF902E04BA000F01BF9FEE770BD00005F
:101690009C0000207073723A203078253038780A28
:1016A000000000007230303A203078253038780A57
:1016B000000000007230313A203078253038780A46
:1016C000000000007230323A203078253038780A35
:1016D000000000007230333A203078253038780A24
:1016E000000000007230343A203078253038780A13
:1016F000000000007230353A203078253038780A02
:10170000000000007230363A203078253038780AF0
:10171000000000007230373A203078253038780ADF
:10172000000000007230383A203078253038780ACE
:10173000000000007230393A203078253038780ABD
:10174000000000007231303A203078253038780AB5
:10175000000000007231313A203078253038780AA4
:10176000000000007231323A203078253038780A93
:1017700000000000206C723A203078253038780A5A
:10178000000000002070633A203078253038780A55
:101790000000000068617264206661756C74206FDF
:1017A0006E207468726561643A2025730D0A0D0A13
:1017B0000000000068617264206661756C74206FBF
:1017C0006E2068616E646C65720D0A0D0A0000007F
:1017D00070B50446121D22F007000022094D403862
:1017E00040F82250521C102AFAD3016200214162B3
:1017F00081624FF0807200F13005C263C16285E8FA
:101800001A0070BDEFBEADDE10B5FEF78BFC044ACA
:101810001178491C1170BDE81040FEF787BC00002C
:101820002000002010B5FEF77DFC044A1178491E07
:101830001170BDE81040FEF779BC000020000020C8
:1018400070B504464FF0FF360BE000BFFEF76AFCB0
:1018500005462068C661143800F060FD2846FEF792
:1018600065FC2068A042F1D1002070BD2DE9F04157
:10187000064614460D46084600F0AAFD05F1140779
:10188000B4B1012C18D134680EE000BF95F83510C2
:1018900094F82120A4F11400914204D23946143066
:1018A00000F033F802E02468B442EFD1B44203D12F
:1018B0003946304600F029F80020BDE8F0810000EC
:1018C0000FB47F2110B503AB0448029A00F0CCFEA0
:1018D0000248FFF763FE10BC5DF814FB64120020A1
:1018E0000268516002680A600160486070470268DF
:1018F000516002680A600160486070470268516088
:1019000002680A600160486070474268116042687E
:101910004A60416008607047D0E900124A60D0E92F
:1019200000121160406000607047D0E900124A6008
:10193000D0E9001211604060006070472DE9F04767
:10194000002807D0374CC01C20F00306E068864210
:1019500002D90020BDE8F0870C2E00D20C264FF0F3
:10196000FF31314800F0DDFAD4F808C02168E7689B
:10197000ACEB0100BA1B4FE00D186B88E3BB6B6842
:101980001B1A0C3BB34246D36A6806F11803121ABD
:101990000C3A4FF001094FF4F55A9A422DD38319AE
:1019A0000C33CA184FF00008A2F800A0A2F8028079
:1019B000D5F80480C2E901806B60A5F802905068F8
:1019C0000C37B84202D001F108028350206930443C
:1019D0000C3020616269824200D26061A5F800A0EB
:1019E000654512D1A06842887AB1626890420CD0F5
:1019F00040680844A060F6E70DE0A5F8029068682A
:101A00006A1A801A22691044E3E7074800F06EFA68
:101A100005F10C009EE768688242ADD8024800F0EC
:101A200065FA96E724000020E412002010B5034672
:101A3000102A1DD341EA0304A40719D110C9103A92
:101A400010C310C9102A10C351F8084B43F8084BB3
:101A500051F8044C43F8044CF0D202E010C9121FB4
:101A600010C3042AFAD203E011F8014B03F8014B2A
:101A7000521EF9D210BD000010B50346CCB2042AA4
:101A80001AD3810718D1194644EA042343EA0343D1
:101A900006E008C1103A08C141F8083B41F8043C8F
:101AA000102AF6D201E008C1121F042AFBD20B460D
:101AB00002E000BF03F8014B521EFBD210BD2DE91E
:101AC000F0410D4601461F461646062000F0F7F885
:101AD00004001BD0677204F11400A06160614FF62E
:101AE000FC70ED1C0540B1B22584281D618448437B
:101AF000FFF724FFE06128B10021A162E1620846FE
:101B000021630EE0204600F012F80020BDE8F081CD
:101B1000228CE369121D00FB0232236B1360401C10
:101B20002263628C8242F3DCA1842046EEE710B58A
:101B300004461430FFF784FEE069FFF79DFC204661
:101B400000F0E5F8002010BD2DE9FF5F16460446C1
:101B50004FF0000A00F000FC0546FEF7E3FA0746E6
:101B6000A08C03996FF0010908434FF000083BD1A6
:101B70003846FEF7DBFA484604B0BDE8F09F00BFE8
:101B8000C5F830800398002851D0627A294604F1C4
:101B90001400FFF76BFE039800280CDD00F07AFCC0
:101BA000824605F1440003AA0021834600F0C2FCEE
:101BB000584600F0FBFC3846FEF7B8FA00F00CF986
:101BC000286B0028D8D1FEF7ADFA07460398002805
:101BD0000ADD00F05FFCA0EB0A0A0398B0EB0A00F4
:101BE000039001D5CDF80C80A08C0028C8D0A56A40
:101BF0002868A062E06AA84201D1C4F82C80A08CB9
:101C0000401EA0843846FEF791FA208CB04200D2E4
:101C100006463246291D0198FFF708FFFEF782FAB3
:101C2000216B29602563FEF781FA0020A4E738467E
:101C3000FEF77CFA4846C5F830909DE72DE9F04163
:101C40000446008C16460F46B04203D24FF0FF30D8
:101C5000BDE8F081FEF766FA256BA5B1296821631E
:101C6000FEF764FA0020286032463946281DFFF747
:101C7000DDFEFEF757FA0646E06A00B10560E56250
:101C8000A06A28B105E0FEF751FA6FF00200DFE725
:101C9000A56234F8240F401C24F810092068A042E3
:101CA00008D0143800F03AFB3046FEF73FFA00F057
:101CB00093F802E03046FEF739FA0020C8E72DE934
:101CC000F0410F46064600F045F80546C068FFF7AC
:101CD00035FE040019D00021EA68FFF7CDFE267218
:101CE0000020607208223946204600F0B1F9FEF764
:101CF00019FA064604F10C01281DFFF7F1FD3046E4
:101D0000FEF714FA2046BDE8F0810020FBE770B52D
:101D1000044600202072FEF705FA054604F10C0087
:101D2000FFF7FAFD2846FEF701FA2046BDE87040AD
:101D3000FFF7A2BB70B5044600202072FEF7F2F94F
:101D4000054604F10C00FFF7E7FD2846BDE87040AA
:101D5000FEF7ECB9074A002102EB01131B7883421E
:101D600002D102EB01107047491C0429F4DB00206A
:101D7000704700003C0000202DE9F0410446164663
:101D80000D460846FFF7E6FF0746FFF74BFB381DF9
:101D9000796800E009688142FCD1FFF751FB45F00A
:101DA0008000207208223146204600F051F9FEF7EB
:101DB000B9F9054604F10C01381DFFF791FD2846DD
:101DC000BDE8F041FEF7B2B9007A000601D5012066
:101DD000704700207047000070B5FEF7A3F9114C62
:101DE00005466088B0B9A068FFF742F90E49401E69
:101DF000626851F83010143991420BD020700B48B2
:101E00006160007801F11C01002802F11C0006D07D
:101E1000FEF78FF92846BDE87040FEF787B9FEF758
:101E200088F9F7E77C000020041300202000002040
:101E300010B50446FEF776F9024694F834000E49D0
:101E400020F00F00401C84F8340094F8350001EBBA
:101E5000C00104F114004B6818604B68A36148602E
:101E600006486161A16B836819438160BDE8104039
:101E70001046FEF75BB90000041300207C00002030
:101E800010B50446FEF74EF904F11401D1E9002320
:101E90005360D1E900231A60A161616194F8352093
:101EA000074951F8323001EBC2018B4204D1054998
:101EB000A36B8A689A438A60BDE81040FEF736B982
:101EC000041300207C0000202DE9F04116460A464C
:101ED0001F4605460221FFF74FFF05F11404AC61D0
:101EE0006C61AE836F720020BDE8F08170B504466E
:101EF000FEF718F90546606904F11401884208D01C
:101F0000143800F00BFA2846FEF710F9FFF764FFCB
:101F100005E0A08B401CA0832846FEF707F90020AF
:101F200070BD73B50546FEF7FDF80646A88B28B1CF
:101F3000401EA8833046FEF7F9F821E0019808B367
:101F400000F00AFA0446002020636A7A214605F16F
:101F50001400FFF78BFC0198002809DD04F1440010
:101F600001AA0021054600F0E5FA284600F01EFB14
:101F70003046FEF7DBF8FFF72FFF206B002800D17B
:101F800000207CBD3046FEF7D1F86FF001007CBD2B
:101F900008B509A0FFF794FC0AA0FFF791FC12A076
:101FA000032300900122194612A0FFF789FCBDE827
:101FB000084018A0FFF784BC0A205C207C202F0A70
:101FC000000000002D205254202D202020202054DD
:101FD0006872656164204F7065726174696E672014
:101FE00053797374656D0A004A756C20323920325A
:101FF00030323000202F207C205C20202020202523
:10200000642E25642E2564206275696C6420257316
:102010000A0000002032303036202D203230313995
:1020200020436F70797269676874206279207274D6
:102030002D746872656164207465616D0A0000002A
:10204000014600E0491C0A78002AFBD1081A7047B3
:1020500010B5002A07D0034611F8014B03F8014BD5
:102060002CB1521EF8D110BD03F8011B00E0002175
:10207000521EF9D110BD00000A46C11C10B522F055
:10208000030321F00301182B20D9A3F118048C427B
:102090001CD3114C581A18382160E0604FF4F552E7
:1020A0000A8000230C30C1E901034B804B681944BE
:1020B00061600A8001224A8048608860002307A18D
:1020C0000848FFF701FF2068A06010BD0146BDE889
:1020D000104005A0FFF7F4BB240000206865617084
:1020E00000000000E41200206D656D20696E6974C7
:1020F0002C206572726F7220626567696E20616460
:10210000647265737320307825782C20616E6420AA
:10211000656E64206164647265737320307825781D
:102120000A00000010B50A4900230A4C4B801846EB
:1021300004EBC002401C526012602028F8DB1F2014
:10214000087003484B600C308B604060006010BD2D
:102150007C0000200413002010B5074CA068FEF797
:1021600087FF0649401E51F8300014386060BDE812
:1021700010401C30FEF70BB87C0000200413002038
:1021800001484060006070479400002070472DE9CE
:10219000FF478946DDE90C76824601461D4690469A
:1021A0000120FFF78CFD041E0DD02846FFF7C6FB6B
:1021B00060B103968DE8A10043464A465146204649
:1021C000FEF792FF204604B0BDE8F0872046FFF7F7
:1021D0009EFD0020F7E700F0C5B8000070B5134879
:1021E0000468FDF79FFF05462046FFF749FE0420DF
:1021F00084F8340004F1440000F0B4F92046FFF7FD
:10220000E3FD012801D1206F58B104F11401084801
:10221000FFF76DFB2846FDF789FFBDE87040FFF72B
:10222000DBBD2046FFF786FDF4E7000080000020BC
:102230008800002000F002F8FCE7000070B527E0FD
:10224000FDF770FF0546FEF745FF58B318480168D3
:10225000A1F11404D1E900024260D1E9000210604A
:1022600049600960FFF7DEF8216F09B12046884711
:102270002046FFF7A9FD01280FD0FFF7E1F8284617
:10228000FDF754FFA06AFFF7F7F82046FFF73FFD80
:10229000FEF720FF0028D3D170BD2046FFF74AFD8E
:1022A000FFF7CEF82846BDE87040FDF73FBF0000BD
:1022B000880000201FB5202308481F22D9008DE880
:1022C0000F000023064A07A1783800F00FF804B089
:1022D0000248BDE81040783800F064B8641100206E
:1022E000352200087469646C650000002DE9FF5F09
:1022F00092460EAA0C4692E8E0010A4699468346A9
:102300000121FFF739FD8DE8E0014B465246214699
:102310005846FEF7E9FE04B0BDE8F09F70B50446EC
:1023200090F8340000F00F00022802D04FF0FF3088
:1023300070BDFDF7F7FE054604F11400FFF7F5FA4E
:1023400004F1440000F078F92846FDF7EFFE20463E
:10235000FFF76EFD002070BD014800687047000067
:1023600080000020F1B5FDF7DDFE05460C4804684D
:10237000204600F02DF804F144006A46002106468C
:1023800000F0D8F8304600F011F92846FDF7CEFEEF
:10239000FFF722FD206B801C00D120630020F8BDD8
:1023A0008000002010B590F83610012280F835101A
:1023B0008A400221826380F83410FFF7AFFF0348A0
:1023C000006808B1FFF708FD002010BD8000002064
:1023D00070B5044690F8340000F00F00012802D0D8
:1023E0004FF0FF3070BDFDF79DFE054694F83400B8
:1023F00020F00F00801C84F834002046FFF740FDD9
:1024000004F1440000F018F92846FDF78FFE002083
:1024100070BD10B504466FF00100206304F1140094
:10242000FFF783FA2046FFF703FDBDE81040FFF7F2
:10243000D3BC000070B5FDF775FE0646134804686E
:1024400094F8340000F00F00012819D1D4E90501F7
:10245000884215D004F114000546FFF766FA94F897
:1024600035000B4901EBC00041680D6041686960AF
:10247000456028603046FDF759FEFFF7ADFC02E0ED
:102480003046FDF753FE002070BD000080000020A4
:102490000413002001480068704700001C00002061
:1024A000094810B50168491C0160FFF755FF016C30
:1024B000491E016403D1C16B0164FFF7BBFFBDE896
:1024C000104000F003B800001C0000202DE9F0418E
:1024D000FFF7E0FF0646FDF725FE0746144D1EE018
:1024E00060696FF00041301A143C88421AD22046CD
:1024F000FEF748FED4E907108847FFF7CBFF0646F2
:10250000607A810708D5C10706D020F0010060720B
:10251000204600F04BF802E020F0010060722C68C9
:10252000AC42DDD13846BDE8F041FDF7FFBD00000B
:102530009400002049B1012904D0022908D00329C0
:102540000ED109E0406A10600AE01168416207E0BC
:10255000417A21F0020102E0417A41F00201417228
:102560000020704770B50546FDF7DCFD044628469F
:10257000FEF708FE2046FDF7D9FD2846FFF7DAFBF7
:10258000002070BD2DE9F8439046DDE908450A4674
:102590001F4606460A21FFF7EFFB23463A4641460F
:1025A00030460095FEF7E0FDBDE8F883F8B5044637
:1025B000FDF7B8FD05462046FEF7E4FD607A20F001
:1025C000010060722846FDF7B1FDFFF763FF616A05
:1025D0000844A062FDF7A6FD0546164A00200092B9
:1025E00002EBC002694653686FF0004C5DF8202092
:1025F0000BE01268A2EBC0067769A66AB74202D068
:10260000BE1B664503D341F820209A42F1D1094808
:10261000001F0168491C016004F114010098FFF7D4
:102620006DF9607A40F0010060722846FDF77EFD8A
:102630000020F8BD9400002070B50446407AC00721
:102640000ED0FDF76FFD05462046FEF79BFD2846A0
:10265000FDF76CFD607A20F001006072002070BD13
:102660004FF0FF3070BD00002DE9FF4F8946044652
:1026700000EB090783B080464FF0FF3A4FF0200B84
:10268000A74202D25746C8F1FF3907E1252803D0F7
:10269000BC4200D2207081E000260599491C0591BA
:1026A00008782D2811D02B2812D0202813D02328C9
:1026B00014D0302815D00A785546303A0A2A13D259
:1026C00005A800F07BF905461AE046F01006E4E79D
:1026D00046F00406E1E746F00806DEE746F020068D
:1026E000DBE746F00106D8E72A2809D10698491CFD
:1026F000059120C80690002D02DA6D4246F01006C2
:10270000CDF800A0059801782E2918D1401C05901D
:102710000178A1F130020A2A04D205A800F04EF98E
:10272000009008E02A2908D1401C0590069802C8AC
:10273000069000910846002801DA002000900598D4
:1027400000210278682A01D06C2A02D1401C11466F
:10275000059000780A236F287DD00CDC63281FD0F9
:1027600004DC25287BD058280DD17EE0642801D0D8
:10277000692808D17DE070285ED073282CD0752898
:1027800079D0782873D0BC4201D2252020700598DA
:10279000641C0178D1B3BC4200D22170641C7AE081
:1027A000F00608D458466D1E002D04DDBC4200D250
:1027B0002070641CF7E70699BC4211F8040B0691DF
:1027C00000D22070584602E0BC4200D22070641C47
:1027D0006D1E002DF8DC5EE0069808C8069003B96F
:1027E0003EA31846FFF72CFC0099002902DD884221
:1027F00000DD0846F1060AD459462A466D1E82427B
:1028000005DDBC4200D22170641CF6E752E00021D5
:1028100006E0BC4201D21A782270491C5B1C641C81
:102820008142F6DB5A4629466D1E814233DDBC42A9
:1028300000D22270641CF6E7681C02D1082546F01D
:10284000010600980296CDE90050069810233946FB
:1028500004C806901BE006E001E00CE007E0BC4283
:102860009CD2252016E7082305E046F040061023F9
:1028700001E046F002066C2901D068291DD00698B7
:1028800004C8069000983946CDE9005002962046CB
:10289000FEF7BEFC04460598401C0590059800789C
:1028A00000287FF4F3AEB9F1000F11D0BC420DD275
:1028B00020700DE0401E0590EDE7069830F8041BEF
:1028C00006908AB2B007DDD512B2DBE707F8010C3B
:1028D00007B0A4EB0800BDE8F08F0000284E554C6F
:1028E0004C290000002070470020704700207047EE
:1028F0000020704710B5FDF715FCFEF727FEFFF727
:1029000047FBFFF73DFCFFF70DFCFEF759FDFFF716
:102910003DFCFFF7CFFCFFF71FFC002010BD0000BF
:102920001CB50120009002200603144C144DC70270
:10293000019031462046FDF78BFD012809D1042284
:102940006946A868FFF77AF9010002D00DA0FEF7EA
:10295000B7FF39462046FDF77BFD012809D1042247
:1029600001A9A868FFF76AF9010002D005A0FEF7E7
:10297000A7FF1420FFF72FFCDBE70000000C01404D
:1029800000000020446174612063616E6E6F7420EA
:1029900062652073656E7420746F206D657373615A
:1029A000676520717565756521204572726F7220AB
:1029B000636F64653A256C780A00000010B5014623
:1029C00000206FF02F0307E0541C0C60127800EB1E
:1029D000800003EB400010440A681478303C0A2C55
:1029E000F2D310BD0000000000000000010203044B
:1029F00006070809000000000102030400000100AE
:102A000002000100030001000200010004000100B7
:102A100002000100030001000200010005000100A6
:102A20000200010003000100020001000400010097
:102A30000200010003000100020001000600010085
:102A40000200010003000100020001000400010077
:102A50000200010003000100020001000500010066
:102A60000200010003000100020001000400010057
:102A70000200010003000100020001000700010044
:102A80000200010003000100020001000400010037
:102A90000200010003000100020001000500010026
:102AA0000200010003000100020001000400010017
:102AB0000200010003000100020001000600010005
:102AC00002000100030001000200010004000100F7
:102AD00002000100030001000200010005000100E6
:102AE00002000100030001000200010004000100D7
:102AF0000200010003000100020001003031323306
:102B00003435363738396162636465660030313296
:102B100033343536373839414243444546000000A6
:102B200054686520746872656164207265636569C4
:102B300076657320746865206D65737361676520C1
:102B4000616E64206563686F657320697420696EC7
:102B5000207468652073657269616C20706F72748F
:102B60000A000000F1280008E9280008E52800080C
:102B7000ED280008942B000800000020AC000000A5
:102B8000B4100008402C0008AC0000205C170000C6
:102B9000C410000800000000000000000000000059
:102BA0000100000010000000000000000024F400FC
:102BB0000000000000000000000000000000000015
:102BC0000000000000000000000000000000000005
:102BD00001000000400000204000002078000000BC
:102BE00002000000500000205000002020000000E3
:102BF000060000006000002060000020340000009B
:102C00000A00000070000020700000202C0000006E
:102C100000000000000000000000000000000000B4
:102C200000000000000000000000000000000000A4
:102C30000000000000000000000000000000000094
:04000005080000ED02
:00000001FF
