:020000040800F2
:10000000481B0020010100082F120008CB01000846
:100010002D1200086B020008951500080000000072
:100020000000000000000000000000003112000885
:100030008502000800000000530100083312000888
:100040001B0100081B0100081B0100081B01000820
:100050001B0100081B0100081B0100081B01000810
:100060001B0100081B0100081B0100081B01000800
:100070001B0100081B0100086D020008790200083E
:100080001B0100081B0100081B0100081B010008E0
:100090001B0100081B0100081B0100081B010008D0
:1000A0001B0100081B0100081B0100081B010008C0
:1000B0001B0100081B0100081B0100081B010008B0
:1000C0001B0100081B0100081B0100081B010008A0
:1000D0001B010008891500081B0100081B0100080E
:1000E000870200081B0100081B010008DFF80CD084
:1000F00000F0A4F80048004761020008481B0020F7
:100100000648804706480047FEE7FEE7FEE7FEE7B1
:10011000FEE7FEE7FEE7FEE7FEE7FEE7FD1200086A
:10012000ED000008EFF3108072B6704780F310887E
:100130007047334A1368012B04D04FF0010313605A
:10014000304A1060304A116030484FF080510160F1
:100150007047EFF3108272B62948016891B14FF0F1
:10016000000101602748016829B1EFF3098121E905
:10017000F00F00680160244909680968B1E8F00FD0
:1001800081F3098882F310884EF0040E70471E49EF
:1001900008601C494FF00000086019494FF0010049
:1001A00008601B484FF47F01D0F8002041EA0201AB
:1001B000016016484FF080510160164800680068E1
:1001C00080F3088861B662B670471EF0040F0CBF5A
:1001D000EFF30880EFF3098020E9F00F40F804ED19
:1001E0001EF0040F0CBF80F3088880F3098800B567
:1001F00001F054FC5DF804EB4EF0040E7047000073
:10020000DC000020D4000020D800002004ED00E035
:1002100020ED00E008ED00E0D2B201E000F8012B93
:10022000491EFBD270470022F6E710B513460A4676
:1002300004461946FFF7F0FF204610BD064C074D57
:1002400006E0E06840F0010394E8070098471034A6
:10025000AC42F6D3FFF74EFF64300008843000084C
:1002600010B502F0EDFC002010BDFEE7014800F0E3
:1002700063B8000064010020014800F05DB8000090
:1002800020010020704710B54FF4805000F02EF987
:10029000BDE810404FF4005000F028B9704700004E
:1002A00010B590F821100024022903D004218163A5
:1002B00001243DE001680A6822F00E020A6001682C
:1002C0000A6822F001020A601A4A0168914201D1CB
:1002D000012121E0174A1432914201D110211BE083
:1002E000144A2832914201D1891515E0114A3C3255
:1002F000914201D189140FE00E4A5032914202D14D
:100300004FF4803108E00B4A6432914202D14FF43D
:10031000801101E04FF08071064A083A51600121D6
:1003200080F82110002180F82010416B01B188472E
:10033000204610BD080002402DE9F05FC16B0C683B
:1003400001680B68D0F840C0042202FA0CF2494D53
:10035000DFF824A1494E4A4FDFF828B1DFF828E141
:1003600022422CD05A072AD50A68920603D40A687A
:1003700022F004020A600168A94201D1042219E0B6
:10038000514501D1402215E0B14202D14FF48062C3
:1003900010E0B94202D14FF480420BE0594502D13E
:1003A0004FF4802206E0714502D14FF4800201E053
:1003B0004FF080622F4908394A60C16A3BE04FF034
:1003C000020808FA0CF818EA040F4FF000094FF081
:1003D000010235D05FEA837832D50B689B0605D4DD
:1003E0000B6823F00A030B6080F821200168A94202
:1003F00001D1022219E0514501D1202215E0B1427C
:1004000002D14FF4007210E0B94202D14FF4005211
:100410000BE0594502D14FF4003206E0714502D19C
:100420004FF4001201E04FF00072124908394A609F
:1004300080F82090816A00291AD0BDE8F05F084753
:10044000082505FA0CF5254212D01B0710D50B68BC
:1004500023F00E030B6090F84010C36B02FA01F119
:100460005960826380F8212080F82090016BE2E7D8
:10047000BDE8F09F080002401C000240300002402E
:1004800044000240580002406C00024030B528B3DE
:1004900008C8134914221944B1FBF2F18900C16361
:1004A00010498163022141771A6843F6F0718A434B
:1004B000D0E900142143D0E902452C4321430469CB
:1004C0002143446921438469214311431960002178
:1004D0004163012242770177084630BD012030BDDB
:1004E000F8FFFDBF0000024070470000044910B54E
:1004F0000A68024202D00860FFF7F6FF10BD000054
:10050000140401402DE9F84FDFF8B891002409F1F7
:10051000040A0AF1040B23460F270BF1040EC9E06D
:100520000125A5402A40AA427DD1674ED1F804C0DA
:10053000ACEB0608B44532D014DCBCF1030F3AD062
:1005400009DCBCF1000F2AD0BCF1010F1CD0BCF1BA
:10055000020F31D11DE0BCF1110F17D0BCF1120F09
:100560002AD119E0B8F5881F19D006DCB8F5803F0C
:1005700015D0B8F5801F1FD111E0B8F5001F0ED0BF
:10058000B8F5041F18D10AE0CB6815E0CB681B1D35
:1005900012E0CB6808330FE0CB680C330CE08B68BB
:1005A0002BB1012B4FF0080303D0456104E0042375
:1005B00002E0056100E00023FF2A01D8064601E0C1
:1005C00000F104064FEA840501D9A5F12005D6F80B
:1005D000008007FA05FC28EA0C0803FA05F548EA4A
:1005E0000508C6F800804D68ED0062D5374DAE694C
:1005F00046F00106AE61AD6924F0030605F0010581
:100600000095334D06EB050CDCF80850A607360FB5
:1006100007FA06F825EA0805DFF8B880404503D157
:100620004FF0000817E044E0DFF8AC80404502D10D
:100630004FF001080FE0DFF8A480404502D14FF0F1
:10064000020808E0DFF89880404502D14FF0030827
:1006500001E04FF0040808FA06F848EA0508CCF86B
:1006600008804D68D9F80060ED034D4601D516436A
:1006700000E096432E604D68DAF80060AD03554601
:1006800001D5164300E096432E604D68DBF800600C
:10069000ED025D4601D5164300E096432E604D689D
:1006A000DEF80060AD02754601D5164300E09643C2
:1006B0002E60641C0D682A46E5407FF431AFBDE82A
:1006C000F88F0000000401400000111000100240EB
:1006D0000000014000080140000C014000100140F2
:1006E00000140140C2680A4201D0416170470161B3
:1006F00070470AB1016170470904FBE7014880684F
:100700007047000008000020074810B5016841F05C
:1007100010010160032000F075F8002000F006F8D9
:1007200000F024F8002010BD0020024070B50D4DEF
:1007300004464FF47A712878B1FBF0F00A49096851
:10074000B1FBF0F000F0ECFA48B9102C07D200220F
:100750002146501E00F036F800206C6070BD01206C
:1007600070BD000008000020140000200C4808B5EF
:10077000816941F001018161816901F0010100910C
:10078000C16941F08051C161C06900F080500090A2
:100790000448416821F0E06141F00071416008BD0A
:1007A0000010024000000140002809DB00F01F0299
:1007B000012191404009800000F1E020C0F80011C3
:1007C00070470000F0B40E4B1B680C46C3F30223C5
:1007D000C3F10705042D00D90425191D072901D2ED
:1007E000002300E0DB1E012606FA05F1491E214028
:1007F00099409E40761E16403143F0BC00F0CBBEBF
:100800000CED00E0064900F0070208684FF6FF0310
:10081000184040EA0220034A104308607047000075
:100820000CED00E00000FA052DE9F0470F46050049
:1008300061D0434E306800F00700B84209D23068FA
:1008400020F0070038433060306800F00700B842FD
:1008500051D128683B4C810712D5400703D5606809
:1008600040F4E06060602878000703D5606840F4D9
:10087000605060606068A96820F0F0000843606024
:100880002878C00728D06868012810D0216802287D
:1008900010D0890700292EDA616821F00301014395
:1008A0006160FFF72BFF804641F288390DE0216837
:1008B0008903EFE78901EDE7FFF720FFA0EB0801CF
:1008C000494502D90320BDE8F0876068696800F0F7
:1008D0000C00B0EB810FEFD1306800F00700B84298
:1008E0000BD9306820F0070038433060306800F0E2
:1008F0000700B84201D00120E5E72878400705D578
:100900006068E96820F4E0600843606028780007C8
:1009100006D56068296920F4605040EAC100606033
:1009200000F038F86168084AC1F30311515CC8400F
:100930000649086006480068FFF7F8FE0020C2E795
:100940000020024000100240C82E000814000020C1
:100950000C0000200448054900684968044AC1F3B6
:100960000221515CC8407047140000200010024072
:10097000D82E00080448054900684968044AC1F3B4
:10098000C221515CC8407047140000200010024092
:10099000D82E000812A185B00FC98DE80F0014A051
:1009A000144A006804905168134801F00C03042BAA
:1009B00010D0082B0ED1C1F38343C9031DF80300E7
:1009C0000AD5516804AAC1F34041515C0A4A504318
:1009D000B0FBF1F005B0704708494843FAE7000062
:1009E00002030405060708090A0B0C0D0E0F101070
:1009F000010200000010024000127A0000093D00D0
:100A00002DE9F84F040070D02078C04DC00749D0C0
:100A10006868C0F38100012807D06868C0F38100CE
:100A2000022809D16868C00306D52868800339D533
:100A300060680028E7D035E06068B0F5803F0BD0F3
:100A400010B1B0F5A02F11D0286820F480302860B4
:100A5000286820F4802002E0286840F48030286074
:100A6000606890B1FFF74AFE06460AE0286840F445
:100A700080202860F0E700BFFFF740FE801B64285D
:100A800073D828688003F7D50CE0FFF737FE0646D9
:100A900005E000BFFFF732FE801B6428F0D828680D
:100AA0008003F7D420789A4E80074FF001094FF069
:100AB000000839D5686810F00C0F07D06868C0F3DB
:100AC0008100022809D16868C00306D4286880071D
:100AD00014D52069012808D110E02069B0B1C6F80A
:100AE0000090FFF70BFE074605E00AE1FFF706FE60
:100AF000C01B0228C4D828688007F7D52868616918
:100B000020F0F80040EAC10028600DE0C6F800803F
:100B1000FFF7F4FD074604E0FFF7F0FDC01B0228D5
:100B200023D828688007F7D4207800072CD5794887
:100B3000A169D9B1C0F80090FFF7E0FD074604E0D5
:100B4000FFF7DCFDC01B02280FD8686A8007F7D5C5
:100B500071484FF4FA510068B0FBF1F0009000BF0B
:100B60000098411E0091FAD20EE080E0C0F80080AB
:100B7000FFF7C4FD074604E0FFF7C0FDC01B0228D5
:100B800075D8686A8007F7D42078400760D5E8698F
:100B90000027C00008D4E86940F08050E861E869A7
:100BA000012700F0805000905C480168C90513D40B
:100BB0000168834641F480710160FFF79FFD824622
:100BC00006E000BFFFF79AFDA0EB0A0064284ED8AC
:100BD000DBF80000C005F5D5E06801280AD008B1AF
:100BE000052813D0286A20F001002862286A20F026
:100BF000040002E0286A40F001002862E06841F247
:100C0000883B98B1FFF77AFD82460BE0286A40F0F6
:100C100004002862EEE700BFFFF770FDA0EB0A01B9
:100C200059455AD8286A8007F6D50CE0FFF766FDCB
:100C3000824605E0FFF762FDA0EB0A0159454CD85A
:100C4000286A8007F6D41FB1E86920F08050E86177
:100C5000E06988B36968C1F38101022944D00228A0
:100C6000C6F8608004D0FFF749FD044638E034E060
:100C7000FFF744FD074604E0FFF740FDC01B0228D4
:100C80002BD828688001F7D4206AB0F5803F05D1C1
:100C90006868A16820F4003008436860D4E908015E
:100CA0000843696821F4741108436860C6F86090CD
:100CB000FFF724FD044606E025E000BFFFF71EFD18
:100CC000001B022809D828688001F7D51BE000BF67
:100CD000FFF714FD001B022802D90320BDE8F88F9E
:100CE00028688001F4D40EE00128F7D06868226AF1
:100CF00000F48031914204D1616A00F4701088429E
:100D000001D00120EAE70020E8E7000000100240DF
:100D10000000424280044242140000200070004063
:100D200010B5401EB0F1807F01D3012010BD4FF0FF
:100D3000E02460610F21601700F02DFC0020A0610D
:100D400007202061002010BD7047000070B50268C8
:100D500004461068D168536910F00F0F50D003F0AB
:100D6000010501F4907635435DD0C20705D0CA0570
:100D700003D5E26B42F00102E263420705D5DA07D0
:100D800003D0E26B42F00202E263820705D5DA0784
:100D900003D0E26B42F00402E263020705D5DA07F2
:100DA00003D0E26B42F00802E263E26B002A33D028
:100DB000800604D5880602D5204600F0D9FA2068BE
:100DC0004069E16BC0F38010090700D428B32046C6
:100DD00000F0C0FA2068416949061AD5416921F03E
:100DE00040014161606BA0B11B494163606BFFF73B
:100DF00057FA002810D0606B416BBDE8704008477F
:100E0000830610D58B060ED52046BDE8704000F055
:100E1000AFBA2046FFF798FF70BD2046FFF794FF5A
:100E20000020E06370BD030606D50B0604D52046FE
:100E3000BDE8704000F044BB4006F3D54806F1D54C
:100E4000D168204621F04001D160202184F839107A
:100E500000F002F970BD00004513000870B50400F1
:100E600004D094F83900002510B106E0012070BDCF
:100E700084F83850204600F023F8242084F8390004
:100E80002068C16821F40051C160204600F0BCFA1E
:100E90002068016921F4904101612068416921F0D5
:100EA0002A0141612068C16841F40051C160E563D5
:100EB000202084F8390084F83A00002070BD00003A
:100EC000F0B585B000240646009401940294039482
:100ED00000682D49884254D12C48816941F48041F1
:100EE0008161816901F480410491816941F00401CB
:100EF00081618069264D00F0040004904FF4007079
:100F00000090022001900320039069462846FFF7D5
:100F1000F9FA2815CDE90004694628460294FFF73E
:100F2000F1FA1D4D1B488027C5E90004C5E90247B9
:100F30002C616C61AC612846EC61FFF7A7FA08B13F
:100F4000FFF7ACF975636E62134D124844351438DF
:100F500001C5102091C5104845F8104944306C6116
:100F6000AC61EC61FFF792FA08B1FFF797F93563CE
:100F70000022114625206E62FFF724FC2520FFF792
:100F800013FC05B0F0BD0000003801400010024025
:100F900000080140580002402001002070472DE960
:100FA000F843044690F839001F4616460D4620289F
:100FB00050D1A5B19EB194F8380001284AD0012043
:100FC00084F838004FF00008C4F83C80212084F8F1
:100FD0003900FFF793FBA6848146E68426E00120D2
:100FE000BDE8F883E08C401EE084A0684B46B0F575
:100FF000805F4FF000024FF080012046009703D041
:1010000000F08FFAE8B90DE000F08BFAC8B9288833
:101010002168C0F308004860206908B16D1C05E034
:10102000AD1C03E0216815F8010B4860E08C002836
:10103000D8D14B46002240212046009700F071FA9B
:1010400008B10320CCE7202084F8390084F83880E8
:101050000020C5E70220C3E7704700000D4808B52F
:10106000416941F0010141614069002200F0010045
:10107000009011460E20FFF7A5FB0E20FFF794FB12
:10108000002211460F20FFF79DFBBDE808400F200E
:10109000FFF78ABB0010024070B586B000242548D7
:1010A0000094019402940394816941F010018161DC
:1010B000816901F010010491816941F02001816191
:1010C000816901F020010491816941F00801816189
:1010D000816901F008010491816941F00401816195
:1010E0008069154E00F004004FF4C04504900022C2
:1010F00029463046FFF7FDFA01200095CDE90104AD
:101100000224694630460394FFF7FCF9681000900A
:101110000A48CDE9010469460948FFF7F3F90022BE
:1011200011462820FFF74EFB2820FFF73DFB06B0B5
:1011300070BD0000001002400010014000001110BE
:10114000000C01402DE9FC4113A000F00BFE022031
:101150001425CDE900050602334600221E491FA0D2
:1011600001F080F91F4C4FF0FF37206080B101F093
:1011700083FA0320CDE90005334600221A491BA05B
:1011800001F070F9606018B1BDE8FC4101F074BA7B
:101190003846BDE8FC8100005468697320697320FB
:1011A000616E205254542062696469726563746987
:1011B0006F6E616C206C696E6B6564206C69737412
:1011C000206F7065726174696F6E206578706572EA
:1011D000696D656E74210A00952C0008746573743E
:1011E0003100000000000020912E00087465737427
:1011F000320000000C4810B50A4901604FF4E1319B
:101200004160002181600C22C160C0E9041281614B
:10121000C161FFF723FE002803D0BDE81040FFF7AF
:101220003DB810BD00380140E0000020FEE77047E7
:10123000704710B500F048FD01F0B8FABDE8104065
:1012400000F050BD30B58FB028216846FEF7EBFFA7
:1012500014210AA8FEF7E7FF01210804CDE90010D8
:101260000024029402250491CDE907504FF4E010C8
:1012700009906846FFF7C4FB0F20CDE90A05680214
:10128000CDE90C4002210AA80E94FFF7CDFA0FB069
:1012900030BD0000144910B54868144A10F00C0322
:1012A000134803D0042B01D0082B09D002604968F1
:1012B000104AC1F30311515C0268CA40026010BDBC
:1012C0004A684B6802F470124FF0020413F4803F36
:1012D00004EB924202D04B689B0301D5064B00E021
:1012E000024B5A43E2E700000010024000127A006D
:1012F00014000020C82E000800093D000D480168B8
:1013000041F00101016041680B4A114041600168F0
:101310000A4A11400160016821F48021016041689E
:1013200021F4FE0141604FF41F0181600449C003B4
:1013300008607047001002400000FFF8FFFFF6FE53
:1013400008ED00E010B5406A0021C185C184FFF7B7
:10135000FBFC10BD0168CA6822F49072CA60016883
:101360004A6922F001024A61202180F83A10704750
:1013700010B590F83A10222901D0022010BD8168E2
:10138000B1F5805F11D00169002901681FD049685B
:1013900001F07F03816A4A1C82620B70C18D491E75
:1013A0000904090CC18518D02BE00269816A002A62
:1013B0000268526805D0D2B20A80816A491C8162F3
:1013C000ECE7C2F308020A80816A891CF7E74A68E1
:1013D000816A4B1C83620A70E0E70168CA6822F0E8
:1013E0002002CA600168CA6822F48072CA6001687B
:1013F0004A6922F001024A61202180F83A10FFF781
:10140000CDFD002010BD00002DE9F041044600682C
:101410000169E26821F44051114301612169A0682A
:101420000843616908432168CA6841F20C639A4322
:101430000243CA6020684169A26921F440711143E6
:1014400041611E49206864253226884202D1FFF797
:1014500091FA01E0FFF77EFA00EBC00101EB001109
:1014600060686FF018078000B1FBF0F2B2FBF5F294
:10147000B1FBF0F37A4303EB8202B1FBF0F306EB2E
:101480000212B2FBF5F2B3FBF5F302F0F00202EB4D
:101490000312B1FBF0F3B1FBF0F0B0FBF5F07843D1
:1014A00003EB800006EB0010B0FBF5F0216800F0C4
:1014B0000F0010448860BDE8F08100000038014052
:1014C00090F83910212901D0022070478168B1F5C8
:1014D000805F016A0BD04A1C026202680978516081
:1014E000C18C491E0904090CC1840ED017E009887B
:1014F0000268C1F30801516001690029016A02D044
:10150000491C0162ECE7891CFBE70168CA6822F00C
:101510008002CA600068C16841F04001C1600020DB
:1015200070472DE9F041984617460E460446069D41
:101530001DE0681C1BD02DB1FFF7E0F8A0EB080000
:10154000A84214D92068C16821F4D071C160206814
:10155000416921F001014161202084F8390084F8BB
:101560003A00002084F838000320BDE8F0812068AC
:10157000006836EA000004D00020B842D9D000202C
:10158000F3E70120F9E700000148FFF7DFBB0000A7
:10159000E0000020FEE70907090E002804DB00F147
:1015A000E02080F80014704700F00F0000F1E02008
:1015B00080F8141D70470000002806D00E4910F076
:1015C000FF0F03D0C0B2085C401C704710F47F4F7F
:1015D00004D0C0F30720085C0930704710F47F0F77
:1015E00004D0C0F30740085C1130704701EB106075
:1015F0000078193070470000E02E000802E008C8AB
:10160000121F08C1002AFAD170477047002001E07C
:1016100001C1121F002AFBD1704700000348016876
:10162000814201D00120704700207047B4000020A3
:101630002DE9FC411F460446DDE90831DDE90A6574
:10164000143040600060C4E90827C4E90A310A4642
:10165000232118461C3400F03BFCD4E90301421856
:10166000D4E901010D4B121F00F012FB2060A67699
:1016700066760020A562E061E56260612076E06543
:1016800020661C3C009023460190054A194604F14F
:101690004C0001F0FDF80020BDE8FC81B1240008F9
:1016A000E726000810B5029C24F001044472C0E94A
:1016B00007120021C0E9093114304060006010BDFC
:1016C000F0E905124A60D0E9001211604060006044
:1016D0007047FFF719F8FFF7B5FDFFF7DDFCFFF7DF
:1016E000BDFCFFF787FDFFF72DFDFEE710B500F00D
:1016F000EBF8BDE81040FFF7ECBF000030B5134930
:1017000043680A68134402F1080498420DD05D88CA
:101710005DB94D68AB4208D08D689D4200D18860AC
:101720005D6845605B68851A1D5183681344834278
:101730000BD05D88002D08D18D68854200D18B606B
:10174000416859604068991A015130BD200000205D
:101750002DE9F04F85B09946DDE90EA5109CAB460A
:10176000630602D5DFF814C103E0DFF810C1ACF165
:10177000110CE30601D524F00104E30701D0302366
:1017800000E0202300260493A3070BD5002A02DAE9
:101790002D26524206E0630701D52B2602E02307DF
:1017A00000D520260023EE4622B930228DF80020F5
:1017B00001230CE0B9F10A0F14D002F00F0812094E
:1017C0001CF808800EF803805B1C002AF2D1AB42A3
:1017D00000DD1D46AAEB050214F0110F4FF02007A3
:1017E00008D015E00A27B2FBF7F807FB1828B2FB70
:1017F000F7F2E5E73EB1002A05DD521E03E088421C
:1018000000D20770401CB2F1000CA2F10102F6DC1C
:1018100026B1884200D20670401C521EE40605D54F
:1018200008E0884201D2049C0470401C141EA2F1FE
:101830000102F6DC30242E466D1E9E420ADD8842EF
:1018400000D20470401CF6E7884201D2E55C0570C6
:10185000401C00E074461D1EA3F1010307DDBBF12F
:10186000000FF1D103E0884200D20770401C131E24
:10187000A2F10102F7DC05B0BDE8F08FF12F0008FE
:101880001CB514210A20CDE900014FF48063002229
:10189000034904A000F0E6FDBDE81C4000F0ECBEEA
:1018A000ED1600086D61696E0000000070B5044C13
:1018B000044D02E020688047241DAC42FAD370BD7D
:1018C000583000085C30000870B5044C044D02E04C
:1018D00020688047241DAC42FAD370BD5C300008FC
:1018E0006030000810B5FEF71DFC044A5188491C01
:1018F0005180BDE81040FEF719BC0000A800002090
:1019000010B5FEF70FFC0B4C6188491E09B26180CF
:1019100000290ADC00216180FEF708FC60680028CD
:1019200007D0BDE8104000F069BBBDE81040FEF7ED
:10193000FDBB10BDA800002070B5002833D01A4DA3
:10194000296888422FD3696888422CD2A0F10C0400
:101950004FF0FF31154800F0F5FB60884FF4F55665
:1019600010B12088B04208D011A000F0FBF9238804
:101970006288214615A000F0F5F9002060802680DD
:10198000A868844200D2AC6029686068611A401A75
:101990002969081A28612046FFF7B0FEBDE87040AB
:1019A000024800F0B5BB70BD20000020A813002045
:1019B000746F2066726565206120626164206461D5
:1019C000746120626C6F636B3A0A00006D656D3A5A
:1019D000203078253038782C207573656420666C4B
:1019E00061673A2025642C206D6167696320636F0D
:1019F00064653A203078253034780A000048704712
:101A0000A801002000487047A811002010B5FFF77A
:101A100041FC10484FF47A710068B0FBF1F0401EB1
:101A2000B0F1807F09D24FF0E0210B4A4861FF20DE
:101A300010700020886107200861FFF737FFFFF76B
:101A4000E1FF0446FFF7DAFF2146BDE8104000F051
:101A50005DBC00001400002023ED00E070B50446DA
:101A6000FFF740FF4FF47A750EE00A2805D12B46A8
:101A700001220D210848FFF792FA2146641C2B46EB
:101A800001220548FFF78BFA20780028EDD1BDE848
:101A90007040FFF735BF0000E000002070B505463C
:101AA000041D2B48016819B12846884700284DD0ED
:101AB00028A0E16B00F056F92AA0216A00F052F943
:101AC0002CA0616A00F04EF92EA0A16A00F04AF93C
:101AD00030A0E16A00F046F932A0216800F042F936
:101AE00034A0616800F03EF936A0A16800F03AF930
:101AF00038A0E16800F036F93AA0216900F032F927
:101B00003CA0616900F02EF93EA0A16900F02AF91D
:101B100040A0E16900F026F942A0216B00F022F913
:101B200044A0616B00F01EF946A0A16B00F01AF909
:101B30002878400706D500F079FD014645A000F061
:101B400011F902E04BA000F00DF9FEE770BD0000B6
:101B5000D00000207073723A203078253038780A2F
:101B6000000000007230303A203078253038780A92
:101B7000000000007230313A203078253038780A81
:101B8000000000007230323A203078253038780A70
:101B9000000000007230333A203078253038780A5F
:101BA000000000007230343A203078253038780A4E
:101BB000000000007230353A203078253038780A3D
:101BC000000000007230363A203078253038780A2C
:101BD000000000007230373A203078253038780A1B
:101BE000000000007230383A203078253038780A0A
:101BF000000000007230393A203078253038780AF9
:101C0000000000007231303A203078253038780AF0
:101C1000000000007231313A203078253038780ADF
:101C2000000000007231323A203078253038780ACE
:101C300000000000206C723A203078253038780A95
:101C4000000000002070633A203078253038780A90
:101C50000000000068617264206661756C74206F1A
:101C60006E207468726561643A2025730D0A0D0A4E
:101C70000000000068617264206661756C74206FFA
:101C80006E2068616E646C65720D0A0D0A000000BA
:101C900070B50446121D22F007000022094D40389D
:101CA00040F82250521C102AFAD3016200214162EE
:101CB00081624FF0807200F13005C263C16285E835
:101CC0001A0070BDEFBEADDE10B5FEF72BFA044A68
:101CD0001178491C1170BDE81040FEF727BA0000CA
:101CE0001C00002010B5FEF71DFA044A1178491EA9
:101CF0001170BDE81040FEF719BA00001C0000206A
:101D000010B50068143800F073FC002010BD00000E
:101D10002DE9F041064614460D46084600F0C2FC87
:101D200005F11407B4B1012C18D134680EE000BFDE
:101D300095F8351094F82120A4F11400914204D2B2
:101D40003946143000F033F802E02468B442EFD191
:101D5000B44203D13946304600F029F80020BDE8EE
:101D6000F08100000FB47F2110B503AB0448029A44
:101D700000F020FE0248FFF771FE10BC5DF814FB76
:101D8000281300200268516002680A600160486000
:101D900070470268516002680A60016048607047DD
:101DA0000268516002680A600160486070474268DA
:101DB000116042684A60416008607047D0E90012D3
:101DC0004A60D0E900121160406000607047D0E9BD
:101DD00000124A60D0E90012116040600060704754
:101DE0002DE9F047002807D0374CC01C20F003062F
:101DF000E068864202D90020BDE8F0870C2E00D2B0
:101E00000C264FF0FF31314800F09CF9D4F808C09F
:101E10002168E768ACEB0100BA1B4FE00D186B8836
:101E2000E3BB6B681B1A0C3BB34246D36A6806F1EE
:101E30001803121A0C3A4FF001094FF4F55A9A425E
:101E40002DD383190C33CA184FF00008A2F800A054
:101E5000A2F80280D5F80480C2E901806B60A5F881
:101E6000029050680C37B84202D001F1080283504A
:101E7000206930440C3020616269824200D2606186
:101E8000A5F800A0654512D1A06842887AB16268C1
:101E900090420CD040680844A060F6E70DE0A5F839
:101EA000029068686A1A801A22691044E3E70748BA
:101EB00000F02EF905F10C009EE768688242ADD86B
:101EC000024800F025F996E720000020A813002022
:101ED00010B50346C9B201E003F8011B521EFBD244
:101EE00010BD2DE9F0410F46064600F045F80546C5
:101EF000C068FFF775FF040019D00021EA68FFF7FA
:101F0000E7FF26720020607208223946204600F062
:101F1000E9F9FEF707F9064604F10C01281DFFF761
:101F200031FF3046FEF702F92046BDE8F08100207F
:101F3000FBE770B5044600202072FEF7F3F8054673
:101F400004F10C00FFF73AFF2846FEF7EFF82046B1
:101F5000BDE87040FFF7F0BC70B504460020207269
:101F6000FEF7E0F8054604F10C00FFF727FF2846CE
:101F7000BDE87040FEF7DAB8074A002102EB011312
:101F80001B78834202D102EB01107047491C0729DC
:101F9000F4DB002070470000380000202DE9F041FC
:101FA000044616460D460846FFF7E6FF0746FFF7CC
:101FB00099FC381D796800E009688142FCD1FFF77F
:101FC0009FFC45F08000207208223146204600F038
:101FD00089F9FEF7A7F8054604F10C01381DFFF753
:101FE000D1FE2846BDE8F041FEF7A0B8007A000611
:101FF00001D50120704700207047000070B5FEF742
:1020000091F8114C05466088B0B9A068FFF7D4FA82
:102010000E49401E626851F83010143991420BD0BD
:1020200020700B486160007801F11C01002802F16A
:102030001C0006D0FEF77DF82846BDE87040FEF78C
:1020400075B8FEF776F8F7E7A8000020C81300205F
:102050001C00002010B50446FEF764F8024694F810
:1020600034000E4920F00F00401C84F8340094F82E
:10207000350001EBC00104F114004B6818604B6897
:10208000A361486006486161A16B83681943816060
:10209000BDE810401046FEF749B80000C813002004
:1020A000A800002010B50446FEF73CF804F1140126
:1020B000D1E900235360D1E900231A60A161616175
:1020C00094F83520074951F8323001EBC2018B42B8
:1020D00004D10549A36B8A689A438A60BDE8104021
:1020E000FEF724B8C8130020A80000202DE9F04115
:1020F00016460A461F4605460221FFF74FFF05F127
:102100001404AC616C61AE836F720020BDE8F08195
:1021100070B50446FEF706F80546616904F114003F
:10212000814207D0FFF7ECFD2846FDF7FFFFFFF7E0
:1021300065FF05E0A08B401CA0832846FDF7F6FF55
:10214000002070BD73B50546FDF7ECFF0646A88B71
:1021500028B1401EA8833046FDF7E8FF21E0019832
:1021600008B300F063FA0446002020636A7A21462F
:1021700005F11400FFF7CCFD0198002809DD04F1FA
:102180004C0001AA0021054600F05AFB284600F049
:102190009BFB3046FDF7CAFFFFF730FF206B00289E
:1021A00000D100207CBD3046FDF7C0FF6FF001007C
:1021B0007CBD000008B509A0FFF7D4FD0AA0FFF719
:1021C000D1FD12A0032300900122194612A0FFF7AF
:1021D000C9FDBDE8084018A0FFF7C4BD0A205C2077
:1021E0007C202F0A000000002D205254202D20209A
:1021F000202020546872656164204F70657261749C
:10220000696E672053797374656D0A004A756C2096
:102210003239203230323000202F207C205C2020C8
:1022200020202025642E25642E2564206275696C8B
:10223000642025730A0000002032303036202D2023
:102240003230313920436F70797269676874206267
:10225000792072742D746872656164207465616D93
:102260000A0000002DE9F04100F09AFA0646FFF757
:1022700039FB174F3D6824E068696FF00041301A60
:10228000A5F1140488421ED22D682046FFF718FAE3
:10229000FFF736FBD4E90710884700F081FA0646BD
:1022A000FFF720FB607A810708D5C10706D020F030
:1022B00001006072204600F007FB02E020F0010000
:1022C0006072BD42D8D1BDE8F041FFF719BB0000F4
:1022D000C8000020014600E0491C0A78002AFBD112
:1022E000081A704710B5002A07D0034611F8014BB1
:1022F00003F8014B2CB1521EF8D110BD03F8011B9D
:1023000000E00021521EF9D110BD00000A46C11C98
:1023100010B522F0030321F00301182B20D9A3F1FB
:1023200018048C421CD3114C581A18382160E060F4
:102330004FF4F5520A8000230C30C1E901034B80B1
:102340004B68194461600A8001224A8048608860B5
:10235000002307A10848FFF7C9FE2068A06010BD50
:102360000146BDE8104005A0FFF7FCBC200000209E
:102370006865617000000000A81300206D656D2085
:10238000696E69742C206572726F7220626567696C
:102390006E206164647265737320307825782C2018
:1023A000616E6420656E642061646472657373207D
:1023B000307825780A00000010B50A4900230A4C3D
:1023C0004B80184604EBC002401C5260126020286B
:1023D000F8DB1F20087003484B600C308B604060B6
:1023E000006010BDA8000020C813002010B5074CE5
:1023F000A068FFF7E1F80649401E51F83000143894
:102400006060BDE810401C30FDF7C1BEA800002090
:10241000C81300200148406000607047C0000020E1
:102420001FB50B4804220A23406000600948D1010F
:102430008DE80F000023084A08A1803800F0C0F89A
:1024400004B00448BDE81040803800F015B9000021
:10245000C8000020481500200927000874696D6530
:10246000720000002DE9FF478946DDE90C768246BF
:1024700001461D4690460120FFF733FD041E0DD096
:102480002846FFF7ADFC60B103968DE8A1004346F6
:102490004A4651462046FFF7CBF8204604B0BDE837
:1024A000F0872046FFF745FD0020F7E700F0C4B8AD
:1024B00070B513480468FDF735FE05462046FFF762
:1024C000F1FD042084F8340004F14C0000F0D0F950
:1024D0002046FFF78BFD012801D1A06F58B104F110
:1024E00014010848FFF755FC2846FDF71FFEBDE81C
:1024F0007040FFF783BD2046FFF72EFDF4E7000094
:10250000AC000020B400002000F002F8FCE700005E
:1025100070B527E0FDF706FE0546FFF77FF858B3D4
:1025200018480168A1F11404D1E900024260D1E920
:102530000002106049600960FFF7D4F9A16F09B18A
:10254000204688472046FFF751FD01280FD0FFF7AE
:10255000D7F92846FDF7EAFDA06AFFF7EDF9204616
:10256000FFF7E7FCFFF75AF80028D3D170BD2046EB
:10257000FFF7F2FCFFF7C4F92846BDE87040FDF70D
:10258000D5BD0000B40000201FB5202308481F223D
:10259000D9008DE80F000023064A07A1803800F01B
:1025A0000FF804B00248BDE81040803800F064B86D
:1025B00028120020092500087469646C6500000079
:1025C0002DE9FF5F92460EAA0C4692E8E0010A460A
:1025D000994683460121FFF7E1FC8DE8E0014B4677
:1025E000524621465846FFF723F804B0BDE8F09F55
:1025F00070B5044690F8340000F00F00022802D0B5
:102600004FF0FF3070BDFDF78DFD054604F114005D
:10261000FFF7DDFB04F14C0000F0B4F92846FDF7AC
:1026200085FD2046FFF716FD002070BD01480068BB
:1026300070470000AC000020F1B5FDF773FD0546C2
:102640000C480468204600F02DF804F14C006A465E
:102650000021064600F0F4F8304600F035F928462F
:10266000FDF764FDFFF7CAFC206B801C00D12063DE
:102670000020F8BDAC00002010B590F83610012203
:1026800080F835108A400221826380F83410FFF709
:10269000AFFF0348006808B1FFF7B0FC002010BD91
:1026A000AC00002070B5044690F8340000F00F0034
:1026B000012802D04FF0FF3070BDFDF733FD054615
:1026C00094F8340020F00F00801C84F83400204679
:1026D000FFF7E8FC04F14C0000F054F92846FDF740
:1026E00025FD002070BD10B504466FF00100206389
:1026F00004F11400FFF76BFB2046FFF7ABFCBDE8CD
:102700001040FFF77BBC00006FF000450B4800F065
:10271000D3F80446401C09D000F042F8201AA84221
:1027200001D2FFF7C3FEFFF79DFDEFE7FFF77EFF46
:10273000FFF7B8FFFFF762FCF5E70000C8000020D4
:1027400070B5FDF7EFFC06461348046894F83400B2
:1027500000F00F00012819D1D4E90501884215D0F5
:1027600004F114000546FFF732FB94F835000B49DD
:1027700001EBC00041680D604168696045602860F8
:102780003046FDF7D3FCFFF739FC02E03046FDF799
:10279000CDFC002070BD0000AC000020C81300205C
:1027A000014800687047000018000020094810B573
:1027B0000168491C0160FFF739FF816C491E816483
:1027C00003D1416C8164FFF7BBFFBDE8104000F00E
:1027D00003B80000180000202DE9F041FFF7E0FFEA
:1027E0000646FDF79FFC0746144D1EE060696FF03A
:1027F0000041301A143C88421AD22046FEF760FF8E
:10280000D4E907108847FFF7CBFF0646607A8107B7
:1028100008D5C10706D020F001006072204600F004
:1028200053F802E020F0010060722C68AC42DDD168
:102830003846BDE8F041FDF779BC0000C00000203B
:1028400049B1012904D0022908D003290ED109E099
:10285000406A10600AE01168416207E0417A21F0A5
:10286000020102E0417A41F002014172002070470A
:1028700070B50546FDF756FC04462846FEF720FFD6
:102880002046FDF753FC2846FFF766FB002070BD8D
:102890002DE9F8439046DDE908450A461F460646FD
:1028A0000A21FFF77BFB23463A4641463046009516
:1028B000FEF7F8FEBDE8F8830168814202D14FF0CF
:1028C000FF30704748697047F8B50446FDF72AFCA9
:1028D00005462046FEF7F4FE607A20F001006072A3
:1028E0002846FDF723FCFFF75BFF616A0844A062FE
:1028F000FDF718FC0546607A400701D51F4A01E044
:102900001E4A083A0020009202EBC0026946536852
:102910006FF0004C5DF820200BE01268A2EBC006BF
:102920007769A66AB74202D0BE1B664503D341F859
:1029300020209A42F1D111480C380168491C0160ED
:1029400004F114010098FFF72BFA607A40F00100BF
:1029500060722846FDF7EAFB607A40070BD508480D
:1029600090F8340000F00F00012804D00448FFF76D
:102970003FFEFFF743FB0020F8BD0000C800002029
:10298000C814002070B50446407AC0070ED0FDF789
:10299000C9FB05462046FEF793FE2846FDF7C6FB19
:1029A000607A20F001006072002070BD4FF0FF30AF
:1029B00070BD00002DE9FF4F8946044600EB090772
:1029C00083B080464FF0FF3A4FF0200BA74202D26F
:1029D0005746C8F1FF3907E1252803D0BC4200D291
:1029E000207081E000260599491C059108782D2862
:1029F00011D02B2812D0202813D0232814D030280F
:102A000015D00A785546303A0A2A13D205A800F0A4
:102A10002CF905461AE046F01006E4E746F00406F5
:102A2000E1E746F00806DEE746F02006DBE746F081
:102A30000106D8E72A2809D10698491C059120C823
:102A40000690002D02DA6D4246F01006CDF800A087
:102A5000059801782E2918D1401C05900178A1F124
:102A600030020A2A04D205A800F0FFF8009008E01E
:102A70002A2908D1401C0590069802C806900091AA
:102A80000846002801DA002000900598002102780D
:102A9000682A01D06C2A02D1401C114605900078AA
:102AA0000A236F287DD00CDC63281FD004DC252886
:102AB0007BD058280DD17EE0642801D0692808D148
:102AC0007DE070285ED073282CD0752879D07828C6
:102AD00073D0BC4201D2252020700598641C017877
:102AE000D1B3BC4200D22170641C7AE0F00608D455
:102AF00058466D1E002D04DDBC4200D22070641CBF
:102B0000F7E70699BC4211F8040B069100D2207039
:102B1000584602E0BC4200D22070641C6D1E002D9D
:102B2000F8DC5EE0069808C8069003B93EA3184694
:102B3000FFF7D0FB0099002902DD884200DD08463E
:102B4000F1060AD459462A466D1E824205DDBC4272
:102B500000D22170641CF6E752E0002106E0BC427E
:102B600001D21A782270491C5B1C641C8142F6DB7E
:102B70005A4629466D1E814233DDBC4200D2227086
:102B8000641CF6E7681C02D1082546F0010600988F
:102B90000296CDE9005006981023394604C80690E5
:102BA0001BE006E001E00CE007E0BC429CD22520DF
:102BB00016E7082305E046F04006102301E046F042
:102BC00002066C2901D068291DD0069804C8069019
:102BD00000983946CDE9005002962046FEF7B8FD30
:102BE00004460598401C05900598007800287FF45D
:102BF000F3AEB9F1000F11D0BC420DD220700DE040
:102C0000401E0590EDE7069830F8041B06908AB246
:102C1000B007DDD512B2DBE707F8010C07B0A4EB73
:102C20000800BDE8F08F0000284E554C4C290000EC
:102C30000020704700207047002070470020704738
:102C400010B5FDF76FFAFEF7E1FEFFF7B3FAFFF7F5
:102C5000E1FBFFF7B1FBFEF713FEFFF7E1FBFFF728
:102C600093FCFFF7C3FB002010BD10B50146002008
:102C70006FF02F0307E0541C0C60127800EB80000B
:102C800003EB400010440A681478303C0A2CF2D35D
:102C900010BD00000820FFF7A3F805002BD0014667
:102CA0002948FFF75FF829A0FFF75CF86D602D60F9
:102CB00033A0FFF757F840A0FFF754F80820FFF7BC
:102CC0008FF804460820FFF78BF8064644A0FFF76C
:102CD00049F829684E602968C6E900152C607168BA
:102CE0006160746026606068A84208D17068A04284
:102CF00005D145A004E04BA0FFF734F8D3E752A07C
:102D0000FFF730F855A0FFF72DF8D4E90001416036
:102D1000D4E900010860646024602046FEF70CFEE0
:102D20007068A84202D152A0FFF71CF8574D4FF42B
:102D300000544FF4FA7621462846FDF7D3FC30467E
:102D4000FFF7B4FBF7E70000043000080A204269EF
:102D5000646972656374696F6E616C206C696E6B17
:102D60006564206C69737420696E697469616C694B
:102D70007A6174696F6E2E2E2E2E2E2E0A000000A0
:102D80004269646972656374696F6E616C206C6915
:102D90006E6B6564206C69737420696E6974696117
:102DA0006C697A6174696F6E2073756363656564BD
:102DB0006564210A0A000000416464206E6F646546
:102DC00020616E64207461696C206E6F646520619F
:102DD00064646974696F6E732E2E2E2E2E2E0A0077
:102DE0004164642074686520666972737420616E42
:102DF00064207365636F6E64206E6F6465732E2E3E
:102E00002E2E2E0A00000000416464206E6F64655F
:102E1000207375636365737366756C6C79210A0A38
:102E20000000000044796E616D6963206D656D6F0F
:102E30007279206170706C69636174696F6E20666D
:102E400061696C6564210A00416464206E6F646589
:102E5000206661696C6564210A0A000052656D6F25
:102E60007665206E6F6465732E2E2E2E2E2E0A0030
:102E70004E6F64652072656D6F76616C207375634B
:102E80006365737366756C0A0A00000000100140E8
:102E9000074D4FF480444FF47A7606A0FEF762FFA8
:102EA00021462846FDF71EFC3046FFF7FFFAF4E7FF
:102EB000001001405468726561642072756E6E691D
:102EC0006E67210A00000000000000000000000002
:102ED00001020304060708090000000001020304C0
:102EE00000000100020001000300010002000100D7
:102EF00004000100020001000300010002000100C3
:102F000005000100020001000300010002000100B1
:102F100004000100020001000300010002000100A2
:102F20000600010002000100030001000200010090
:102F30000400010002000100030001000200010082
:102F40000500010002000100030001000200010071
:102F50000400010002000100030001000200010062
:102F6000070001000200010003000100020001004F
:102F70000400010002000100030001000200010042
:102F80000500010002000100030001000200010031
:102F90000400010002000100030001000200010022
:102FA0000600010002000100030001000200010010
:102FB0000400010002000100030001000200010002
:102FC00005000100020001000300010002000100F1
:102FD00004000100020001000300010002000100E2
:102FE000303132333435363738396162636465667F
:102FF0000030313233343536373839414243444575
:103000004600000044796E616D6963206D656D6FE7
:103010007279206170706C69636174696F6E206988
:1030200073207375636365737366756C2C207468A5
:10303000652061646472657373206F6620746865CF
:103040002068656164206E6F646520697320256463
:10305000210A00003D2C0008352C0008312C000806
:10306000392C00088430000800000020E000000037
:10307000FC15000864310008E0000020681A000018
:103080000C16000800000000000000000100000015
:1030900010000000000000000024F4000000000008
:1030A0000000000000000000000000000000000020
:1030B000000000000000000000000000010000000F
:1030C0003C0000203C0000208000000002000000C6
:1030D0004C0000204C0000202000000003000000F5
:1030E0005C0000205C0000202400000004000000C0
:1030F0006C0000206C000020200000000500000093
:103100007C0000207C000020300000000600000051
:103110008C0000208C000020340000000A00000019
:103120009C0000209C0000202C00000000000000FB
:10313000000000000000000000000000000000008F
:10314000000000000000000000000000000000007F
:10315000000000000000000000000000000000006F
:04316000000000006B
:04000005080000ED02
:00000001FF
