:020000040800F2
:1000000018180020010100081B0E0008CB01000891
:10001000190E00086B0200084D10000800000000D7
:100020000000000000000000000000001D0E00089D
:100030006D02000800000000530100081F0E0008B8
:100040001B0100081B0100081B0100081B01000820
:100050001B0100081B0100081B0100081B01000810
:100060001B0100081B0100081B0100081B01000800
:100070001B0100081B0100081B0100081B010008F0
:100080001B0100081B0100081B0100081B010008E0
:100090001B0100081B0100081B0100081B010008D0
:1000A0001B0100081B0100081B0100081B010008C0
:1000B0001B0100081B0100081B0100081B010008B0
:1000C0001B0100081B0100081B0100081B010008A0
:1000D0001B0100081B0100081B0100081B01000890
:1000E0001B0100081B0100081B010008DFF80CD0F1
:1000F00000F0A4F80048004761020008181800202A
:100100000648804706480047FEE7FEE7FEE7FEE7B1
:10011000FEE7FEE7FEE7FEE7FEE7FEE7E90E000882
:10012000ED000008EFF3108072B6704780F310887E
:100130007047334A1368012B04D04FF0010313605A
:10014000304A1060304A116030484FF080510160F1
:100150007047EFF3108272B62948016891B14FF0F1
:10016000000101602748016829B1EFF3098121E905
:10017000F00F00680160244909680968B1E8F00FD0
:1001800081F3098882F310884EF0040E70471E49EF
:1001900008601C494FF00000086019494FF0010049
:1001A00008601B484FF47F01D0F8002041EA0201AB
:1001B000016016484FF080510160164800680068E1
:1001C00080F3088861B662B670471EF0040F0CBF5A
:1001D000EFF30880EFF3098020E9F00F40F804ED19
:1001E0001EF0040F0CBF80F3088880F3098800B567
:1001F00001F0DAF95DF804EB4EF0040E70470000F0
:10020000BC000020B4000020B800002004ED00E095
:1002100020ED00E008ED00E0D2B201E000F8012B93
:10022000491EFBD270470022F6E710B513460A4676
:1002300004461946FFF7F0FF204610BD064C074D57
:1002400006E0E06840F0010394E8070098471034A6
:10025000AC42F6D3FFF74EFF382A0008582A0008B0
:1002600010B502F0FFFA002010BDFEE7704770479E
:100270002DE9F84FDFF8B891002409F1040A0AF1DA
:10028000040B23460F270BF1040EC9E00125A540FE
:100290002A40AA427DD1674ED1F804C0ACEB0608D3
:1002A000B44532D014DCBCF1030F3AD009DCBCF108
:1002B000000F2AD0BCF1010F1CD0BCF1020F31D1CC
:1002C0001DE0BCF1110F17D0BCF1120F2AD119E0BB
:1002D000B8F5881F19D006DCB8F5803F15D0B8F501
:1002E000801F1FD111E0B8F5001F0ED0B8F5041F14
:1002F00018D10AE0CB6815E0CB681B1D12E0CB6873
:1003000008330FE0CB680C330CE08B682BB1012B6A
:100310004FF0080303D0456104E0042302E00561C7
:1003200000E00023FF2A01D8064601E000F10406A0
:100330004FEA840501D9A5F12005D6F8008007FA17
:1003400005FC28EA0C0803FA05F548EA0508C6F892
:1003500000804D68ED0062D5374DAE6946F001066C
:10036000AE61AD6924F0030605F001050095334D3B
:1003700006EB050CDCF80850A607360F07FA06F85E
:1003800025EA0805DFF8B880404503D14FF00008A2
:1003900017E044E0DFF8AC80404502D14FF001089F
:1003A0000FE0DFF8A480404502D14FF0020808E0DA
:1003B000DFF89880404502D14FF0030801E04FF08C
:1003C000040808FA06F848EA0508CCF808804D68E1
:1003D000D9F80060ED034D4601D5164300E0964381
:1003E0002E604D68DAF80060AD03554601D516431E
:1003F00000E096432E604D68DBF80060ED025D463C
:1004000001D5164300E096432E604D68DEF800608B
:10041000AD02754601D5164300E096432E60641C7C
:100420000D682A46E5407FF431AFBDE8F88F000043
:1004300000040140000011100010024000000140C3
:1004400000080140000C0140001001400014014070
:100450000AB1016170470904FBE7000001488068A8
:100460007047000010000020074810B5016841F0F7
:1004700010010160032000F067F8002000F006F88A
:1004800000F024F8002010BD0020024070B50D4D92
:1004900004464FF47A712878B1FBF0F00A490968F4
:1004A000B1FBF0F000F0DEFA48B9102C07D20022C0
:1004B0002146501E00F028F800206C6070BD01201D
:1004C00070BD0000100000201C0000200C4808B582
:1004D000816941F001018161816901F001010091AF
:1004E000C16941F08051C161C06900F08050009045
:1004F0000448416821F0E06141F00071416008BDAD
:100500000010024000000140F0B40E4B1B680C4686
:10051000C3F30223C3F10705042D00D90425191DD7
:10052000072901D2002300E0DB1E012606FA05F1AF
:10053000491E214099409E40761E16403143F0BC32
:1005400000F085BD0CED00E0064900F007020868E8
:100550004FF6FF03184040EA0220034A10430860A8
:10056000704700000CED00E00000FA052DE9F047AF
:100570000F46050061D0434E306800F00700B842D6
:1005800009D2306820F0070038433060306800F04E
:100590000700B84251D128683B4C810712D540076B
:1005A00003D5606840F4E06060602878000703D5F8
:1005B000606840F4605060606068A96820F0F000F6
:1005C000084360602878C00728D06868012810D0E8
:1005D0002168022810D0890700292EDA616821F0ED
:1005E000030101436160FFF739FF804641F288391A
:1005F0000DE021688903EFE78901EDE7FFF72EFFA2
:10060000A0EB0801494502D90320BDE8F0876068E6
:10061000696800F00C00B0EB810FEFD1306800F09A
:100620000700B8420BD9306820F00700384330602B
:10063000306800F00700B84201D00120E5E72878D3
:10064000400705D56068E96820F4E0600843606011
:100650002878000706D56068296920F4605040EAD0
:10066000C100606000F038F86168084AC1F3031106
:10067000515CC8400649086006480068FFF706FF5D
:100680000020C2E70020024000100240EC280008D1
:100690001C00002014000020044805490068496837
:1006A000044AC1F30221515CC84070471C0000207D
:1006B00000100240FC280008044805490068496809
:1006C000044AC1F3C221515CC84070471C0000209D
:1006D00000100240FC28000812A185B00FC98DE867
:1006E0000F0014A0144A006804905168134801F0E8
:1006F0000C03042B10D0082B0ED1C1F38343C90384
:100700001DF803000AD5516804AAC1F34041515CA9
:100710000A4A5043B0FBF1F005B07047084948431E
:10072000FAE7000002030405060708090A0B0C0D8E
:100730000E0F1010010200000010024000127A009B
:1007400000093D002DE9F84F040070D02078C04D1D
:10075000C00749D06868C0F38100012807D06868E5
:10076000C0F38100022809D16868C00306D5286853
:10077000800339D560680028E7D035E06068B0F5BF
:10078000803F0BD010B1B0F5A02F11D0286820F415
:1007900080302860286820F4802002E0286840F437
:1007A00080302860606890B1FFF758FE06460AE086
:1007B000286840F480202860F0E700BFFFF74EFE75
:1007C000801B642873D828688003F7D50CE0FFF7F6
:1007D00045FE064605E000BFFFF740FE801B64288B
:1007E000F0D828688003F7D420789A4E80074FF01D
:1007F00001094FF0000839D5686810F00C0F07D0D8
:100800006868C0F38100022809D16868C00306D473
:100810002868800714D52069012808D110E02069D4
:10082000B0B1C6F80090FFF719FE074605E00AE1EF
:10083000FFF714FEC01B0228C4D828688007F7D52C
:100840002868616920F0F80040EAC10028600DE0E6
:10085000C6F80080FFF702FE074604E0FFF7FEFD42
:10086000C01B022823D828688007F7D42078000707
:100870002CD57948A169D9B1C0F80090FFF7EEFDF9
:10088000074604E0FFF7EAFDC01B02280FD8686A9C
:100890008007F7D571484FF4FA510068B0FBF1F0CA
:1008A000009000BF0098411E0091FAD20EE080E057
:1008B000C0F80080FFF7D2FD074604E0FFF7CEFD49
:1008C000C01B022875D8686A8007F7D420784007D3
:1008D00060D5E8690027C00008D4E86940F080507E
:1008E000E861E869012700F0805000905C480168E9
:1008F000C90513D40168834641F480710160FFF794
:10090000ADFD824606E000BFFFF7A8FDA0EB0A00A0
:1009100064284ED8DBF80000C005F5D5E068012852
:100920000AD008B1052813D0286A20F001002862F7
:10093000286A20F0040002E0286A40F001002862E2
:10094000E06841F2883B98B1FFF788FD82460BE0F2
:10095000286A40F004002862EEE700BFFFF77EFD42
:10096000A0EB0A0159455AD8286A8007F6D50CE051
:10097000FFF774FD824605E0FFF770FDA0EB0A016A
:1009800059454CD8286A8007F6D41FB1E86920F091
:100990008050E861E06988B36968C1F38101022988
:1009A00044D00228C6F8608004D0FFF757FD044603
:1009B00038E034E0FFF752FD074604E0FFF74EFD54
:1009C000C01B02282BD828688001F7D4206AB0F514
:1009D000803F05D16868A16820F400300843686052
:1009E000D4E908010843696821F474110843686078
:1009F000C6F86090FFF732FD044606E025E000BF30
:100A0000FFF72CFD001B022809D828688001F7D5C4
:100A10001BE000BFFFF722FD001B022802D90320C4
:100A2000BDE8F88F28688001F4D40EE00128F7D0E3
:100A30006868226A00F48031914204D1616A00F44E
:100A40007010884201D00120EAE70020E8E70000AA
:100A50000010024000004242800442421C0000207C
:100A60000070004010B5401EB0F1807F01D301201E
:100A700010BD4FF0E02460610F21601700F0E7FA2D
:100A80000020A06107202061002010BD70B5040087
:100A900004D094F83900002510B106E0012070BDA3
:100AA00084F83850204600F023F8242084F83900D8
:100AB0002068C16821F40051C160204600F038FA76
:100AC0002068016921F4904101612068416921F0A9
:100AD0002A0141612068C16841F40051C160E563A9
:100AE000202084F8390084F83A00002070BD00000E
:100AF00030B585B0002400940194029403940068FA
:100B00001449884224D11448816941F480418161AB
:100B1000816901F480410491816941F0040181619E
:100B200080690E4D00F0040004904FF400700090B6
:100B3000022001900320039069462846FFF798FBA6
:100B40002815CDE90004694628460294FFF790FB7A
:100B500005B030BD003801400010024000080140DF
:100B60002DE9F843044690F839001F4616460D4615
:100B7000202850D1A5B19EB194F8380001284AD060
:100B8000012084F838004FF00008C4F83C80212090
:100B900084F83900FFF762FCA6848146E68426E0EB
:100BA0000120BDE8F883E08C401EE084A0684B463D
:100BB000B0F5805F4FF000024FF0800120460097B3
:100BC00003D000F011FAE8B90DE000F00DFAC8B951
:100BD00028882168C0F308004860206908B16D1CAE
:100BE00005E0AD1C03E0216815F8010B4860E08CBE
:100BF0000028D8D14B46002240212046009700F023
:100C0000F3F908B10320CCE7202084F8390084F8F8
:100C100038800020C5E70220C3E7000070B586B029
:100C2000002421480094019402940394816941F0C6
:100C300010018161816901F010010491816941F025
:100C400020018161816901F020010491816941F0F5
:100C500008018161816901F008010491816941F015
:100C6000040181618069114E00F004004FF40055C9
:100C70000490002229463046FFF7EAFB0120009548
:100C8000CDE901040224694630460394FFF7F0FAE7
:100C90004FF4405000900648CDE9010469460548EC
:100CA000FFF7E6FA06B070BD0010024000100140E8
:100CB00000001110000C01402DE9FC4119A000F0CA
:100CC000D7FD25A000F0D4FD012133A000F0A9FE3E
:100CD000344CE06010B134A000F0CAFD14250320AC
:100CE000CDE900054FF4007633460022364937A09F
:100CF00001F0E5F94FF0FF37606080B101F00AFBC9
:100D00000220CDE9000533460022324932A001F02D
:100D1000D6F9A06018B1BDE8FC4101F0FBBA384635
:100D2000BDE8FC815468697320697320616E2052AC
:100D30005454206D757465782073796E6368726F92
:100D40006E697A6174696F6E206578706572696D1D
:100D5000656E74210A00000053796E6368726F6ECD
:100D60006F75732073756363657373206F7574702B
:100D7000757420737563636573732C206F74686575
:100D80007277697365206F75747075742066616918
:100D90006C7572650A000000746573745F6D757818
:100DA00000000000000000204D757465782063721B
:100DB0006561746564207375636365737366756CD0
:100DC0006C79210A0A00000041130008726563650E
:100DD000697665009128000873656E640000000064
:100DE0000C4810B50A4901604FF4E131416000211F
:100DF00081600C22C160C0E904128161C161FFF70A
:100E000045FE002803D0BDE81040FFF730BA10BD02
:100E100000380140C0000020FEE77047704710B561
:100E200000F0D8FC01F0F4FABDE8104000F0E0BC9E
:100E300030B58FB028216846FFF7F5F914210AA8CC
:100E4000FFF7F1F901210804CDE900100024029414
:100E500002250491CDE907504FF4E010099068464F
:100E6000FFF770FC0F20CDE90A056802CDE90C40C0
:100E700002210AA80E94FFF779FB0FB030BD0000E5
:100E8000144910B54868144A10F00C03134803D0F5
:100E9000042B01D0082B09D002604968104AC1F325
:100EA0000311515C0268CA40026010BD4A684B6879
:100EB00002F470124FF0020413F4803F04EB9242EC
:100EC00002D04B689B0301D5064B00E0024B5A430E
:100ED000E2E700000010024000127A001C0000202F
:100EE000EC28000800093D000D48016841F00101AF
:100EF000016041680B4A1140416001680A4A114093
:100F00000160016821F480210160416821F4FE0143
:100F100041604FF41F0181600449C00308607047BD
:100F2000001002400000FFF8FFFFF6FE08ED00E0B1
:100F30002DE9F041044600680169E26821F440515E
:100F4000114301612169A068084361690843216870
:100F5000CA6841F20C639A430243CA60206841693F
:100F6000A26921F44071114341611E492068642542
:100F70003226884202D1FFF79FFB01E0FFF78CFB8E
:100F800000EBC00101EB001160686FF018078000F2
:100F9000B1FBF0F2B2FBF5F2B1FBF0F37A4303EBF5
:100FA0008202B1FBF0F306EB0212B2FBF5F2B3FBE7
:100FB000F5F302F0F00202EB0312B1FBF0F3B1FB28
:100FC000F0F0B0FBF5F0784303EB800006EB001087
:100FD000B0FBF5F0216800F00F0010448860BDE818
:100FE000F0810000003801402DE9F0419846174695
:100FF0000E460446069D1DE0681C1BD02DB1FFF770
:101000002DFAA0EB0800A84214D92068C16821F489
:10101000D071C1602068416921F001014161202047
:1010200084F8390084F83A00002084F8380003205E
:10103000BDE8F0812068006836EA000004D0002096
:10104000B842D9D00020F3E70120F9E7FEE709070D
:10105000090E002804DB00F1E02080F8001470473E
:1010600000F00F0000F1E02080F8141D7047000030
:10107000002806D00E4910F0FF0F03D0C0B2085C64
:10108000401C704710F47F4F04D0C0F30720085C69
:101090000930704710F47F0F04D0C0F30740085C9C
:1010A0001130704701EB1060007819307047000074
:1010B0000429000802E008C8121F08C1002AFAD15A
:1010C00070477047002001E001C1121F002AFBD1C8
:1010D0007047000003480168814201D00120704739
:1010E000002070479C0000202DE9FC411F4604466B
:1010F000DDE90831DDE90A65143040600060C4E9CB
:101100000827C4E90A310A46232118461C3400F096
:1011100065FCD4E903014218D4E90101104B121F08
:1011200000F03CFB44F81A0B002004F801690D4A5A
:1011300004F8036BE4E8020544F8105901C404F80C
:101140003C0B01C444F874090090234601901946F1
:1011500004F1440001F0CEF90020BDE8FC8100005C
:101160004D2100088323000810B5029C24F00104DF
:101170004472C0E907120021C0E90931143040600F
:10118000006010BDF0E905124A60D0E9001211605C
:10119000406000607047FFF767F9FFF749FEFFF70F
:1011A0003DFDFFF71DFEFFF787FDFEE710B500F0E0
:1011B00011F9BDE81040FFF7EEBF000030B513494C
:1011C00043680A68134402F1080498420DD05D8810
:1011D0005DB94D68AB4208D08D689D4200D18860F2
:1011E0005D6845605B68851A1D51836813448342BE
:1011F0000BD05D88002D08D18D68854200D18B60B1
:10120000416859604068991A015130BD280000209A
:101210002DE9F04F85B09946DDE90EA5109CAB464F
:10122000630602D5DFF814C103E0DFF810C1ACF1AA
:10123000110CE30601D524F00104E30701D03023AB
:1012400000E0202300260493A3070BD5002A02DA2E
:101250002D26524206E0630701D52B2602E0230724
:1012600000D520260023EE4622B930228DF800203A
:1012700001230CE0B9F10A0F14D002F00F08120993
:101280001CF808800EF803805B1C002AF2D1AB42E8
:1012900000DD1D46AAEB050214F0110F4FF02007E8
:1012A00008D015E00A27B2FBF7F807FB1828B2FBB5
:1012B000F7F2E5E73EB1002A05DD521E03E0884261
:1012C00000D20770401CB2F1000CA2F10102F6DC62
:1012D00026B1884200D20670401C521EE40605D595
:1012E00008E0884201D2049C0470401C141EA2F144
:1012F0000102F6DC30242E466D1E9E420ADD884235
:1013000000D20470401CF6E7884201D2E55C05700B
:10131000401C00E074461D1EA3F1010307DDBBF174
:10132000000FF1D103E0884200D20770401C131E69
:10133000A2F10102F7DC05B0BDE8F08F152A000824
:101340000C4D4FF0FF362C464FF47A773146E0686B
:1013500000F0C1FB28786978884201D106A000E03E
:1013600008A000F085FAE06800F070FB384600F055
:10137000CAFEEBE700000020537563636573736674
:10138000756C0A004661696C0A0000001CB51421E6
:101390000A20CDE900014FF480630022034904A034
:1013A00000F08DFEBDE81C4000F0B4BFAD11000898
:1013B0006D61696E0000000070B5044C044D02E0E0
:1013C00020688047241DAC42FAD370BD2C2A000847
:1013D000302A000870B5044C044D02E020688047B4
:1013E000241DAC42FAD370BD302A0008342A00080C
:1013F00010B5FEF797FE044A5188491C5180BDE89C
:101400001040FEF793BE00009000002010B5FEF7DC
:1014100089FE0B4C6188491E09B2618000290ADCF3
:1014200000216180FEF782FE6068002807D0BDE8D9
:10143000104000F037BCBDE81040FEF777BE10BD8D
:101440009000002070B5002833D01A4D29688842DA
:101450002FD3696888422CD2A0F10C044FF0FF31E1
:10146000154800F0C3FC60884FF4F55610B1208891
:10147000B04208D011A000F0FBF923886288214611
:1014800015A000F0F5F9002060802680A86884424D
:1014900000D2AC6029686068611A401A2969081A8C
:1014A00028612046FFF78AFEBDE87040024800F040
:1014B00083BC70BD28000020F8120020746F2066E5
:1014C00072656520612062616420646174612062DC
:1014D0006C6F636B3A0A00006D656D3A20307825B9
:1014E0003038782C207573656420666C61673A200B
:1014F00025642C206D6167696320636F64653A2001
:101500003078253034780A00004870470001002008
:10151000004870470011002010B5FFF7B1FC1048DB
:101520004FF47A710068B0FBF1F0401EB0F1807F9B
:1015300009D24FF0E0210B4A4861FF2010700020D3
:10154000886107200861FFF737FFFFF7E1FF0446D6
:10155000FFF7DAFF2146BDE8104000F0F3BC0000C1
:101560001C00002023ED00E070B50446FFF740FFAB
:101570004FF47A750EE00A2805D12B4601220D2181
:101580000848FFF7EDFA2146641C2B460122054866
:10159000FFF7E6FA20780028EDD1BDE87040FFF7AC
:1015A00035BF0000C000002070B50546041D2B4863
:1015B000016819B12846884700284DD028A0E16B62
:1015C00000F056F92AA0216A00F052F92CA0616AB5
:1015D00000F04EF92EA0A16A00F04AF930A0E16AAD
:1015E00000F046F932A0216800F042F934A06168A9
:1015F00000F03EF936A0A16800F03AF938A0E168A1
:1016000000F036F93AA0216900F032F93CA0616996
:1016100000F02EF93EA0A16900F02AF940A0E1698E
:1016200000F026F942A0216B00F022F944A0616B82
:1016300000F01EF946A0A16B00F01AF928784007C7
:1016400006D500F041FE014645A000F011F902E088
:101650004BA000F00DF9FEE770BD0000B0000020C7
:101660007073723A203078253038780A0000000014
:101670007230303A203078253038780A0000000087
:101680007230313A203078253038780A0000000076
:101690007230323A203078253038780A0000000065
:1016A0007230333A203078253038780A0000000054
:1016B0007230343A203078253038780A0000000043
:1016C0007230353A203078253038780A0000000032
:1016D0007230363A203078253038780A0000000021
:1016E0007230373A203078253038780A0000000010
:1016F0007230383A203078253038780A00000000FF
:101700007230393A203078253038780A00000000ED
:101710007231303A203078253038780A00000000E5
:101720007231313A203078253038780A00000000D4
:101730007231323A203078253038780A00000000C3
:10174000206C723A203078253038780A000000008A
:101750002070633A203078253038780A0000000085
:1017600068617264206661756C74206F6E207468A5
:10177000726561643A2025730D0A0D0A00000000AD
:1017800068617264206661756C74206F6E20686198
:101790006E646C65720D0A0D0A00000070B5044697
:1017A000121D22F007000022094D403840F8225057
:1017B000521C102AFAD301620021416281624FF06B
:1017C000807200F13005C263C16285E81A0070BD05
:1017D000EFBEADDE10B5FEF7A5FC044A1178491C3A
:1017E0001170BDE81040FEF7A1BC000024000020ED
:1017F00010B5FEF797FC044A1178491E1170BDE838
:101800001040FEF793BC00002400002010B50068D3
:10181000143800F03BFD002010BD00002DE9F04120
:10182000064614460D46084600F08AFD05F11407E9
:10183000B4B1012C18D134680EE000BF95F8351012
:1018400094F82120A4F11400914204D239461430B6
:1018500000F033F802E02468B442EFD1B44203D17F
:101860003946304600F029F80020BDE8F08100003C
:101870000FB47F2110B503AB0448029A00F0ACFE10
:101880000248FFF771FE10BC5DF814FB78120020CF
:101890000268516002680A6001604860704702682F
:1018A000516002680A6001604860704702685160D8
:1018B00002680A60016048607047426811604268CF
:1018C0004A60416008607047D0E900124A60D0E980
:1018D00000121160406000607047D0E900124A6059
:1018E000D0E9001211604060006070472DE9F047B8
:1018F000002807D0374CC01C20F00306E068864261
:1019000002D90020BDE8F0870C2E00D20C264FF043
:10191000FF31314800F06AFAD4F808C02168E7685E
:10192000ACEB0100BA1B4FE00D186B88E3BB6B6892
:101930001B1A0C3BB34246D36A6806F11803121A0D
:101940000C3A4FF001094FF4F55A9A422DD38319FE
:101950000C33CA184FF00008A2F800A0A2F80280C9
:10196000D5F80480C2E901806B60A5F80290506848
:101970000C37B84202D001F108028350206930448C
:101980000C3020616269824200D26061A5F800A03B
:10199000654512D1A06842887AB1626890420CD045
:1019A00040680844A060F6E70DE0A5F8029068687A
:1019B0006A1A801A22691044E3E7074800F0FCF92C
:1019C00005F10C009EE768688242ADD8024800F03D
:1019D000F3F996E728000020F812002010B503461E
:1019E000CCB2042A1AD3810718D1194644EA042339
:1019F00043EA034306E008C1103A08C141F8083B36
:101A000041F8043C102AF6D201E008C1121F042A52
:101A1000FBD20B4602E000BF03F8014B521EFBD283
:101A200010BD10B50C460146032000F0ADF80028AB
:101A30000BD000F1140181614161012181830021FA
:101A4000FF2201628277C177447210BD70B50446EF
:101A500000F03AFC0546FEF765FB0646206AA84200
:101A600007D04FF0FF3430462C63FEF75FFB204673
:101A700070BDE17F491E11F0FF01E17726D1A17F02
:101A800090F83520914204D004F11E02022100F0AA
:101A9000E4FA606904F11401884210D0143820621D
:101AA00090F83500A077E07F401CE0770846FFF70C
:101AB000ADFE3046FEF73AFB00F0F4F809E0A08BEB
:101AC000401CA08300202062FF20A0773046FEF754
:101AD0002DFB002070BD2DE9F341044600F0F4FB1E
:101AE0000546FEF71FFB064600202863206AA84231
:101AF00003D1E07F401CE07741E0A08B38B180B299
:101B0000401EA083256295F83500A077F1E7019883
:101B100050B3206A95F8351090F83520914204D2E0
:101B200005F13502022100F098FA627A294604F1A3
:101B30001400FFF773FE0198002809DD05F1440049
:101B400001AA0021074600F0ADFC384600F0E6FC93
:101B50003046FEF7EBFA00F0A5F8286B60B10930CB
:101B6000CBD0286BBDE8FC816FF0010430462C63BC
:101B7000FEF7DCFA2046F5E7FEF7D4FA06463046D3
:101B8000FEF7D4FA0020EDE72DE9F0410F460646B6
:101B900000F046F80546C068FFF7A8FE040019D01B
:101BA0000021EA68FFF71AFF2672002060720822FF
:101BB0003946204600F0B2F9FEF7B4FA064604F1C1
:101BC0000C01281DFFF764FE3046FEF7AFFA2046F1
:101BD000BDE8F0810020FBE770B5044600202072CC
:101BE000FEF7A0FA054604F10C00FFF76DFE28464B
:101BF000FEF79CFA2046BDE87040FFF723BC70B5A5
:101C0000044600202072FEF78DFA054604F10C0010
:101C1000FFF75AFE2846BDE87040FEF787BA00007D
:101C2000074A002102EB01131B78834202D102EB29
:101C300001107047491C0529F4DB002070470000A3
:101C4000400000202DE9F041044616460D460846A6
:101C5000FFF7E6FF0746FFF7CBFB381D796800E08A
:101C600009688142FCD1FFF7D1FB45F0800020726A
:101C700008223146204600F051F9FEF753FA054696
:101C800004F10C01381DFFF703FE2846BDE8F041C2
:101C9000FEF74CBA007A000601D5012070470020FB
:101CA0007047000070B5FEF73DFA114C054660889C
:101CB000B0B9A068FFF7DCF90E49401E626851F820
:101CC0003010143991420BD020700B4861600078BD
:101CD00001F11C01002802F11C0006D0FEF729FAD0
:101CE0002846BDE87040FEF721BAFEF722FAF7E772
:101CF00090000020181300202400002010B5044696
:101D0000FEF710FA024694F834000E4920F00F0056
:101D1000401C84F8340094F8350001EBC00104F154
:101D200014004B6818604B68A36148600648616105
:101D3000A16B836819438160BDE810401046FEF72F
:101D4000F5B90000181300209000002010B50446DB
:101D5000FEF7E8F904F11401D1E900235360D1E959
:101D600000231A60A161616194F83520074951F898
:101D7000323001EBC2018B4204D10549A36B8A6862
:101D80009A438A60BDE81040FEF7D0B918130020CE
:101D9000900000202DE9F04116460A461F460546F0
:101DA0000221FFF74FFF05F11404AC616C61AE83B3
:101DB0006F720020BDE8F08170B50446FEF7B2F9FD
:101DC0000546616904F11400814207D0FFF71EFD4A
:101DD0002846FEF7ABF9FFF765FF05E0A08B401C36
:101DE000A0832846FEF7A2F9002070BD73B5054612
:101DF000FEF798F90646A88B28B1401EA883304606
:101E0000FEF794F921E0019808B300F05DFA04466A
:101E1000002020636A7A214605F11400FFF7FEFCDA
:101E20000198002809DD04F1440001AA00210546BB
:101E300000F038FB284600F071FB3046FEF776F9DB
:101E4000FFF730FF206B002800D100207CBD30461A
:101E5000FEF76CF96FF001007CBD000008B509A029
:101E6000FFF706FD0AA0FFF703FD12A00323009071
:101E70000122194612A0FFF7FBFCBDE8084018A09C
:101E8000FFF7F6BC0A205C207C202F0A000000002F
:101E90002D205254202D202020202054687265616E
:101EA00064204F7065726174696E67205379737432
:101EB000656D0A004A756C203239203230323000AC
:101EC000202F207C205C202020202025642E2564CB
:101ED0002E2564206275696C642025730A00000059
:101EE0002032303036202D203230313920436F708F
:101EF0007972696768742062792072742D746872CF
:101F0000656164207465616D0A000000014600E0AF
:101F1000491C0A78002AFBD1081A704710B5002A1C
:101F200007D0034611F8014B03F8014B2CB1521EA8
:101F3000F8D110BD03F8011B00E00021521EF9D1B9
:101F400010BD00000A46C11C10B522F0030321F0A9
:101F50000301182B20D9A3F118048C421CD3114C77
:101F6000581A18382160E0604FF4F5520A800023B7
:101F70000C30C1E901034B804B68194461600A8051
:101F800001224A8048608860002307A10848FFF7C3
:101F900001FF2068A06010BD0146BDE8104005A00B
:101FA000FFF766BC28000020686561700000000033
:101FB000F81200206D656D20696E69742C206572C1
:101FC000726F7220626567696E2061646472657306
:101FD0007320307825782C20616E6420656E642033
:101FE0006164647265737320307825780A0000009C
:101FF00010B50A4900230A4C4B80184604EBC00276
:10200000401C526012602028F8DB1F200870034833
:102010004B600C308B604060006010BD9000002071
:102020001813002010B5074CA068FFF721F80649E7
:10203000401E51F8300014386060BDE810401C307C
:10204000FEF7A5B89000002018130020014840605A
:1020500000607047A800002070472DE9F041164647
:10206000044621B3012926D0022911D1FEF75AF8DE
:10207000074694F83400012500F00F0001280AD02B
:10208000307884F835008540A5633846FEF74EF871
:102090000020BDE8F0812046FFF758FE307884F834
:1020A000350085402046A563FFF728FEEDE7BDE833
:1020B000F04100F02FB9BDE8F04100F027B82DE95C
:1020C000FF478946DDE90C76824601461D4690466B
:1020D0000120FFF759FD041E0DD02846FFF706FC2E
:1020E00060B103968DE8A10043464A46514620461A
:1020F000FEF7FAFF204604B0BDE8F0872046FFF760
:102100006BFD0020F7E700F0E5B8000070B504466D
:1021100090F83400000702D02046FFF717FE04F1C4
:10212000440000F0D7F9042084F83400FDF7FAFFEA
:10213000054604F114010448FFF7B1FB2846FDF7FA
:10214000F5FF002070BD00009C00002070B5134812
:102150000468FDF7E7FF05462046FFF7F7FD04207A
:1021600084F8340004F1440000F0B4F92046FFF78D
:1021700091FD012801D1206F58B104F114010848E4
:10218000FFF78DFB2846FDF7D1FFBDE87040FFF754
:1021900089BD2046FFF733FDF4E7000094000020DE
:1021A0009C00002000F002F8FCE7000070B527E07A
:1021B000FDF7B8FF0546FEF78DFF58B318480168D4
:1021C000A1F11404D1E900024260D1E900021060DB
:1021D00049600960FFF70CF9216F09B12046884773
:1021E0002046FFF757FD01280FD0FFF70FF92846CB
:1021F000FDF79CFFA06AFFF725F92046FFF7ECFCEE
:10220000FEF768FF0028D3D170BD2046FFF7F7FC2A
:10221000FFF7FCF82846BDE87040FDF787BF0000D7
:102220009C0000201FB5202308481F22D9008DE8FC
:102230000F000023064A07A1783800F00FF804B019
:102240000248BDE81040783800F064B878110020EA
:10225000A52100087469646C650000002DE9FF5F2A
:1022600092460EAA0C4692E8E0010A469946834639
:102270000121FFF7E7FC8DE8E0014B46524621467D
:102280005846FEF731FF04B0BDE8F09F70B5044634
:1022900090F8340000F00F00022802D04FF0FF3019
:1022A00070BDFDF73FFF054604F11400FFF715FB75
:1022B00004F1440000F078F92846FDF737FF204686
:1022C000FFF71CFD002070BD01480068704700004A
:1022D00094000020F1B5FDF725FF05460C48046881
:1022E000204600F02DF804F144006A46002106461D
:1022F00000F0D8F8304600F011F92846FDF716FF37
:10230000FFF7D0FC206B801C00D120630020F8BDBB
:102310009400002010B590F83610012280F8351096
:102320008A400221826380F83410FFF7AFFF034830
:10233000006808B1FFF7B6FC002010BD9400002033
:1023400070B5044690F8340000F00F00012802D068
:102350004FF0FF3070BDFDF7E5FE054694F8340000
:1023600020F00F00801C84F834002046FFF7EEFCBC
:1023700004F1440000F018F92846FDF7D7FE0020CC
:1023800070BD10B504466FF00100206304F1140025
:10239000FFF7A3FA2046FFF7B1FCBDE81040FFF7B6
:1023A00081BC000070B5FDF7BDFE06461348046809
:1023B00094F8340000F00F00012819D1D4E9050188
:1023C000884215D004F114000546FFF786FA94F808
:1023D00035000B4901EBC00041680D604168696040
:1023E000456028603046FDF7A1FEFFF75BFC02E088
:1023F0003046FDF79BFE002070BD000094000020D9
:1024000018130020014800687047000020000020D9
:10241000094810B50168491C0160FFF755FF016CC0
:10242000491E016403D1C16B0164FFF7BBFFBDE826
:10243000104000F003B80000200000202DE9F0411A
:10244000FFF7E0FF0646FDF76DFE0746144D1EE060
:1024500060696FF00041301A143C88421AD220465D
:10246000FEF790FED4E907108847FFF7CBFF06463A
:10247000607A810708D5C10706D020F0010060729C
:10248000204600F04BF802E020F0010060722C685A
:10249000AC42DDD13846BDE8F041FDF747BE000053
:1024A000A800002049B1012904D0022908D003293D
:1024B0000ED109E0406A10600AE01168416207E04D
:1024C000417A21F0020102E0417A41F002014172B9
:1024D0000020704770B50546FDF724FE04462846E7
:1024E000FEF750FE2046FDF721FE2846FFF787FB4A
:1024F000002070BD2DE9F8439046DDE908450A4605
:102500001F4606460A21FFF79DFB23463A464146F1
:1025100030460095FEF728FEBDE8F883F8B504467E
:10252000FDF700FE05462046FEF72CFE607A20F0FF
:10253000010060722846FDF7F9FDFFF763FF616A4D
:102540000844A062FDF7EEFD0546164A0020009201
:1025500002EBC002694653686FF0004C5DF8202022
:102560000BE01268A2EBC0067769A66AB74202D0F8
:10257000BE1B664503D341F820209A42F1D1094899
:10258000001F0168491C016004F114010098FFF765
:102590008DF9607A40F0010060722846FDF7C6FDB3
:1025A0000020F8BDA800002070B50446407AC0079E
:1025B0000ED0FDF7B7FD05462046FEF7E3FD2846A1
:1025C000FDF7B4FD607A20F001006072002070BD5C
:1025D0004FF0FF3070BD00002DE9FF4F89460446E3
:1025E00000EB090783B080464FF0FF3A4FF0200B15
:1025F000A74202D25746C8F1FF3907E1252803D088
:10260000BC4200D2207081E000260599491C05914A
:1026100008782D2811D02B2812D0202813D0232859
:1026200014D0302815D00A785546303A0A2A13D2E9
:1026300005A800F047F905461AE046F01006E4E761
:1026400046F00406E1E746F00806DEE746F020061D
:10265000DBE746F00106D8E72A2809D10698491C8D
:10266000059120C80690002D02DA6D4246F0100652
:10267000CDF800A0059801782E2918D1401C0590AE
:102680000178A1F130020A2A04D205A800F01AF953
:10269000009008E02A2908D1401C0590069802C83D
:1026A000069000910846002801DA00200090059865
:1026B00000210278682A01D06C2A02D1401C114600
:1026C000059000780A236F287DD00CDC63281FD08A
:1026D00004DC25287BD058280DD17EE0642801D069
:1026E000692808D17DE070285ED073282CD0752829
:1026F00079D0782873D0BC4201D22520207005986B
:10270000641C0178D1B3BC4200D22170641C7AE011
:10271000F00608D458466D1E002D04DDBC4200D2E0
:102720002070641CF7E70699BC4211F8040B06916F
:1027300000D22070584602E0BC4200D22070641CD7
:102740006D1E002DF8DC5EE0069808C8069003B9FF
:102750003EA31846FFF7DAFB0099002902DD884204
:1027600000DD0846F1060AD459462A466D1E82420B
:1027700005DDBC4200D22170641CF6E752E0002166
:1027800006E0BC4201D21A782270491C5B1C641C12
:102790008142F6DB5A4629466D1E814233DDBC423A
:1027A00000D22270641CF6E7681C02D1082546F0AE
:1027B000010600980296CDE900500698102339468C
:1027C00004C806901BE006E001E00CE007E0BC4214
:1027D0009CD2252016E7082305E046F0400610238A
:1027E00001E046F002066C2901D068291DD0069848
:1027F00004C8069000983946CDE90050029620465C
:10280000FEF706FD04460598401C059005980078E3
:1028100000287FF4F3AEB9F1000F11D0BC420DD205
:1028200020700DE0401E0590EDE7069830F8041B7F
:1028300006908AB2B007DDD512B2DBE707F8010CCB
:1028400007B0A4EB0800BDE8F08F0000284E554CFF
:102850004C2900000020704700207047002070477E
:102860000020704710B5FDF75DFCFEF755FEFFF741
:10287000F5FAFFF7EBFBFFF7BBFBFEF787FDFFF772
:10288000EBFBFFF7CFFCFFF7CDFB002010BD0000F6
:102890000B4D4FF0FF362C463146E868FFF71BF929
:1028A0002078401C20706420FFF72DFC6078401CCD
:1028B0006070E868FFF7CAF8FFF774FDECE7000006
:1028C0000000002010B5014600206FF02F0307E044
:1028D000541C0C60127800EB800003EB40001044A5
:1028E0000A681478303C0A2CF2D310BD00000000B6
:1028F00000000000010203040607080900000000B0
:1029000001020304000001000200010003000100B5
:1029100002000100040001000200010003000100A8
:102920000200010005000100020001000300010097
:102930000200010004000100020001000300010088
:102940000200010006000100020001000300010076
:102950000200010004000100020001000300010068
:102960000200010005000100020001000300010057
:102970000200010004000100020001000300010048
:102980000200010007000100020001000300010035
:102990000200010004000100020001000300010028
:1029A0000200010005000100020001000300010017
:1029B0000200010004000100020001000300010008
:1029C00002000100060001000200010003000100F6
:1029D00002000100040001000200010003000100E8
:1029E00002000100050001000200010003000100D7
:1029F00002000100040001000200010003000100C8
:102A000002000100303132333435363738396162F3
:102A100063646566003031323334353637383941D6
:102A20004243444546000000612800085928000838
:102A3000552800085D280008582A000800000020DA
:102A4000C0000000B4100008182B0008C0000020CF
:102A500058170000C410000800000000000000002B
:102A60000000000000000000010000001000000055
:102A7000000000000024F40000000000000000003E
:102A80000000000000000000000000000000000046
:102A900000000000000000000100000044000020D1
:102AA00044000020780000000200000054000020D4
:102AB00054000020200000000300000064000020FB
:102AC00064000020240000000600000074000020C4
:102AD00074000020340000000A0000008400002080
:102AE000840000202C000000000000000000000016
:102AF00000000000000000000000000000000000D6
:102B000000000000000000000000000000000000C5
:082B10000000000000000000BD
:04000005080000ED02
:00000001FF
