:020000040800F2
:10000000A01B0020010100082B120008CB010008F2
:10001000291200086B02000891150008000000007A
:100020000000000000000000000000002D12000889
:100030008502000800000000530100082F1200088C
:100040001B0100081B0100081B0100081B01000820
:100050001B0100081B0100081B0100081B01000810
:100060001B0100081B0100081B0100081B01000800
:100070001B0100081B0100086D020008790200083E
:100080001B0100081B0100081B0100081B010008E0
:100090001B0100081B0100081B0100081B010008D0
:1000A0001B0100081B0100081B0100081B010008C0
:1000B0001B0100081B0100081B0100081B010008B0
:1000C0001B0100081B0100081B0100081B010008A0
:1000D0001B010008851500081B0100081B01000812
:1000E000870200081B0100081B010008DFF80CD084
:1000F00000F0A4F80048004761020008A01B00209F
:100100000648804706480047FEE7FEE7FEE7FEE7B1
:10011000FEE7FEE7FEE7FEE7FEE7FEE7F91200086E
:10012000ED000008EFF3108072B6704780F310887E
:100130007047334A1368012B04D04FF0010313605A
:10014000304A1060304A116030484FF080510160F1
:100150007047EFF3108272B62948016891B14FF0F1
:10016000000101602748016829B1EFF3098121E905
:10017000F00F00680160244909680968B1E8F00FD0
:1001800081F3098882F310884EF0040E70471E49EF
:1001900008601C494FF00000086019494FF0010049
:1001A00008601B484FF47F01D0F8002041EA0201AB
:1001B000016016484FF080510160164800680068E1
:1001C00080F3088861B662B670471EF0040F0CBF5A
:1001D000EFF30880EFF3098020E9F00F40F804ED19
:1001E0001EF0040F0CBF80F3088880F3098800B567
:1001F00001F0E6FC5DF804EB4EF0040E70470000E1
:1002000020010020180100201C01002004ED00E066
:1002100020ED00E008ED00E0D2B201E000F8012B93
:10022000491EFBD270470022F6E710B513460A4676
:1002300004461946FFF7F0FF204610BD064C074D57
:1002400006E0E06840F0010394E8070098471034A6
:10025000AC42F6D3FFF74EFF403000086030000894
:1002600010B502F01FFE002010BDFEE7014800F0AF
:1002700063B80000A8010020014800F05DB800004C
:1002800064010020704710B54FF4805000F02EF943
:10029000BDE810404FF4005000F028B9704700004E
:1002A00010B590F821100024022903D004218163A5
:1002B00001243DE001680A6822F00E020A6001682C
:1002C0000A6822F001020A601A4A0168914201D1CB
:1002D000012121E0174A1432914201D110211BE083
:1002E000144A2832914201D1891515E0114A3C3255
:1002F000914201D189140FE00E4A5032914202D14D
:100300004FF4803108E00B4A6432914202D14FF43D
:10031000801101E04FF08071064A083A51600121D6
:1003200080F82110002180F82010416B01B188472E
:10033000204610BD080002402DE9F05FC16B0C683B
:1003400001680B68D0F840C0042202FA0CF2494D53
:10035000DFF824A1494E4A4FDFF828B1DFF828E141
:1003600022422CD05A072AD50A68920603D40A687A
:1003700022F004020A600168A94201D1042219E0B6
:10038000514501D1402215E0B14202D14FF48062C3
:1003900010E0B94202D14FF480420BE0594502D13E
:1003A0004FF4802206E0714502D14FF4800201E053
:1003B0004FF080622F4908394A60C16A3BE04FF034
:1003C000020808FA0CF818EA040F4FF000094FF081
:1003D000010235D05FEA837832D50B689B0605D4DD
:1003E0000B6823F00A030B6080F821200168A94202
:1003F00001D1022219E0514501D1202215E0B1427C
:1004000002D14FF4007210E0B94202D14FF4005211
:100410000BE0594502D14FF4003206E0714502D19C
:100420004FF4001201E04FF00072124908394A609F
:1004300080F82090816A00291AD0BDE8F05F084753
:10044000082505FA0CF5254212D01B0710D50B68BC
:1004500023F00E030B6090F84010C36B02FA01F119
:100460005960826380F8212080F82090016BE2E7D8
:10047000BDE8F09F080002401C000240300002402E
:1004800044000240580002406C00024030B528B3DE
:1004900008C8134914221944B1FBF2F18900C16361
:1004A00010498163022141771A6843F6F0718A434B
:1004B000D0E900142143D0E902452C4321430469CB
:1004C0002143446921438469214311431960002178
:1004D0004163012242770177084630BD012030BDDB
:1004E000F8FFFDBF0000024070470000044910B54E
:1004F0000A68024202D00860FFF7F6FF10BD000054
:10050000140401402DE9F84FDFF8B891002409F1F7
:10051000040A0AF1040B23460F270BF1040EC9E06D
:100520000125A5402A40AA427DD1674ED1F804C0DA
:10053000ACEB0608B44532D014DCBCF1030F3AD062
:1005400009DCBCF1000F2AD0BCF1010F1CD0BCF1BA
:10055000020F31D11DE0BCF1110F17D0BCF1120F09
:100560002AD119E0B8F5881F19D006DCB8F5803F0C
:1005700015D0B8F5801F1FD111E0B8F5001F0ED0BF
:10058000B8F5041F18D10AE0CB6815E0CB681B1D35
:1005900012E0CB6808330FE0CB680C330CE08B68BB
:1005A0002BB1012B4FF0080303D0456104E0042375
:1005B00002E0056100E00023FF2A01D8064601E0C1
:1005C00000F104064FEA840501D9A5F12005D6F80B
:1005D000008007FA05FC28EA0C0803FA05F548EA4A
:1005E0000508C6F800804D68ED0062D5374DAE694C
:1005F00046F00106AE61AD6924F0030605F0010581
:100600000095334D06EB050CDCF80850A607360FB5
:1006100007FA06F825EA0805DFF8B880404503D157
:100620004FF0000817E044E0DFF8AC80404502D10D
:100630004FF001080FE0DFF8A480404502D14FF0F1
:10064000020808E0DFF89880404502D14FF0030827
:1006500001E04FF0040808FA06F848EA0508CCF86B
:1006600008804D68D9F80060ED034D4601D516436A
:1006700000E096432E604D68DAF80060AD03554601
:1006800001D5164300E096432E604D68DBF800600C
:10069000ED025D4601D5164300E096432E604D689D
:1006A000DEF80060AD02754601D5164300E09643C2
:1006B0002E60641C0D682A46E5407FF431AFBDE82A
:1006C000F88F0000000401400000111000100240EB
:1006D0000000014000080140000C014000100140F2
:1006E00000140140C2680A4201D0416170470161B3
:1006F00070470AB1016170470904FBE7014880684F
:100700007047000010000020074810B5016841F054
:1007100010010160032000F075F8002000F006F8D9
:1007200000F024F8002010BD0020024070B50D4DEF
:1007300004464FF47A712878B1FBF0F00A49096851
:10074000B1FBF0F000F0ECFA48B9102C07D200220F
:100750002146501E00F036F800206C6070BD01206C
:1007600070BD0000100000201C0000200C4808B5DF
:10077000816941F001018161816901F0010100910C
:10078000C16941F08051C161C06900F080500090A2
:100790000448416821F0E06141F00071416008BD0A
:1007A0000010024000000140002809DB00F01F0299
:1007B000012191404009800000F1E020C0F80011C3
:1007C00070470000F0B40E4B1B680C46C3F30223C5
:1007D000C3F10705042D00D90425191D072901D2ED
:1007E000002300E0DB1E012606FA05F1491E214028
:1007F00099409E40761E16403143F0BC00F0C9BEC1
:100800000CED00E0064900F0070208684FF6FF0310
:10081000184040EA0220034A104308607047000075
:100820000CED00E00000FA052DE9F0470F46050049
:1008300061D0434E306800F00700B84209D23068FA
:1008400020F0070038433060306800F00700B842FD
:1008500051D128683B4C810712D5400703D5606809
:1008600040F4E06060602878000703D5606840F4D9
:10087000605060606068A96820F0F0000843606024
:100880002878C00728D06868012810D0216802287D
:1008900010D0890700292EDA616821F00301014395
:1008A0006160FFF72BFF804641F288390DE0216837
:1008B0008903EFE78901EDE7FFF720FFA0EB0801CF
:1008C000494502D90320BDE8F0876068696800F0F7
:1008D0000C00B0EB810FEFD1306800F00700B84298
:1008E0000BD9306820F0070038433060306800F0E2
:1008F0000700B84201D00120E5E72878400705D578
:100900006068E96820F4E0600843606028780007C8
:1009100006D56068296920F4605040EAC100606033
:1009200000F038F86168084AC1F30311515CC8400F
:100930000649086006480068FFF7F8FE0020C2E795
:100940000020024000100240F62E00081C0000208B
:10095000140000200448054900684968044AC1F3AE
:100960000221515CC84070471C000020001002406A
:10097000062F00080448054900684968044AC1F385
:10098000C221515CC84070471C000020001002408A
:10099000062F000812A185B00FC98DE80F0014A022
:1009A000144A006804905168134801F00C03042BAA
:1009B00010D0082B0ED1C1F38343C9031DF80300E7
:1009C0000AD5516804AAC1F34041515C0A4A504318
:1009D000B0FBF1F005B0704708494843FAE7000062
:1009E00002030405060708090A0B0C0D0E0F101070
:1009F000010200000010024000127A0000093D00D0
:100A00002DE9F84F040070D02078C04DC00749D0C0
:100A10006868C0F38100012807D06868C0F38100CE
:100A2000022809D16868C00306D52868800339D533
:100A300060680028E7D035E06068B0F5803F0BD0F3
:100A400010B1B0F5A02F11D0286820F480302860B4
:100A5000286820F4802002E0286840F48030286074
:100A6000606890B1FFF74AFE06460AE0286840F445
:100A700080202860F0E700BFFFF740FE801B64285D
:100A800073D828688003F7D50CE0FFF737FE0646D9
:100A900005E000BFFFF732FE801B6428F0D828680D
:100AA0008003F7D420789A4E80074FF001094FF069
:100AB000000839D5686810F00C0F07D06868C0F3DB
:100AC0008100022809D16868C00306D4286880071D
:100AD00014D52069012808D110E02069B0B1C6F80A
:100AE0000090FFF70BFE074605E00AE1FFF706FE60
:100AF000C01B0228C4D828688007F7D52868616918
:100B000020F0F80040EAC10028600DE0C6F800803F
:100B1000FFF7F4FD074604E0FFF7F0FDC01B0228D5
:100B200023D828688007F7D4207800072CD5794887
:100B3000A169D9B1C0F80090FFF7E0FD074604E0D5
:100B4000FFF7DCFDC01B02280FD8686A8007F7D5C5
:100B500071484FF4FA510068B0FBF1F0009000BF0B
:100B60000098411E0091FAD20EE080E0C0F80080AB
:100B7000FFF7C4FD074604E0FFF7C0FDC01B0228D5
:100B800075D8686A8007F7D42078400760D5E8698F
:100B90000027C00008D4E86940F08050E861E869A7
:100BA000012700F0805000905C480168C90513D40B
:100BB0000168834641F480710160FFF79FFD824622
:100BC00006E000BFFFF79AFDA0EB0A0064284ED8AC
:100BD000DBF80000C005F5D5E06801280AD008B1AF
:100BE000052813D0286A20F001002862286A20F026
:100BF000040002E0286A40F001002862E06841F247
:100C0000883B98B1FFF77AFD82460BE0286A40F0F6
:100C100004002862EEE700BFFFF770FDA0EB0A01B9
:100C200059455AD8286A8007F6D50CE0FFF766FDCB
:100C3000824605E0FFF762FDA0EB0A0159454CD85A
:100C4000286A8007F6D41FB1E86920F08050E86177
:100C5000E06988B36968C1F38101022944D00228A0
:100C6000C6F8608004D0FFF749FD044638E034E060
:100C7000FFF744FD074604E0FFF740FDC01B0228D4
:100C80002BD828688001F7D4206AB0F5803F05D1C1
:100C90006868A16820F4003008436860D4E908015E
:100CA0000843696821F4741108436860C6F86090CD
:100CB000FFF724FD044606E025E000BFFFF71EFD18
:100CC000001B022809D828688001F7D51BE000BF67
:100CD000FFF714FD001B022802D90320BDE8F88F9E
:100CE00028688001F4D40EE00128F7D06868226AF1
:100CF00000F48031914204D1616A00F4701088429E
:100D000001D00120EAE70020E8E7000000100240DF
:100D100000004242800442421C000020007000405B
:100D200010B5401EB0F1807F01D3012010BD4FF0FF
:100D3000E02460610F21601700F02BFC0020A0610F
:100D400007202061002010BD7047000070B50268C8
:100D500004461068D168536910F00F0F50D003F0AB
:100D6000010501F4907635435DD0C20705D0CA0570
:100D700003D5E26B42F00102E263420705D5DA07D0
:100D800003D0E26B42F00202E263820705D5DA0784
:100D900003D0E26B42F00402E263020705D5DA07F2
:100DA00003D0E26B42F00802E263E26B002A33D028
:100DB000800604D5880602D5204600F0D7FA2068C0
:100DC0004069E16BC0F38010090700D428B32046C6
:100DD00000F0BEFA2068416949061AD5416921F040
:100DE00040014161606BA0B11B494163606BFFF73B
:100DF00057FA002810D0606B416BBDE8704008477F
:100E0000830610D58B060ED52046BDE8704000F055
:100E1000ADBA2046FFF798FF70BD2046FFF794FF5C
:100E20000020E06370BD030606D50B0604D52046FE
:100E3000BDE8704000F042BB4006F3D54806F1D54E
:100E4000D168204621F04001D160202184F839107A
:100E500000F002F970BD00004113000870B50400F5
:100E600004D094F83900002510B106E0012070BDCF
:100E700084F83850204600F023F8242084F8390004
:100E80002068C16821F40051C160204600F0BAFA20
:100E90002068016921F4904101612068416921F0D5
:100EA0002A0141612068C16841F40051C160E563D5
:100EB000202084F8390084F83A00002070BD00003A
:100EC000F0B585B000240646009401940294039482
:100ED00000682D49884254D12C48816941F48041F1
:100EE0008161816901F480410491816941F00401CB
:100EF00081618069264D00F0040004904FF4007079
:100F00000090022001900320039069462846FFF7D5
:100F1000F9FA2815CDE90004694628460294FFF73E
:100F2000F1FA1D4D1B488027C5E90004C5E90247B9
:100F30002C616C61AC612846EC61FFF7A7FA08B13F
:100F4000FFF7ACF975636E62134D124844351438DF
:100F500001C5102091C5104845F8104944306C6116
:100F6000AC61EC61FFF792FA08B1FFF797F93563CE
:100F70000022114625206E62FFF724FC2520FFF792
:100F800013FC05B0F0BD0000003801400010024025
:100F900000080140580002406401002070472DE91C
:100FA000F843044690F839001F4616460D4620289F
:100FB00050D1A5B19EB194F8380001284AD0012043
:100FC00084F838004FF00008C4F83C80212084F8F1
:100FD0003900FFF793FBA6848146E68426E00120D2
:100FE000BDE8F883E08C401EE084A0684B46B0F575
:100FF000805F4FF000024FF080012046009703D041
:1010000000F08DFAE8B90DE000F089FAC8B9288837
:101010002168C0F308004860206908B16D1C05E034
:10102000AD1C03E0216815F8010B4860E08C002836
:10103000D8D14B46002240212046009700F06FFA9D
:1010400008B10320CCE7202084F8390084F83880E8
:101050000020C5E70220C3E7704700000D4808B52F
:10106000416941F0010141614069002200F0010045
:10107000009011460E20FFF7A5FB0E20FFF794FB12
:10108000002211460F20FFF79DFBBDE808400F200E
:10109000FFF78ABB0010024070B586B000242548D7
:1010A0000094019402940394816941F010018161DC
:1010B000816901F010010491816941F02001816191
:1010C000816901F020010491816941F00801816189
:1010D000816901F008010491816941F00401816195
:1010E0008069154E00F004004FF4C04504900022C2
:1010F00029463046FFF7FDFA01200095CDE90104AD
:101100000224694630460394FFF7FCF9681000900A
:101110000A48CDE9010469460948FFF7F3F90022BE
:1011200011462820FFF74EFB2820FFF73DFB06B0B5
:1011300070BD0000001002400010014000001110BE
:10114000000C01402DE9FC4113A000F0A5FE142580
:101150000320CDE900054FF40076334600221C49F8
:101160001CA001F067FA1D4C4FF0FF37206080B1E2
:1011700001F098FB0520CDE900053346002218490F
:1011800018A001F057FA606018B1BDE8FC4101F009
:1011900089BB3846BDE8FC815468697320697320B7
:1011A000616E205254542D435055207574696C69FA
:1011B0007A6174696F6E20737461746973746963A2
:1011C00073206578706572696D656E740D0A000034
:1011D000C51700086C6564310000000000000020A5
:1011E000891700086765745F6370755F75736500C4
:1011F0000C4810B50A4901604FF4E131416000210B
:1012000081600C22C160C0E904128161C161FFF7F5
:1012100025FE002803D0BDE81040FFF73FB810BD01
:101220000038014024010020FEE77047704710B5E8
:1012300000F0DCFD01F0D6FBBDE8104000F0E8BD99
:1012400030B58FB028216846FEF7EDFF14210AA8BB
:10125000FEF7E9FF01210804CDE900100024029403
:1012600002250491CDE907504FF4E010099068463B
:10127000FFF7C6FB0F20CDE90A056802CDE90C4057
:1012800002210AA80E94FFF7CFFA0FB030BD00007C
:10129000144910B54868144A10F00C03134803D0E1
:1012A000042B01D0082B09D002604968104AC1F311
:1012B0000311515C0268CA40026010BD4A684B6865
:1012C00002F470124FF0020413F4803F04EB9242D8
:1012D00002D04B689B0301D5064B00E0024B5A43FA
:1012E000E2E700000010024000127A001C0000201B
:1012F000F62E000800093D000D48016841F001018B
:10130000016041680B4A1140416001680A4A11407E
:101310000160016821F480210160416821F4FE012F
:1013200041604FF41F0181600449C00308607047A9
:10133000001002400000FFF8FFFFF6FE08ED00E09D
:1013400010B5406A0021C185C184FFF7FDFC10BDC6
:101350000168CA6822F49072CA6001684A6922F082
:1013600001024A61202180F83A10704710B590F8C8
:101370003A10222901D0022010BD8168B1F5805FAA
:1013800011D00169002901681FD0496801F07F036D
:10139000816A4A1C82620B70C18D491E0904090CC6
:1013A000C18518D02BE00269816A002A0268526860
:1013B00005D0D2B20A80816A491C8162ECE7C2F38F
:1013C00008020A80816A891CF7E74A68816A4B1C17
:1013D00083620A70E0E70168CA6822F02002CA60EE
:1013E0000168CA6822F48072CA6001684A6922F002
:1013F00001024A61202180F83A10FFF7CFFD00205A
:1014000010BD00002DE9F041044600680169E26862
:1014100021F44051114301612169A06808436169C9
:1014200008432168CA6841F20C639A430243CA60C8
:1014300020684169A26921F44071114341611E494C
:10144000206864253226884202D1FFF793FA01E032
:10145000FFF780FA00EBC00101EB001160686FF04C
:1014600018078000B1FBF0F2B2FBF5F2B1FBF0F32C
:101470007A4303EB8202B1FBF0F306EB0212B2FBFC
:10148000F5F2B3FBF5F302F0F00202EB0312B1FB4D
:10149000F0F3B1FBF0F0B0FBF5F0784303EB800024
:1014A00006EB0010B0FBF5F0216800F00F001044CF
:1014B0008860BDE8F08100000038014090F83910E4
:1014C000212901D0022070478168B1F5805F016A4F
:1014D0000BD04A1C0262026809785160C18C491E17
:1014E0000904090CC1840ED017E009880268C1F311
:1014F0000801516001690029016A02D0491C01629A
:10150000ECE7891CFBE70168CA6822F08002CA6028
:101510000068C16841F04001C160002070472DE9BA
:10152000F041984617460E460446069D1DE0681C8D
:101530001BD02DB1FFF7E2F8A0EB0800A84214D9A8
:101540002068C16821F4D071C1602068416921F030
:1015500001014161202084F8390084F83A0000201C
:1015600084F838000320BDE8F0812068006836EA7E
:10157000000004D00020B842D9D00020F3E70120B9
:10158000F9E700000148FFF7E1BB0000240100205B
:10159000FEE70907090E002804DB00F1E02080F8CF
:1015A0000014704700F00F0000F1E02080F8141DD7
:1015B00070470000002806D00E4910F0FF0F03D03E
:1015C000C0B2085C401C704710F47F4F04D0C0F3D9
:1015D0000720085C0930704710F47F0F04D0C0F377
:1015E0000740085C1130704701EB1060007819303B
:1015F000704700000E2F000802E008C8121F08C143
:10160000002AFAD170477047002001E001C1121F83
:10161000002AFBD17047000003480168814201D0D5
:101620000120704700207047E40000202DE9FC41B4
:101630001F460446DDE90831DDE90A6514304060E3
:101640000060C4E90827C4E90A310A462321184684
:101650001C3400F0DDFCD4E903014218D4E9010197
:10166000104B121F00F0A6FB2060A67666760020C5
:10167000A562E061E56260612076E06520661C3C61
:10168000009023460190084A194604F14C0001F0ED
:1016900025FA0648816809B1204688470020BDE840
:1016A000FC8100008126000821290008EC000020B0
:1016B00010B5029C24F001044472C0E90712002115
:1016C000C0E9093114304060006010BDF0E9051236
:1016D0004A60D0E90012116040600060704700006D
:1016E000024A137803705078087070470800002091
:1016F000F8B5214C00256068A8B900F083F901F025
:101700006BF9064608E06068401C60600095009830
:10171000401C00906428FAD301F05EF9801B642815
:10172000F1D300F07DF9002601F056F9074606E0F6
:10173000761C00950098401C00906428FAD301F0B4
:101740004BF9C01B6428F3D3606886420FD2811B1B
:1017500064225143B1FBF0F22270B1FBF0F200FBC6
:10176000121164225143B1FBF0F06070F8BD666065
:1017700025706570F8BD000008000020014801F0E8
:1017800011B80000F11600081CB501A96846FFF762
:10179000A7FF9DF804209DF8001003A000F07CFB3B
:1017A000642000F06BFFF0E7435055207574696CBE
:1017B000697A6174696F6E203D2025642E25642549
:1017C0000D0A0000084E4FF400554FF47A74294674
:1017D0003046FEF787FF0022521C92B2A242FBD392
:1017E000052000F04BFFF2E700100140FEF78CFFF0
:1017F000FFF7C4FFFFF724FDFFF74EFCFFF72EFCB9
:10180000FFF7F6FCFFF79EFCFEE710B500F0ECF8E2
:10181000BDE81040FFF7EABF30B5144943688A6855
:10182000134498420FD05C886CB9CC68A3420AD0AC
:101830000C699C4200D108615C6844605D6802F1FB
:101840000803841AEC508368134483420CD05C88EC
:10185000002C09D10C69844200D10B6141685960A8
:10186000991A40680832815030BD000030000020D5
:101870002DE9F04F85B09946DDE90EA5109CAB46E9
:10188000630602D5DFF814C103E0DFF810C1ACF144
:10189000110CE30601D524F00104E30701D0302345
:1018A00000E0202300260493A3070BD5002A02DAC8
:1018B0002D26524206E0630701D52B2602E02307BE
:1018C00000D520260023EE4622B930228DF80020D4
:1018D00001230CE0B9F10A0F14D002F00F0812092D
:1018E0001CF808800EF803805B1C002AF2D1AB4282
:1018F00000DD1D46AAEB050214F0110F4FF0200782
:1019000008D015E00A27B2FBF7F807FB1828B2FB4E
:10191000F7F2E5E73EB1002A05DD521E03E08842FA
:1019200000D20770401CB2F1000CA2F10102F6DCFB
:1019300026B1884200D20670401C521EE40605D52E
:1019400008E0884201D2049C0470401C141EA2F1DD
:101950000102F6DC30242E466D1E9E420ADD8842CE
:1019600000D20470401CF6E7884201D2E55C0570A5
:10197000401C00E074461D1EA3F1010307DDBBF10E
:10198000000FF1D103E0884200D20770401C131E03
:10199000A2F10102F7DC05B0BDE8F08F1F300008AE
:1019A0001CB514210A20CDE900014FF48063002208
:1019B000034904A000F03EFEBDE81C4000F072BFE9
:1019C0000B1800086D61696E0000000070B5044CD2
:1019D000044D02E020688047241DAC42FAD370BD5C
:1019E000343000083830000870B5044C044D02E073
:1019F00020688047241DAC42FAD370BD38300008FF
:101A00003C30000810B5FEF78DFB044A5188491C94
:101A10005180BDE81040FEF789BB0000D4000020D3
:101A200010B5FEF77FFB0B4C6188491E09B261803F
:101A300000290ADC00216180FEF778FB606800283D
:101A400007D0BDE8104000F099BBBDE81040FEF79C
:101A50006DBB10BDD400002070B5040035D01B4D07
:101A6000696801B18847A86884422ED3E868844237
:101A70002BD24FF0FF3116480C3C00F031FC60884F
:101A80004FF4F55610B12088B04208D011A000F0F4
:101A900003FA23886288214615A000F0FDF9002092
:101AA000608026802869844200D22C61A968606821
:101AB000611A401AA969081AA8612046FFF7ACFE0E
:101AC000BDE87040024800F0E9BB70BD3000002066
:101AD000FC130020746F20667265652061206261CE
:101AE00064206461746120626C6F636B3A0A000069
:101AF0006D656D3A203078253038782C2075736507
:101B00006420666C61673A2025642C206D616769EA
:101B10006320636F64653A203078253034780A009A
:101B200000487047EC01002000487047EC1100208D
:101B300010B5FFF7ADFB10484FF47A710068B0FBA9
:101B4000F1F0401EB0F1807F09D24FF0E0210B4A46
:101B50004861FF2010700020886107200861FFF7AE
:101B600035FFFFF7E1FF0446FFF7DAFF2146BDE846
:101B7000104000F0B3BC00001C00002023ED00E08A
:101B800070B50446FFF73EFF4FF47A750EE00A2861
:101B900005D12B4601220D210848FFF700FA214606
:101BA000641C2B4601220548FFF7F9F9207800282C
:101BB000EDD1BDE87040FFF733BF000024010020E5
:101BC00070B50546041D2B48016819B128468847A1
:101BD00000284DD028A0E16B00F05EF92AA0216A10
:101BE00000F05AF92CA0616A00F056F92EA0A16A03
:101BF00000F052F930A0E16A00F04EF932A02168FD
:101C000000F04AF934A0616800F046F936A0A168F6
:101C100000F042F938A0E16800F03EF93AA02169ED
:101C200000F03AF93CA0616900F036F93EA0A169E4
:101C300000F032F940A0E16900F02EF942A0216BDA
:101C400000F02AF944A0616B00F026F946A0A16BD0
:101C500000F022F92878400706D500F0FDFD014686
:101C600045A000F019F902E04BA000F015F9FEE7DD
:101C700070BD0000140100207073723A2030782586
:101C80003038780A000000007230303A2030782571
:101C90003038780A000000007230313A2030782560
:101CA0003038780A000000007230323A203078254F
:101CB0003038780A000000007230333A203078253E
:101CC0003038780A000000007230343A203078252D
:101CD0003038780A000000007230353A203078251C
:101CE0003038780A000000007230363A203078250B
:101CF0003038780A000000007230373A20307825FA
:101D00003038780A000000007230383A20307825E8
:101D10003038780A000000007230393A20307825D7
:101D20003038780A000000007231303A20307825CF
:101D30003038780A000000007231313A20307825BE
:101D40003038780A000000007231323A20307825AD
:101D50003038780A00000000206C723A2030782574
:101D60003038780A000000002070633A203078256F
:101D70003038780A0000000068617264206661757E
:101D80006C74206F6E207468726561643A202573EC
:101D90000D0A0D0A0000000068617264206661751A
:101DA0006C74206F6E2068616E646C65720D0A0D34
:101DB0000A00000070B50446121D22F00700002240
:101DC000094D403840F82250521C102AFAD30162C3
:101DD0000021416281624FF0807200F13005C263E0
:101DE000C16285E81A0070BDEFBEADDE10B5FEF72A
:101DF00099F9064904460878401C0870486800B103
:101E000080472046BDE81040FEF790B9240000202E
:101E100010B5FEF787F9064904460878401E087099
:101E2000886800B180472046BDE81040FEF77EB9C3
:101E30002400002010B50068143800F0E7FC0020F2
:101E400010BD00002DE9F041064614460D46084637
:101E500000F03EFD05F11407B4B1012C18D134682F
:101E60000EE000BF95F8351094F82120A4F114007D
:101E7000914204D23946143000F033F802E024686D
:101E8000B442EFD1B44203D13946304600F029F8CC
:101E90000020BDE8F08100000FB47F2110B503AB36
:101EA0000448029A00F0B8FE0248FFF769FE10BC31
:101EB0005DF814FB7C1300200268516002680A6020
:101EC0000160486070470268516002680A60016002
:101ED000486070470268516002680A6001604860AB
:101EE00070474268116042684A604160086070470C
:101EF000D0E900124A60D0E9001211604060006031
:101F00007047D0E900124A60D0E9001211604060C9
:101F1000006070472DE9F047002807D03A4CC01CFC
:101F200020F003066069864202D90020BDE8F087F0
:101F30000C2E00D20C264FF0FF31344800F0D0F9BF
:101F4000D4F810C0A1686769ACEB0100BA1B55E07A
:101F50000D186B88E3BB6B681B1A0C3BB3424CD368
:101F60006A6806F11803121A0C3A4FF001094FF48F
:101F7000F55A9A422DD383190C33CA184FF0000832
:101F8000A2F800A0A2F80280D5F80480C2E901807E
:101F90006B60A5F8029050680C37B84202D001F18E
:101FA00008028350A06930440C30A061E26982428B
:101FB00000D2E061A5F800A0654512D120694288F1
:101FC0007AB1E26890420CD0406808442061F6E79C
:101FD00013E0A5F8029068686A1A801AA269104492
:101FE000E3E70A4800F05AF922681AB1314605F1D0
:101FF0000C00904705F10C0098E768688242A7D86A
:10200000024800F04BF990E730000020FC1300205C
:1020100010B50346C9B201E003F8011B521EFBD202
:1020200010BD00002DE9F0410F46064600F05CF8B7
:102030000546C068FFF76EFF04001ED00021EA6865
:10204000FFF7E6FF2672002060720822394620461C
:1020500000F030FA0A48016809B120468847FEF7C7
:1020600061F8064604F10C01281DFFF725FF3046F4
:10207000FEF75CF82046BDE8F0810020FBE7000099
:102080005000002070B504460A48416809B1204656
:10209000884700202072FEF745F8054604F10C0041
:1020A000FFF726FF2846FEF741F82046BDE87040BE
:1020B000FFF7D2BC5000002070B5044609484168C3
:1020C00009B12046884700202072FEF72BF805460C
:1020D00004F10C00FFF70CFF2846BDE87040FEF746
:1020E00025B8000050000020074A002102EB011330
:1020F0001B78834202D102EB01107047491C07296B
:10210000F4DB002070470000640000202DE9F0415E
:10211000044616460D460846FFF7E6FF0746FFF75A
:1021200071FC381D796800E009688142FCD1FFF735
:1021300077FC45F08000207208223146204600F0EE
:10214000B9F90948016809B120468847FDF7EAFF57
:10215000054604F10C01381DFFF7AEFE2846BDE828
:10216000F041FDF7E3BF000050000020007A0006B8
:1021700001D5012070470020704700002DE9F04193
:10218000FDF7D0FF134C07466088D8B9A068FFF769
:1021900011FA1149401E666851F83050143DB5429D
:1021A00010D020706560E26812B129463046904731
:1021B0000A48007805F11C01002806F11C0006D031
:1021C000FDF7B7FF3846BDE8F041FDF7AFBFFDF7BB
:1021D000B0FFF7E7D40000201C14002024000020EA
:1021E00010B50446FDF79EFF024694F834000E49F0
:1021F00020F00F00401C84F8340094F8350001EB07
:10220000C00104F114004B6818604B68A36148607A
:1022100006486161A16B836819438160BDE8104085
:102220001046FDF783BF00001C140020D4000020DE
:1022300010B50446FDF776FF04F11401D1E900233F
:102240005360D1E900231A60A161616194F83520DF
:10225000074951F8323001EBC2018B4204D10549E4
:10226000A36B8A689A438A60BDE81040FDF75EBFA1
:102270001C140020D40000202DE9F04116460A4627
:102280001F4605460221FFF741FF05F11404AC612A
:102290006C61AE836F720020BDE8F08170B50446BA
:1022A0000E48016809B120468847FDF73BFF054607
:1022B000616904F11400814207D0FFF7BBFD284695
:1022C000FDF734FFFFF75AFF05E0A08B401CA08309
:1022D0002846FDF72BFF002070BD000060000020A5
:1022E0002DE9F34105462048016809B12846884791
:1022F000FDF718FF0646A88B28B1401EA88330467C
:10230000FDF714FF21E0019838B300F0A5FA044668
:10231000002020636A7A214605F11400FFF792FD40
:102320000198002809DD04F14C0001AA00210746AC
:1023300000F0ACFB384600F0EDFB3046FDF7F6FE52
:10234000FFF71CFF206B002805D10848016809B180
:10235000284688470020BDE8FC813046FDF7E6FEB0
:102360006FF00100F7E70000580000205C0000203B
:1023700008B509A0FFF790FD0AA0FFF78DFD12A098
:10238000032300900122194612A0FFF785FDBDE846
:10239000084018A0FFF780BD0A205C207C202F0A8F
:1023A000000000002D205254202D202020202054F9
:1023B0006872656164204F7065726174696E672030
:1023C00053797374656D0A004A756C203239203276
:1023D00030323000202F207C205C2020202020253F
:1023E000642E25642E2564206275696C6420257333
:1023F0000A0000002032303036202D2032303139B2
:1024000020436F70797269676874206279207274F2
:102410002D746872656164207465616D0A00000046
:102420002DE9F04100F0D8FA8046FFF7EBFA1C4F97
:10243000A7F114063D682DE06969A5F11404A8EB25
:1024400001006FF00041884226D2716809B1204630
:1024500088472D682046FFF739F9FFF7E1FAD4E9FC
:102460000710884700F0B8FAB168804609B12046E5
:102470008847FFF7C7FA607A810708D5C10706D0F9
:1024800020F001006072204600F044FB02E020F0E2
:1024900001006072BD42CFD1BDE8F041FFF7C0BA84
:1024A0000C010020014600E0491C0A78002AFBD1FB
:1024B000081A704710B5002A07D0034611F8014BDF
:1024C00003F8014B2CB1521EF8D110BD03F8011BCB
:1024D00000E00021521EF9D110BD00000A46C11CC7
:1024E00010B522F0030321F00301182B20D9A3F12A
:1024F00018048C421CD3114C581A1838A160606122
:102500004FF4F5520A8000230C30C1E901034B80DF
:102510004B681944E1600A8001224A804860886063
:10252000002307A10848FFF7A7FEA068206110BD9F
:102530000146BDE8104005A0FFF7AEBC300000200A
:102540006865617000000000FC1300206D656D205F
:10255000696E69742C206572726F7220626567699A
:102560006E206164647265737320307825782C2046
:10257000616E6420656E64206164647265737320AB
:10258000307825780A00000010B50A4900230A4C6B
:102590004B80184604EBC002401C52601260202899
:1025A000F8DB1F20087003484B6010308B604060E0
:1025B000006010BDD40000201C14002010B5074C92
:1025C000A068FEF7F7FF0649401E51F830001438A6
:1025D0006060BDE810401C30FDF7D9BDD40000207C
:1025E0001C14002001484060006070470401002076
:1025F0001FB50B4804220A23406000600948D1013E
:102600008DE80F000023084A08A1803800F0E6F8A2
:1026100004B00448BDE81040803800F043B9000021
:102620000C0100209C1500204129000874696D658B
:10263000720000002DE9FF478946DDE90C768246ED
:1026400001461D4690460120FFF7ECFC041E0DD00C
:102650002846FFF75FFC60B103968DE8A100434672
:102660004A4651462046FEF7E1FF204604B0BDE849
:10267000F0872046FFF706FD0020F7E700F0F2B8EC
:1026800070B513480468FDF74DFD05462046FFF779
:10269000CFFD042084F8340004F14C0000F00EFA61
:1026A0002046FFF763FD012801D1A06F58B104F166
:1026B00014010848FFF707FC2846FDF737FDBDE881
:1026C0007040FFF75BBD2046FFF7F6FCF4E7000023
:1026D000D8000020E4000020054D002455F8240017
:1026E00000B18047641C042CF8D300F003F8F4E731
:1026F0006C13002070B527E0FDF714FD0546FEF7CA
:102700008BFF58B318480168A1F11404D1E9000205
:102710004260D1E90002106049600960FFF772F978
:10272000A16F09B1204688472046FFF71FFD012809
:102730000FD0FFF775F92846FDF7F8FCA06AFFF700
:102740008BF92046FFF79EFCFEF766FF0028D3D1E9
:1027500070BD2046FFF7B0FCFFF762F92846BDE8E0
:102760007040FDF7E3BC0000E40000201FB520230B
:1027700008481F22D9008DE80F000023064A07A150
:10278000803800F02BF804B00248BDE810408038D3
:1027900000F088B86C120020D92600087469646CB7
:1027A0006500000070B505466FF00204FDF7BAFC45
:1027B00002460948002100BF50F821303BB1491CB6
:1027C0000429F9D31046FDF7B1FC204670BD40F84E
:1027D00021500024F6E700006C1300202DE9FF5F74
:1027E00092460EAA0C4692E8E0010A4699468346B4
:1027F0000121FFF78BFC8DE8E0014B465246214654
:102800005846FEF713FF04B0BDE8F09F70B50446CC
:1028100090F8340000F00F00022802D04FF0FF3093
:1028200070BDFDF77FFC054604F11400FFF769FB5E
:1028300004F14C0000F0D2F92846FDF777FC204661
:10284000FFF7CEFC0348416809B1204688470020C5
:1028500070BD0000EC0000200148006870470000D7
:10286000D8000020F1B5FDF75DFC05460C48046872
:10287000204600F02DF804F14C006A46002106467F
:1028800000F004F9304600F045F92846FDF74EFC0B
:10289000FFF774FC206B801C00D120630020F8BD82
:1028A000D800002010B590F83610012280F83510BD
:1028B0008A400221826380F83410FFF7A7FF0348A3
:1028C000006808B1FFF75AFC002010BDD8000020B6
:1028D00070B5044690F8340000F00F00012802D0D3
:1028E0004FF0FF3070BDFDF71DFC054694F8340035
:1028F00020F00F00801C84F834002046FFF798FC7D
:1029000004F14C0000F06AF92846FDF70FFC03487B
:10291000016809B120468847002070BDEC00002006
:1029200010B504466FF00100206304F11400FFF7B6
:10293000E8FA2046FFF754FCBDE81040FFF71EBC44
:102940006FF000450B4800F0DDF80446401C09D04C
:1029500000F042F8201AA84201D2FFF78FFEFFF7DD
:102960005FFDEFE7FFF778FFFFF7B2FFFFF706FC29
:10297000F5E700000C01002070B5FDF7D3FB06461B
:102980001348046894F8340000F00F00012819D1AE
:10299000D4E90501884215D004F114000546FFF77B
:1029A000B0FA94F835000B4901EBC00041680D60A6
:1029B00041686960456028603046FDF7B7FBFFF766
:1029C000DDFB02E03046FDF7B1FB002070BD0000EA
:1029D000D80000201C140020014800687047000047
:1029E00020000020094810B50168491C0160FFF76C
:1029F00033FF816C491E816403D1416C8164FFF710
:102A0000BBFFBDE8104000F003B80000200000202C
:102A10002DE9F041FFF7E0FF0746FDF783FB1A4E73
:102A2000804606F10C0526E06069143C391A6FF007
:102A30000040814222D2716809B120468847204671
:102A4000FEF744FED4E907108847FFF7C5FFB168D9
:102A5000074609B120468847607A810708D5C10733
:102A600006D020F001006072204600F053F802E02A
:102A700020F0010060722C68AC42D5D14046BDE820
:102A8000F041FDF753BB0000F800002049B10129D7
:102A900004D0022908D003290ED109E0406A106051
:102AA0000AE01168416207E0417A21F0020102E088
:102AB000417A41F0020141720020704770B505462D
:102AC000FDF730FB04462846FEF700FE2046FDF7E2
:102AD0002DFB2846FFF7F0FA002070BD2DE9F843E2
:102AE0009046DDE908450A461F4606460A21FFF7DB
:102AF0000DFB23463A46414630460095FEF7D8FD89
:102B0000BDE8F8830168814202D14FF0FF30704781
:102B100048697047F8B50446FDF704FB05462046B2
:102B2000FEF7D4FD607A20F0010060722846FDF7C0
:102B3000FDFA2748016809B120468847FFF74CFF96
:102B4000616A0844A062FDF7EDFA0546607A400725
:102B500001D5204A01E01F4A083A0020009202EB0A
:102B6000C002694653686FF0004C5DF820200BE00E
:102B70001268A2EBC0067769A66AB74202D0BE1BF4
:102B8000664503D341F820209A42F1D11148143808
:102B90000168491C016004F114010098FFF79AF9DB
:102BA000607A40F0010060722846FDF7BFFA607A53
:102BB00040070BD5084890F8340000F00F000128BA
:102BC00004D00548FFF722FEFFF7D8FA0020F8BD31
:102BD0005C0000200C0100201C15002070B504468C
:102BE000407AC00713D00B48016809B120468847D6
:102BF000FDF798FA05462046FEF768FD2846FDF7E2
:102C000095FA607A20F001006072002070BD4FF0EC
:102C1000FF3070BD600000202DE9FF4F894604465B
:102C200000EB090783B080464FF0FF3A4FF0200BCE
:102C3000A74202D25746C8F1FF3907E1252803D041
:102C4000BC4200D2207081E000260599491C059104
:102C500008782D2811D02B2812D0202813D0232813
:102C600014D0302815D00A785546303A0A2A13D2A3
:102C700005A800F02CF905461AE046F01006E4E736
:102C800046F00406E1E746F00806DEE746F02006D7
:102C9000DBE746F00106D8E72A2809D10698491C47
:102CA000059120C80690002D02DA6D4246F010060C
:102CB000CDF800A0059801782E2918D1401C059068
:102CC0000178A1F130020A2A04D205A800F0FFF829
:102CD000009008E02A2908D1401C0590069802C8F7
:102CE000069000910846002801DA0020009005981F
:102CF00000210278682A01D06C2A02D1401C1146BA
:102D0000059000780A236F287DD00CDC63281FD043
:102D100004DC25287BD058280DD17EE0642801D022
:102D2000692808D17DE070285ED073282CD07528E2
:102D300079D0782873D0BC4201D225202070059824
:102D4000641C0178D1B3BC4200D22170641C7AE0CB
:102D5000F00608D458466D1E002D04DDBC4200D29A
:102D60002070641CF7E70699BC4211F8040B069129
:102D700000D22070584602E0BC4200D22070641C91
:102D80006D1E002DF8DC5EE0069808C8069003B9B9
:102D90003EA31846FFF786FB0099002902DD884212
:102DA00000DD0846F1060AD459462A466D1E8242C5
:102DB00005DDBC4200D22170641CF6E752E0002120
:102DC00006E0BC4201D21A782270491C5B1C641CCC
:102DD0008142F6DB5A4629466D1E814233DDBC42F4
:102DE00000D22270641CF6E7681C02D1082546F068
:102DF000010600980296CDE9005006981023394646
:102E000004C806901BE006E001E00CE007E0BC42CD
:102E10009CD2252016E7082305E046F04006102343
:102E200001E046F002066C2901D068291DD0069801
:102E300004C8069000983946CDE900500296204615
:102E4000FEF716FD04460598401C0590059800788D
:102E500000287FF4F3AEB9F1000F11D0BC420DD2BF
:102E600020700DE0401E0590EDE7069830F8041B39
:102E700006908AB2B007DDD512B2DBE707F8010C85
:102E800007B0A4EB0800BDE8F08F0000284E554CB9
:102E90004C29000000207047002070470020704738
:102EA0000020704710B5FDF73DF9FEF741FEFFF732
:102EB0005FFAFFF797FBFFF767FBFEF771FDFFF780
:102EC00097FBFFF753FCFFF779FB002010BD10B50F
:102ED000014600206FF02F0307E0541C0C601278AD
:102EE00000EB800003EB400010440A681478303C8B
:102EF0000A2CF2D310BD0000000000000000010207
:102F00000304060708090000000001020304000092
:102F100001000200010003000100020001000400A2
:102F20000100020001000300010002000100050091
:102F30000100020001000300010002000100040082
:102F40000100020001000300010002000100060070
:102F50000100020001000300010002000100040062
:102F60000100020001000300010002000100050051
:102F70000100020001000300010002000100040042
:102F8000010002000100030001000200010007002F
:102F90000100020001000300010002000100040022
:102FA0000100020001000300010002000100050011
:102FB0000100020001000300010002000100040002
:102FC00001000200010003000100020001000600F0
:102FD00001000200010003000100020001000400E2
:102FE00001000200010003000100020001000500D1
:102FF00001000200010003000100020001000400C2
:103000000100020001000300010002000100303154
:10301000323334353637383961626364656600307F
:10302000313233343536373839414243444546002E
:10303000A12E0008992E0008952E00089D2E00084C
:10304000603000080000002024010000F81500088E
:1030500084310008240100207C1A000008160008B2
:103060000000000000000000000000000000000060
:103070000100000010000000000000000024F40027
:103080000000000000000000000000000000000040
:103090000000000000000000000000000000000030
:1030A0000000000000000000000000000000000020
:1030B0000000000000000000000000000000000010
:1030C00000000000010000006800002068000020EF
:1030D000800000000200000078000020780000203E
:1030E000200000000300000088000020880000206D
:1030F0002400000004000000980000209800002038
:103100002000000005000000A8000020A80000200A
:103110003000000006000000B8000020B8000020C9
:10312000340000000A000000C8000020C800002091
:103130002C00000000000000000000000000000063
:10314000000000000000000000000000000000007F
:10315000000000000000000000000000000000006F
:10316000000000000000000000000000000000005F
:10317000000000000000000000000000000000004F
:04318000000000004B
:04000005080000ED02
:00000001FF
