:020000040800F2
:10000000F01A0020010100081B0E0008CB010008B7
:10001000190E00086B0200084D10000800000000D7
:100020000000000000000000000000001D0E00089D
:100030006D02000800000000530100081F0E0008B8
:100040001B0100081B0100081B0100081B01000820
:100050001B0100081B0100081B0100081B01000810
:100060001B0100081B0100081B0100081B01000800
:100070001B0100081B0100081B0100081B010008F0
:100080001B0100081B0100081B0100081B010008E0
:100090001B0100081B0100081B0100081B010008D0
:1000A0001B0100081B0100081B0100081B010008C0
:1000B0001B0100081B0100081B0100081B010008B0
:1000C0001B0100081B0100081B0100081B010008A0
:1000D0001B0100081B0100081B0100081B01000890
:1000E0001B0100081B0100081B010008DFF80CD0F1
:1000F00000F0A4F80048004761020008F01A002050
:100100000648804706480047FEE7FEE7FEE7FEE7B1
:10011000FEE7FEE7FEE7FEE7FEE7FEE7E90E000882
:10012000ED000008EFF3108072B6704780F310887E
:100130007047334A1368012B04D04FF0010313605A
:10014000304A1060304A116030484FF080510160F1
:100150007047EFF3108272B62948016891B14FF0F1
:10016000000101602748016829B1EFF3098121E905
:10017000F00F00680160244909680968B1E8F00FD0
:1001800081F3098882F310884EF0040E70471E49EF
:1001900008601C494FF00000086019494FF0010049
:1001A00008601B484FF47F01D0F8002041EA0201AB
:1001B000016016484FF080510160164800680068E1
:1001C00080F3088861B662B670471EF0040F0CBF5A
:1001D000EFF30880EFF3098020E9F00F40F804ED19
:1001E0001EF0040F0CBF80F3088880F3098800B567
:1001F00001F0F8F95DF804EB4EF0040E70470000D2
:100200000C010020040100200801002004ED00E0A2
:1002100020ED00E008ED00E0D2B201E000F8012B93
:10022000491EFBD270470022F6E710B513460A4676
:1002300004461946FFF7F0FF204610BD064C074D57
:1002400006E0E06840F0010394E8070098471034A6
:10025000AC42F6D3FFF74EFF742C0008942C000834
:1002600010B502F0C1FB002010BDFEE770477047DB
:100270002DE9F84FDFF8B891002409F1040A0AF1DA
:10028000040B23460F270BF1040EC9E00125A540FE
:100290002A40AA427DD1674ED1F804C0ACEB0608D3
:1002A000B44532D014DCBCF1030F3AD009DCBCF108
:1002B000000F2AD0BCF1010F1CD0BCF1020F31D1CC
:1002C0001DE0BCF1110F17D0BCF1120F2AD119E0BB
:1002D000B8F5881F19D006DCB8F5803F15D0B8F501
:1002E000801F1FD111E0B8F5001F0ED0B8F5041F14
:1002F00018D10AE0CB6815E0CB681B1D12E0CB6873
:1003000008330FE0CB680C330CE08B682BB1012B6A
:100310004FF0080303D0456104E0042302E00561C7
:1003200000E00023FF2A01D8064601E000F10406A0
:100330004FEA840501D9A5F12005D6F8008007FA17
:1003400005FC28EA0C0803FA05F548EA0508C6F892
:1003500000804D68ED0062D5374DAE6946F001066C
:10036000AE61AD6924F0030605F001050095334D3B
:1003700006EB050CDCF80850A607360F07FA06F85E
:1003800025EA0805DFF8B880404503D14FF00008A2
:1003900017E044E0DFF8AC80404502D14FF001089F
:1003A0000FE0DFF8A480404502D14FF0020808E0DA
:1003B000DFF89880404502D14FF0030801E04FF08C
:1003C000040808FA06F848EA0508CCF808804D68E1
:1003D000D9F80060ED034D4601D5164300E0964381
:1003E0002E604D68DAF80060AD03554601D516431E
:1003F00000E096432E604D68DBF80060ED025D463C
:1004000001D5164300E096432E604D68DEF800608B
:10041000AD02754601D5164300E096432E60641C7C
:100420000D682A46E5407FF431AFBDE8F88F000043
:1004300000040140000011100010024000000140C3
:1004400000080140000C0140001001400014014070
:100450008068084000D001207047C2680A4201D07D
:1004600041617047016170470AB101617047090439
:10047000FBE700000148806870470000380000205A
:10048000074810B5016841F010010160032000F039
:1004900067F8002000F006F800F024F8002010BDF6
:1004A0000020024070B50D4D04464FF47A71287853
:1004B000B1FBF0F00A490968B1FBF0F000F0DEFA98
:1004C00048B9102C07D200222146501E00F028F80F
:1004D00000206C6070BD012070BD0000380000205D
:1004E000440000200C4808B5816941F00101816198
:1004F000816901F001010091C16941F08051C16140
:10050000C06900F0805000900448416821F0E0612B
:1005100041F00071416008BD001002400000014040
:10052000F0B40E4B1B680C46C3F30223C3F107055E
:10053000042D00D90425191D072901D2002300E04C
:10054000DB1E012606FA05F1491E214099409E4016
:10055000761E16403143F0BC00F079BD0CED00E092
:10056000064900F0070208684FF6FF03184040EA0A
:100570000220034A10430860704700000CED00E0C1
:100580000000FA052DE9F0470F46050061D0434E03
:10059000306800F00700B84209D2306820F0070048
:1005A00038433060306800F00700B84251D1286805
:1005B0003B4C810712D5400703D5606840F4E060EA
:1005C00060602878000703D5606840F46050606080
:1005D0006068A96820F0F000084360602878C007D0
:1005E00028D06868012810D02168022810D0890717
:1005F00000292EDA616821F0030101436160FFF7F1
:1006000039FF804641F288390DE021688903EFE720
:100610008901EDE7FFF72EFFA0EB0801494502D95C
:100620000320BDE8F0876068696800F00C00B0EB5B
:10063000810FEFD1306800F00700B8420BD9306865
:1006400020F0070038433060306800F00700B842FF
:1006500001D00120E5E72878400705D56068E96802
:1006600020F4E060084360602878000706D56068E1
:10067000296920F4605040EAC100606000F038F859
:100680006168084AC1F30311515CC840064908601B
:1006900006480068FFF706FF0020C2E7002002407E
:1006A00000100240282B0008440000203C000020DD
:1006B0000448054900684968044AC1F30221515CB5
:1006C000C84070474400002000100240382B00084A
:1006D0000448054900684968044AC1F3C221515CD5
:1006E000C84070474400002000100240382B00082A
:1006F00012A185B00FC98DE80F0014A0144A00683C
:1007000004905168134801F00C03042B10D0082BFF
:100710000ED1C1F38343C9031DF803000AD5516804
:1007200004AAC1F34041515C0A4A5043B0FBF1F0C6
:1007300005B0704708494843FAE700000203040582
:10074000060708090A0B0C0D0E0F1010010200001D
:100750000010024000127A0000093D002DE9F84F18
:10076000040070D02078C04DC00749D06868C0F33D
:100770008100012807D06868C0F38100022809D1F0
:100780006868C00306D52868800339D560680028EA
:10079000E7D035E06068B0F5803F0BD010B1B0F520
:1007A000A02F11D0286820F480302860286820F419
:1007B000802002E0286840F480302860606890B1B2
:1007C000FFF758FE06460AE0286840F480202860BB
:1007D000F0E700BFFFF74EFE801B642873D828683F
:1007E0008003F7D50CE0FFF745FE064605E000BFA5
:1007F000FFF740FE801B6428F0D828688003F7D4F8
:1008000020789A4E80074FF001094FF0000839D543
:10081000686810F00C0F07D06868C0F381000228E8
:1008200009D16868C00306D42868800714D52069F8
:10083000012808D110E02069B0B1C6F80090FFF798
:1008400019FE074605E00AE1FFF714FEC01B022867
:10085000C4D828688007F7D52868616920F0F800B7
:1008600040EAC10028600DE0C6F80080FFF702FEF4
:10087000074604E0FFF7FEFDC01B022823D82868C6
:100880008007F7D4207800072CD57948A169D9B121
:10089000C0F80090FFF7EEFD074604E0FFF7EAFD21
:1008A000C01B02280FD8686A8007F7D571484FF43B
:1008B000FA510068B0FBF1F0009000BF0098411EB3
:1008C0000091FAD20EE080E0C0F80080FFF7D2FD80
:1008D000074604E0FFF7CEFDC01B022875D8686A02
:1008E0008007F7D42078400760D5E8690027C0006A
:1008F00008D4E86940F08050E861E869012700F019
:10090000805000905C480168C90513D40168834693
:1009100041F480710160FFF7ADFD824606E000BF43
:10092000FFF7A8FDA0EB0A0064284ED8DBF8000012
:10093000C005F5D5E06801280AD008B1052813D014
:10094000286A20F001002862286A20F0040002E0F2
:10095000286A40F001002862E06841F2883B98B1C3
:10096000FFF788FD82460BE0286A40F00400286209
:10097000EEE700BFFFF77EFDA0EB0A0159455AD80C
:10098000286A8007F6D50CE0FFF774FD824605E083
:10099000FFF770FDA0EB0A0159454CD8286A800783
:1009A000F6D41FB1E86920F08050E861E06988B3AF
:1009B0006968C1F38101022944D00228C6F8608029
:1009C00004D0FFF757FD044638E034E0FFF752FD4E
:1009D000074604E0FFF74EFDC01B02282BD828680D
:1009E0008001F7D4206AB0F5803F05D16868A1681E
:1009F00020F4003008436860D4E9080108436968BE
:100A000021F4741108436860C6F86090FFF732FD66
:100A1000044606E025E000BFFFF72CFD001B02287E
:100A200009D828688001F7D51BE000BFFFF722FD39
:100A3000001B022802D90320BDE8F88F2868800136
:100A4000F4D40EE00128F7D06868226A00F48031FF
:100A5000914204D1616A00F47010884201D00120F3
:100A6000EAE70020E8E700000010024000004242F0
:100A700080044242440000200070004010B5401E37
:100A8000B0F1807F01D3012010BD4FF0E024606100
:100A90000F21601700F0DBFA0020A0610720206121
:100AA000002010BD70B5040004D094F83900002572
:100AB00010B106E0012070BD84F83850204600F0E7
:100AC00023F8242084F839002068C16821F40051FB
:100AD000C160204600F02CFA2068016921F49041A1
:100AE00001612068416921F02A0141612068C168E3
:100AF00041F40051C160E563202084F8390084F896
:100B00003A00002070BD000030B585B0002400948C
:100B100001940294039400681449884224D1144833
:100B2000816941F480418161816901F480410491CE
:100B3000816941F00401816180690E4D00F004007B
:100B400004904FF400700090022001900320039065
:100B500069462846FFF78CFB2815CDE90004694655
:100B600028460294FFF784FB05B030BD00380140F1
:100B700000100240000801402DE9F843044690F8B7
:100B800039001F4616460D46202850D1A5B19EB10A
:100B900094F8380001284AD0012084F838004FF03A
:100BA0000008C4F83C80212084F83900FFF762FC7B
:100BB000A6848146E68426E00120BDE8F883E08C27
:100BC000401EE084A0684B46B0F5805F4FF0000205
:100BD0004FF080012046009703D000F005FAE8B9F5
:100BE0000DE000F001FAC8B928882168C0F30800B8
:100BF0004860206908B16D1C05E0AD1C03E0216868
:100C000015F8010B4860E08C0028D8D14B46002233
:100C100040212046009700F0E7F908B10320CCE717
:100C2000202084F8390084F838800020C5E70220AD
:100C3000C3E7000070B586B00024214800940194F9
:100C400002940394816941F010018161816901F08E
:100C500010010491816941F020018161816901F0F5
:100C600020010491816941F008018161816901F0ED
:100C700008010491816941F0040181618069114E8C
:100C800000F004004FF4005504900022294630463D
:100C9000FFF7EAFB01200095CDE901040224694633
:100CA00030460394FFF7E4FA4FF4405000900648B2
:100CB000CDE9010469460548FFF7DAFA06B070BDD0
:100CC000001002400010014000001110000C014013
:100CD0002DE9FC411AA000F0E9FD24A000F0E6FD9A
:100CE00000220A212CA000F097FE2E4CA06010B12B
:100CF0002DA000F0DBFD14250320CDE900054FF405
:100D0000007633460022304930A001F07FFA4FF0E0
:100D1000FF37206080B101F083FB0220CDE90005A0
:100D2000334600222B492CA001F070FA606018B104
:100D3000BDE8FC4101F074BB3846BDE8FC81000011
:100D40005468697320697320616E20525454206581
:100D50006D61696C206D657373616765206578707E
:100D60006572696D656E74210A00000050726573CA
:100D700073204B31207C204B3220666F72206D61D6
:100D8000696C626F78206578706572696D656E74E4
:100D90002074657374210A00746573745F6D6169F2
:100DA0006C00000000000020456D61696C206372DA
:100DB0006561746564207375636365737366756CD0
:100DC0006C79210A0A00000035130008726563651A
:100DD00069766500152A000873656E6400000000DE
:100DE0000C4810B50A4901604FF4E131416000211F
:100DF00081600C22C160C0E904128161C161FFF70A
:100E000051FE002803D0BDE81040FFF730BA10BDF6
:100E10000038014010010020FEE77047704710B510
:100E200000F0F6FC01F096FBBDE8104000F0FEBCBF
:100E300030B58FB028216846FFF7F5F914210AA8CC
:100E4000FFF7F1F901210804CDE900100024029414
:100E500002250491CDE907504FF4E010099068464F
:100E6000FFF77CFC0F20CDE90A056802CDE90C40B4
:100E700002210AA80E94FFF785FB0FB030BD0000D9
:100E8000144910B54868144A10F00C03134803D0F5
:100E9000042B01D0082B09D002604968104AC1F325
:100EA0000311515C0268CA40026010BD4A684B6879
:100EB00002F470124FF0020413F4803F04EB9242EC
:100EC00002D04B689B0301D5064B00E0024B5A430E
:100ED000E2E700000010024000127A004400002007
:100EE000282B000800093D000D48016841F0010170
:100EF000016041680B4A1140416001680A4A114093
:100F00000160016821F480210160416821F4FE0143
:100F100041604FF41F0181600449C00308607047BD
:100F2000001002400000FFF8FFFFF6FE08ED00E0B1
:100F30002DE9F041044600680169E26821F440515E
:100F4000114301612169A068084361690843216870
:100F5000CA6841F20C639A430243CA60206841693F
:100F6000A26921F44071114341611E492068642542
:100F70003226884202D1FFF7ABFB01E0FFF798FB76
:100F800000EBC00101EB001160686FF018078000F2
:100F9000B1FBF0F2B2FBF5F2B1FBF0F37A4303EBF5
:100FA0008202B1FBF0F306EB0212B2FBF5F2B3FBE7
:100FB000F5F302F0F00202EB0312B1FBF0F3B1FB28
:100FC000F0F0B0FBF5F0784303EB800006EB001087
:100FD000B0FBF5F0216800F00F0010448860BDE818
:100FE000F0810000003801402DE9F0419846174695
:100FF0000E460446069D1DE0681C1BD02DB1FFF770
:1010000039FAA0EB0800A84214D92068C16821F47D
:10101000D071C1602068416921F001014161202047
:1010200084F8390084F83A00002084F8380003205E
:10103000BDE8F0812068006836EA000004D0002096
:10104000B842D9D00020F3E70120F9E7FEE709070D
:10105000090E002804DB00F1E02080F8001470473E
:1010600000F00F0000F1E02080F8141D7047000030
:10107000002806D00E4910F0FF0F03D0C0B2085C64
:10108000401C704710F47F4F04D0C0F30720085C69
:101090000930704710F47F0F04D0C0F30740085C9C
:1010A0001130704701EB1060007819307047000074
:1010B000402B000802E008C8121F08C1002AFAD11C
:1010C00070477047002001E001C1121F002AFBD1C8
:1010D0007047000003480168814201D00120704739
:1010E00000207047E40000202DE9FC411F46044623
:1010F000DDE90831DDE90A65143040600060C4E9CB
:101100000827C4E90A310A46232118461C3400F096
:1011100099FDD4E903014218D4E901010D4B121FD6
:1011200000F05AFB2060A67666760020A562E0619A
:10113000E56260612076E06520661C3C00902346F5
:101140000190054A194604F14C0001F075FA00209F
:10115000BDE8FC81592200088F24000810B5029CCC
:1011600024F001044472C0E907120021C0E90931EA
:1011700014304060006010BDF0E905124A60D0E90B
:1011800000121160406000607047FFF779F9FFF7C7
:101190004FFEFFF74FFDFFF723FEFFF799FDFEE738
:1011A00010B500F035F9BDE81040FFF7EEBF0000C4
:1011B00030B5134943680A68134402F108049842A1
:1011C0000DD05D885DB94D68AB4208D08D689D42F9
:1011D00000D188605D6845605B68851A1D51836831
:1011E000134483420BD05D88002D08D18D68854261
:1011F00000D18B60416859604068991A015130BD37
:10120000500000202DE9F04F85B09946DDE90EA58C
:10121000109CAB46630602D5DFF814C103E0DFF88B
:1012200010C1ACF1110CE30601D524F00104E30771
:1012300001D0302300E0202300260493A3070BD520
:10124000002A02DA2D26524206E0630701D52B263A
:1012500002E0230700D520260023EE4622B93022E3
:101260008DF8002001230CE0B9F10A0F14D002F030
:101270000F0812091CF808800EF803805B1C002A76
:10128000F2D1AB4200DD1D46AAEB050214F0110FAE
:101290004FF0200708D015E00A27B2FBF7F807FB4C
:1012A0001828B2FBF7F2E5E73EB1002A05DD521E31
:1012B00003E0884200D20770401CB2F1000CA2F19A
:1012C0000102F6DC26B1884200D20670401C521E94
:1012D000E40605D508E0884201D2049C0470401C55
:1012E000141EA2F10102F6DC30242E466D1E9E4231
:1012F0000ADD884200D20470401CF6E7884201D221
:10130000E55C0570401C00E074461D1EA3F101035E
:1013100007DDBBF1000FF1D103E0884200D2077076
:10132000401C131EA2F10102F7DC05B0BDE8F08FEE
:10133000512C000808B50D4C0D4F4FF0FF354FF400
:1013400000562A466946A06800F08AFB010003D0D7
:1013500008A000F0ABFAF4E711A0009900F0A6FA9B
:1013600031463846FFF779F8EBE70000000000202F
:10137000001001404572726F722072656365697674
:10138000696E6720656D61696C21204572726F72AC
:1013900020636F646520697320307825780A000027
:1013A00054686520636F6E74656E7473206F662079
:1013B000746865206D61696C626F78206172653A4E
:1013C00025730A0A000000001CB514210A20CDE98B
:1013D00000014FF480630022034904A000F016FFCF
:1013E000BDE81C4001F01CB8A11100086D61696ED8
:1013F0000000000070B5044C044D02E020688047F6
:10140000241DAC42FAD370BD682C00086C2C000877
:1014100070B5044C044D02E020688047241DAC42A6
:10142000FAD370BD6C2C0008702C000810B5FEF7C4
:1014300079FE044A5188491C5180BDE81040FEF7EE
:1014400075BE0000D800002010B5FEF76BFE0B4CF7
:101450006188491E09B2618000290ADC002161808F
:10146000FEF764FE6068002807D0BDE8104000F079
:1014700099BCBDE81040FEF759BE10BDD800002051
:1014800070B5002833D01A4D296888422FD3696877
:1014900088422CD2A0F10C044FF0FF31154800F027
:1014A00025FD60884FF4F55610B12088B04208D071
:1014B00011A000F0FBF923886288214615A000F0F6
:1014C000F5F9002060802680A868844200D2AC60D4
:1014D00029686068611A401A2969081A286120463B
:1014E000FFF766FEBDE87040024800F0E5BC70BD45
:1014F0005000002050130020746F20667265652034
:101500006120626164206461746120626C6F636B4E
:101510003A0A00006D656D3A203078253038782C15
:10152000207573656420666C61673A2025642C2001
:101530006D6167696320636F64653A203078253098
:1015400034780A0000487047500100200048704776
:101550005011002010B5FFF793FC10484FF47A713A
:101560000068B0FBF1F0401EB0F1807F09D24FF06F
:10157000E0210B4A4861FF2010700020886107209D
:101580000861FFF737FFFFF7E1FF0446FFF7DAFFD7
:101590002146BDE8104000F08DBD00004400002051
:1015A00023ED00E070B50446FFF740FF4FF47A7575
:1015B0000EE00A2805D12B4601220D210848FFF72D
:1015C000DBFA2146641C2B4601220548FFF7D4FABA
:1015D00020780028EDD1BDE87040FFF735BF00004E
:1015E0001001002070B50546041D2B48016819B193
:1015F0002846884700284DD028A0E16B00F056F916
:101600002AA0216A00F052F92CA0616A00F04EF97C
:101610002EA0A16A00F04AF930A0E16A00F046F974
:1016200032A0216800F042F934A0616800F03EF970
:1016300036A0A16800F03AF938A0E16800F036F968
:101640003AA0216900F032F93CA0616900F02EF95E
:101650003EA0A16900F02AF940A0E16900F026F956
:1016600042A0216B00F022F944A0616B00F01EF94A
:1016700046A0A16B00F01AF92878400706D500F0C3
:10168000A9FE014645A000F011F902E04BA000F0D0
:101690000DF9FEE770BD0000000100207073723A82
:1016A000203078253038780A000000007230303A57
:1016B000203078253038780A000000007230313A46
:1016C000203078253038780A000000007230323A35
:1016D000203078253038780A000000007230333A24
:1016E000203078253038780A000000007230343A13
:1016F000203078253038780A000000007230353A02
:10170000203078253038780A000000007230363AF0
:10171000203078253038780A000000007230373ADF
:10172000203078253038780A000000007230383ACE
:10173000203078253038780A000000007230393ABD
:10174000203078253038780A000000007231303AB5
:10175000203078253038780A000000007231313AA4
:10176000203078253038780A000000007231323A93
:10177000203078253038780A00000000206C723A5A
:10178000203078253038780A000000002070633A55
:10179000203078253038780A0000000068617264D3
:1017A000206661756C74206F6E2074687265616468
:1017B0003A2025730D0A0D0A00000000686172646A
:1017C000206661756C74206F6E2068616E646C6554
:1017D000720D0A0D0A00000070B50446121D22F0B9
:1017E00007000022094D403840F82250521C102AB0
:1017F000FAD301620021416281624FF0807200F1F0
:101800003005C263C16285E81A0070BDEFBEADDE6F
:1018100010B5FEF787FC044A1178491C1170BDE829
:101820001040FEF783BC00004C00002010B5FEF70E
:1018300079FC044A1178491E1170BDE81040FEF78A
:1018400075BC00004C00002010B50068143800F092
:10185000A3FD002010BD00002DE9F041064614460E
:101860000D46084600F0F2FD05F11407B4B1012C55
:1018700018D134680EE000BF95F8351094F8212097
:10188000A4F11400914204D23946143000F033F828
:1018900002E02468B442EFD1B44203D13946304665
:1018A00000F029F80020BDE8F08100000FB47F218E
:1018B00010B503AB0448029A00F050FF0248FFF74E
:1018C00071FE10BC5DF814FBD0120020026851605C
:1018D00002680A60016048607047026851600268EF
:1018E0000A600160486070470268516002680A60DF
:1018F0000160486070474268116042684A60416018
:1019000008607047D0E900124A60D0E90012116007
:10191000406000607047D0E900124A60D0E90012D0
:1019200011604060006070472DE9F047002807D043
:10193000374CC01C20F00306E068864202D9002024
:10194000BDE8F0870C2E00D20C264FF0FF31314855
:1019500000F0CCFAD4F808C02168E768ACEB0100CD
:10196000BA1B4FE00D186B88E3BB6B681B1A0C3B6E
:10197000B34246D36A6806F11803121A0C3A4FF0C4
:1019800001094FF4F55A9A422DD383190C33CA1822
:101990004FF00008A2F800A0A2F80280D5F8048059
:1019A000C2E901806B60A5F8029050680C37B8421C
:1019B00002D001F108028350206930440C302061CC
:1019C0006269824200D26061A5F800A0654512D12B
:1019D000A06842887AB1626890420CD0406808449E
:1019E000A060F6E70DE0A5F8029068686A1A801A10
:1019F00022691044E3E7074800F05EFA05F10C00A5
:101A00009EE768688242ADD8024800F055FA96E732
:101A1000500000205013002070B50D4601461646B8
:101A2000052000F032F9040014D0667204F11400AD
:101A3000A0616061A8B220848000FFF775FFE061BB
:101A400048B100206084A084E08404F12800E062B2
:101A5000A062204670BD204600F03FF9002070BD16
:101A60002DE9F74F8A4604464FF0000900F0B2FC1A
:101A70000546FEF757FB0746608C02996FF0010898
:101A800008434FF0000636D13846FEF74FFB40467C
:101A9000BDE8FE8F2E630298F0B3627A294604F106
:101AA0001400FFF7D9FE029800280CDD00F04CFD71
:101AB000814605F14C0002AA0021834600F094FD06
:101AC000584600F0D5FD3846FEF730FB00F06AF9C5
:101AD000286B0028DCD1FEF725FB0746029800287A
:101AE00009DD00F031FD0299A0EB0909B1EB090015
:101AF000029000D50296608C0028CBD0E18CE06982
:101B000050F82100CAF80000E08C401C80B2E0844C
:101B1000218C884202D300E010E0E684608C401EF5
:101B20006084A16A04F1280081420ED0FFF78CFE88
:101B30003846FEF7FBFA00F035F909E03846FEF7C3
:101B4000F5FA4046C5F83080A2E73846FEF7EEFACF
:101B500000209DE70022AFF300802DE9F74F8A4671
:101B600004464FF0000800F035FC0546FEF7DAFAAF
:101B70000646608C218C00276FF00209884234D120
:101B80000298002853D030E02F630298E8B3627ABD
:101B9000294604F12800FFF75FFE029800280CDDBB
:101BA00000F0D2FC804605F14C0002AA00218346D9
:101BB00000F01AFD584600F05BFD3046FEF7B6FA1D
:101BC00000F0F0F8286B002835D1FEF7ABFA064696
:101BD0000298002809DD00F0B7FC0299A0EB080884
:101BE000B1EB0800029000D50297608C218C8842EE
:101BF000CAD0A28CE16941F822A0A08C401C80B21E
:101C0000A084218C884202D300E010E0A784608C7D
:101C1000401C6084616904F1140081420DD0FFF71B
:101C200013FE3046FEF782FA00F0BCF808E03046BA
:101C3000FEF77CFA4846BDE8FE8F3046FEF776FA9E
:101C40000020F8E710B50346CCB2042A1AD3810766
:101C500018D1194644EA042343EA034306E008C1C5
:101C6000103A08C141F8083B41F8043C102AF6D26A
:101C700001E008C1121F042AFBD20B4602E000BF9C
:101C800003F8014B521EFBD210BD2DE9F0410F4667
:101C9000064600F045F80546C068FFF745FE04001B
:101CA00019D00021EA68FFF7CDFF2672002060728C
:101CB00008223946204600F0E9F9FEF733FA0646D5
:101CC00004F10C01281DFFF701FE3046FEF72EFA45
:101CD0002046BDE8F0810020FBE770B504460020F7
:101CE0002072FEF71FFA054604F10C00FFF70AFE0A
:101CF0002846FEF71BFA2046BDE87040FFF7C0BB40
:101D000070B5044600202072FEF70CFA054604F177
:101D10000C00FFF7F7FD2846BDE87040FEF706BA55
:101D2000074A002102EB01131B78834202D102EB28
:101D300001107047491C0729F4DB002070470000A0
:101D4000680000202DE9F041044616460D4608467D
:101D5000FFF7E6FF0746FFF769FB381D796800E0EB
:101D600009688142FCD1FFF76FFB45F080002072CB
:101D700008223146204600F089F9FEF7D3F90546DE
:101D800004F10C01381DFFF7A1FD2846BDE8F04124
:101D9000FEF7CCB9007A000601D50120704700207B
:101DA0007047000070B5FEF7BDF9114C054660881C
:101DB000B0B9A068FFF75CF90E49401E626851F89F
:101DC0003010143991420BD020700B4861600078BC
:101DD00001F11C01002802F11C0006D0FEF7A9F950
:101DE0002846BDE87040FEF7A1B9FEF7A2F9F7E773
:101DF000D8000020701300204C00002010B50446CD
:101E0000FEF790F9024694F834000E4920F00F00D6
:101E1000401C84F8340094F8350001EBC00104F153
:101E200014004B6818604B68A36148600648616104
:101E3000A16B836819438160BDE810401046FEF72E
:101E400075B9000070130020D800002010B50446BA
:101E5000FEF768F904F11401D1E900235360D1E9D8
:101E600000231A60A161616194F83520074951F897
:101E7000323001EBC2018B4204D10549A36B8A6861
:101E80009A438A60BDE81040FEF750B970130020F5
:101E9000D80000202DE9F04116460A461F460546A7
:101EA0000221FFF74FFF05F11404AC616C61AE83B2
:101EB0006F720020BDE8F08170B50446FEF732F97C
:101EC0000546616904F11400814207D0FFF7BCFCAC
:101ED0002846FEF72BF9FFF765FF05E0A08B401CB5
:101EE000A0832846FEF722F9002070BD73B5054691
:101EF000FEF718F90646A88B28B1401EA883304685
:101F0000FEF714F921E0019808B300F063FA0446E3
:101F1000002020636A7A214605F11400FFF79CFC3B
:101F20000198002809DD04F14C0001AA00210546B2
:101F300000F05AFB284600F09BFB3046FEF7F6F80F
:101F4000FFF730FF206B002800D100207CBD304619
:101F5000FEF7ECF86FF001007CBD000008B509A0A9
:101F6000FFF7A4FC0AA0FFF7A1FC12A00323009036
:101F70000122194612A0FFF799FCBDE8084018A0FD
:101F8000FFF794BC0A205C207C202F0A0000000090
:101F90002D205254202D202020202054687265616D
:101FA00064204F7065726174696E67205379737431
:101FB000656D0A004A756C203239203230323000AB
:101FC000202F207C205C202020202025642E2564CA
:101FD0002E2564206275696C642025730A00000058
:101FE0002032303036202D203230313920436F708E
:101FF0007972696768742062792072742D746872CE
:10200000656164207465616D0A0000002DE9F0418E
:1020100000F09AFA0646FFF709FA174F3D6824E0E8
:1020200068696FF00041301AA5F1140488421ED28D
:102030002D682046FFF7A0F8FFF706FAD4E907104D
:10204000884700F081FA0646FFF7F0F9607A8107C9
:1020500008D5C10706D020F001006072204600F0CC
:1020600007FB02E020F001006072BD42D8D1BDE85C
:10207000F041FFF7E9B90000F8000020014600E058
:10208000491C0A78002AFBD1081A704710B5002AAB
:1020900007D0034611F8014B03F8014B2CB1521E37
:1020A000F8D110BD03F8011B00E00021521EF9D148
:1020B00010BD00000A46C11C10B522F0030321F038
:1020C0000301182B20D9A3F118048C421CD3114C06
:1020D000581A18382160E0604FF4F5520A80002346
:1020E0000C30C1E901034B804B68194461600A80E0
:1020F00001224A8048608860002307A10848FFF752
:10210000C9FE2068A06010BD0146BDE8104005A0D2
:10211000FFF7CCBB50000020686561700000000034
:10212000501300206D656D20696E69742C206572F6
:10213000726F7220626567696E2061646472657394
:102140007320307825782C20616E6420656E6420C1
:102150006164647265737320307825780A0000002A
:1021600010B50A4900230A4C4B80184604EBC00204
:10217000401C526012602028F8DB1F2008700348C2
:102180004B600C308B604060006010BDD8000020B8
:102190007013002010B5074CA068FEF769FF0649D0
:1021A000401E51F8300014386060BDE810401C300B
:1021B000FDF7EDBFD80000207013002001484060FB
:1021C00000607047F00000201FB50B4804220A236E
:1021D000406000600948D1018DE80F000023084AE3
:1021E00008A1803800F0C0F804B00448BDE81040F1
:1021F000803800F015B90000F8000020F01400202D
:10220000B124000874696D65720000002DE9FF4774
:102210008946DDE90C76824601461D46904601203E
:10222000FFF733FD041E0DD02846FFF77DFB60B19C
:1022300003968DE8A10043464A4651462046FEF7E4
:1022400053FF204604B0BDE8F0872046FFF745FD68
:102250000020F7E700F0C4B870B513480468FDF734
:1022600061FF05462046FFF7F1FD042084F83400A5
:1022700004F14C0000F0D0F92046FFF78BFD012857
:1022800001D1A06F58B104F114010848FFF725FBF4
:102290002846FDF74BFFBDE87040FFF783BD2046A1
:1022A000FFF72EFDF4E70000DC000020E400002032
:1022B00000F002F8FCE7000070B527E0FDF732FF00
:1022C0000546FEF707FF58B318480168A1F114044A
:1022D000D1E900024260D1E9000210604960096062
:1022E000FFF7A4F8A16F09B1204688472046FFF701
:1022F00051FD01280FD0FFF7A7F82846FDF716FF7C
:10230000A06AFFF7BDF82046FFF7E7FCFEF7E2FE04
:102310000028D3D170BD2046FFF7F2FCFFF794F8F8
:102320002846BDE87040FDF701BF0000E400002032
:102330001FB5202308481F22D9008DE80F00002375
:10234000064A07A1803800F00FF804B00248BDE843
:102350001040803800F064B8D0110020B12200088D
:102360007469646C650000002DE9FF5F92460EAA57
:102370000C4692E8E0010A46994683460121FFF7A0
:10238000E1FC8DE8E0014B46524621465846FEF7F7
:10239000ABFE04B0BDE8F09F70B5044690F8340081
:1023A00000F00F00022802D04FF0FF3070BDFDF7A3
:1023B000B9FE054604F11400FFF7ADFA04F14C0034
:1023C00000F0B4F92846FDF7B1FE2046FFF716FDF0
:1023D000002070BD0148006870470000DC0000204C
:1023E000F1B5FDF79FFE05460C480468204600F055
:1023F0002DF804F14C006A460021064600F0F4F87E
:10240000304600F035F92846FDF790FEFFF7CAFC8C
:10241000206B801C00D120630020F8BDDC00002070
:1024200010B590F83610012280F835108A4002214C
:10243000826380F83410FFF7AFFF0348006808B1EB
:10244000FFF7B0FC002010BDDC00002070B5044692
:1024500090F8340000F00F00012802D04FF0FF3058
:1024600070BDFDF75FFE054694F8340020F00F00C4
:10247000801C84F834002046FFF7E8FC04F14C008F
:1024800000F054F92846FDF751FE002070BD10B54C
:1024900004466FF00100206304F11400FFF73BFADB
:1024A0002046FFF7ABFCBDE81040FFF77BBC000007
:1024B0006FF000450B4800F0D3F80446401C09D0EB
:1024C00000F042F8201AA84201D2FFF7C3FEFFF73E
:1024D0009DFDEFE7FFF77EFFFFF7B8FFFFF762FC18
:1024E000F5E70000F800002070B5FDF71BFE06467A
:1024F0001348046894F8340000F00F00012819D143
:10250000D4E90501884215D004F114000546FFF70F
:1025100002FA94F835000B4901EBC00041680D60E8
:1025200041686960456028603046FDF7FFFDFFF7B0
:1025300039FC02E03046FDF7F9FD002070BD0000D7
:10254000DC00002070130020014800687047000084
:1025500048000020094810B50168491C0160FFF7D8
:1025600039FF816C491E816403D1416C8164FFF79E
:10257000BBFFBDE8104000F003B800004800002099
:102580002DE9F041FFF7E0FF0646FDF7CBFD0746DA
:10259000144D1EE060696FF00041301A143C88420F
:1025A0001AD22046FEF7E8FDD4E907108847FFF766
:1025B000CBFF0646607A810708D5C10706D020F018
:1025C00001006072204600F053F802E020F00100A4
:1025D00060722C68AC42DDD13846BDE8F041FDF7B1
:1025E000A5BD0000F000002049B1012904D0022956
:1025F00008D003290ED109E0406A10600AE0116892
:10260000416207E0417A21F0020102E0417A41F0A3
:10261000020141720020704770B50546FDF782FD4A
:1026200004462846FEF7A8FD2046FDF77FFD284614
:10263000FFF766FB002070BD2DE9F8439046DDE909
:1026400008450A461F4606460A21FFF77BFB23463C
:102650003A46414630460095FEF780FDBDE8F883D6
:102660000168814202D14FF0FF30704748697047DE
:10267000F8B50446FDF756FD05462046FEF77CFDFD
:10268000607A20F0010060722846FDF74FFDFFF7E9
:102690005BFF616A0844A062FDF744FD0546607A6D
:1026A000400701D51F4A01E01E4A083A0020009267
:1026B00002EBC002694653686FF0004C5DF82020C1
:1026C0000BE01268A2EBC0067769A66AB74202D097
:1026D000BE1B664503D341F820209A42F1D1114830
:1026E0000C380168491C016004F114010098FFF7DF
:1026F000FBF8607A40F0010060722846FDF716FD95
:10270000607A40070BD5084890F8340000F00F00BD
:10271000012804D00448FFF73FFEFFF743FB0020E9
:10272000F8BD0000F80000207014002070B50446C9
:10273000407AC0070ED0FDF7F5FC05462046FEF7AF
:102740001BFD2846FDF7F2FC607A20F00100607264
:10275000002070BD4FF0FF3070BD00002DE9FF4F2D
:102760008946044600EB090783B080464FF0FF3AE4
:102770004FF0200BA74202D25746C8F1FF3907E1BC
:10278000252803D0BC4200D2207081E000260599A4
:10279000491C059108782D2811D02B2812D020280B
:1027A00013D0232814D0302815D00A785546303A53
:1027B0000A2A13D205A800F0A3F905461AE046F04C
:1027C0001006E4E746F00406E1E746F00806DEE717
:1027D00046F02006DBE746F00106D8E72A2809D1B3
:1027E0000698491C059120C80690002D02DA6D421A
:1027F00046F01006CDF800A0059801782E2918D1D2
:10280000401C05900178A1F130020A2A04D205A8E3
:1028100000F076F9009008E02A2908D1401C0590C4
:10282000069802C8069000910846002801DA0020A8
:102830000090059800210278682A01D06C2A02D104
:10284000401C1146059000780A236F287DD00CDCCF
:1028500063281FD004DC25287BD058280DD17EE0CA
:10286000642801D0692808D17DE070285ED07328E3
:102870002CD0752879D0782873D0BC4201D225207D
:1028800020700598641C0178D1B3BC4200D221703D
:10289000641C7AE0F00608D458466D1E002D04DD55
:1028A000BC4200D22070641CF7E70699BC4211F8C4
:1028B000040B069100D22070584602E0BC4200D2C0
:1028C0002070641C6D1E002DF8DC5EE0069808C8C0
:1028D000069003B93EA31846FFF7D0FB00990029E4
:1028E00002DD884200DD0846F1060AD459462A4630
:1028F0006D1E824205DDBC4200D22170641CF6E7E9
:1029000052E0002106E0BC4201D21A782270491C34
:102910005B1C641C8142F6DB5A4629466D1E8142CF
:1029200033DDBC4200D22270641CF6E7681C02D181
:10293000082546F0010600980296CDE90050069859
:102940001023394604C806901BE006E001E00CE0C5
:1029500007E0BC429CD2252016E7082305E046F09C
:102960004006102301E046F002066C2901D06829D8
:102970001DD0069804C8069000983946CDE900504D
:1029800002962046FEF73EFC04460598401C059042
:102990000598007800287FF4F3AEB9F1000F11D04C
:1029A000BC420DD220700DE0401E0590EDE7069868
:1029B00030F8041B06908AB2B007DDD512B2DBE70F
:1029C00007F8010C07B0A4EB0800BDE8F08F000089
:1029D000284E554C4C2900000020704700207047BD
:1029E000002070470020704710B5FDF79BFBFEF7F5
:1029F000B1FDFFF7B3FAFFF7E1FBFFF7B1FBFEF71D
:102A0000E3FCFFF7E1FBFFF793FCFFF7C3FB0020BC
:102A100010BD0000194C1A4D4FF40056A714314652
:102A20002046FDF715FD01280CD116A0FEF73EFF4C
:102A30001349A8680C31FFF78DF850B116A000BFFC
:102A4000FEF734FF39462046FDF702FD012802D08B
:102A50000EE01AA0F4E725A0FEF728FF0849A868B1
:102A60002231FFF777F838B10BA000BFFEF71EFF49
:102A70001420FFF7EFFBD2E710A0F7E7000C0140AE
:102A8000000000204B45593120697320636C696355
:102A90006B65640A00000000546865206D61696C14
:102AA000626F78206D657373616765206661696C1C
:102AB000656420746F2073656E640A005468652035
:102AC000656D61696C206D65737361676520686110
:102AD00073206265656E2073656E74207375636321
:102AE00065737366756C6C790A0000004B4559324A
:102AF00020697320636C69636B65640A00000000E1
:102B000010B5014600206FF02F0307E0541C0C6045
:102B1000127800EB800003EB400010440A68147840
:102B2000303C0A2CF2D310BD000000000000000071
:102B30000102030406070809000000000102030463
:102B4000000001000200010003000100020001007A
:102B50000400010002000100030001000200010066
:102B60000500010002000100030001000200010055
:102B70000400010002000100030001000200010046
:102B80000600010002000100030001000200010034
:102B90000400010002000100030001000200010026
:102BA0000500010002000100030001000200010015
:102BB0000400010002000100030001000200010006
:102BC00007000100020001000300010002000100F3
:102BD00004000100020001000300010002000100E6
:102BE00005000100020001000300010002000100D5
:102BF00004000100020001000300010002000100C6
:102C000006000100020001000300010002000100B3
:102C100004000100020001000300010002000100A5
:102C20000500010002000100030001000200010094
:102C30000400010002000100030001000200010085
:102C40003031323334353637383961626364656622
:102C50000030313233343536373839414243444518
:102C600046000000E5290008DD290008D9290008F0
:102C7000E1290008942C0008000000201001000049
:102C8000B4100008A42D000810010020E019000075
:102C9000C410000800000000000000000000000058
:102CA000746869732069732061206D61696C207498
:102CB0006573742031007468697320697320612022
:102CC0006D61696C2074657374203200010000002E
:102CD00010000000000000000024F40000000000CC
:102CE00000000000000000000000000000000000E4
:102CF00000000000000000000000000001000000D3
:102D00006C0000206C000020800000000200000029
:102D10007C0000207C000020200000000300000058
:102D20008C0000208C000020240000000400000023
:102D30009C0000209C0000202000000005000000F6
:102D4000AC000020AC0000203000000006000000B5
:102D5000BC000020BC000020340000000A0000007D
:102D6000CC000020CC0000202C000000000000005F
:102D70000000000000000000000000000000000053
:102D80000000000000000000000000000000000043
:102D90000000000000000000000000000000000033
:042DA000000000002F
:04000005080000ED02
:00000001FF
