:020000040800F2
:100000008019002001010008AF0D0008CB01000895
:10001000AD0D0008EF020008E10F0008000000002D
:10002000000000000000000000000000B10D00080A
:10003000F10200080000000053010008B30D0008A1
:100040001B0100081B0100081B0100081B01000820
:100050001B0100081B0100081B0100081B01000810
:100060001B0100081B0100081B0100081B01000800
:100070001B0100081B0100081B0100081B010008F0
:100080001B0100081B0100081B0100081B010008E0
:100090001B0100081B0100081B0100081B010008D0
:1000A0001B0100081B0100081B0100081B010008C0
:1000B0001B0100081B0100081B0100081B010008B0
:1000C0001B0100081B0100081B0100081B010008A0
:1000D0001B0100081B0100081B0100081B01000890
:1000E0001B0100081B0100081B010008DFF80CD0F1
:1000F00000F0E6F800480047E502000880190020FB
:100100000648804706480047FEE7FEE7FEE7FEE7B1
:10011000FEE7FEE7FEE7FEE7FEE7FEE77D0E0008EE
:10012000ED000008EFF3108072B6704780F310887E
:100130007047334A1368012B04D04FF0010313605A
:10014000304A1060304A116030484FF080510160F1
:100150007047EFF3108272B62948016891B14FF0F1
:10016000000101602748016829B1EFF3098121E905
:10017000F00F00680160244909680968B1E8F00FD0
:1001800081F3098882F310884EF0040E70471E49EF
:1001900008601C494FF00000086019494FF0010049
:1001A00008601B484FF47F01D0F8002041EA0201AB
:1001B000016016484FF080510160164800680068E1
:1001C00080F3088861B662B670471EF0040F0CBF5A
:1001D000EFF30880EFF3098020E9F00F40F804ED19
:1001E0001EF0040F0CBF80F3088880F3098800B567
:1001F00001F08EFE5DF804EB4EF0040E7047000037
:10020000A40000209C000020A000002004ED00E0DD
:1002100020ED00E008ED00E040EA01039B0703D079
:1002200009E008C9121F08C0042AFAD203E011F835
:10023000013B00F8013B521EF9D27047D2B201E0F7
:1002400000F8012B491EFBD270470022F6E710B5DB
:1002500013460A4604461946FFF7F0FF204610BD34
:10026000421E12F8013F002BFBD111F8013B02F8AE
:10027000013B002BF9D1704710B5044604E00B7820
:1002800000F8013B03B1491C521EF8D2204610BDB4
:10029000034611F8012B00F8012B002AF9D118466A
:1002A000704730B505460020034600E05B1C9342D2
:1002B00005D2EC5CC85C201A01D1002CF6D130BD0F
:1002C000064C074D06E0E06840F0010394E80700A3
:1002D00098471034AC42F6D3FFF70CFF8433000884
:1002E000A433000810B502F067FE002010BDFEE741
:1002F000704770472DE9F84FDFF8B891002409F1F5
:10030000040A0AF1040B23460F270BF1040EC9E07F
:100310000125A5402A40AA427DD1674ED1F804C0EC
:10032000ACEB0608B44532D014DCBCF1030F3AD074
:1003300009DCBCF1000F2AD0BCF1010F1CD0BCF1CC
:10034000020F31D11DE0BCF1110F17D0BCF1120F1B
:100350002AD119E0B8F5881F19D006DCB8F5803F1E
:1003600015D0B8F5801F1FD111E0B8F5001F0ED0D1
:10037000B8F5041F18D10AE0CB6815E0CB681B1D47
:1003800012E0CB6808330FE0CB680C330CE08B68CD
:100390002BB1012B4FF0080303D0456104E0042387
:1003A00002E0056100E00023FF2A01D8064601E0D3
:1003B00000F104064FEA840501D9A5F12005D6F81D
:1003C000008007FA05FC28EA0C0803FA05F548EA5C
:1003D0000508C6F800804D68ED0062D5374DAE695E
:1003E00046F00106AE61AD6924F0030605F0010593
:1003F0000095334D06EB050CDCF80850A607360FC8
:1004000007FA06F825EA0805DFF8B880404503D169
:100410004FF0000817E044E0DFF8AC80404502D11F
:100420004FF001080FE0DFF8A480404502D14FF003
:10043000020808E0DFF89880404502D14FF0030839
:1004400001E04FF0040808FA06F848EA0508CCF87D
:1004500008804D68D9F80060ED034D4601D516437C
:1004600000E096432E604D68DAF80060AD03554613
:1004700001D5164300E096432E604D68DBF800601E
:10048000ED025D4601D5164300E096432E604D68AF
:10049000DEF80060AD02754601D5164300E09643D4
:1004A0002E60641C0D682A46E5407FF431AFBDE83C
:1004B000F88F0000000401400000111000100240FD
:1004C0000000014000080140000C01400010014004
:1004D000001401400AB1016170470904FBE7000004
:1004E000014880687047000000000020074810B5F0
:1004F000016841F010010160032000F067F800205E
:1005000000F006F800F024F8002010BD00200240A2
:1005100070B50D4D04464FF47A712878B1FBF0F0B8
:100520000A490968B1FBF0F000F0DEFA48B9102C76
:1005300007D200222146501E00F028F800206C60EF
:1005400070BD012070BD0000000000200C000020E4
:100550000C4808B5816941F001018161816901F0B0
:1005600001010091C16941F08051C161C06900F091
:10057000805000900448416821F0E06141F0007132
:10058000416008BD0010024000000140F0B40E4B75
:100590001B680C46C3F30223C3F10705042D00D9E1
:1005A0000425191D072901D2002300E0DB1E0126C6
:1005B00006FA05F1491E214099409E40761E1640DC
:1005C0003143F0BC00F016BD0CED00E0064900F030
:1005D000070208684FF6FF03184040EA0220034A6A
:1005E00010430860704700000CED00E00000FA05C1
:1005F0002DE9F0470F46050061D0434E306800F00A
:100600000700B84209D2306820F007003843306054
:10061000306800F00700B84251D128683B4C810790
:1006200012D5400703D5606840F4E0606060287828
:10063000000703D5606840F4605060606068A96896
:1006400020F0F000084360602878C00728D0686870
:10065000012810D02168022810D0890700292EDA3D
:10066000616821F0030101436160FFF739FF8046B3
:1006700041F288390DE021688903EFE78901EDE750
:10068000FFF72EFFA0EB0801494502D90320BDE882
:10069000F0876068696800F00C00B0EB810FEFD163
:1006A000306800F00700B8420BD9306820F007002E
:1006B00038433060306800F00700B84201D00120B4
:1006C000E5E72878400705D56068E96820F4E06030
:1006D000084360602878000706D56068296920F41F
:1006E000605040EAC100606000F038F86168084A74
:1006F000C1F30311515CC840064908600648006810
:10070000FFF706FF0020C2E7002002400010024071
:10071000E63000080C0000200400002004480549D1
:1007200000684968044AC1F30221515CC84070471F
:100730000C00002000100240F63000080448054973
:1007400000684968044AC1F3C221515CC84070473F
:100750000C00002000100240F630000812A185B005
:100760000FC98DE80F0014A0144A00680490516866
:10077000134801F00C03042B10D0082B0ED1C1F349
:100780008343C9031DF803000AD5516804AAC1F3C5
:100790004041515C0A4A5043B0FBF1F005B070474C
:1007A00008494843FAE70000020304050607080960
:1007B0000A0B0C0D0E0F1010010200000010024079
:1007C00000127A0000093D002DE9F84F040070D0B6
:1007D0002078C04DC00749D06868C0F38100012867
:1007E00007D06868C0F38100022809D16868C00397
:1007F00006D52868800339D560680028E7D035E041
:100800006068B0F5803F0BD010B1B0F5A02F11D0CB
:10081000286820F480302860286820F4802002E0D6
:10082000286840F480302860606890B1FFF758FE77
:1008300006460AE0286840F480202860F0E700BF00
:10084000FFF74EFE801B642873D828688003F7D515
:100850000CE0FFF745FE064605E000BFFFF740FE4F
:10086000801B6428F0D828688003F7D420789A4E3B
:1008700080074FF001094FF0000839D5686810F083
:100880000C0F07D06868C0F38100022809D168689E
:10089000C00306D42868800714D52069012808D130
:1008A00010E02069B0B1C6F80090FFF719FE0746C6
:1008B00005E00AE1FFF714FEC01B0228C4D828682F
:1008C0008007F7D52868616920F0F80040EAC10088
:1008D00028600DE0C6F80080FFF702FE074604E03E
:1008E000FFF7FEFDC01B022823D828688007F7D435
:1008F000207800072CD57948A169D9B1C0F80090BB
:10090000FFF7EEFD074604E0FFF7EAFDC01B0228F3
:100910000FD8686A8007F7D571484FF4FA5100681C
:10092000B0FBF1F0009000BF0098411E0091FAD298
:100930000EE080E0C0F80080FFF7D2FD074604E03B
:10094000FFF7CEFDC01B022875D8686A8007F7D470
:100950002078400760D5E8690027C00008D4E8691E
:1009600040F08050E861E869012700F08050009075
:100970005C480168C90513D40168834641F480715D
:100980000160FFF7ADFD824606E000BFFFF7A8FD5E
:10099000A0EB0A0064284ED8DBF80000C005F5D5AE
:1009A000E06801280AD008B1052813D0286A20F091
:1009B00001002862286A20F0040002E0286A40F062
:1009C00001002862E06841F2883B98B1FFF788FD9A
:1009D00082460BE0286A40F004002862EEE700BF80
:1009E000FFF77EFDA0EB0A0159455AD8286A800717
:1009F000F6D50CE0FFF774FD824605E0FFF770FDC9
:100A0000A0EB0A0159454CD8286A8007F6D41FB1DB
:100A1000E86920F08050E861E06988B36968C1F353
:100A20008101022944D00228C6F8608004D0FFF773
:100A300057FD044638E034E0FFF752FD074604E076
:100A4000FFF74EFDC01B02282BD828688001F7D481
:100A5000206AB0F5803F05D16868A16820F40030B5
:100A600008436860D4E908010843696821F47411F7
:100A700008436860C6F86090FFF732FD044606E060
:100A800025E000BFFFF72CFD001B022809D82868CD
:100A90008001F7D51BE000BFFFF722FD001B0228F5
:100AA00002D90320BDE8F88F28688001F4D40EE055
:100AB0000128F7D06868226A00F48031914204D19D
:100AC000616A00F47010884201D00120EAE700203A
:100AD000E8E7000000100240000042428004424269
:100AE0000C0000200070004010B5401EB0F1807F67
:100AF00001D3012010BD4FF0E02460610F21601789
:100B000000F078FA0020A06107202061002010BDCD
:100B100070B5040004D094F83900002510B106E047
:100B2000012070BD84F83850204600F023F82420BE
:100B300084F839002068C16821F40051C160204662
:100B400000F0C0F92068016921F49041016120683A
:100B5000416921F02A0141612068C16841F40051D6
:100B6000C160E563202084F8390084F83A00002051
:100B700070BD000030B585B000240094019402944B
:100B8000039400681449884224D11448816941F4CF
:100B900080418161816901F480410491816941F062
:100BA0000401816180690E4D00F0040004904FF44F
:100BB00000700090022001900320039069462846AF
:100BC000FFF798FB2815CDE90004694628460294F2
:100BD000FFF790FB05B030BD003801400010024027
:100BE000000801402DE9F843044690F839001F46FB
:100BF00016460D46202850D1A5B19EB194F8380074
:100C000001284AD0012084F838004FF00008C4F8C9
:100C10003C80212084F83900FFF762FCA6848146DD
:100C2000E68426E00120BDE8F883E08C401EE084E5
:100C3000A0684B46B0F5805F4FF000024FF0800196
:100C40002046009703D000F099F9E8B90DE000F0D4
:100C500095F9C8B928882168C0F308004860206960
:100C600008B16D1C05E0AD1C03E0216815F8010B0F
:100C70004860E08C0028D8D14B4600224021204615
:100C8000009700F07BF908B10320CCE7202084F81E
:100C9000390084F838800020C5E70220C3E700004F
:100CA00070B586B00024184800940194029403940F
:100CB000816941F010018161816901F010010491A5
:100CC000816941F020018161816901F02001049175
:100CD000816941F00401816180690C4E00F00400DB
:100CE0004FF400550490002229463046FFF7F2FBEE
:100CF00001200095CDE901040220039069463046A9
:100D0000FFF7F8FA06B070BD001002400010014075
:100D10001FB509481423032280218DE80F0000230A
:100D2000064A07A1783801F043FE04B00248BDE846
:100D30001040783801F098BE640100205514000876
:100D40006C65640010B504A000F04CF9BDE81040DB
:100D50004FF4FA6001F0A1BD6865696865692048D3
:100D6000656C6C6F2052542D54687265616420214B
:100D7000212100000C4810B50A4901604FF4E1310F
:100D80004160002181600C22C160C0E904128161D0
:100D9000C161FFF7BDFE002803D0BDE81040FFF79A
:100DA000A8BA10BD00380140AC000020FEE7704733
:100DB000704710B501F0C6F901F0D4FEBDE810404F
:100DC00001F0CEB930B58FB028216846FFF73DFA63
:100DD00014210AA8FFF739FA01210804CDE900100F
:100DE0000024029402250491CDE907504FF4E0104D
:100DF00009906846FFF7E8FC0F20CDE90A05680274
:100E0000CDE90C4002210AA80E94FFF7F1FB0FB0C8
:100E100030BD0000144910B54868144A10F00C03A6
:100E2000134803D0042B01D0082B09D00260496875
:100E3000104AC1F30311515C0268CA40026010BD40
:100E40004A684B6802F470124FF0020413F4803FBA
:100E500004EB924202D04B689B0301D5064B00E0A5
:100E6000024B5A43E2E700000010024000127A00F1
:100E70000C000020E630000800093D000D48016824
:100E800041F00101016041680B4A11404160016875
:100E90000A4A11400160016821F480210160416823
:100EA00021F4FE0141604FF41F0181600449C00339
:100EB00008607047001002400000FFF8FFFFF6FED8
:100EC00008ED00E02DE9F041044600680169E268A0
:100ED00021F44051114301612169A068084361690F
:100EE00008432168CA6841F20C639A430243CA600E
:100EF00020684169A26921F44071114341611E4992
:100F0000206864253226884202D1FFF717FC01E0F1
:100F1000FFF704FC00EBC00101EB001160686FF00B
:100F200018078000B1FBF0F2B2FBF5F2B1FBF0F371
:100F30007A4303EB8202B1FBF0F306EB0212B2FB41
:100F4000F5F2B3FBF5F302F0F00202EB0312B1FB92
:100F5000F0F3B1FBF0F0B0FBF5F0784303EB800069
:100F600006EB0010B0FBF5F0216800F00F00104414
:100F70008860BDE8F0810000003801402DE9F041B3
:100F8000984617460E460446069D1DE0681C1BD079
:100F90002DB1FFF7A5FAA0EB0800A84214D92068EC
:100FA000C16821F4D071C1602068416921F001015C
:100FB0004161202084F8390084F83A00002084F848
:100FC00038000320BDE8F0812068006836EA0000A0
:100FD00004D00020B842D9D00020F3E70120F9E77F
:100FE000FEE70000014A024900F050B8A5130008CE
:100FF000A80000200907090E002804DB00F1E0200A
:1010000080F80014704700F00F0000F1E02080F835
:10101000141D7047002806D00E4910F0FF0F03D0B2
:10102000C0B2085C401C704710F47F4F04D0C0F37E
:101030000720085C0930704710F47F0F04D0C0F31C
:101040000740085C1130704701EB106000781930E0
:10105000704700009031000802E008C8121F08C164
:10106000002AFAD170477047002001E001C1121F29
:10107000002AFBD17047000003480168814201D07B
:101080000120704700207047840000202DE9F041C6
:1010900016460F460446002503E03946B047641C57
:1010A0006D1C20780028F8D12846BDE8F0810000AA
:1010B0002DE9FC411F460446DDE90831DDE90A65FA
:1010C000143040600060C4E90827C4E90A310A46C8
:1010D000232118461C3401F011F9D4E90301421808
:1010E000D4E90101104B121F01F010F844F81A0B5B
:1010F000002004F801690D4A04F8036BE4E80205D6
:1011000044F8105901C404F83C0B01C444F87409B4
:10111000009023460190194604F1440001F094FD2B
:101120000020BDE8FC810000A1280008D72A0008A3
:1011300010B5029C24F001044472C0E9071200219A
:10114000C0E9093114304060006010BDF0E90512BB
:101150004A60D0E9001211604060006070470000F2
:1011600010B51BA001F00AF81C4C21781CA001F05E
:1011700005F82078C00702D01FA000F0FFFF2078FC
:10118000800702D51FA000F0F9FF2078400702D5A4
:101190001FA000F0F3FF2078000702D520A000F088
:1011A000EDFF2078C00602D520A000F0E7FF2078F0
:1011B000000607D509480F300168BDE810401DA0A2
:1011C00000F0DCBFBDE810401EA000F0D7BF00005B
:1011D000627573206661756C743A0A0029ED00E04F
:1011E0005343425F434653525F424653523A30782C
:1011F00025303258200000004942555345525220B4
:10120000000000005052454349534552522000000F
:10121000494D505245434953455252200000000069
:10122000554E53544B4552522000000053544B45E9
:10123000525220005343422D3E424641523A2530FD
:1012400038580A000A00000010B500F08BF90020A1
:1012500010BD10B500F05CFA002010BD104810B5AC
:10126000416991F82110890703D40E4900200870C4
:1012700013E0016921B180220A48FEF7FDFF0CE06E
:1012800000F078FC08B108A100E009A10548FEF7CC
:10129000FFFF09A10348FEF7E3FF024810BD00006D
:1012A00010000020E40100206D73682000000000A1
:1012B00066696E73682000003E00000003494969BA
:1012C00011F8212F60F341020A70704710000020CE
:1012D000014AC2E900017047100000207CB51649A0
:1012E0001648FFF7F5FF7821012000F029FD144C86
:1012F0006061D0B10A211520CDE900014FF40073DF
:101300000022104910A001F0A4FA054600231A4655
:101310000FA1606901F01AF90120FFF7CFFF15B1A5
:10132000284601F0A1FB00207CBD0BA000F026FFA9
:101330004FF0FF307CBD00008433000814330008F8
:101340001000002071130008747368656C6C000055
:1013500073687278000000006E6F206D656D6F72AB
:101360007920666F72207368656C6C0A000000005B
:101370000B4C606910F8211F41F001010170FFF76B
:101380006DFF00F0FBFED4F81400002190F820203F
:10139000012A01D0022AF9D180F82010F6E70000D6
:1013A0001000002013B54FF6FF7301226946024872
:1013B000FFF718FC00981CBDAC00002010B5124CC3
:1013C0002068800702D511A000F0D8FE20684000F8
:1013D00011D50D48C01E007808B1FFF7C1FE0A48BC
:1013E000001F007808B100F023FB0748801E00882A
:1013F00008B101F00BFE2068002804DABDE81040B7
:1014000008A000F0BBBE10BD2CED00E06661696C69
:10141000656420766563746F722066657463680A1C
:10142000000000006465627567206576656E740A69
:101430000000000010B502A000F0A0FE002010BDCA
:1014400048656C6C6F2052542D546872656164213C
:101450000A0000000A4C4FF400564FF4FA750022BF
:1014600031462046FFF736F8284601F016FA0122E9
:1014700031462046FFF72EF8284601F00EFAEEE737
:101480000010014070B50BA000F078FE0E480F4D23
:1014900004680AE002220EA12068FEF702FF18B1DC
:1014A0000CA0216800F06AFE083428688442F1D359
:1014B000002070BD2D2D46756E6374696F6E204CD3
:1014C0006973743A0A000000100000201400002024
:1014D0005F5F000025730A002DE9F04104461E46B7
:1014E00017460D46084600F077FF001D2060257264
:1014F00000206760C4E90360BDE8F0812DE9F04198
:101500000D4600212961E96891B1297A81B12E68DF
:1015100088B10446FEF706FE0146A4F10C002A7AC3
:10152000007A20F08000904209D00846FEF7FEFDC8
:101530000020BDE8F0813446FEF7F4FD01466868FE
:1015400000272468B44201D1002404E010C0EA68F6
:101550007F1CBA42F5D10846FEF7E8FD20462F6110
:10156000E7E7000010B5074C07A0E16800F006FEB1
:101570000AA0216900F002FE6169BDE810400CA0DC
:1015800000F0FCBD30000020746F74616C206D654C
:101590006D6F72793A2025640A00000075736564E6
:1015A000206D656D6F7279203A2025640A00000075
:1015B0006D6178696D756D20616C6C6F63617465C8
:1015C00064206D656D6F72793A2025640A00000011
:1015D0002DE9F04194B0002733A408230BAA02217F
:1015E00005A8FFF779FF082080460146224631A072
:1015F00000F0C4FD404600F0BFFA35A000F0BEFD8B
:1016000005A93846FFF77AFF0746002642E00BA8F7
:1016100050F826400C3CFEF785FD217A9DF81C20F1
:1016200021F08001914202D0FEF780FD31E0FEF70B
:101630007DFD04F114006169054681421ED000F071
:10164000C9FDA18BCDE9001023460822414626A002
:1016500000F094FD2C680BE0A4F1140126A000F02A
:101660008DFD2068A84202D024A000F087FD2468E8
:10167000AC42F1D115A000F081FD0AE000F0AAFD16
:10168000A18BCDE900102346082241461CA000F0A2
:1016900075FD761C0998B042B9DC002FB0D114B0AA
:1016A0000020BDE8F081000073656D6170686F72A5
:1016B00065000000252D2A2E7320762020207375CA
:1016C0007370656E64207468726561640A0000005E
:1016D000202D2D2D202D2D2D2D2D2D2D2D2D2D2D54
:1016E0002D2D2D0A00000000252D2A2E2A732025DD
:1016F0003033642025643A00257300002F00000079
:10170000252D2A2E2A7320253033642025640A00D3
:101710002DE9F041B4B000263CA408232CAA0121F5
:1017200026A8FFF7D9FE0820804601462246394800
:1017300000F024FD404600F01FFA37A000F01EFD27
:1017400026A93046FFF7DAFE0646002554E02CA80D
:1017500050F825400C3CFEF7E5FC0746207A9DF842
:10176000A01020F08000884203D03846FEF7DEFC4F
:1017700041E07822214607A8FEF74EFD3846FEF7E5
:10178000D5FC94F83500009023460822414632A04B
:1017900000F0F4FC94F8340000F00F00012807D0AA
:1017A000022807D040B1042808D0032808D00AE056
:1017B0002CA006E02EA004E030A002E032A000E061
:1017C00034A000F0DBFCA06A014600E0401C027877
:1017D000232AFBD0E26A401A101A64235843B0FB54
:1017E000F2F3276B206CCDE90007E069081A811835
:1017F0002BA000F0C3FC6D1C2A98A842A7DC002E89
:101800009ED134B00020BDE8F0810000746872659C
:1018100061640000BC320008202D2D2D20202D2DCC
:101820002D2D2D2D2D202D2D2D2D2D2D2D2D2D2DF5
:10183000202D2D2D2D2D2D2D2D2D2D20202D2D2DFF
:101840002D2D2D20202D2D2D2D2D2D2D2D2D2D20EF
:101850002D2D2D0A00000000252D2A2E2A7320256B
:10186000336420002072656164792020000000004C
:101870002073757370656E640000000020696E69E6
:10188000742020200000000020636C6F736520200E
:10189000000000002072756E6E696E670000000027
:1018A000203078253038782030782530387820205E
:1018B000202025303264252520202030782530381E
:1018C0007820253033640A00F0B593B0002626A4B2
:1018D00008230BAA0A2104A8FFF7FEFD08272246C9
:1018E000394623A000F04AFC384600F045F92AA00A
:1018F00000F044FC04A93046FFF700FE0646002530
:1019000024E00BA850F825400C3CFEF70BFC217A94
:101910009DF8182021F08001914202D0FEF706FCCC
:1019200013E0FEF703FCD4E90901CDE900012346E9
:101930000822394621A000F021FC607AC00701D0BE
:1019400024A000E026A000F019FC6D1C0898A84215
:10195000D7DC002ECED101F0FFF8014624A000F024
:101960000DFC13B00020F0BD74696D6572000000BD
:10197000252D2A2E732020706572696F646963209B
:10198000202074696D656F75742020202020202030
:10199000666C61670A000000202D2D2D2D2D2D2D48
:1019A0002D2D2D202D2D2D2D2D2D2D2D2D2D202D81
:1019B0002D2D2D2D2D2D2D2D2D2D0A00252D2A2EB1
:1019C0002A732030782530387820307825303878E0
:1019D000200000006163746976617465640A000028
:1019E00064656163746976617465640A000000006F
:1019F00063757272656E74207469636B3A30782512
:101A00003038780A00000000FEF770FDFFF7DAF9C1
:101A1000FFF746F9FFF7AEF9FFF77AF9FFF792F90A
:101A2000FCE710B500F0A8F9BDE81040FFF7ECBFE7
:101A300010B518A000F0A2FB1B4C21781BA000F0F1
:101A40009DFB2078C00702D01EA000F097FB2078F5
:101A5000800702D51EA000F091FB2078000702D578
:101A60001EA000F08BFB2078C00602D51EA000F05F
:101A700085FB2078000607D50B480C300168BDE8CF
:101A800010401CA000F07ABBBDE810401D4800F0DB
:101A900075BB00006D656D206D616E6167652066C8
:101AA00061756C743A0A000028ED00E05343425F10
:101AB000434653525F4D4653523A307825303258A0
:101AC000200000004941434356494F4C200000008C
:101AD0004441434356494F4C200000004D554E535E
:101AE000544B4552522000004D53544B4552522006
:101AF000000000005343422D3E4D4D41523A2530E7
:101B000038580A007C30000870B50DA000F036FB94
:101B10001248134D04680BE0062212A12068FEF75C
:101B2000C0FB20B9216811A0891D00F027FB0834F3
:101B300028688442F0D30EA000F020FB002070BD86
:101B400052542D546872656164207368656C6C2012
:101B5000636F6D6D616E64733A0A000010000020BF
:101B6000140000205F5F636D645F00002573200038
:101B70000A0000000120704710B5044602E003A0EF
:101B800000F0FCFA641EFAD210BD00002D00000027
:101B900030B5134943680A68134402F108049842B7
:101BA0000DD05D885DB94D68AB4208D08D689D420F
:101BB00000D188605D6845605B68851A1D51836847
:101BC000134483420BD05D88002D08D18D68854277
:101BD00000D18B60416859604068991A015130BD4D
:101BE000300000202DE9F04F85B09946DDE90EA5C3
:101BF000109CAB46630602D5DFF814C103E0DFF8A2
:101C000010C1ACF1110CE30601D524F00104E30787
:101C100001D0302300E0202300260493A3070BD536
:101C2000002A02DA2D26524206E0630701D52B2650
:101C300002E0230700D520260023EE4622B93022F9
:101C40008DF8002001230CE0B9F10A0F14D002F046
:101C50000F0812091CF808800EF803805B1C002A8C
:101C6000F2D1AB4200DD1D46AAEB050214F0110FC4
:101C70004FF0200708D015E00A27B2FBF7F807FB62
:101C80001828B2FBF7F2E5E73EB1002A05DD521E47
:101C900003E0884200D20770401CB2F1000CA2F1B0
:101CA0000102F6DC26B1884200D20670401C521EAA
:101CB000E40605D508E0884201D2049C0470401C6B
:101CC000141EA2F10102F6DC30242E466D1E9E4247
:101CD0000ADD884200D20470401CF6E7884201D237
:101CE000E55C0570401C00E074461D1EA3F1010375
:101CF00007DDBBF1000FF1D103E0884200D207708D
:101D0000401C131EA2F10102F7DC05B0BDE8F08F04
:101D1000A13200081CB514210A20CDE900014FF4BE
:101D200080630022034904A000F093FDBDE81C403D
:101D300000F09ABE231A00086D61696E0000000071
:101D400070B54843044600F061FA050003D022460E
:101D5000002100F0D3FA284670BD000070B5044C95
:101D6000044D02E020688047241DAC42FAD370BDC8
:101D7000043300080833000870B5044C044D02E039
:101D800020688047241DAC42FAD370BD0833000898
:101D90001033000810B5FEF7C5F9044A5188491CF4
:101DA0005180BDE81040FEF7C1B900007800002066
:101DB00010B5FEF7B7F90B4C6188491E09B2618076
:101DC00000290ADC00216180FEF7B0F96068002874
:101DD00007D0BDE8104000F041BBBDE81040FEF761
:101DE000A5B910BD7800002070B5002833D01A4D79
:101DF000296888422FD3696888422CD2A0F10C044C
:101E00004FF0FF31154800F0CEFB60884FF4F556D7
:101E100010B12088B04208D011A000F0AFF923889B
:101E20006288214615A000F0A9F900206080268074
:101E3000A868844200D2AC6029686068611A401AC0
:101E40002969081A28612046FFF7A2FEBDE8704004
:101E5000024800F08DBB70BD3000002060140020EF
:101E6000746F206672656520612062616420646120
:101E7000746120626C6F636B3A0A00006D656D3AA5
:101E8000203078253038782C207573656420666C96
:101E900061673A2025642C206D6167696320636F58
:101EA00064653A203078253034780A00004870475D
:101EB00068020020004870476812002010B5FEF745
:101EC000A9FF10484FF47A710068B0FBF1F0401E92
:101ED000B0F1807F09D24FF0E0210B4A4861FF202A
:101EE00010700020886107200861FFF737FFFFF7B7
:101EF000E1FF0446FFF7DAFF2146BDE8104000F09D
:101F00001DBC00000C00002023ED00E07047000025
:101F100070B50546041D2D48016819B1284688474B
:101F2000002851D02AA0E16B00F028F92CA0216AEA
:101F300000F024F92EA0616A00F020F930A0A16A17
:101F400000F01CF932A0E16A00F018F934A0216811
:101F500000F014F936A0616800F010F938A0A1680B
:101F600000F00CF93AA0E16800F008F93CA0216902
:101F700000F004F93EA0616900F000F940A0A169F9
:101F800000F0FCF842A0E16900F0F8F844A0216BF1
:101F900000F0F4F846A0616B00F0F0F848A0A16BE7
:101FA00000F0ECF82878400708D500F037FD01462E
:101FB00047A000F0E3F8FFF7ABFB02E04CA000F015
:101FC000DDF8FFF7FBF9FEE770BD00009800002088
:101FD0007073723A203078253038780A000000009B
:101FE0007230303A203078253038780A000000000E
:101FF0007230313A203078253038780A00000000FD
:102000007230323A203078253038780A00000000EB
:102010007230333A203078253038780A00000000DA
:102020007230343A203078253038780A00000000C9
:102030007230353A203078253038780A00000000B8
:102040007230363A203078253038780A00000000A7
:102050007230373A203078253038780A0000000096
:102060007230383A203078253038780A0000000085
:102070007230393A203078253038780A0000000074
:102080007231303A203078253038780A000000006C
:102090007231313A203078253038780A000000005B
:1020A0007231323A203078253038780A000000004A
:1020B000206C723A203078253038780A0000000011
:1020C0002070633A203078253038780A000000000C
:1020D00068617264206661756C74206F6E2074682C
:1020E000726561643A2025730D0A0D0A0000000034
:1020F00068617264206661756C74206F6E2068611F
:102100006E646C65720D0A0D0A00000070B504461D
:10211000121D22F007000022094D403840F82250DD
:10212000521C102AFAD301620021416281624FF0F1
:10213000807200F13005C263C16285E81A0070BD8B
:10214000EFBEADDE10B5FDF7EDFF044A1178491C76
:102150001170BDE81040FDF7E9BF00002C00002021
:1021600010B5FDF7DFFF044A1178491E1170BDE874
:102170001040FDF7DBBF00002C0000200FB47F21D2
:1021800010B503AB0448029A00F0D0FD0248FFF7F7
:10219000BDFE10BC5DF814FBE01300200268516026
:1021A00002680A6001604860704702685160026816
:1021B0000A600160486070470268516002680A6006
:1021C0000160486070474268116042684A6041603F
:1021D000086070470246002100E0491C00689042F8
:1021E000FBD108467047D0E900124A60D0E90012DE
:1021F0001160406000607047D0E900124A60D0E989
:102200000012116040600060704700002DE9F04747
:10221000002807D0374CC01C20F00306E068864237
:1022200002D90020BDE8F0870C2E00D20C264FF01A
:10223000FF31314800F0B7F9D4F808C02168E768E9
:10224000ACEB0100BA1B4FE00D186B88E3BB6B6869
:102250001B1A0C3BB34246D36A6806F11803121AE4
:102260000C3A4FF001094FF4F55A9A422DD38319D5
:102270000C33CA184FF00008A2F800A0A2F80280A0
:10228000D5F80480C2E901806B60A5F8029050681F
:102290000C37B84202D001F1080283502069304463
:1022A0000C3020616269824200D26061A5F800A012
:1022B000654512D1A06842887AB1626890420CD01C
:1022C00040680844A060F6E70DE0A5F80290686851
:1022D0006A1A801A22691044E3E7074800F048F9B7
:1022E00005F10C009EE768688242ADD8024800F014
:1022F0003FF996E7300000206014002010B5034637
:10230000CCB2042A1AD3810718D1194644EA04230F
:1023100043EA034306E008C1103A08C141F8083B0C
:1023200041F8043C102AF6D201E008C1121F042A29
:10233000FBD20B4602E000BF03F8014B521EFBD25A
:1023400010BD2DE9F0410F46064600F045F8054660
:10235000C068FFF75BFF040019D00021EA68FFF7AF
:10236000CDFF26720020607208223946204600F018
:10237000D1F9FDF7D7FE064604F10C01281DFFF741
:102380000DFF3046FDF7D2FE2046BDE8F08100206B
:10239000FBE770B5044600202072FDF7C3FE05463A
:1023A00004F10C00FFF71FFF2846FDF7BFFE204693
:1023B000BDE87040FFF718BD70B5044600202072DC
:1023C000FDF7B0FE054604F10C00FFF70CFF2846B0
:1023D000BDE87040FDF7AABE074A002102EB0113D9
:1023E0001B78834202D102EB01107047491C03297C
:1023F000F4DB002070470000480000202DE9F04188
:10240000044616460D460846FFF7E6FF0746FFF767
:10241000C1FC381D796800E009688142FCD1FFF7F2
:10242000C7FC45F08000207208223146204600F0AB
:1024300071F9FDF777FE054604F10C01381DFFF731
:10244000ADFE2846BDE8F041FDF770BE007A0006FB
:1024500001D50120704700207047000070B5FDF7DE
:1024600061FE114C05466088B0B9A068FEF7D2FD48
:102470000E49401E626851F83010143991420BD059
:1024800020700B486160007801F11C01002802F106
:102490001C0006D0FDF74DFE2846BDE87040FDF754
:1024A00045BEFDF746FEF7E77800002080140020C7
:1024B0002C00002010B50446FDF734FE024694F8C7
:1024C00034000E4920F00F00401C84F8340094F8CA
:1024D000350001EBC00104F114004B6818604B6833
:1024E000A361486006486161A16B836819438160FC
:1024F000BDE810401046FDF719BE00008014002012
:102500007800002010B50446FDF70CFE04F114011C
:10251000D1E900235360D1E900231A60A161616110
:1025200094F83520074951F8323001EBC2018B4253
:1025300004D10549A36B8A689A438A60BDE81040BC
:10254000FDF7F4BD80140020780000202DE9F04153
:1025500016460A461F4605460221FFF74FFF05F1C2
:102560001404AC616C61AE836F720020BDE8F08131
:1025700070B50446FDF7D6FD0546606904F1140107
:10258000884208D0143800F02BFA2846FDF7CEFD1B
:10259000FFF764FF05E0A08B401CA0832846FDF7F1
:1025A000C5FD002070BD2DE9F3410446FDF7BAFDDD
:1025B0000746A08B28B1401EA0833846FDF7B6FD24
:1025C00046E0019870B100F029FA06460020306319
:1025D00004F11405647A304600F05CFAF4B1012C81
:1025E00021D106E03846FDF7A1FD6FF00100BDE8FE
:1025F000FC812C680EE096F8351094F82120A4F1A7
:102600001400914205D206F114011430FFF7DBFDEE
:1026100002E02468AC42EED1AC4204D106F11401D0
:102620002846FFF7D0FD0198002809DD06F1440097
:1026300001AA0021044600F0DFFA204600F018FB52
:102640003846FDF773FDFFF709FF306B0028CED148
:102650000020CCE708B509A0FFF790FD0AA0FFF71E
:102660008DFD12A0032300900122194612A0FFF74E
:1026700085FDBDE8084018A0FFF780BD0A205C205A
:102680007C202F0A000000002D205254202D2020F5
:10269000202020546872656164204F7065726174F7
:1026A000696E672053797374656D0A004A756C20F2
:1026B0003133203230323000202F207C205C20202B
:1026C00020202025642E25642E2564206275696CE7
:1026D000642025730A0000002032303036202D207F
:1026E0003230313920436F707972696768742062C3
:1026F000792072742D746872656164207465616DEF
:102700000A000000014600E0491C0A78002AFBD1BB
:10271000081A704710B5002A07D0034611F8014B7C
:1027200003F8014B2CB1521EF8D110BD03F8011B68
:1027300000E00021521EF9D110BD00000A46C11C64
:1027400010B522F0030321F00301182B20D9A3F1C7
:1027500018048C421CD3114C581A18382160E060C0
:102760004FF4F5520A8000230C30C1E901034B807D
:102770004B68194461600A8001224A804860886081
:10278000002307A10848FFF7E1FE2068A06010BD04
:102790000146BDE8104005A0FFF7F0BC3000002066
:1027A0006865617000000000601400206D656D2098
:1027B000696E69742C206572726F72206265676938
:1027C0006E206164647265737320307825782C20E4
:1027D000616E6420656E6420616464726573732049
:1027E000307825780A00000010B50A4900230A4C09
:1027F0004B80184604EBC002401C52601260202837
:10280000F8DB1F20087003484B600C308B60406081
:10281000006010BD780000208014002010B5074C27
:10282000A068FEF7F7FB0649401E51F83000143847
:102830006060BDE810401C30FDF7A9BC78000020A6
:102840008014002001484060006070479000002024
:1028500070472DE9FF478946DDE90C76824601463F
:102860001D4690460120FFF76CFD041E0DD0284642
:10287000FFF7CCFC60B103968DE8A10043464A46C1
:1028800051462046FEF714FC204604B0BDE8F08710
:102890002046FFF77EFD0020F7E700F0C5B80000F6
:1028A00070B513480468FDF73DFC05462046FFF768
:1028B00029FE042084F8340004F1440000F0B4F947
:1028C0002046FFF7C3FD012801D1206F58B104F164
:1028D00014010848FFF769FC2846FDF727FCBDE80E
:1028E0007040FFF7BBBD2046FFF766FDF4E7000030
:1028F0007C0000208400002000F002F8FCE70000CB
:1029000070B527E0FDF70EFC0546FEF7B5FB58B3A2
:1029100018480168A1F11404D1E900024260D1E92C
:102920000002106049600960FFF734FA216F09B1B5
:10293000204688472046FFF789FD01280FD0FFF782
:1029400037FA2846FDF7F2FBA06AFFF74DFA20465A
:10295000FFF71FFDFEF790FB0028D3D170BD204686
:10296000FFF72AFDFFF724FA2846BDE87040FDF77F
:10297000DDBB0000840000201FB5202308481F2273
:10298000D9008DE80F000023064A07A1783800F02F
:102990000FF804B00248BDE81040783800F064B881
:1029A000E0120020F92800087469646C65000000DA
:1029B0002DE9FF5F92460EAA0C4692E8E0010A4616
:1029C000994683460121FFF719FD8DE8E0014B464A
:1029D000524621465846FEF76BFB04B0BDE8F09F17
:1029E00070B5044690F8340000F00F00022802D0C1
:1029F0004FF0FF3070BDFDF795FB054604F1140064
:102A0000FFF7FAFB04F1440000F078F92846FDF7DF
:102A10008DFB2046FFF74EFD002070BD0148006889
:102A2000704700007C000020F1B5FDF77BFB0546F8
:102A30000C480468204600F02DF804F144006A4672
:102A40000021064600F0D8F8304600F011F928467B
:102A5000FDF76CFBFFF702FD206B801C00D12063AB
:102A60000020F8BD7C00002010B590F8361001223F
:102A700080F835108A400221826380F83410FFF715
:102A8000AFFF0348006808B1FFF7E8FC002010BD65
:102A90007C00002070B5044690F8340000F00F0070
:102AA000012802D04FF0FF3070BDFDF73BFB05461B
:102AB00094F8340020F00F00801C84F83400204685
:102AC000FFF720FD04F1440000F018F92846FDF757
:102AD0002DFB002070BD10B504466FF0010020638F
:102AE00004F11400FFF788FB2046FFF7E3FCBDE884
:102AF0001040FFF7B3BC000070B5FDF713FB0646AE
:102B00001348046894F8340000F00F00012819D12C
:102B1000D4E90501884215D004F114000546FFF7F9
:102B20006BFB94F835000B4901EBC00041680D6068
:102B300041686960456028603046FDF7F7FAFFF7A5
:102B40008DFC02E03046FDF7F1FA002070BD000078
:102B50007C000020801400200148006870470000BD
:102B600028000020094810B50168491C0160FFF7E2
:102B700055FF016C491E016403D1C16B0164FFF76D
:102B8000BBFFBDE8104000F003B8000028000020A3
:102B90002DE9F041FFF7E0FF0646FDF7C3FA0746CF
:102BA000144D1EE060696FF00041301A143C8842F9
:102BB0001AD22046FEF7CAFAD4E907108847FFF771
:102BC000CBFF0646607A810708D5C10706D020F002
:102BD00001006072204600F04BF802E020F0010096
:102BE00060722C68AC42DDD13846BDE8F041FDF79B
:102BF0009DBA00009000002049B1012904D00229AB
:102C000008D003290ED109E0406A10600AE011687B
:102C1000416207E0417A21F0020102E0417A41F08D
:102C2000020141720020704770B50546FDF77AFA3F
:102C300004462846FEF78AFA2046FDF777FA28462A
:102C4000FFF7BAFB002070BD2DE9F8439046DDE99F
:102C500008450A461F4606460A21FFF7CFFB2346D2
:102C60003A46414630460095FEF762FABDE8F883E1
:102C7000F8B50446FDF756FA05462046FEF766FA13
:102C8000607A20F0010060722846FDF74FFAFFF7E6
:102C900063FF616A0844A062FDF744FA0546164ADC
:102CA0000020009202EBC002694653686FF0004CAE
:102CB0005DF820200BE01268A2EBC0067769A66AD7
:102CC000B74202D0BE1B664503D341F820209A428A
:102CD000F1D10948001F0168491C016004F1140189
:102CE0000098FFF769FA607A40F0010060722846A8
:102CF000FDF71CFA0020F8BD9000002070B50446D6
:102D0000407AC0070ED0FDF70DFA05462046FEF7C3
:102D10001DFA2846FDF70AFA607A20F00100607279
:102D2000002070BD4FF0FF3070BD00002DE9FF4F57
:102D30008946044600EB090783B080464FF0FF3A0E
:102D40004FF0200BA74202D25746C8F1FF3907E1E6
:102D5000252803D0BC4200D2207081E000260599CE
:102D6000491C059108782D2811D02B2812D0202835
:102D700013D0232814D0302815D00A785546303A7D
:102D80000A2A13D205A800F02CF905461AE046F0ED
:102D90001006E4E746F00406E1E746F00806DEE741
:102DA00046F02006DBE746F00106D8E72A2809D1DD
:102DB0000698491C059120C80690002D02DA6D4244
:102DC00046F01006CDF800A0059801782E2918D1FC
:102DD000401C05900178A1F130020A2A04D205A80E
:102DE00000F0FFF8009008E02A2908D1401C059067
:102DF000069802C8069000910846002801DA0020D3
:102E00000090059800210278682A01D06C2A02D12E
:102E1000401C1146059000780A236F287DD00CDCF9
:102E200063281FD004DC25287BD058280DD17EE0F4
:102E3000642801D0692808D17DE070285ED073280D
:102E40002CD0752879D0782873D0BC4201D22520A7
:102E500020700598641C0178D1B3BC4200D2217067
:102E6000641C7AE0F00608D458466D1E002D04DD7F
:102E7000BC4200D22070641CF7E70699BC4211F8EE
:102E8000040B069100D22070584602E0BC4200D2EA
:102E90002070641C6D1E002DF8DC5EE0069808C8EA
:102EA000069003B93EA31846FFF72CFC00990029B1
:102EB00002DD884200DD0846F1060AD459462A465A
:102EC0006D1E824205DDBC4200D22170641CF6E713
:102ED00052E0002106E0BC4201D21A782270491C5F
:102EE0005B1C641C8142F6DB5A4629466D1E8142FA
:102EF00033DDBC4200D22270641CF6E7681C02D1AC
:102F0000082546F0010600980296CDE90050069883
:102F10001023394604C806901BE006E001E00CE0EF
:102F200007E0BC429CD2252016E7082305E046F0C6
:102F30004006102301E046F002066C2901D0682902
:102F40001DD0069804C8069000983946CDE9005077
:102F500002962046FEF746FE04460598401C059062
:102F60000598007800287FF4F3AEB9F1000F11D076
:102F7000BC420DD220700DE0401E0590EDE7069892
:102F800030F8041B06908AB2B007DDD512B2DBE739
:102F900007F8010C07B0A4EB0800BDE8F08F0000B3
:102FA000284E554C4C2900000020704700207047E7
:102FB000002070470020704710B5FDF7B3F8FEF70A
:102FC0007DFFFFF747FBFFF73DFCFFF70DFCFEF72A
:102FD000A1FEFFF73DFCFFF7CFFCFFF71FFC002031
:102FE00010BD10B5014600206FF02F0307E0541C00
:102FF0000C60127800EB800003EB400010440A687C
:103000001478303C0A2CF2D310BD000010B518A083
:10301000FFF7B4F81A4C21881AA0FFF7AFF8208800
:10302000C00702D01DA0FFF7A9F82088800702D5AD
:103030001DA0FFF7A3F82088400702D51DA0FFF7C9
:103040009DF82088000702D51CA0FFF797F820887C
:10305000C00502D51BA0FFF791F82088800502D596
:103060001BA0FFF78BF8BDE8104004A0FFF786B85F
:103070007573616765206661756C743A0A000000BB
:103080002AED00E05343425F434653525F55465397
:10309000523A30782530325820000000554E4445D1
:1030A00046494E5354522000494E565354415445BC
:1030B00020000000494E5650432000004E4F435020
:1030C00020000000554E414C49474E454420000029
:1030D00044495642595A45524F20000010B5FFF757
:1030E000B9FA002010BD000000000000000001023D
:1030F00003040607080900000000010203046865D4
:103100006C6C6F0076657273696F6E005F5F636DE4
:10311000645F76657273696F6E006C6973745F7457
:103120006872656164005F5F636D645F6C6973748E
:103130005F746872656164006C6973745F73656D58
:10314000005F5F636D645F6C6973745F73656D00CE
:103150006C6973745F74696D6572005F5F636D6441
:103160005F6C6973745F74696D6572006C69737408
:10317000005F5F636D645F68656C70005F5F636DC7
:10318000645F7073005F5F636D645F6672656500A6
:103190000000010002000100030001000200010024
:1031A0000400010002000100030001000200010010
:1031B00005000100020001000300010002000100FF
:1031C00004000100020001000300010002000100F0
:1031D00006000100020001000300010002000100DE
:1031E00004000100020001000300010002000100D0
:1031F00005000100020001000300010002000100BF
:1032000004000100020001000300010002000100AF
:10321000070001000200010003000100020001009C
:10322000040001000200010003000100020001008F
:10323000050001000200010003000100020001007E
:10324000040001000200010003000100020001006F
:10325000060001000200010003000100020001005D
:10326000040001000200010003000100020001004F
:10327000050001000200010003000100020001003E
:10328000040001000200010003000100020001002F
:1032900030313233343536373839616263646566CC
:1032A00000303132333435363738394142434445C2
:1032B00046006C6973745F6D656D0000252D2A2EC4
:1032C00073207072692020737461747573202020DC
:1032D00020202073702020202020737461636B20D5
:1032E00073697A65206D61782075736564206C65FB
:1032F0006674207469636B20206572726F720A00B5
:10330000B52F0008AD2F0008A92F0008DD12000816
:10331000B12F0008FE300008351400080431000801
:10332000DD3000080C310008DD3000081A310008DB
:10333000111700082631000811170008383100085D
:10334000D115000841310008D1150008503100089E
:10335000C91800085B310008C91800086C31000862
:103360008514000871310008091B00087C31000831
:10337000531200088531000849120008B2320008D3
:1033800065150008A433000800000020AC00000010
:103390005810000850340008AC000020D418000079
:1033A000681000080100000010000000000000008C
:1033B0000024F400000000000000000000000000F5
:1033C00000000000000000000000000000000000FD
:1033D00000000000000000000000000000000000ED
:1033E00000000000000000000000000001000000DC
:1033F0004C0000204C00002078000000020000007B
:103400005C0000205C000020200000000A0000009A
:103410006C0000206C0000202C0000000000000068
:10342000000000000000000000000000000000009C
:10343000000000000000000000000000000000008C
:10344000000000000000000000000000000000007C
:04000005080000ED02
:00000001FF
