:020000040800F2
:10000000581F00200101000887150008CB010008D7
:10001000851500086B020008951900080000000013
:10002000000000000000000000000000891500082A
:10003000F302000800000000530100088B150008BF
:100040001B0100081B0100081B0100081B01000820
:100050001B0100081B0100081B0100081B01000810
:100060001B0100081B0100081B0100081B01000800
:100070001B0100081B010008B1020008BD020008B6
:100080001B0100081B0100081B0100081B010008E0
:100090001B0100081B0100081B0100081B010008D0
:1000A0001B0100081B0100081B0100081B010008C0
:1000B0001B0100081B0100081B0100081B010008B0
:1000C0001B0100081B0100081B0100081B010008A0
:1000D0001B010008811900081B0100081B01000812
:1000E000F50200081B0100081B010008DFF80CD016
:1000F00000F0A4F80048004761020008581F0020E3
:100100000648804706480047FEE7FEE7FEE7FEE7B1
:10011000FEE7FEE7FEE7FEE7FEE7FEE7551600080E
:10012000ED000008EFF3108072B6704780F310887E
:100130007047334A1368012B04D04FF0010313605A
:10014000304A1060304A116030484FF080510160F1
:100150007047EFF3108272B62948016891B14FF0F1
:10016000000101602748016829B1EFF3098121E905
:10017000F00F00680160244909680968B1E8F00FD0
:1001800081F3098882F310884EF0040E70471E49EF
:1001900008601C494FF00000086019494FF0010049
:1001A00008601B484FF47F01D0F8002041EA0201AB
:1001B000016016484FF080510160164800680068E1
:1001C00080F3088861B662B670471EF0040F0CBF5A
:1001D000EFF30880EFF3098020E9F00F40F804ED19
:1001E0001EF0040F0CBF80F3088880F3098800B567
:1001F00001F09CFE5DF804EB4EF0040E7047000029
:10020000EC000020E4000020E800002004ED00E005
:1002100020ED00E008ED00E0D2B201E000F8012B93
:10022000491EFBD270470022F6E710B513460A4676
:1002300004461946FFF7F0FF204610BD064C074D57
:1002400006E0E06840F0010394E8070098471034A6
:10025000AC42F6D3FFF74EFF443500086435000882
:1002600010B503F075F8002010BDFEE708B501F0E9
:1002700073FF0C4800680168C1F3001169B101689F
:1002800040680090074800F00BFE0748006841688E
:1002900040680648006802F0C3FABDE8084001F073
:1002A00069BF0000F0040020300500200C00002091
:1002B000014800F09BB8000074050020014800F0E0
:1002C00095B800003005002030B590F8405001246A
:1002D000AC40C56B6C60046863604368102B0368B6
:1002E00003D099600068C26030BD9A600068C16048
:1002F00030BD704710B54FF4805000F0A3F9BDE851
:1003000010404FF4005000F09DB9704710B590F8C0
:1003100021100022022905D00421816380F82020C9
:10032000012010BD01680B6823F00E030B6001680B
:100330000B6823F001030B6090F84030C46B01217F
:1003400001FA03F3636080F8211080F82020104642
:1003500010BD000010B590F821100024022903D030
:100360000421816301243DE001680A6822F00E0245
:100370000A6001680A6822F001020A601A4A0168EC
:10038000914201D1012121E0174A1432914201D159
:1003900010211BE0144A2832914201D1891515E041
:1003A000114A3C32914201D189140FE00E4A503279
:1003B000914202D14FF4803108E00B4A64329142FD
:1003C00002D14FF4801101E04FF08071064A083AE3
:1003D0005160012180F82110002180F82010416B2C
:1003E00001B18847204610BD080002402DE9F05FAA
:1003F000C16B0C6801680B68D0F840C0042202FA97
:100400000CF2494DDFF824A1494E4A4FDFF828B1DC
:10041000DFF828E122422CD05A072AD50A68920632
:1004200003D40A6822F004020A600168A94201D1DB
:10043000042219E0514501D1402215E0B14202D118
:100440004FF4806210E0B94202D14FF480420BE0D9
:10045000594502D14FF4802206E0714502D14FF494
:10046000800201E04FF080622F4908394A60C16A7A
:100470003BE04FF0020808FA0CF818EA040F4FF0BE
:1004800000094FF0010235D05FEA837832D50B685E
:100490009B0605D40B6823F00A030B6080F821202B
:1004A0000168A94201D1022219E0514501D120225F
:1004B00015E0B14202D14FF4007210E0B94202D10E
:1004C0004FF400520BE0594502D14FF4003206E0E0
:1004D000714502D14FF4001201E04FF00072124951
:1004E00008394A6080F82090816A00291AD0BDE856
:1004F000F05F0847082505FA0CF5254212D01B07C6
:1005000010D50B6823F00E030B6090F84010C36BFE
:1005100002FA01F15960826380F8212080F820906E
:10052000016BE2E7BDE8F09F080002401C000240BA
:100530003000024044000240580002406C0002407B
:1005400030B528B308C8134914221944B1FBF2F19D
:100550008900C16310498163022141771A6843F61B
:10056000F0718A43D0E900142143D0E902452C43BD
:100570002143046921434469214384692143114390
:10058000196000214163012242770177084630BD9E
:10059000012030BDF8FFFDBF0000024070B50446E9
:1005A00090F82000002501280CD0012084F82000BC
:1005B00094F821600020012E06D084F82000022546
:1005C000284670BD022070BD022684F82160A06319
:1005D0002068066826F0010606602046FFF774FED4
:1005E000E06A00282068016802D041F00E0106E0B0
:1005F00021F0040101602068016841F00A010160F6
:100600002068016841F001010160D9E710B5044696
:1006100001F0A2FD0948B4F5805F05D0B4F5005F94
:1006200008D10422064902E005490422091D006898
:1006300001F08EFFBDE8104001F09CBD08000020D5
:1006400010000020044910B50A68024202D0086078
:10065000FFF7DCFF10BD0000140401402DE9F84F46
:10066000DFF8B891002409F1040A0AF1040B2346CB
:100670000F270BF1040EC9E00125A5402A40AA422C
:100680007DD1674ED1F804C0ACEB0608B44532D03A
:1006900014DCBCF1030F3AD009DCBCF1000F2AD006
:1006A000BCF1010F1CD0BCF1020F31D11DE0BCF137
:1006B000110F17D0BCF1120F2AD119E0B8F5881F1D
:1006C00019D006DCB8F5803F15D0B8F5801F1FD1D2
:1006D00011E0B8F5001F0ED0B8F5041F18D10AE0DC
:1006E000CB6815E0CB681B1D12E0CB6808330FE028
:1006F000CB680C330CE08B682BB1012B4FF0080357
:1007000003D0456104E0042302E0056100E000231A
:10071000FF2A01D8064601E000F104064FEA8405ED
:1007200001D9A5F12005D6F8008007FA05FC28EAD2
:100730000C0803FA05F548EA0508C6F800804D687C
:10074000ED0062D5374DAE6946F00106AE61AD6988
:1007500024F0030605F001050095334D06EB050C6A
:10076000DCF80850A607360F07FA06F825EA080550
:10077000DFF8B880404503D14FF0000817E044E0AF
:10078000DFF8AC80404502D14FF001080FE0DFF800
:10079000A480404502D14FF0020808E0DFF89880BD
:1007A000404502D14FF0030801E04FF0040808FA79
:1007B00006F848EA0508CCF808804D68D9F80060CA
:1007C000ED034D4601D5164300E096432E604D687B
:1007D000DAF80060AD03554601D5164300E09643B4
:1007E0002E604D68DBF80060ED025D4601D51643D2
:1007F00000E096432E604D68DEF80060AD0275465D
:1008000001D5164300E096432E60641C0D682A460D
:10081000E5407FF431AFBDE8F88F000000040140EF
:1008200000001110001002400000014000080140CB
:10083000000C01400010014000140140C2680A424F
:1008400001D041617047016170470AB10161704791
:100850000904FBE701488068704700001800002089
:10086000074810B5016841F010010160032000F055
:1008700075F8002000F006F800F024F8002010BD04
:100880000020024070B50D4D04464FF47A7128786F
:10089000B1FBF0F00A490968B1FBF0F000F0ECFAA6
:1008A00048B9102C07D200222146501E00F036F81D
:1008B00000206C6070BD012070BD00001800002099
:1008C000240000200C4808B5816941F001018161D4
:1008D000816901F001010091C16941F08051C1615C
:1008E000C06900F0805000900448416821F0E06148
:1008F00041F00071416008BD00100240000001405D
:10090000002809DB00F01F0201219140400980000E
:1009100000F1E020C0F8001170470000F0B40E4B69
:100920001B680C46C3F30223C3F10705042D00D94D
:100930000425191D072901D2002300E0DB1E012632
:1009400006FA05F1491E214099409E40761E164048
:100950003143F0BC01F01FB80CED00E0064900F097
:10096000070208684FF6FF03184040EA0220034AD6
:1009700010430860704700000CED00E00000FA052D
:100980002DE9F0470F46050061D0434E306800F076
:100990000700B84209D2306820F0070038433060C1
:1009A000306800F00700B84251D128683B4C8107FD
:1009B00012D5400703D5606840F4E0606060287895
:1009C000000703D5606840F4605060606068A96803
:1009D00020F0F000084360602878C00728D06868DD
:1009E000012810D02168022810D0890700292EDAAA
:1009F000616821F0030101436160FFF72BFF80462E
:100A000041F288390DE021688903EFE78901EDE7BC
:100A1000FFF720FFA0EB0801494502D90320BDE8FC
:100A2000F0876068696800F00C00B0EB810FEFD1CF
:100A3000306800F00700B8420BD9306820F007009A
:100A400038433060306800F00700B84201D0012020
:100A5000E5E72878400705D56068E96820F4E0609C
:100A6000084360602878000706D56068296920F48B
:100A7000605040EAC100606000F038F86168084AE0
:100A8000C1F30311515CC84006490860064800687C
:100A9000FFF7F8FE0020C2E70020024000100240ED
:100AA000F8330008240000201C00002004480549F9
:100AB00000684968044AC1F30221515CC84070478C
:100AC00024000020001002400834000804480549B2
:100AD00000684968044AC1F3C221515CC8407047AC
:100AE00024000020001002400834000812A185B044
:100AF0000FC98DE80F0014A0144A006804905168D3
:100B0000134801F00C03042B10D0082B0ED1C1F3B5
:100B10008343C9031DF803000AD5516804AAC1F331
:100B20004041515C0A4A5043B0FBF1F005B07047B8
:100B300008494843FAE700000203040506070809CC
:100B40000A0B0C0D0E0F10100102000000100240E5
:100B500000127A0000093D002DE9F84F040070D022
:100B60002078C04DC00749D06868C0F381000128D3
:100B700007D06868C0F38100022809D16868C00303
:100B800006D52868800339D560680028E7D035E0AD
:100B90006068B0F5803F0BD010B1B0F5A02F11D038
:100BA000286820F480302860286820F4802002E043
:100BB000286840F480302860606890B1FFF74AFEF2
:100BC00006460AE0286840F480202860F0E700BF6D
:100BD000FFF740FE801B642873D828688003F7D590
:100BE0000CE0FFF737FE064605E000BFFFF732FED8
:100BF000801B6428F0D828688003F7D420789A4EA8
:100C000080074FF001094FF0000839D5686810F0EF
:100C10000C0F07D06868C0F38100022809D168680A
:100C2000C00306D42868800714D52069012808D19C
:100C300010E02069B0B1C6F80090FFF70BFE074640
:100C400005E00AE1FFF706FEC01B0228C4D82868A9
:100C50008007F7D52868616920F0F80040EAC100F4
:100C600028600DE0C6F80080FFF7F4FD074604E0B9
:100C7000FFF7F0FDC01B022823D828688007F7D4AF
:100C8000207800072CD57948A169D9B1C0F8009027
:100C9000FFF7E0FD074604E0FFF7DCFDC01B02287C
:100CA0000FD8686A8007F7D571484FF4FA51006889
:100CB000B0FBF1F0009000BF0098411E0091FAD205
:100CC0000EE080E0C0F80080FFF7C4FD074604E0B6
:100CD000FFF7C0FDC01B022875D8686A8007F7D4EB
:100CE0002078400760D5E8690027C00008D4E8698B
:100CF00040F08050E861E869012700F080500090E2
:100D00005C480168C90513D40168834641F48071C9
:100D10000160FFF79FFD824606E000BFFFF79AFDE6
:100D2000A0EB0A0064284ED8DBF80000C005F5D51A
:100D3000E06801280AD008B1052813D0286A20F0FD
:100D400001002862286A20F0040002E0286A40F0CE
:100D500001002862E06841F2883B98B1FFF77AFD14
:100D600082460BE0286A40F004002862EEE700BFEC
:100D7000FFF770FDA0EB0A0159455AD8286A800791
:100D8000F6D50CE0FFF766FD824605E0FFF762FD51
:100D9000A0EB0A0159454CD8286A8007F6D41FB148
:100DA000E86920F08050E861E06988B36968C1F3C0
:100DB0008101022944D00228C6F8608004D0FFF7E0
:100DC00049FD044638E034E0FFF744FD074604E0FF
:100DD000FFF740FDC01B02282BD828688001F7D4FC
:100DE000206AB0F5803F05D16868A16820F4003022
:100DF00008436860D4E908010843696821F4741164
:100E000008436860C6F86090FFF724FD044606E0DA
:100E100025E000BFFFF71EFD001B022809D8286847
:100E20008001F7D51BE000BFFFF714FD001B02286F
:100E300002D90320BDE8F88F28688001F4D40EE0C1
:100E40000128F7D06868226A00F48031914204D109
:100E5000616A00F47010884201D00120EAE70020A6
:100E6000E8E70000001002400000424280044242D5
:100E7000240000200070004010B5401EB0F1807FBB
:100E800001D3012010BD4FF0E02460610F216017F5
:100E900000F081FD0020A06107202061002010BD2E
:100EA00010B504460068416994F83920C1F3C011B7
:100EB000212A0BD151B1416921F080014161206BA0
:100EC00008B1FFF723FA204600F046FC206841698C
:100ED00094F83A20C1F38011222A0BD151B1416913
:100EE00021F040014161606B08B1FFF70FFA204625
:100EF00000F024FC002010BD7047000070B50268AF
:100F000004461068D168536910F00F0F50D003F0F9
:100F1000010501F4907635435DD0C20705D0CA05BE
:100F200003D5E26B42F00102E263420705D5DA071E
:100F300003D0E26B42F00202E263820705D5DA07D2
:100F400003D0E26B42F00402E263020705D5DA0740
:100F500003D0E26B42F00802E263E26B002A33D076
:100F6000800604D5880602D5204600F0FEFB2068E6
:100F70004069E16BC0F38010090700D428B3204614
:100F800000F0DCFB2068416949061AD5416921F06F
:100F900040014161606BA0B11B494163606BFFF789
:100FA000D9F9002810D0606B416BBDE8704008474C
:100FB000830610D58B060ED52046BDE8704000F0A4
:100FC000D4BB2046FFF798FF70BD2046FFF794FF83
:100FD0000020E06370BD030606D50B0604D520464D
:100FE000BDE8704000F068BC4006F3D54806F1D576
:100FF000D168204621F04001D160202184F83910C9
:1010000000F04FF970BD00009D16000870B5040097
:1010100004D094F83900002510B106E0012070BD1D
:1010200084F83850204600F023F8242084F8390052
:101030002068C16821F40051C160204600F0E0FB47
:101040002068016921F4904101612068416921F023
:101050002A0141612068C16841F40051C160E56323
:10106000202084F8390084F83A00002070BD000088
:10107000F0B585B0002406460094019402940394D0
:1010800000682D49884254D12C48816941F480413F
:101090008161816901F480410491816941F0040119
:1010A00081618069264D00F0040004904FF40070C7
:1010B0000090022001900320039069462846FFF724
:1010C000CDFA2815CDE90004694628460294FFF7B9
:1010D000C5FA1D4D1B488027C5E90004C5E9024734
:1010E0002C616C61AC612846EC61FFF729FA08B10C
:1010F000FFF70BF975636E62134D124844351438CF
:1011000001C5102091C5104845F8104944306C6164
:10111000AC61EC61FFF714FA08B1FFF7F6F835633C
:101120000022114625206E62FFF7F8FB2520FFF70D
:10113000E7FB05B0F0BD00000038014000100240A0
:10114000000801405800024030050020F8B5044670
:1011500090F83A0020283CD1C1B3BAB394F83800D3
:10116000012836D0012084F83800A162A28500252C
:10117000E563222084F83A00636B17489862636B3A
:101180001648D862636B16481863606B1346456354
:101190000846666B216802463046091DFFF7FEF9D6
:1011A000206801684168009184F83850C16841F4B2
:1011B0008071C1602068416941F00101416120688E
:1011C000416941F0400141610020F8BDFFE7012085
:1011D000FBE70220F9E70000F716000833170008C4
:1011E000AD160008704770472DE9F843044690F8A3
:1011F00039001F4616460D46202850D1A5B19EB194
:1012000094F8380001284AD0012084F838004FF0C3
:101210000008C4F83C80212084F83900FFF71AFB4D
:10122000A6848146E68426E00120BDE8F883E08CB0
:10123000401EE084A0684B46B0F5805F4FF000028E
:101240004FF080012046009703D000F066FBE8B91C
:101250000DE000F062FBC8B928882168C0F30800DF
:101260004860206908B16D1C05E0AD1C03E02168F1
:1012700015F8010B4860E08C0028D8D14B460022BD
:1012800040212046009700F048FB08B10320CCE73E
:10129000202084F8390084F838800020C5E7022037
:1012A000C3E770470D4808B5416941F0010141614C
:1012B0004069002200F00100009011460E20FFF767
:1012C0002DFB0E20FFF71CFB002211460F20FFF71D
:1012D00025FBBDE808400F20FFF712BB00100240BD
:1012E00070B586B0002425480094019402940394BC
:1012F000816941F010018161816901F0100104915F
:10130000816941F020018161816901F0200104912E
:10131000816941F008018161816901F0080104914E
:10132000816941F0040181618069154E00F004007B
:101330004FF4C0450490002229463046FFF785FA55
:1013400001200095CDE9010402246946304603944A
:10135000FFF784F9681000900A48CDE90104694656
:101360000948FFF77BF9002211462820FFF7D6FA3B
:101370002820FFF7C5FA06B070BD0000001002403B
:101380000010014000001110000C01402DE9FC414B
:1013900020A000F045FF2CA000F042FF35A000F097
:1013A0003FFF00230222042142A001F011F8434C28
:1013B000A06010B142A000F033FF002211464AA005
:1013C00001F00CFAE06010B14AA000F029FF012002
:1013D0001425CDE900054602334600224E494FA0B0
:1013E00001F0C8FB4FF0FF37206080B101F0CCFC6A
:1013F0000220CDE9000533460022494949A001F009
:10140000B9FB606018B1BDE8FC4101F0BDBC3846D5
:10141000BDE8FC815468697320697320616E2052B5
:10142000545420696E74657272757074206D616EAB
:101430006167656D656E74206578706572696D654C
:101440006E74210A000000005072657373204B45D2
:101450005931207C204B45593220746F20747269B9
:101460006767657220616E20696E7465727275704F
:1014700074210A0053657269616C20706F72742068
:1014800073656E6420646174612074726967676556
:101490007220696E746572727570742C2074687233
:1014A0006561642070726F63657373206461746139
:1014B000210A0000746573745F6D710000000020E4
:1014C0004D6573736167652071756575652063721D
:1014D0006561746564207375636365737366756CA9
:1014E0006C79210A0A000000746573745F73656D7E
:1014F0000000000053656D6170686F726520637253
:101500006561746564207375636365737366756C78
:101510006C79210A0A000000D51A00086B65790071
:10152000A5330008757361727400000005480068F7
:10153000C16841F01001C1604FF480620249014866
:10154000FFF704BEF0040020F00000200C4810B5A6
:101550000A4901604FF4E1314160002181600C22B1
:10156000C160C0E904128161C161FFF74FFD00282D
:1015700003D0BDE81040FEF7C8BE10BD00380140E2
:10158000F0040020FEE77047704710B500F0E4FD5E
:1015900001F094FCBDE8104000F0ECBD30B58FB018
:1015A00028216846FEF73FFE14210AA8FEF73BFEFD
:1015B00001210804CDE900100024029402250491C1
:1015C000CDE907504FF4E01009906846FFF7C4FAE0
:1015D0000F20CDE90A056802CDE90C4002210AA8D6
:1015E0000E94FFF7CDF90FB030BD0000144910B5CF
:1015F0004868144A10F00C03134803D0042B01D0A0
:10160000082B09D002604968104AC1F30311515CEC
:101610000268CA40026010BD4A684B6802F470124A
:101620004FF0020413F4803F04EB924202D04B6867
:101630009B0301D5064B00E0024B5A43E2E7000052
:101640000010024000127A0024000020F833000845
:1016500000093D000D48016841F001010160416849
:101660000B4A1140416001680A4A1140016001685B
:1016700021F480210160416821F4FE0141604FF4B2
:101680001F0181600449C0030860704700100240D8
:101690000000FFF8FFFFF6FE08ED00E010B5406A1D
:1016A0000021C185C184FFF727FC10BD70B5446AD5
:1016B0002068406994F83910C0F3C0100025212932
:1016C00004D118B1E584204600F046F8206840694E
:1016D00094F83A10C0F38010222904D118B1E5859E
:1016E000204600F02BF8E06B40F01000E06320464D
:1016F000FFF702FC70BD10B50146406A0968096831
:10170000890613D40021C1850168CA6822F4807259
:10171000CA6001684A6922F001024A6101684A69A7
:1017200022F040024A61202180F83A10FFF75AFD6A
:1017300010BD10B5406AFFF756FD10BD0168CA68BC
:1017400022F49072CA6001684A6922F001024A617B
:10175000202180F83A1070470168CA6822F0C00260
:10176000CA60202180F83910704710B590F83A10FF
:10177000222901D0022010BD8168B1F5805F11D00F
:101780000169002901681FD0496801F07F03816A5F
:101790004A1C82620B70C18D491E0904090CC18567
:1017A00018D02BE00269816A002A0268526805D0CD
:1017B000D2B20A80816A491C8162ECE7C2F3080256
:1017C0000A80816A891CF7E74A68816A4B1C836238
:1017D0000A70E0E70168CA6822F02002CA60016866
:1017E000CA6822F48072CA6001684A6922F0010264
:1017F0004A61202180F83A10FFF7F4FC002010BD68
:101800002DE9F041044600680169E26821F4405185
:10181000114301612169A068084361690843216897
:10182000CA6841F20C639A430243CA602068416966
:10183000A26921F44071114341611E492068642569
:101840003226884202D1FFF741F901E0FFF72EF975
:1018500000EBC00101EB001160686FF01807800019
:10186000B1FBF0F2B2FBF5F2B1FBF0F37A4303EB1C
:101870008202B1FBF0F306EB0212B2FBF5F2B3FB0E
:10188000F5F302F0F00202EB0312B1FBF0F3B1FB4F
:10189000F0F0B0FBF5F0784303EB800006EB0010AE
:1018A000B0FBF5F0216800F00F0010448860BDE83F
:1018B000F08100000038014090F83910212901D052
:1018C000022070478168B1F5805F016A0BD04A1C25
:1018D0000262026809785160C18C491E0904090C32
:1018E000C1840ED017E009880268C1F30801516075
:1018F00001690029016A02D0491C0162ECE7891CD8
:10190000FBE70168CA6822F08002CA600068C1680B
:1019100041F04001C160002070472DE9F041984638
:1019200017460E460446069D1DE0681C1BD02DB1CF
:10193000FEF790FFA0EB0800A84214D92068C16808
:1019400021F4D071C1602068416921F00101416139
:10195000202084F8390084F83A00002084F8380008
:101960000320BDE8F0812068006836EA000004D05A
:101970000020B842D9D00020F3E70120F9E70000A9
:1019800010B5FEF773FCBDE810400148FFF7B6BA8A
:10199000F0040020FEE70907090E002804DB00F12F
:1019A000E02080F80014704700F00F0000F1E02004
:1019B00080F8141D70470000002806D00E4910F072
:1019C000FF0F03D0C0B2085C401C704710F47F4F7B
:1019D00004D0C0F30720085C0930704710F47F0F73
:1019E00004D0C0F30740085C1130704701EB106071
:1019F00000781930704700001034000802E008C871
:101A0000121F08C1002AFAD170477047002001E078
:101A100001C1121F002AFBD1704700000348016872
:101A2000814201D00120704700207047C40000208F
:101A30002DE9FC411F460446DDE90831DDE90A6570
:101A4000143040600060C4E90827C4E90A310A463E
:101A5000232118461C3400F0B2FCD4E903014218DB
:101A6000D4E901010D4B121F00F05AFB2060A6764D
:101A700066760020A562E061E56260612076E0653F
:101A800020661C3C009023460190054A194604F14B
:101A90004C0001F085FA0020BDE8FC81C12B000854
:101AA000F72D000810B5029C24F001044472C0E92F
:101AB00007120021C0E9093114304060006010BDF8
:101AC000F0E905124A60D0E9001211604060006040
:101AD0007047000008B50C4C0C4F4FF0FF354FF429
:101AE00000562B4604226946A06800F0B7FC0100AE
:101AF00007D007A000F094FB31463846FEF79EFE63
:101B0000EFE70DA00099F5E700000020001001406C
:101B10004461746120726563656976696E672065EA
:101B200072726F722C206572726F7220636F6465BF
:101B30003A3078256C780A0054686520696E7465BF
:101B40007272757074206973207472696767657248
:101B50006564206279204B4559202564210A0000E4
:101B6000FEF77EFEFFF71AFDFFF7BAFBFFF79AFBC1
:101B7000FFF7ECFCFFF7DAFCFFF708FCFEE710B517
:101B800000F0EAF8BDE81040FFF7EABF30B51349AE
:101B900043680A68134402F1080498420DD05D8836
:101BA0005DB94D68AB4208D08D689D4200D1886018
:101BB0005D6845605B68851A1D51836813448342E4
:101BC0000BD05D88002D08D18D68854200D18B60D7
:101BD000416859604068991A015130BD30000020B9
:101BE0002DE9F04F85B09946DDE90EA5109CAB4676
:101BF000630602D5DFF814C103E0DFF810C1ACF1D1
:101C0000110CE30601D524F00104E30701D03023D1
:101C100000E0202300260493A3070BD5002A02DA54
:101C20002D26524206E0630701D52B2602E023074A
:101C300000D520260023EE4622B930228DF8002060
:101C400001230CE0B9F10A0F14D002F00F081209B9
:101C50001CF808800EF803805B1C002AF2D1AB420E
:101C600000DD1D46AAEB050214F0110F4FF020070E
:101C700008D015E00A27B2FBF7F807FB1828B2FBDB
:101C8000F7F2E5E73EB1002A05DD521E03E0884287
:101C900000D20770401CB2F1000CA2F10102F6DC88
:101CA00026B1884200D20670401C521EE40605D5BB
:101CB00008E0884201D2049C0470401C141EA2F16A
:101CC0000102F6DC30242E466D1E9E420ADD88425B
:101CD00000D20470401CF6E7884201D2E55C057032
:101CE000401C00E074461D1EA3F1010307DDBBF19B
:101CF000000FF1D103E0884200D20770401C131E90
:101D0000A2F10102F7DC05B0BDE8F08F2135000833
:101D10001CB514210A20CDE900014FF48063002294
:101D2000034904A000F026FFBDE81C4001F02CB8D8
:101D30007F1B00086D61696E0000000070B5044CE7
:101D4000044D02E020688047241DAC42FAD370BDE8
:101D5000383500083C35000870B5044C044D02E0ED
:101D600020688047241DAC42FAD370BD3C35000882
:101D70004035000810B5FEF7D5F9044A5188491CD2
:101D80005180BDE81040FEF7D1B90000B800002036
:101D900010B5FEF7C7F90B4C6188491E09B2618086
:101DA00000290ADC00216180FEF7C0F96068002884
:101DB00007D0BDE8104000F099BCBDE81040FEF728
:101DC000B5B910BDB800002070B5002833D01A4D49
:101DD000296888422FD3696888422CD2A0F10C046C
:101DE0004FF0FF31154800F035FD60884FF4F5568F
:101DF00010B12088B04208D011A000F011FA238859
:101E00006288214615A000F00BFA00206080268031
:101E1000A868844200D2AC6029686068611A401AE0
:101E20002969081A28612046FFF7B0FEBDE8704016
:101E3000024800F0F5BC70BD30000020B81700204B
:101E4000746F206672656520612062616420646140
:101E5000746120626C6F636B3A0A00006D656D3AC5
:101E6000203078253038782C207573656420666CB6
:101E700061673A2025642C206D6167696320636F78
:101E800064653A203078253034780A00004870477D
:101E9000B805002000487047B815002010B5FFF7BE
:101EA000A5FB10484FF47A710068B0FBF1F0401EBA
:101EB000B0F1807F09D24FF0E0210B4A4861FF204A
:101EC00010700020886107200861FFF737FFFFF7D7
:101ED000E1FF0446FFF7DAFF2146BDE8104000F0BD
:101EE0009DBD00002400002023ED00E070B50446F5
:101EF000FFF740FF4FF47A750EE00A2805D12B4614
:101F000001220D210848FFF76FF92146641C2B467A
:101F100001220548FFF768F920780028EDD1BDE8D7
:101F20007040FFF735BF0000F004002070B5054693
:101F3000041D2B48016819B12846884700284DD058
:101F400028A0E16B00F06CF92AA0216A00F068F982
:101F50002CA0616A00F064F92EA0A16A00F060F97B
:101F600030A0E16A00F05CF932A0216800F058F975
:101F700034A0616800F054F936A0A16800F050F96F
:101F800038A0E16800F04CF93AA0216900F048F966
:101F90003CA0616900F044F93EA0A16900F040F95D
:101FA00040A0E16900F03CF942A0216B00F038F953
:101FB00044A0616B00F034F946A0A16B00F030F949
:101FC0002878400706D500F0B9FE014645A000F08C
:101FD00027F902E04BA000F023F9FEE770BD0000F6
:101FE000E00000207073723A203078253038780A8B
:101FF000000000007230303A203078253038780AFE
:10200000000000007230313A203078253038780AEC
:10201000000000007230323A203078253038780ADB
:10202000000000007230333A203078253038780ACA
:10203000000000007230343A203078253038780AB9
:10204000000000007230353A203078253038780AA8
:10205000000000007230363A203078253038780A97
:10206000000000007230373A203078253038780A86
:10207000000000007230383A203078253038780A75
:10208000000000007230393A203078253038780A64
:10209000000000007231303A203078253038780A5C
:1020A000000000007231313A203078253038780A4B
:1020B000000000007231323A203078253038780A3A
:1020C00000000000206C723A203078253038780A01
:1020D000000000002070633A203078253038780AFC
:1020E0000000000068617264206661756C74206F86
:1020F0006E207468726561643A2025730D0A0D0ABA
:102100000000000068617264206661756C74206F65
:102110006E2068616E646C65720D0A0D0A00000025
:1021200070B50446121D22F007000022094D403808
:1021300040F82250521C102AFAD301620021416259
:1021400081624FF0807200F13005C263C16285E8A0
:102150001A0070BDEFBEADDE10B5FDF7E3FF044A17
:102160001178491C1170BDE81040FDF7DFBF000079
:102170002C00002010B5FDF7D5FF044A1178491E48
:102180001170BDE81040FDF7D1BF00002C00002009
:1021900010B50068143800F0B3FD002010BD000039
:1021A00070B504464FF0FF360BE000BFFDF7BAFFF5
:1021B00005462068C661143800F0A2FD2846FDF7E8
:1021C000B5FF2068A042F1D1002070BD2DE9F0419B
:1021D000064614460D46084600F0ECFD05F11407CE
:1021E000B4B1012C18D134680EE000BF95F8351059
:1021F00094F82120A4F11400914204D239461430FD
:1022000000F033F802E02468B442EFD1B44203D1C5
:102210003946304600F029F80020BDE8F081000082
:102220000FB47F2110B503AB0448029A00F04AFFB7
:102230000248FFF75BFE10BC5DF814FB3817002066
:102240000268516002680A60016048607047026875
:10225000516002680A60016048607047026851601E
:1022600002680A6001604860704742681160426815
:102270004A60416008607047D0E900124A60D0E9C6
:1022800000121160406000607047D0E900124A609F
:10229000D0E9001211604060006070472DE9F047FE
:1022A000002807D0374CC01C20F00306E0688642A7
:1022B00002D90020BDE8F0870C2E00D20C264FF08A
:1022C000FF31314800F0C6FAD4F808C02168E76849
:1022D000ACEB0100BA1B4FE00D186B88E3BB6B68D9
:1022E0001B1A0C3BB34246D36A6806F11803121A54
:1022F0000C3A4FF001094FF4F55A9A422DD3831945
:102300000C33CA184FF00008A2F800A0A2F802800F
:10231000D5F80480C2E901806B60A5F8029050688E
:102320000C37B84202D001F10802835020693044D2
:102330000C3020616269824200D26061A5F800A081
:10234000654512D1A06842887AB1626890420CD08B
:1023500040680844A060F6E70DE0A5F802906868C0
:102360006A1A801A22691044E3E7074800F058FA15
:1023700005F10C009EE768688242ADD8024800F083
:102380004FFA96E730000020B817002030B503461A
:10239000884207D98C189C4204D306E011F8014BFF
:1023A00003F8014B521EF9D230BD002AFCD08C1824
:1023B0009D1814F8014C05F8014C521EF5E710B5B4
:1023C0000346C9B201E003F8011B521EFBD210BD47
:1023D0002DE9F0410D4601461F461646062000F045
:1023E000F7F804001BD0677204F11400A06160616B
:1023F0004FF6FC70ED1C0540B1B22584281D6184A8
:102400004843FFF74BFFE06128B10021A162E16280
:10241000084621630EE0204600F012F80020BDE8D7
:10242000F081228CE369121D00FB0232236B1360E2
:10243000401C2263628C8242F3DCA1842046EEE7DA
:1024400010B504461430FFF7ABFEE069FFF7BCFCA3
:10245000204600F0E5F8002010BD00002DE9FF5FE8
:10246000164604464FF0000A00F068FC0546FDF7EA
:1024700059FE0746A08C03996FF0010908434FF0FD
:1024800000083BD13846FDF751FE484604B0BDE890
:10249000F09F00BFC5F830800398002851D0627AC1
:1024A000294604F11400FFF791FE039800280CDD83
:1024B00000F0FEFC824605F14C0003AA0021834691
:1024C00000F046FD584600F087FD3846FDF72EFE29
:1024D00000F00CF9286B0028D8D1FDF723FE074641
:1024E000039800280ADD00F0E3FCA0EB0A0A039839
:1024F000B0EB0A00039001D5CDF80C80A08C002829
:10250000C8D0A56A2868A062E06AA84201D1C4F8D0
:102510002C80A08C401EA0843846FDF707FE208C3E
:10252000B04200D206463246291D0198FFF72EFF21
:10253000FDF7F8FD216B29602563FDF7F7FD00200D
:10254000A4E73846FDF7F2FD4846C5F830909DE710
:102550002DE9F0410446008C16460F46B04203D2E6
:102560004FF0FF30BDE8F081FDF7DCFD256BA5B134
:1025700029682163FDF7DAFD0020286032463946DC
:10258000281DFFF703FFFDF7CDFD0646E06A00B109
:102590000560E562A06A28B105E0FDF7C7FD6FF0B0
:1025A0000200DFE7A562A08C401CA084616904F1F1
:1025B0001400814207D0FFF7EBFD3046FDF7B6FD72
:1025C00000F094F802E03046FDF7B0FD0020C9E7C6
:1025D0002DE9F0410F46064600F046F80546C06872
:1025E000FFF75CFE040019D00021EA68FFF7E7FE60
:1025F00026720020607208223946204600F0FAF95F
:10260000FDF790FD064604F10C01281DFFF718FEAA
:102610003046FDF78BFD2046BDE8F0810020FBE74A
:1026200070B5044600202072FDF77CFD054604F1DC
:102630000C00FFF721FE2846FDF778FD2046BDE897
:102640007040FFF7C1BB70B5044600202072FDF753
:1026500069FD054604F10C00FFF70EFE2846BDE8B3
:102660007040FDF763BD0000074A002102EB011333
:102670001B78834202D102EB01107047491C0729E5
:10268000F4DB002070470000480000202DE9F041F5
:10269000044616460D460846FFF7E6FF0746FFF7D5
:1026A00069FB381D796800E009688142FCD1FFF7B9
:1026B0006FFB45F08000207208223146204600F072
:1026C00099F9FDF72FFD054604F10C01381DFFF7C0
:1026D000B7FD2846BDE8F041FDF728BD007A0006A9
:1026E00001D50120704700207047000070B5FDF74C
:1026F00019FD114C05466088B0B9A068FFF75CF978
:102700000E49401E626851F83010143991420BD0C6
:1027100020700B486160007801F11C01002802F173
:102720001C0006D0FDF705FD2846BDE87040FDF70A
:10273000FDBCFDF7FEFCF7E7B8000020D81700202D
:102740002C00002010B50446FDF7ECFC024694F87E
:1027500034000E4920F00F00401C84F8340094F837
:10276000350001EBC00104F114004B6818604B68A0
:10277000A361486006486161A16B83681943816069
:10278000BDE810401046FDF7D1BC0000D81700206E
:10279000B800002010B50446FDF7C4FC04F1140194
:1027A000D1E900235360D1E900231A60A16161617E
:1027B00094F83520074951F8323001EBC2018B42C1
:1027C00004D10549A36B8A689A438A60BDE810402A
:1027D000FDF7ACBCD8170020B800002070B50C463F
:1027E000014615460220FFF7F3FE002805D000F150
:1027F0001401816141618483457270BD2DE9F0410E
:1028000016460A461F4605460221FFF73FFF05F11F
:102810001404AC616C61AE836F720020BDE8F0817E
:1028200070B50446FDF77EFC0546616904F11400AD
:10283000814207D0FFF7ACFC2846FDF777FCFFF795
:1028400055FF05E0A08B401CA0832846FDF76EFCD9
:10285000002070BD73B50546FDF764FC0646A88BE5
:1028600028B1401EA8833046FDF760FC21E00198A6
:1028700008B300F063FA0446002020636A7A214618
:1028800005F11400FFF7A2FC0198002809DD04F10E
:102890004C0001AA0021054600F05AFB284600F032
:1028A0009BFB3046FDF742FCFFF720FF206B002822
:1028B00000D100207CBD3046FDF738FC6FF00100F0
:1028C0007CBD000008B509A0FFF7AAFC0AA0FFF72D
:1028D000A7FC12A0032300900122194612A0FFF7C3
:1028E0009FFCBDE8084018A0FFF79ABC0A205C20B6
:1028F0007C202F0A000000002D205254202D202083
:10290000202020546872656164204F706572617484
:10291000696E672053797374656D0A004A756C207F
:102920003239203230323000202F207C205C2020B1
:1029300020202025642E25642E2564206275696C74
:10294000642025730A0000002032303036202D200C
:102950003230313920436F70797269676874206250
:10296000792072742D746872656164207465616D7C
:102970000A0000002DE9F04100F09AFA0646FFF740
:10298000F9F9174F3D6824E068696FF00041301A8B
:10299000A5F1140488421ED22D682046FFF790F856
:1029A000FFF7F6F9D4E90710884700F081FA0646E8
:1029B000FFF7E0F9607A810708D5C10706D020F05B
:1029C00001006072204600F007FB02E020F00100E9
:1029D0006072BD42D8D1BDE8F041FFF7D9B900001F
:1029E000D8000020014600E0491C0A78002AFBD1EB
:1029F000081A704710B5002A07D0034611F8014B9A
:102A000003F8014B2CB1521EF8D110BD03F8011B85
:102A100000E00021521EF9D110BD00000A46C11C81
:102A200010B522F0030321F00301182B20D9A3F1E4
:102A300018048C421CD3114C581A18382160E060DD
:102A40004FF4F5520A8000230C30C1E901034B809A
:102A50004B68194461600A8001224A80486088609E
:102A6000002307A10848FFF7C9FE2068A06010BD39
:102A70000146BDE8104005A0FFF7D2BB30000020A2
:102A80006865617000000000B81700206D656D205A
:102A9000696E69742C206572726F72206265676955
:102AA0006E206164647265737320307825782C2001
:102AB000616E6420656E6420616464726573732066
:102AC000307825780A00000010B50A4900230A4C26
:102AD0004B80184604EBC002401C52601260202854
:102AE000F8DB1F20087003484B600C308B6040609F
:102AF000006010BDB8000020D817002010B5074CAA
:102B0000A068FEF759FF0649401E51F830001438FE
:102B10006060BDE810401C30FDF739BBB8000020F4
:102B2000D81700200148406000607047D0000020A6
:102B30001FB50B4804220A23406000600948D101F8
:102B40008DE80F000023084A08A1803800F0C0F883
:102B500004B00448BDE81040803800F015B900000A
:102B6000D800002058190020192E000874696D65DE
:102B7000720000002DE9FF478946DDE90C768246A8
:102B800001461D4690460120FFF722FD041E0DD090
:102B90002846FFF783FB60B103968DE8A10043460A
:102BA0004A4651462046FEF743FF204604B0BDE8A2
:102BB000F0872046FFF734FD0020F7E700F0C4B8A7
:102BC00070B513480468FDF7ADFA05462046FFF7D7
:102BD000E1FD042084F8340004F14C0000F0D0F949
:102BE0002046FFF77BFD012801D1A06F58B104F109
:102BF00014010848FFF72BFB2846FDF797FABDE8BC
:102C00007040FFF773BD2046FFF71DFDF4E700009D
:102C1000BC000020C400002000F002F8FCE7000027
:102C200070B527E0FDF77EFA0546FEF7F7FE58B3CC
:102C300018480168A1F11404D1E900024260D1E909
:102C40000002106049600960FFF794F8A16F09B1B4
:102C5000204688472046FFF741FD01280FD0FFF7A7
:102C600097F82846FDF762FAA06AFFF7ADF820460C
:102C7000FFF7D6FCFEF7D2FE0028D3D170BD204668
:102C8000FFF7E1FCFFF784F82846BDE87040FDF748
:102C90004DBA0000C40000201FB5202308481F22A1
:102CA000D9008DE80F000023064A07A1803800F004
:102CB0000FF804B00248BDE81040803800F064B856
:102CC00038160020192C00087469646C6500000037
:102CD0002DE9FF5F92460EAA0C4692E8E0010A46F3
:102CE000994683460121FFF7D1FC8DE8E0014B4670
:102CF000524621465846FEF79BFE04B0BDE8F09FC1
:102D000070B5044690F8340000F00F00022802D09D
:102D10004FF0FF3070BDFDF705FA054604F11400D1
:102D2000FFF7B3FA04F14C0000F0B4F92846FDF7C0
:102D3000FDF92046FFF706FD002070BD0148006840
:102D400070470000BC000020F1B5FDF7EBF9054627
:102D50000C480468204600F02DF804F14C006A4647
:102D60000021064600F0F4F8304600F035F9284618
:102D7000FDF7DCF9FFF7BAFC206B801C00D1206363
:102D80000020F8BDBC00002010B590F836100122DC
:102D900080F835108A400221826380F83410FFF7F2
:102DA000AFFF0348006808B1FFF7A0FC002010BD8A
:102DB000BC00002070B5044690F8340000F00F000D
:102DC000012802D04FF0FF3070BDFDF7ABF905468A
:102DD00094F8340020F00F00801C84F83400204662
:102DE000FFF7D8FC04F14C0000F054F92846FDF739
:102DF0009DF9002070BD10B504466FF001002063FE
:102E000004F11400FFF741FA2046FFF79BFCBDE8F0
:102E10001040FFF76BBC00006FF000450B4800F05E
:102E2000D3F80446401C09D000F042F8201AA8420A
:102E300001D2FFF7C3FEFFF79DFDEFE7FFF77EFF2F
:102E4000FFF7B8FFFFF752FCF5E70000D8000020BD
:102E500070B5FDF767F906461348046894F8340026
:102E600000F00F00012819D1D4E90501884215D0DE
:102E700004F114000546FFF708FA94F835000B49F1
:102E800001EBC00041680D604168696045602860E1
:102E90003046FDF74BF9FFF729FC02E03046FDF71D
:102EA00045F9002070BD0000BC000020D8170020AC
:102EB000014800687047000028000020094810B54C
:102EC0000168491C0160FFF739FF816C491E81646C
:102ED00003D1416C8164FFF7BBFFBDE8104000F0F7
:102EE00003B80000280000202DE9F041FFF7E0FFC3
:102EF0000646FDF717F90746144D1EE060696FF0AE
:102F00000041301A143C88421AD22046FEF7D8FD00
:102F1000D4E907108847FFF7CBFF0646607A8107A0
:102F200008D5C10706D020F001006072204600F0ED
:102F300053F802E020F0010060722C68AC42DDD151
:102F40003846BDE8F041FDF7F1B80000D0000020A0
:102F500049B1012904D0022908D003290ED109E082
:102F6000406A10600AE01168416207E0417A21F08E
:102F7000020102E0417A41F00201417200207047F3
:102F800070B50546FDF7CEF804462846FEF798FDD5
:102F90002046FDF7CBF82846FFF755FB002070BD13
:102FA0002DE9F8439046DDE908450A461F460646E6
:102FB0000A21FFF76BFB23463A464146304600950F
:102FC000FEF770FDBDE8F8830168814202D14FF041
:102FD000FF30704748697047F8B50446FDF7A2F81E
:102FE00005462046FEF76CFD607A20F00100607215
:102FF0002846FDF79BF8FFF75BFF616A0844A06273
:10300000FDF790F80546607A400701D51F4A01E0B8
:103010001E4A083A0020009202EBC002694653683B
:103020006FF0004C5DF820200BE01268A2EBC006A8
:103030007769A66AB74202D0BE1B664503D341F842
:1030400020209A42F1D111480C380168491C0160D6
:1030500004F114010098FFF701F9607A40F00100D3
:1030600060722846FDF762F8607A40070BD5084881
:1030700090F8340000F00F00012804D00448FFF756
:103080003FFEFFF733FB0020F8BD0000D800002012
:10309000D818002070B50446407AC0070ED0FDF75E
:1030A00041F805462046FEF70BFD2846FDF73EF8A1
:1030B000607A20F001006072002070BD4FF0FF3098
:1030C00070BD00002DE9FF4F8946044600EB09075B
:1030D00083B080464FF0FF3A4FF0200BA74202D258
:1030E0005746C8F1FF3907E1252803D0BC4200D27A
:1030F000207081E000260599491C059108782D284B
:1031000011D02B2812D0202813D0232814D03028F7
:1031100015D00A785546303A0A2A13D205A800F08D
:103120002CF905461AE046F01006E4E746F00406DE
:10313000E1E746F00806DEE746F02006DBE746F06A
:103140000106D8E72A2809D10698491C059120C80C
:103150000690002D02DA6D4246F01006CDF800A070
:10316000059801782E2918D1401C05900178A1F10D
:1031700030020A2A04D205A800F0FFF8009008E007
:103180002A2908D1401C0590069802C80690009193
:103190000846002801DA00200090059800210278F6
:1031A000682A01D06C2A02D1401C11460590007893
:1031B0000A236F287DD00CDC63281FD004DC25286F
:1031C0007BD058280DD17EE0642801D0692808D131
:1031D0007DE070285ED073282CD0752879D07828AF
:1031E00073D0BC4201D2252020700598641C017860
:1031F000D1B3BC4200D22170641C7AE0F00608D43E
:1032000058466D1E002D04DDBC4200D22070641CA7
:10321000F7E70699BC4211F8040B069100D2207022
:10322000584602E0BC4200D22070641C6D1E002D86
:10323000F8DC5EE0069808C8069003B93EA318467D
:10324000FFF7D0FB0099002902DD884200DD084627
:10325000F1060AD459462A466D1E824205DDBC425B
:1032600000D22170641CF6E752E0002106E0BC4267
:1032700001D21A782270491C5B1C641C8142F6DB67
:103280005A4629466D1E814233DDBC4200D222706F
:10329000641CF6E7681C02D1082546F00106009878
:1032A0000296CDE9005006981023394604C80690CE
:1032B0001BE006E001E00CE007E0BC429CD22520C8
:1032C00016E7082305E046F04006102301E046F02B
:1032D00002066C2901D068291DD0069804C8069002
:1032E00000983946CDE9005002962046FEF778FC5A
:1032F00004460598401C05900598007800287FF446
:10330000F3AEB9F1000F11D0BC420DD220700DE028
:10331000401E0590EDE7069830F8041B06908AB22F
:10332000B007DDD512B2DBE707F8010C07B0A4EB5C
:103330000800BDE8F08F0000284E554C4C290000D5
:103340000020704700207047002070470020704721
:1033500010B5FCF7E7FEFEF7A1FDFFF7B3FAFFF7A4
:10336000E1FBFFF7B1FBFEF7D3FCFFF7E1FBFFF753
:1033700093FCFFF7C3FB002010BD10B501460020F1
:103380006FF02F0307E0541C0C60127800EB8000F4
:1033900003EB400010440A681478303C0A2CF2D346
:1033A00010BD00000B4D4FF480640021E868FFF76A
:1033B00051FA0028F9D1084908A0FEF731FF21464B
:1033C0000548FCF730FF224603490A48FDF7BEFED8
:1033D000EBE7000000000020F0000020526563656C
:1033E0006976652074686520646174613A25730AA2
:1033F00000000000F00400200000000000000000B9
:10340000010203040607080900000000010203048A
:1034100000000100020001000300010002000100A1
:10342000040001000200010003000100020001008D
:10343000050001000200010003000100020001007C
:10344000040001000200010003000100020001006D
:10345000060001000200010003000100020001005B
:10346000040001000200010003000100020001004D
:10347000050001000200010003000100020001003C
:10348000040001000200010003000100020001002D
:10349000070001000200010003000100020001001A
:1034A000040001000200010003000100020001000D
:1034B00005000100020001000300010002000100FC
:1034C00004000100020001000300010002000100ED
:1034D00006000100020001000300010002000100DB
:1034E00004000100020001000300010002000100CD
:1034F00005000100020001000300010002000100BC
:1035000004000100020001000300010002000100AC
:103510003031323334353637383961626364656649
:10352000003031323334353637383941424344453F
:10353000460000004D3300084533000841330008C1
:10354000493300086435000800000020F000000046
:10355000FC19000854360008F0000020681E000026
:103560000C1A00080000000000000000000000002D
:103570000000000001000000020000000100000047
:1035800010000000000000000024F4000000000013
:10359000000000000000000000000000000000002B
:1035A000000000000000000000000000010000001A
:1035B0004C0000204C0000208000000002000000B1
:1035C0005C0000205C0000202000000003000000E0
:1035D0006C0000206C0000202400000004000000AB
:1035E0007C0000207C00002020000000050000007E
:1035F0008C0000208C00002030000000060000003D
:103600009C0000209C000020340000000A00000004
:10361000AC000020AC0000202C00000000000000E6
:10362000000000000000000000000000000000009A
:10363000000000000000000000000000000000008A
:10364000000000000000000000000000000000007A
:043650000000000076
:04000005080000ED02
:00000001FF
