:020000040800F2
:10000000E00F002001010008FB0A0008CB010008F6
:10001000F90A00086B020008050C00080000000047
:10002000000000000000000000000000FD0A0008C1
:100030006D0200080000000053010008FF0A0008DC
:100040001B0100081B0100081B0100081B01000820
:100050001B0100081B0100081B0100081B01000810
:100060001B0100081B0100081B0100081B01000800
:100070001B0100081B0100081B0100081B010008F0
:100080001B0100081B0100081B0100081B010008E0
:100090001B0100081B0100081B0100081B010008D0
:1000A0001B0100081B0100081B0100081B010008C0
:1000B0001B0100081B0100081B0100081B010008B0
:1000C0001B0100081B0100081B0100081B010008A0
:1000D0001B0100081B0100081B0100081B01000890
:1000E0001B0100081B0100081B010008DFF80CD0F1
:1000F00000F0A4F80048004761020008E00F00206B
:100100000648804706480047FEE7FEE7FEE7FEE7B1
:10011000FEE7FEE7FEE7FEE7FEE7FEE7BD0B0008B1
:10012000ED000008EFF3108072B6704780F310887E
:100130007047334A1368012B04D04FF0010313605A
:10014000304A1060304A116030484FF080510160F1
:100150007047EFF3108272B62948016891B14FF0F1
:10016000000101602748016829B1EFF3098121E905
:10017000F00F00680160244909680968B1E8F00FD0
:1001800081F3098882F310884EF0040E70471E49EF
:1001900008601C494FF00000086019494FF0010049
:1001A00008601B484FF47F01D0F8002041EA0201AB
:1001B000016016484FF080510160164800680068E1
:1001C00080F3088861B662B670471EF0040F0CBF5A
:1001D000EFF30880EFF3098020E9F00F40F804ED19
:1001E0001EF0040F0CBF80F3088880F3098800B567
:1001F00000F0E6FE5DF804EB4EF0040E70470000E0
:10020000740000206C0000207000002004ED00E06D
:1002100020ED00E008ED00E0D2B201E000F8012B93
:10022000491EFBD270470022F6E710B513460A4676
:1002300004461946FFF7F0FF204610BD064C074D57
:1002400006E0E06840F0010394E8070098471034A6
:10025000AC42F6D3FFF74EFF541E0008741E000890
:1002600010B501F02DFD002010BDFEE77047000025
:100270002DE9F84FDFF8B891002409F1040A0AF1DA
:10028000040B23460F270BF1040EC9E00125A540FE
:100290002A40AA427DD1674ED1F804C0ACEB0608D3
:1002A000B44532D014DCBCF1030F3AD009DCBCF108
:1002B000000F2AD0BCF1010F1CD0BCF1020F31D1CC
:1002C0001DE0BCF1110F17D0BCF1120F2AD119E0BB
:1002D000B8F5881F19D006DCB8F5803F15D0B8F501
:1002E000801F1FD111E0B8F5001F0ED0B8F5041F14
:1002F00018D10AE0CB6815E0CB681B1D12E0CB6873
:1003000008330FE0CB680C330CE08B682BB1012B6A
:100310004FF0080303D0456104E0042302E00561C7
:1003200000E00023FF2A01D8064601E000F10406A0
:100330004FEA840501D9A5F12005D6F8008007FA17
:1003400005FC28EA0C0803FA05F548EA0508C6F892
:1003500000804D68ED0062D5374DAE6946F001066C
:10036000AE61AD6924F0030605F001050095334D3B
:1003700006EB050CDCF80850A607360F07FA06F85E
:1003800025EA0805DFF8B880404503D14FF00008A2
:1003900017E044E0DFF8AC80404502D14FF001089F
:1003A0000FE0DFF8A480404502D14FF0020808E0DA
:1003B000DFF89880404502D14FF0030801E04FF08C
:1003C000040808FA06F848EA0508CCF808804D68E1
:1003D000D9F80060ED034D4601D5164300E0964381
:1003E0002E604D68DAF80060AD03554601D516431E
:1003F00000E096432E604D68DBF80060ED025D463C
:1004000001D5164300E096432E604D68DEF800608B
:10041000AD02754601D5164300E096432E60641C7C
:100420000D682A46E5407FF431AFBDE8F88F000043
:1004300000040140000011100010024000000140C3
:1004400000080140000C0140001001400014014070
:100450000AB1016170470904FBE7000001488068A8
:100460007047000000000020074810B5016841F007
:1004700010010160032000F067F8002000F006F88A
:1004800000F024F8002010BD0020024070B50D4D92
:1004900004464FF47A712878B1FBF0F00A490968F4
:1004A000B1FBF0F000F0BEFA48B9102C07D20022E0
:1004B0002146501E00F028F800206C6070BD01201D
:1004C00070BD0000000000200C0000200C4808B5A2
:1004D000816941F001018161816901F001010091AF
:1004E000C16941F08051C161C06900F08050009045
:1004F0000448416821F0E06141F00071416008BDAD
:100500000010024000000140F0B40E4B1B680C4686
:10051000C3F30223C3F10705042D00D90425191DD7
:10052000072901D2002300E0DB1E012606FA05F1AF
:10053000491E214099409E40761E16403143F0BC32
:1005400000F061BB0CED00E0064900F0070208680E
:100550004FF6FF03184040EA0220034A10430860A8
:10056000704700000CED00E00000FA052DE9F047AF
:100570000F46050061D0434E306800F00700B842D6
:1005800009D2306820F0070038433060306800F04E
:100590000700B84251D128683B4C810712D540076B
:1005A00003D5606840F4E06060602878000703D5F8
:1005B000606840F4605060606068A96820F0F000F6
:1005C000084360602878C00728D06868012810D0E8
:1005D0002168022810D0890700292EDA616821F0ED
:1005E000030101436160FFF739FF804641F288391A
:1005F0000DE021688903EFE78901EDE7FFF72EFFA2
:10060000A0EB0801494502D90320BDE8F0876068E6
:10061000696800F00C00B0EB810FEFD1306800F09A
:100620000700B8420BD9306820F00700384330602B
:10063000306800F00700B84201D00120E5E72878D3
:10064000400705D56068E96820F4E0600843606011
:100650002878000706D56068296920F4605040EAD0
:10066000C100606000F018F86168084AC1F3031126
:10067000515CC8400649086006480068FFF706FF5D
:100680000020C2E70020024000100240121D0008B6
:100690000C0000200400002012A185B00FC98DE8D5
:1006A0000F0014A0144A006804905168134801F028
:1006B0000C03042B10D0082B0ED1C1F38343C903C4
:1006C0001DF803000AD5516804AAC1F34041515CEA
:1006D0000A4A5043B0FBF1F005B07047084948435F
:1006E000FAE7000002030405060708090A0B0C0DCF
:1006F0000E0F1010010200000010024000127A00DC
:1007000000093D002DE9F84F040070D02078C04D5D
:10071000C00749D06868C0F38100012807D0686825
:10072000C0F38100022809D16868C00306D5286893
:10073000800339D560680028E7D035E06068B0F5FF
:10074000803F0BD010B1B0F5A02F11D0286820F455
:1007500080302860286820F4802002E0286840F477
:1007600080302860606890B1FFF778FE06460AE0A6
:10077000286840F480202860F0E700BFFFF76EFE95
:10078000801B642873D828688003F7D50CE0FFF736
:1007900065FE064605E000BFFFF760FE801B64288B
:1007A000F0D828688003F7D420789A4E80074FF05D
:1007B00001094FF0000839D5686810F00C0F07D018
:1007C0006868C0F38100022809D16868C00306D4B4
:1007D0002868800714D52069012808D110E0206915
:1007E000B0B1C6F80090FFF739FE074605E00AE110
:1007F000FFF734FEC01B0228C4D828688007F7D54D
:100800002868616920F0F80040EAC10028600DE026
:10081000C6F80080FFF722FE074604E0FFF71EFE41
:10082000C01B022823D828688007F7D42078000747
:100830002CD57948A169D9B1C0F80090FFF70EFE18
:10084000074604E0FFF70AFEC01B02280FD8686ABB
:100850008007F7D571484FF4FA510068B0FBF1F00A
:10086000009000BF0098411E0091FAD20EE080E097
:10087000C0F80080FFF7F2FD074604E0FFF7EEFD49
:10088000C01B022875D8686A8007F7D42078400713
:1008900060D5E8690027C00008D4E86940F08050BE
:1008A000E861E869012700F0805000905C48016829
:1008B000C90513D40168834641F480710160FFF7D4
:1008C000CDFD824606E000BFFFF7C8FDA0EB0A00A1
:1008D00064284ED8DBF80000C005F5D5E068012893
:1008E0000AD008B1052813D0286A20F00100286238
:1008F000286A20F0040002E0286A40F00100286223
:10090000E06841F2883B98B1FFF7A8FD82460BE012
:10091000286A40F004002862EEE700BFFFF79EFD62
:10092000A0EB0A0159455AD8286A8007F6D50CE091
:10093000FFF794FD824605E0FFF790FDA0EB0A016A
:1009400059454CD8286A8007F6D41FB1E86920F0D1
:100950008050E861E06988B36968C1F381010229C8
:1009600044D00228C6F8608004D0FFF777FD044623
:1009700038E034E0FFF772FD074604E0FFF76EFD54
:10098000C01B02282BD828688001F7D4206AB0F554
:10099000803F05D16868A16820F400300843686092
:1009A000D4E908010843696821F4741108436860B8
:1009B000C6F86090FFF752FD044606E025E000BF50
:1009C000FFF74CFD001B022809D828688001F7D5E5
:1009D0001BE000BFFFF742FD001B022802D90320E5
:1009E000BDE8F88F28688001F4D40EE00128F7D024
:1009F0006868226A00F48031914204D1616A00F48F
:100A00007010884201D00120EAE70020E8E70000EA
:100A10000010024000004242800442420C000020CC
:100A20000070004010B5401EB0F1807F01D301205E
:100A300010BD4FF0E02460610F21601700F0E3F873
:100A40000020A06107202061002010BD70B586B095
:100A5000002418480094019402940394816941F0A1
:100A600010018161816901F010010491816941F0F7
:100A700020018161816901F020010491816941F0C7
:100A80000401816180690C4E00F004004FF40055B0
:100A90000490002229463046FFF7DAFC0120009539
:100AA000CDE901040220039069463046FFF7E0FBE0
:100AB00006B070BD00100240001001401FB50A488A
:100AC000142303224FF480618DE80F000023074AAE
:100AD00007A1783800F0ECFD04B00348BDE81040F1
:100AE000783800F041BE0000F0000020350D00080D
:100AF0006C65643100000000FEE77047704710B578
:100B000000F074FB00F0AEFEBDE8104000F07CBBCE
:100B100010B590B028216846FFF785FB14210AA87C
:100B2000FFF781FB02200090012004901020002498
:100B3000059007946846FFF7E5FD0F20CDE90A040C
:100B40000C940D9400210AA80E94FFF70FFD10B02D
:100B500010BD0000144910B54868144A10F00C0389
:100B6000134803D0042B01D0082B09D00260496838
:100B7000104AC1F30311515C0268CA40026010BD03
:100B80004A684B6802F470124FF0020413F4803F7D
:100B900004EB924202D04B689B0301D5064B00E068
:100BA000024B5A43E2E700000010024000127A00B4
:100BB0000C000020121D000800093D000D480168CE
:100BC00041F00101016041680B4A11404160016838
:100BD0000A4A11400160016821F4802101604168E6
:100BE00021F4FE0141604FF41F0181600449C003FC
:100BF00008607047001002400000FFF8FFFFF6FE9B
:100C000008ED00E0FEE70907090E002804DB00F10B
:100C1000E02080F80014704700F00F0000F1E020A1
:100C200080F8141D70470000002806D00E4910F00F
:100C3000FF0F03D0C0B2085C401C704710F47F4F18
:100C400004D0C0F30720085C0930704710F47F0F10
:100C500004D0C0F30740085C1130704701EB10600E
:100C60000078193070470000221D000802E008C813
:100C7000121F08C1002AFAD170477047002001E016
:100C800001C1121F002AFBD1704700000348016810
:100C9000814201D00120704700207047540000209D
:100CA0002DE9FC411F460446DDE90831DDE90A650E
:100CB000143040600060C4E90827C4E90A310A46DC
:100CC000232118461C3400F0D5FAD4E90301421858
:100CD000D4E90101104B121F00F06CFA44F81A0B12
:100CE000002004F801690D4A04F8036BE4E80205EA
:100CF00044F8105901C404F83C0B01C444F87409C9
:100D0000009023460190194604F1440000F01CFEB7
:100D10000020BDE8FC810000AD150008D7170008D1
:100D2000F0E905124A60D0E90012116040600060ED
:100D3000704700000A4C4FF400564FF4FA75012238
:100D400031462046FFF784FB284600F02CFC0022A9
:100D500031462046FFF77CFB284600F024FCEEE7F6
:100D600000100140FFF780FBFFF7D2FEFFF76EFE99
:100D7000FFF7A4FEFEE710B500F0C8F8BDE810408C
:100D8000FFF7F0BF2DE9F04F85B09946DDE90EA5DC
:100D9000109CAB46630602D5DFF814C103E0DFF810
:100DA00010C1ACF1110CE30601D524F00104E307F6
:100DB00001D0302300E0202300260493A3070BD5A5
:100DC000002A02DA2D26524206E0630701D52B26BF
:100DD00002E0230700D520260023EE4622B9302268
:100DE0008DF8002001230CE0B9F10A0F14D002F0B5
:100DF0000F0812091CF808800EF803805B1C002AFB
:100E0000F2D1AB4200DD1D46AAEB050214F0110F32
:100E10004FF0200708D015E00A27B2FBF7F807FBD0
:100E20001828B2FBF7F2E5E73EB1002A05DD521EB5
:100E300003E0884200D20770401CB2F1000CA2F11E
:100E40000102F6DC26B1884200D20670401C521E18
:100E5000E40605D508E0884201D2049C0470401CD9
:100E6000141EA2F10102F6DC30242E466D1E9E42B5
:100E70000ADD884200D20470401CF6E7884201D2A5
:100E8000E55C0570401C00E074461D1EA3F10103E3
:100E900007DDBBF1000FF1D103E0884200D20770FB
:100EA000401C131EA2F10102F7DC05B0BDE8F08F73
:100EB000331E00081FB50A4C14230A224FF4806128
:100EC000A4F580608DE80F000023064A06A12046A5
:100ED00000F0EEFB04B02046BDE8104000F044BC3A
:100EE000F0080020770D00086D61696E00000000B9
:100EF00070B5044C044D02E020688047241DAC42CC
:100F0000FAD370BD481E00084C1E000870B5044C92
:100F1000044D02E020688047241DAC42FAD370BD26
:100F20004C1E0008501E000810B5FFF7FBF8044ADD
:100F30005188491C5180BDE81040FFF7F7B8000008
:100F40004800002010B5FFF7EDF80B4C6188491EF2
:100F500009B2618000290ADC00216180FFF7E6F810
:100F60006068002807D0BDE8104000F0FBB9BDE87C
:100F70001040FFF7DBB810BD4800002010B5FFF7A8
:100F8000E9FD0C484FF47A710068B0FBF1F0401EA7
:100F9000B0F1807F09D24FF0E021074A4861FF207D
:100FA00010700020886107200861BDE81040FFF73D
:100FB0009FBF00000C00002023ED00E07047000000
:100FC00070B50546041D2B48016819B128468847AD
:100FD00000284DD028A0E16B00F024F92AA0216A56
:100FE00000F020F92CA0616A00F01CF92EA0A16A83
:100FF00000F018F930A0E16A00F014F932A021687D
:1010000000F010F934A0616800F00CF936A0A16876
:1010100000F008F938A0E16800F004F93AA021696D
:1010200000F000F93CA0616900F0FCF83EA0A16965
:1010300000F0F8F840A0E16900F0F4F842A0216B5C
:1010400000F0F0F844A0616B00F0ECF846A0A16B52
:1010500000F0E8F82878400706D500F05FFB01466D
:1010600045A000F0DFF802E04BA000F0DBF8FEE75F
:1010700070BD0000680000207073723A203078253F
:101080003038780A000000007230303A203078257D
:101090003038780A000000007230313A203078256C
:1010A0003038780A000000007230323A203078255B
:1010B0003038780A000000007230333A203078254A
:1010C0003038780A000000007230343A2030782539
:1010D0003038780A000000007230353A2030782528
:1010E0003038780A000000007230363A2030782517
:1010F0003038780A000000007230373A2030782506
:101100003038780A000000007230383A20307825F4
:101110003038780A000000007230393A20307825E3
:101120003038780A000000007231303A20307825DB
:101130003038780A000000007231313A20307825CA
:101140003038780A000000007231323A20307825B9
:101150003038780A00000000206C723A2030782580
:101160003038780A000000002070633A203078257B
:101170003038780A0000000068617264206661758A
:101180006C74206F6E207468726561643A202573F8
:101190000D0A0D0A00000000686172642066617526
:1011A0006C74206F6E2068616E646C65720D0A0D40
:1011B0000A00000070B50446121D22F0070000224C
:1011C000094D403840F82250521C102AFAD30162CF
:1011D0000021416281624FF0807200F13005C263EC
:1011E000C16285E81A0070BDEFBEADDE10B5FEF736
:1011F00099FF044A1178491C1170BDE81040FEF7B0
:1012000095BF00001400002010B5FEF78BFF044AC4
:101210001178491E1170BDE81040FEF787BF00002D
:10122000140000200FB47F2110B503AB0448029ACC
:1012300000F000FC0248FFF7C1FE10BC5DF814FB93
:10124000600A00200268516002680A60016048601C
:1012500070470268516002680A6001604860704728
:10126000D0E900124A60D0E90012116040600060CD
:101270007047000010B50346CCB2042A1AD3810788
:1012800018D1194644EA042343EA034306E008C19F
:10129000103A08C141F8083B41F8043C102AF6D244
:1012A00001E008C1121F042AFBD20B4602E000BF76
:1012B00003F8014B521EFBD210BD10B504460020AE
:1012C0002072FEF72FFFF4E903124A60D4E90012FE
:1012D000116064602460BDE81040FEF727BF000085
:1012E000074A002102EB01131B78834202D102EB73
:1012F00001107047491C0329F4DB002070470000EF
:10130000180000202DE9F041054617460E46084614
:10131000FFF7E6FF0446FFF707FE211D606800E0C7
:1013200000688842FCD1FFF70DFE46F0800028726D
:1013300008223946284600F0EDF8FEF7F3FE54F88F
:10134000041F0C354D602168296025606C60BDE884
:10135000F041FEF7EBBE007A000601D50120704790
:101360000020704770B5FEF7DDFE114C0546608821
:10137000B0B9A068FFF758FC0E49401E626851F8EA
:101380003010143991420BD020700B486160007806
:1013900001F11C01002802F11C0006D0FEF7C9FE75
:1013A0002846BDE87040FEF7C1BEFEF7C2FEF7E773
:1013B00048000020E00A00201400002010B5044678
:1013C000FEF7B0FE024694F834000E4920F00F00FC
:1013D000401C84F8340094F8350001EBC00104F19E
:1013E00014004B6818604B68A3614860064861614F
:1013F000A16B836819438160BDE810401046FEF779
:1014000095BE0000E00A00204800002010B5044608
:10141000FEF788FE04F11401D1E900235360D1E9FD
:1014200000231A60A161616194F83520074951F8E1
:10143000323001EBC2018B4204D10549A36B8A68AB
:101440009A438A60BDE81040FEF770BEE00A0020B3
:101450004800002008B509A0FFF7E4FE0AA0FFF746
:10146000E1FE12A0032300900122194612A0FFF70B
:10147000D9FEBDE8084018A0FFF7D4BE0A205C20C2
:101480007C202F0A000000002D205254202D202007
:10149000202020546872656164204F706572617409
:1014A000696E672053797374656D0A004A756C2004
:1014B0003330203230323000202F207C205C20203E
:1014C00020202025642E25642E2564206275696CF9
:1014D000642025730A0000002032303036202D2091
:1014E0003230313920436F707972696768742062D5
:1014F000792072742D746872656164207465616D01
:101500000A000000014600E0491C0A78002AFBD1CD
:10151000081A704710B5002A07D0034611F8014B8E
:1015200003F8014B2CB1521EF8D110BD03F8011B7A
:1015300000E00021521EF9D110BD000010B50A498B
:1015400000230A4C4B80184604EBC002401C52603A
:1015500012602028F8DB1F20087003484B600C3015
:101560008B604060006010BD48000020E00A002051
:1015700010B5074CA068FFF757FB0649401E51F80D
:10158000300014386060BDE810401C30FEF7FFBD2D
:1015900048000020E00A00200148406000607047D9
:1015A00060000020704700F0BFB8000070B513481D
:1015B0000468FEF7B7FD05462046FFF727FF042025
:1015C00084F8340004F1440000F0AEF92046FFF73F
:1015D000C2FE012801D1206F58B104F1140108485E
:1015E000FFF730FE2846FEF7A1FDBDE87040FFF78B
:1015F000B9BE2046FFF761FEF4E700004C00002072
:101600005400002000F002F8FCE7000070B521E073
:10161000FEF788FD0546FFF739FB28B3154801683A
:10162000A1F11404D1E900024260D1E90002106086
:1016300049600960FFF778FC216F09B120468847AF
:101640002046FFF788FE012809D0FFF77BFC2846DB
:10165000FEF76CFDFFF71AFB0028D9D170BD2046BC
:10166000FFF72BFEFFF76EFC2846BDE87040FEF743
:101670005DBD0000540000201FB5094820231F2233
:1016800080218DE80F000023064A07A1783800F07A
:101690000FF804B00248BDE81040783800F064B894
:1016A000E0090020051600087469646C65000000FC
:1016B0002DE9FF5F92460EAA0C4692E8E0010A4629
:1016C000994683460121FFF71DFE8DE8E0014B4658
:1016D000524621465846FFF7E3FA04B0BDE8F09FB2
:1016E00070B5044690F8340000F00F00022802D0D4
:1016F0004FF0FF3070BDFEF715FD054604F11400F4
:10170000FFF7AEFD04F1440000F07CF92846FEF737
:101710000DFD2046FFF752FE002070BD0148006815
:10172000704700004C000020F1B5FEF7FBFC0546B9
:101730000C480468204600F02DF804F144006A4685
:101740000021064600F0D8F8304600F015F928468A
:10175000FEF7ECFCFFF706FE206B801C00D1206337
:101760000020F8BD4C00002010B590F83610012282
:1017700080F835108A400221826380F83410FFF728
:10178000AFFF0348006808B1FFF7ECFD002010BD73
:101790004C00002070B5044690F8340000F00F00B3
:1017A000012802D04FF0FF3070BDFEF7BBFC0546AC
:1017B00094F8340020F00F00801C84F83400204698
:1017C000FFF724FE04F1440000F01CF92846FEF760
:1017D000ADFC002070BD10B504466FF00100206321
:1017E00004F11400FFF73CFD2046FFF7E7FDBDE8DC
:1017F0001040FFF7B7BD000070B5FEF793FC06463A
:101800001348046894F8340000F00F00012819D13F
:10181000D4E90501884215D004F114000546FFF70C
:101820001FFD94F835000B4901EBC00041680D60C5
:1018300041686960456028603046FEF777FCFFF735
:1018400091FD02E03046FEF771FC002070BD000003
:101850004C000020E00A00200148006870470000AA
:1018600010000020094810B50168491C0160FFF70D
:1018700055FF016C491E016403D1C16B0164FFF780
:10188000BBFFBDE8104000F003B8000010000020CE
:101890002DE9F041FFF7E0FF0646FEF743FC07465F
:1018A000144D1EE060696FF00041301A143C88420C
:1018B0001AD22046FFF734FAD4E907108847FFF719
:1018C000CBFF0646607A810708D5C10706D020F015
:1018D00001006072204600F04FF802E020F00100A5
:1018E00060722C68AC42DDD13846BDE8F041FEF7AD
:1018F0001DBC00006000002049B1012904D002296C
:1019000008D003290ED109E0406A10600AE011688E
:10191000416207E0417A21F0020102E0417A41F0A0
:10192000020141720020704770B50546FEF7FAFBD0
:1019300004462846FFF7F4F92046FEF7F7FB284651
:10194000FFF7BBFC002070BD2DE9F0411746DDE933
:1019500006580A461E4604460A21FFF7D3FC28F023
:10196000010161720021C4E90951C4E90776143408
:1019700064602460BDE8F081F8B50446FEF7D2FB50
:1019800005462046FFF7CCF9607A20F0010060722E
:101990002846FEF7CBFBFFF75FFF616A0844A062B1
:1019A000FEF7C0FB0546164A0020009202EBC0027B
:1019B000694653686FF0004C5DF820200BE0126818
:1019C000A2EBC0067769A66AB74202D0BE1B664585
:1019D00003D341F820209A42F1D10948001F016841
:1019E000491C016004F114010098FFF732FC607A91
:1019F00040F0010060722846FEF798FB0020F8BD19
:101A00006000002070B50446407AC0070ED0FEF793
:101A100089FB05462046FFF783F92846FEF786FB3B
:101A2000607A20F001006072002070BD4FF0FF303E
:101A300070BD00002DE9FF4F8946044600EB090701
:101A400083B080464FF0FF3A4FF0200BA74202D2FE
:101A50005746C8F1FF3907E1252803D0BC4200D220
:101A6000207081E000260599491C059108782D28F1
:101A700011D02B2812D0202813D0232814D030289E
:101A800015D00A785546303A0A2A13D205A800F034
:101A90002CF905461AE046F01006E4E746F0040685
:101AA000E1E746F00806DEE746F02006DBE746F011
:101AB0000106D8E72A2809D10698491C059120C8B3
:101AC0000690002D02DA6D4246F01006CDF800A017
:101AD000059801782E2918D1401C05900178A1F1B4
:101AE00030020A2A04D205A800F0FFF8009008E0AE
:101AF0002A2908D1401C0590069802C8069000913A
:101B00000846002801DA002000900598002102789C
:101B1000682A01D06C2A02D1401C11460590007839
:101B20000A236F287DD00CDC63281FD004DC252815
:101B30007BD058280DD17EE0642801D0692808D1D7
:101B40007DE070285ED073282CD0752879D0782855
:101B500073D0BC4201D2252020700598641C017806
:101B6000D1B3BC4200D22170641C7AE0F00608D4E4
:101B700058466D1E002D04DDBC4200D22070641C4E
:101B8000F7E70699BC4211F8040B069100D22070C9
:101B9000584602E0BC4200D22070641C6D1E002D2D
:101BA000F8DC5EE0069808C8069003B93EA3184624
:101BB000FFF7A8FC0099002902DD884200DD0846F5
:101BC000F1060AD459462A466D1E824205DDBC4202
:101BD00000D22170641CF6E752E0002106E0BC420E
:101BE00001D21A782270491C5B1C641C8142F6DB0E
:101BF0005A4629466D1E814233DDBC4200D2227016
:101C0000641CF6E7681C02D1082546F0010600981E
:101C10000296CDE9005006981023394604C8069074
:101C20001BE006E001E00CE007E0BC429CD225206E
:101C300016E7082305E046F04006102301E046F0D1
:101C400002066C2901D068291DD0069804C80690A8
:101C500000983946CDE9005002962046FFF792F8E9
:101C600004460598401C05900598007800287FF4EC
:101C7000F3AEB9F1000F11D0BC420DD220700DE0CF
:101C8000401E0590EDE7069830F8041B06908AB2D6
:101C9000B007DDD512B2DBE707F8010C07B0A4EB03
:101CA0000800BDE8F08F0000284E554C4C2900007C
:101CB00000207047002070470020704700207047C8
:101CC00010B5FEF72FFAFFF759F9FFF7C3FBFFF73F
:101CD00063FCFFF733FCFFF7EDF8FFF763FCFFF75A
:101CE000CBFCFFF745FC002010BD10B501460020DD
:101CF0006FF02F0307E0541C0C60127800EB80009B
:101D000003EB400010440A681478303C0A2CF2D3EC
:101D100010BD0000000000000000010203040607DF
:101D20000809000001000200010003000100020098
:101D30000100040001000200010003000100020094
:101D40000100050001000200010003000100020083
:101D50000100040001000200010003000100020074
:101D60000100060001000200010003000100020062
:101D70000100040001000200010003000100020054
:101D80000100050001000200010003000100020043
:101D90000100040001000200010003000100020034
:101DA0000100070001000200010003000100020021
:101DB0000100040001000200010003000100020014
:101DC0000100050001000200010003000100020003
:101DD00001000400010002000100030001000200F4
:101DE00001000600010002000100030001000200E2
:101DF00001000400010002000100030001000200D4
:101E000001000500010002000100030001000200C2
:101E100001000400010002000100030001000200B3
:101E2000010030313233343536373839616263641A
:101E30006566003031323334353637383941424304
:101E400044454600BD1C0008B51C0008B11C000834
:101E5000B91C0008741E0008000000207800000073
:101E60006C0C0008EC1E000878000020680F0000D1
:101E70007C0C0008010000001000000000000000C1
:101E80000024F40000000000000000000100000039
:101E90001C0000201C000020780000000200000050
:101EA0002C0000202C000020200000000A00000070
:101EB0003C0000203C0000202C000000000000003E
:101EC0000000000000000000000000000000000012
:101ED0000000000000000000000000000000000002
:0C1EE000000000000000000000000000F6
:04000005080000ED02
:00000001FF
