:020000040800F2
:10000000E01A002001010008170E0008CB010008CB
:10001000150E00086B0200084910000800000000DF
:10002000000000000000000000000000190E0008A1
:100030006D02000800000000530100081B0E0008BC
:100040001B0100081B0100081B0100081B01000820
:100050001B0100081B0100081B0100081B01000810
:100060001B0100081B0100081B0100081B01000800
:100070001B0100081B0100081B0100081B010008F0
:100080001B0100081B0100081B0100081B010008E0
:100090001B0100081B0100081B0100081B010008D0
:1000A0001B0100081B0100081B0100081B010008C0
:1000B0001B0100081B0100081B0100081B010008B0
:1000C0001B0100081B0100081B0100081B010008A0
:1000D0001B0100081B0100081B0100081B01000890
:1000E0001B0100081B0100081B010008DFF80CD0F1
:1000F00000F0A4F80048004761020008E01A002060
:100100000648804706480047FEE7FEE7FEE7FEE7B1
:10011000FEE7FEE7FEE7FEE7FEE7FEE7E50E000886
:10012000ED000008EFF3108072B6704780F310887E
:100130007047334A1368012B04D04FF0010313605A
:10014000304A1060304A116030484FF080510160F1
:100150007047EFF3108272B62948016891B14FF0F1
:10016000000101602748016829B1EFF3098121E905
:10017000F00F00680160244909680968B1E8F00FD0
:1001800081F3098882F310884EF0040E70471E49EF
:1001900008601C494FF00000086019494FF0010049
:1001A00008601B484FF47F01D0F8002041EA0201AB
:1001B000016016484FF080510160164800680068E1
:1001C00080F3088861B662B670471EF0040F0CBF5A
:1001D000EFF30880EFF3098020E9F00F40F804ED19
:1001E0001EF0040F0CBF80F3088880F3098800B567
:1001F00001F0C6FA5DF804EB4EF0040E7047000003
:10020000F8000020F0000020F400002004ED00E0E1
:1002100020ED00E008ED00E0D2B201E000F8012B93
:10022000491EFBD270470022F6E710B513460A4676
:1002300004461946FFF7F0FF204610BD064C074D57
:1002400006E0E06840F0010394E8070098471034A6
:10025000AC42F6D3FFF74EFFA02C0008C02C0008DC
:1002600010B502F04FFC002010BDFEE7704770474C
:100270002DE9F84FDFF8B891002409F1040A0AF1DA
:10028000040B23460F270BF1040EC9E00125A540FE
:100290002A40AA427DD1674ED1F804C0ACEB0608D3
:1002A000B44532D014DCBCF1030F3AD009DCBCF108
:1002B000000F2AD0BCF1010F1CD0BCF1020F31D1CC
:1002C0001DE0BCF1110F17D0BCF1120F2AD119E0BB
:1002D000B8F5881F19D006DCB8F5803F15D0B8F501
:1002E000801F1FD111E0B8F5001F0ED0B8F5041F14
:1002F00018D10AE0CB6815E0CB681B1D12E0CB6873
:1003000008330FE0CB680C330CE08B682BB1012B6A
:100310004FF0080303D0456104E0042302E00561C7
:1003200000E00023FF2A01D8064601E000F10406A0
:100330004FEA840501D9A5F12005D6F8008007FA17
:1003400005FC28EA0C0803FA05F548EA0508C6F892
:1003500000804D68ED0062D5374DAE6946F001066C
:10036000AE61AD6924F0030605F001050095334D3B
:1003700006EB050CDCF80850A607360F07FA06F85E
:1003800025EA0805DFF8B880404503D14FF00008A2
:1003900017E044E0DFF8AC80404502D14FF001089F
:1003A0000FE0DFF8A480404502D14FF0020808E0DA
:1003B000DFF89880404502D14FF0030801E04FF08C
:1003C000040808FA06F848EA0508CCF808804D68E1
:1003D000D9F80060ED034D4601D5164300E0964381
:1003E0002E604D68DAF80060AD03554601D516431E
:1003F00000E096432E604D68DBF80060ED025D463C
:1004000001D5164300E096432E604D68DEF800608B
:10041000AD02754601D5164300E096432E60641C7C
:100420000D682A46E5407FF431AFBDE8F88F000043
:1004300000040140000011100010024000000140C3
:1004400000080140000C0140001001400014014070
:10045000C2680A4201D041617047016170470AB128
:10046000016170470904FBE701488068704700009C
:1004700010000020074810B5016841F0100101602C
:10048000032000F067F8002000F006F800F024F8E0
:10049000002010BD0020024070B50D4D04464FF401
:1004A0007A712878B1FBF0F00A490968B1FBF0F0E5
:1004B00000F0DEFA48B9102C07D200222146501E67
:1004C00000F028F800206C6070BD012070BD0000B5
:1004D000100000201C0000200C4808B5816941F084
:1004E00001018161816901F001010091C16941F05F
:1004F0008051C161C06900F080500090044841689B
:1005000021F0E06141F00071416008BD001002403F
:1005100000000140F0B40E4B1B680C46C3F30223ED
:10052000C3F10705042D00D90425191D072901D29F
:10053000002300E0DB1E012606FA05F1491E2140DA
:1005400099409E40761E16403143F0BC00F07DBDC0
:100550000CED00E0064900F0070208684FF6FF03C3
:10056000184040EA0220034A104308607047000028
:100570000CED00E00000FA052DE9F0470F460500FC
:1005800061D0434E306800F00700B84209D23068AD
:1005900020F0070038433060306800F00700B842B0
:1005A00051D128683B4C810712D5400703D56068BC
:1005B00040F4E06060602878000703D5606840F48C
:1005C000605060606068A96820F0F00008436060D7
:1005D0002878C00728D06868012810D02168022830
:1005E00010D0890700292EDA616821F00301014348
:1005F0006160FFF739FF804641F288390DE02168DC
:100600008903EFE78901EDE7FFF72EFFA0EB080173
:10061000494502D90320BDE8F0876068696800F0A9
:100620000C00B0EB810FEFD1306800F00700B8424A
:100630000BD9306820F0070038433060306800F094
:100640000700B84201D00120E5E72878400705D52A
:100650006068E96820F4E06008436060287800077B
:1006600006D56068296920F4605040EAC1006060E6
:1006700000F038F86168084AC1F30311515CC840C2
:100680000649086006480068FFF706FF0020C2E739
:100690000020024000100240562B00081C000020E1
:1006A000140000200448054900684968044AC1F361
:1006B0000221515CC84070471C000020001002401D
:1006C000662B00080448054900684968044AC1F3DC
:1006D000C221515CC84070471C000020001002403D
:1006E000662B000812A185B00FC98DE80F0014A079
:1006F000144A006804905168134801F00C03042B5D
:1007000010D0082B0ED1C1F38343C9031DF8030099
:100710000AD5516804AAC1F34041515C0A4A5043CA
:10072000B0FBF1F005B0704708494843FAE7000014
:1007300002030405060708090A0B0C0D0E0F101022
:10074000010200000010024000127A0000093D0082
:100750002DE9F84F040070D02078C04DC00749D073
:100760006868C0F38100012807D06868C0F3810081
:10077000022809D16868C00306D52868800339D5E6
:1007800060680028E7D035E06068B0F5803F0BD0A6
:1007900010B1B0F5A02F11D0286820F48030286067
:1007A000286820F4802002E0286840F48030286027
:1007B000606890B1FFF758FE06460AE0286840F4EA
:1007C00080202860F0E700BFFFF74EFE801B642802
:1007D00073D828688003F7D50CE0FFF745FE06467E
:1007E00005E000BFFFF740FE801B6428F0D82868B2
:1007F0008003F7D420789A4E80074FF001094FF01C
:10080000000839D5686810F00C0F07D06868C0F38D
:100810008100022809D16868C00306D428688007CF
:1008200014D52069012808D110E02069B0B1C6F8BC
:100830000090FFF719FE074605E00AE1FFF714FEF6
:10084000C01B0228C4D828688007F7D528686169CA
:1008500020F0F80040EAC10028600DE0C6F80080F2
:10086000FFF702FE074604E0FFF7FEFDC01B02286B
:1008700023D828688007F7D4207800072CD579483A
:10088000A169D9B1C0F80090FFF7EEFD074604E07A
:10089000FFF7EAFDC01B02280FD8686A8007F7D56A
:1008A00071484FF4FA510068B0FBF1F0009000BFBE
:1008B0000098411E0091FAD20EE080E0C0F800805E
:1008C000FFF7D2FD074604E0FFF7CEFDC01B02286C
:1008D00075D8686A8007F7D42078400760D5E86942
:1008E0000027C00008D4E86940F08050E861E8695A
:1008F000012700F0805000905C480168C90513D4BE
:100900000168834641F480710160FFF7ADFD8246C6
:1009100006E000BFFFF7A8FDA0EB0A0064284ED850
:10092000DBF80000C005F5D5E06801280AD008B161
:10093000052813D0286A20F001002862286A20F0D8
:10094000040002E0286A40F001002862E06841F2F9
:10095000883B98B1FFF788FD82460BE0286A40F09B
:1009600004002862EEE700BFFFF77EFDA0EB0A015E
:1009700059455AD8286A8007F6D50CE0FFF774FD70
:10098000824605E0FFF770FDA0EB0A0159454CD8FF
:10099000286A8007F6D41FB1E86920F08050E8612A
:1009A000E06988B36968C1F38101022944D0022853
:1009B000C6F8608004D0FFF757FD044638E034E005
:1009C000FFF752FD074604E0FFF74EFDC01B02286B
:1009D0002BD828688001F7D4206AB0F5803F05D174
:1009E0006868A16820F4003008436860D4E9080111
:1009F0000843696821F4741108436860C6F8609080
:100A0000FFF732FD044606E025E000BFFFF72CFDAE
:100A1000001B022809D828688001F7D51BE000BF19
:100A2000FFF722FD001B022802D90320BDE8F88F42
:100A300028688001F4D40EE00128F7D06868226AA3
:100A400000F48031914204D1616A00F47010884250
:100A500001D00120EAE70020E8E700000010024092
:100A600000004242800442421C000020007000400E
:100A700010B5401EB0F1807F01D3012010BD4FF0B2
:100A8000E02460610F21601700F0DFFA0020A06110
:100A900007202061002010BD70B5040004D094F838
:100AA0003900002510B106E0012070BD84F83850EF
:100AB000204600F023F8242084F839002068C1681B
:100AC00021F40051C160204600F030FA206801692D
:100AD00021F4904101612068416921F02A014161BE
:100AE0002068C16841F40051C160E563202084F8AA
:100AF000390084F83A00002070BD000030B585B0A0
:100B000000240094019402940394006814498842DC
:100B100024D11448816941F480418161816901F4E3
:100B200080410491816941F00401816180690E4D29
:100B300000F0040004904FF4007000900220019037
:100B40000320039069462846FFF792FB2815CDE95C
:100B50000004694628460294FFF78AFB05B030BDC1
:100B60000038014000100240000801402DE9F84320
:100B7000044690F839001F4616460D46202850D1ED
:100B8000A5B19EB194F8380001284AD0012084F81C
:100B900038004FF00008C4F83C80212084F8390068
:100BA000FFF762FCA6848146E68426E00120BDE8CA
:100BB000F883E08C401EE084A0684B46B0F5805F6F
:100BC0004FF000024FF080012046009703D000F064
:100BD00009FAE8B90DE000F005FAC8B928882168DB
:100BE000C0F308004860206908B16D1C05E0AD1C29
:100BF00003E0216815F8010B4860E08C0028D8D18B
:100C00004B46002240212046009700F0EBF908B146
:100C10000320CCE7202084F8390084F838800020B5
:100C2000C5E70220C3E7000070B586B00024214864
:100C30000094019402940394816941F01001816150
:100C4000816901F010010491816941F02001816105
:100C5000816901F020010491816941F008018161FD
:100C6000816901F008010491816941F00401816109
:100C70008069114E00F004004FF4C045049000223A
:100C800029463046FFF7EBFB01200095CDE9010432
:100C90000224694630460394FFF7EAFA6810009090
:100CA0000648CDE9010469460548FFF7E1FA06B0B8
:100CB00070BD000000100240001001400000111043
:100CC000000C01402DE9FC4119A000F0C3FE26A054
:100CD00000F0C0FE032214212CA000F0D9FF2D4CFF
:100CE000A06010B12CA000F0B5FE01201425CDE9C4
:100CF0000005460233460022324933A001F014FBBE
:100D00004FF0FF37206080B101F018FC0220CDE9E0
:100D10000005334600222E492EA001F005FB60603D
:100D200018B1BDE8FC4101F009BC3846BDE8FC81C2
:100D30005468697320697320616E20525454207383
:100D40007461746963206D656D6F7279206D616E79
:100D50006167656D656E74206578706572696D6533
:100D60006E74210A000000004372656174696E6749
:100D70002061206D656D6F727920706F6F6C2E2E03
:100D80002E2E2E2E2E2E2E2E2E0A000074657374FB
:100D90005F6D700000000020537461746963206D02
:100DA000656D6F727920706F6F6C2063726561740E
:100DB0006564207375636365737366756C6C792104
:100DC0000A0A000089110008616C6C6F6300000062
:100DD000FD12000866726565000000000C4810B541
:100DE0000A4901604FF4E1314160002181600C2229
:100DF000C160C0E904128161C161FFF74DFE0028A6
:100E000003D0BDE81040FFF732BA10BD00380140F2
:100E1000FC000020FEE77047704710B500F0C6FDEB
:100E200001F026FCBDE8104000F0D4BD30B58FB015
:100E300028216846FFF7F7F914210AA8FFF7F3F90C
:100E400001210804CDE90010002402940225049138
:100E5000CDE907504FF4E01009906846FFF778FCA1
:100E60000F20CDE90A056802CDE90C4002210AA84D
:100E70000E94FFF781FB0FB030BD0000144910B590
:100E80004868144A10F00C03134803D0042B01D017
:100E9000082B09D002604968104AC1F30311515C64
:100EA0000268CA40026010BD4A684B6802F47012C2
:100EB0004FF0020413F4803F04EB924202D04B68DF
:100EC0009B0301D5064B00E0024B5A43E2E70000CA
:100ED0000010024000127A001C000020562B00086F
:100EE00000093D000D48016841F0010101604168C1
:100EF0000B4A1140416001680A4A114001600168D3
:100F000021F480210160416821F4FE0141604FF429
:100F10001F0181600449C00308607047001002404F
:100F20000000FFF8FFFFF6FE08ED00E02DE9F041BC
:100F3000044600680169E26821F4405111430161EF
:100F40002169A0680843616908432168CA6841F2C1
:100F50000C639A430243CA6020684169A26921F484
:100F60004071114341611E49206864253226884240
:100F700002D1FFF7A7FB01E0FFF794FB00EBC001F4
:100F800001EB001160686FF018078000B1FBF0F210
:100F9000B2FBF5F2B1FBF0F37A4303EB8202B1FB53
:100FA000F0F306EB0212B2FBF5F2B3FBF5F302F03D
:100FB000F00202EB0312B1FBF0F3B1FBF0F0B0FB77
:100FC000F5F0784303EB800006EB0010B0FBF5F082
:100FD000216800F00F0010448860BDE8F081000037
:100FE000003801402DE9F041984617460E46044668
:100FF000069D1DE0681C1BD02DB1FFF735FAA0EB54
:101000000800A84214D92068C16821F4D071C160D9
:101010002068416921F001014161202084F83900F4
:1010200084F83A00002084F838000320BDE8F081FD
:101030002068006836EA000004D00020B842D9D009
:101040000020F3E70120F9E7FEE70907090E002871
:1010500004DB00F1E02080F80014704700F00F007E
:1010600000F1E02080F8141D70470000002806D031
:101070000E4910F0FF0F03D0C0B2085C401C70474F
:1010800010F47F4F04D0C0F30720085C093070478C
:1010900010F47F0F04D0C0F30740085C1130704794
:1010A00001EB106000781930704700006E2B0008CB
:1010B00002E008C8121F08C1002AFAD17047704721
:1010C000002001E001C1121F002AFBD1704700007F
:1010D00003480168814201D0012070470020704719
:1010E000D00000202DE9FC411F460446DDE908310F
:1010F000DDE90A65143040600060C4E90827C4E9EE
:101100000A310A46232118461C3400F059FDD4E95F
:1011100003014218D4E901010D4B121F00F02AFC13
:101120002060A67666760020A562E061E5626061D7
:101130002076E06520661C3C009023460190054A1D
:10114000194604F14C0001F005FB0020BDE8FC81CC
:1011500075230008AB25000810B5029C24F001049B
:101160004472C0E907120021C0E90931143040601F
:10117000006010BDF0E905124A60D0E9001211606C
:10118000406000607047000016A000F063FC224C35
:101190000021A06800F01DFDE060011E1ED01FA010
:1011A00000F058FC2CA000F055FCE16840F2D24061
:1011B000086032A000F04EFCE2683CA0116800F02C
:1011C00049FC444D4FF480444FF47A76214628463A
:1011D000FFF73EF9304601F0CBF8F7E73EA000F00C
:1011E00039FCDFE752657175657374696E67206D50
:1011F000656D6F72792066726F6D20746865206D01
:10120000656D6F727920706F6F6C2E2E2E2E2E2EC4
:101210002E2E2E2E2E0A0000000000205374617422
:101220006963206D656D6F7279206170706C6963A0
:101230006174696F6E207375636365737366756C33
:101240002C2061646472657373206973202564EFD8
:10125000BC81200A0A00000057726974696E672019
:101260006461746120746F205020746573742E2E35
:101270002E2E2E2E2E2E2E2E2E0A0000446174614C
:1012800020686173206265656E2077726974746589
:101290006E20746F2074686520502074657374200C
:1012A000616464726573730A000000002A705F74E1
:1012B000657374203D20252E3464202C54686520ED
:1012C000616464726573732069733A2564200A0A45
:1012D0000000000000100140537461746963206DC8
:1012E000656D6F7279206170706C69636174696F8C
:1012F0006E206661696C6564210A000010A000F030
:10130000A9FB164CE06800F01AFD15A000F0A2FB46
:101310001AA000F09FFBA06800F0EFFC10B91EA01F
:1013200000F098FB244D4FF400544FF4FA76214618
:101330002846FFF78DF8304601F01AF8F7E700006D
:1013400046726565696E67206D656D6F72792E2EC8
:101350002E2E2E2E2E2E2E2E2E0A000000000020C5
:1013600046726565206D656D6F7279207375636374
:1013700065737366756C6C79210A0A0044656C6547
:1013800074696E67206D656D6F72792E2E2E2E2E0C
:101390002E2E2E2E2E2E0A004D656D6F7279207224
:1013A000656D6F76656420737563636573736675C9
:1013B0006C6C79210A00000000100140FFF75AF818
:1013C000FFF734FDFFF730FCFFF708FDFFF77AFC6D
:1013D000FEE710B500F0EAF8BDE81040FFF7EEBFF9
:1013E00030B5134943680A68134402F1080498426F
:1013F0000DD05D885DB94D68AB4208D08D689D42C7
:1014000000D188605D6845605B68851A1D518368FE
:10141000134483420BD05D88002D08D18D6885422E
:1014200000D18B60416859604068991A015130BD04
:101430002C0000202DE9F04F85B09946DDE90EA57E
:10144000109CAB46630602D5DFF814C103E0DFF859
:1014500010C1ACF1110CE30601D524F00104E3073F
:1014600001D0302300E0202300260493A3070BD5EE
:10147000002A02DA2D26524206E0630701D52B2608
:1014800002E0230700D520260023EE4622B93022B1
:101490008DF8002001230CE0B9F10A0F14D002F0FE
:1014A0000F0812091CF808800EF803805B1C002A44
:1014B000F2D1AB4200DD1D46AAEB050214F0110F7C
:1014C0004FF0200708D015E00A27B2FBF7F807FB1A
:1014D0001828B2FBF7F2E5E73EB1002A05DD521EFF
:1014E00003E0884200D20770401CB2F1000CA2F168
:1014F0000102F6DC26B1884200D20670401C521E62
:10150000E40605D508E0884201D2049C0470401C22
:10151000141EA2F10102F6DC30242E466D1E9E42FE
:101520000ADD884200D20470401CF6E7884201D2EE
:10153000E55C0570401C00E074461D1EA3F101032C
:1015400007DDBBF1000FF1D103E0884200D2077044
:10155000401C131EA2F10102F7DC05B0BDE8F08FBC
:101560007F2C00081CB514210A20CDE900014FF49E
:1015700080630022034904A000F0D6FEBDE81C40B1
:1015800000F0DCBFD31300086D61696E000000003D
:1015900070B5044C044D02E020688047241DAC4225
:1015A000FAD370BD942C0008982C000870B5044C38
:1015B000044D02E020688047241DAC42FAD370BD80
:1015C000982C00089C2C000810B5FEF7ABFD044ACF
:1015D0005188491C5180BDE81040FEF7A7BD0000AE
:1015E000C400002010B5FEF79DFD0B4C6188491E1C
:1015F00009B2618000290ADC00216180FEF796FDB6
:101600006068002807D0BDE8104000F049BCBDE884
:101610001040FEF78BBD10BDC400002070B500283F
:1016200033D01A4D296888422FD3696888422CD25A
:10163000A0F10C044FF0FF31154800F0D5FC608894
:101640004FF4F55610B12088B04208D011A000F038
:1016500001FA23886288214615A000F0FBF90020DA
:1016600060802680A868844200D2AC6029686068E7
:10167000611A401A2969081A28612046FFF7B0FE4E
:10168000BDE87040024800F095BC70BD2C00002001
:101690003C130020746F20667265652061206261D2
:1016A00064206461746120626C6F636B3A0A0000AD
:1016B0006D656D3A203078253038782C207573654B
:1016C0006420666C61673A2025642C206D6167692F
:1016D0006320636F64653A203078253034780A00DF
:1016E000004870473C010020004870473C11002032
:1016F00010B5FFF7C3FB10484FF47A710068B0FBD8
:10170000F1F0401EB0F1807F09D24FF0E0210B4A8A
:101710004861FF2010700020886107200861FFF7F2
:1017200037FFFFF7E1FF0446FFF7DAFF2146BDE888
:10173000104000F04DBD00001C00002023ED00E033
:1017400070B50446FFF740FF4FF47A750EE00A28A3
:1017500005D12B4601220D210848FFF707FA214643
:10176000641C2B4601220548FFF700FA2078002868
:10177000EDD1BDE87040FFF735BF0000FC00002050
:1017800070B50546041D2B48016819B128468847E5
:1017900000284DD028A0E16B00F05CF92AA0216A56
:1017A00000F058F92CA0616A00F054F92EA0A16A4B
:1017B00000F050F930A0E16A00F04CF932A0216845
:1017C00000F048F934A0616800F044F936A0A1683F
:1017D00000F040F938A0E16800F03CF93AA0216936
:1017E00000F038F93CA0616900F034F93EA0A1692D
:1017F00000F030F940A0E16900F02CF942A0216B23
:1018000000F028F944A0616B00F024F946A0A16B18
:1018100000F020F92878400706D500F069FE01465F
:1018200045A000F017F902E04BA000F013F9FEE725
:1018300070BD0000EC0000207073723A20307825F3
:101840003038780A000000007230303A20307825B5
:101850003038780A000000007230313A20307825A4
:101860003038780A000000007230323A2030782593
:101870003038780A000000007230333A2030782582
:101880003038780A000000007230343A2030782571
:101890003038780A000000007230353A2030782560
:1018A0003038780A000000007230363A203078254F
:1018B0003038780A000000007230373A203078253E
:1018C0003038780A000000007230383A203078252D
:1018D0003038780A000000007230393A203078251C
:1018E0003038780A000000007231303A2030782514
:1018F0003038780A000000007231313A2030782503
:101900003038780A000000007231323A20307825F1
:101910003038780A00000000206C723A20307825B8
:101920003038780A000000002070633A20307825B3
:101930003038780A000000006861726420666175C2
:101940006C74206F6E207468726561643A20257330
:101950000D0A0D0A0000000068617264206661755E
:101960006C74206F6E2068616E646C65720D0A0D78
:101970000A00000070B50446121D22F00700002284
:10198000094D403840F82250521C102AFAD3016207
:101990000021416281624FF0807200F13005C26324
:1019A000C16285E81A0070BDEFBEADDE10B5FEF76E
:1019B000B9FB044A1178491C1170BDE81040FEF7CC
:1019C000B5BB0000240000200148007870470000EB
:1019D0002400002010B5FEF7A5FB044A1178491E2B
:1019E0001170BDE81040FEF7A1BB000024000020EC
:1019F00010B50068143800F05DFD002010BD000037
:101A00002DE9F041064614460D46084600F0ACFDAF
:101A100005F11407B4B1012C18D134680EE000BFF1
:101A200095F8351094F82120A4F11400914204D2C5
:101A30003946143000F033F802E02468B442EFD1A4
:101A4000B44203D13946304600F029F80020BDE801
:101A5000F08100000FB47F2110B503AB0448029A57
:101A600000F00AFF0248FFF76BFE10BC5DF814FBA4
:101A7000BC1200200268516002680A600160486080
:101A800070470268516002680A60016048607047F0
:101A90000268516002680A600160486070474268ED
:101AA000116042684A60416008607047D0E90012E6
:101AB0004A60D0E900121160406000607047D0E9D0
:101AC00000124A60D0E90012116040600060704767
:101AD0002DE9F047002807D0374CC01C20F0030642
:101AE000E068864202D90020BDE8F0870C2E00D2C3
:101AF0000C264FF0FF31314800F076FAD4F808C0D8
:101B00002168E768ACEB0100BA1B4FE00D186B8849
:101B1000E3BB6B681B1A0C3BB34246D36A6806F101
:101B20001803121A0C3A4FF001094FF4F55A9A4271
:101B30002DD383190C33CA184FF00008A2F800A067
:101B4000A2F80280D5F80480C2E901806B60A5F894
:101B5000029050680C37B84202D001F1080283505D
:101B6000206930440C3020616269824200D2606199
:101B7000A5F800A0654512D1A06842887AB16268D4
:101B800090420CD040680844A060F6E70DE0A5F84C
:101B9000029068686A1A801A22691044E3E70748CD
:101BA00000F008FA05F10C009EE768688242ADD8A3
:101BB000024800F0FFF996E72C0000203C130020BB
:101BC00010B50346C9B201E003F8011B521EFBD257
:101BD00010BD2DE9F3470446002700F089FC0546B7
:101BE000FEF7A0FA0646B84644E0019858B32846E6
:101BF000C5F8308000F0B8FCE26A05F1140004F189
:101C00002C015060E26A6A61E062A961606B401C6D
:101C10006063019800280CDD00F024FD074605F103
:101C20004C0001AA0021814600F06CFD484600F0FE
:101C3000ADFD3046FEF77AFA00F032F9286B50B16C
:101C40000020BDE8FC873046FEF770FA6FF0010017
:101C500000F002FAF4E70198002808DD00F002FD28
:101C60000199C01B081A019001D5CDF80480FEF738
:101C700059FA0646A06A0028B7D0401EA062256A1D
:101C80002868206230462C60FEF750FA281DD8E7FD
:101C900070B50E4601461546082000F073F8041E84
:101CA0001AD0ED1C25F00300051DE06105FB06F0D0
:101CB000A061FFF70DFF606150B1666204F12C0076
:101CC0002063C4E90A6000226263104661690BE088
:101CD000204600F07FF8002070BD431C03FB051672
:101CE00000FB05F3401CCE50636A8342F5D8401ECA
:101CF00068430A502046216270BD2DE9F041044638
:101D00004FF0FF3700F12C050DE0FEF70BFA064609
:101D1000E06AC761143800F0CDFB606B401E606361
:101D20003046FEF703FAE06AA842EED16069FFF799
:101D300075FC204600F04EF80020BDE8F08170B53B
:101D4000061F3468FEF7EEF90546A06A401CA06243
:101D5000206A30602662606B78B1E06A0021C16160
:101D6000143800F0A7FB606B401E60632846FEF746
:101D7000DDF9BDE8704000F093B82846BDE870403A
:101D8000FEF7D4B92DE9F0410F46064600F046F8BB
:101D90000546C068FFF79CFE040019D00021EA68E0
:101DA000FFF70EFF26720020607208223946204697
:101DB00000F0FAF9FEF7B6F9064604F10C01281D09
:101DC000FFF758FE3046FEF7B1F92046BDE8F08136
:101DD0000020FBE770B5044600202072FEF7A2F950
:101DE000054604F10C00FFF761FE2846FEF79EF958
:101DF0002046BDE87040FFF711BC70B504460020D6
:101E00002072FEF78FF9054604F10C00FFF74EFE35
:101E10002846BDE87040FEF789B90000074A002156
:101E200002EB01131B78834202D102EB01107047D1
:101E3000491C0829F4DB0020704700004400002002
:101E40002DE9F041044616460D460846FFF7E6FF29
:101E50000746FFF7B9FB381D796800E00968814241
:101E6000FCD1FFF7BFFB45F080002072082231460D
:101E7000204600F099F9FEF755F9054604F10C01EA
:101E8000381DFFF7F7FD2846BDE8F041FEF74EB9D3
:101E9000007A000601D5012070470020704700003D
:101EA00070B5FEF73FF9114C05466088B0B9A068DF
:101EB000FFF7DCF80E49401E626851F83010143903
:101EC00091420BD020700B486160007801F11C0139
:101ED000002802F11C0006D0FEF72BF92846BDE8C9
:101EE0007040FEF723B9FEF724F9F7E7C40000209D
:101EF0005C1300202400002010B50446FEF712F900
:101F0000024694F834000E4920F00F00401C84F87B
:101F1000340094F8350001EBC00104F114004B6863
:101F200018604B68A361486006486161A16B8368D3
:101F300019438160BDE810401046FEF7F7B8000075
:101F40005C130020C400002010B50446FEF7EAF838
:101F500004F11401D1E900235360D1E900231A6090
:101F6000A161616194F83520074951F8323001EBE5
:101F7000C2018B4204D10549A36B8A689A438A60E7
:101F8000BDE81040FEF7D2B85C130020C40000206A
:101F90002DE9F04116460A461F4605460221FFF785
:101FA0004FFF05F11404AC616C61AE836F720020C9
:101FB000BDE8F08170B50446FEF7B4F805466169E6
:101FC00004F11400814207D0FFF712FD2846FEF706
:101FD000ADF8FFF765FF05E0A08B401CA083284605
:101FE000FEF7A4F8002070BD73B50546FEF79AF819
:101FF0000646A88B28B1401EA8833046FEF796F807
:1020000021E0019808B300F073FA04460020206331
:102010006A7A214605F11400FFF7F2FC01980028C6
:1020200009DD04F14C0001AA0021054600F06AFB1D
:10203000284600F0ABFB3046FEF778F8FFF730FF9C
:10204000206B002800D100207CBD3046FEF76EF8E2
:102050006FF001007CBD000070B50446FFF7B4FCD2
:10206000044D20B900F044FA08B1046370BD2C603F
:1020700070BD00002800002008B509A0FFF7EAFCA9
:102080000AA0FFF7E7FC12A00323009001221946E3
:1020900012A0FFF7DFFCBDE8084018A0FFF7DABC8C
:1020A0000A205C207C202F0A000000002D205254C2
:1020B000202D2020202020546872656164204F70FC
:1020C00065726174696E672053797374656D0A0077
:1020D0004A756C203239203230323000202F207C7B
:1020E000205C202020202025642E25642E256420BD
:1020F0006275696C642025730A000000203230305C
:1021000036202D203230313920436F707972696763
:1021100068742062792072742D746872656164201D
:102120007465616D0A0000002DE9F04100F09AFA33
:102130000646FFF749FA174F3D6824E068696FF0DB
:102140000041301AA5F1140488421ED22D682046A1
:10215000FFF710F8FFF746FAD4E90710884700F0B8
:1021600081FA0646FFF730FA607A810708D5C10781
:1021700006D020F001006072204600F007FB02E06C
:1021800020F001006072BD42D8D1BDE8F041FFF7F8
:1021900029BA0000E4000020014600E0491C0A784A
:1021A000002AFBD1081A704710B5002A07D0034651
:1021B00011F8014B03F8014B2CB1521EF8D110BDA0
:1021C00003F8011B00E00021521EF9D110BD0000F0
:1021D0000A46C11C10B522F0030321F00301182B9D
:1021E00020D9A3F118048C421CD3114C581A18386A
:1021F0002160E0604FF4F5520A8000230C30C1E901
:1022000001034B804B68194461600A8001224A80B7
:1022100048608860002307A10848FFF7B9FE2068DE
:10222000A06010BD0146BDE8104005A0FFF712BC3C
:102230002C00002068656170000000003C13002045
:102240006D656D20696E69742C206572726F7220E5
:10225000626567696E2061646472657373203078AB
:1022600025782C20616E6420656E64206164647240
:1022700065737320307825780A00000010B50A498C
:1022800000230A4C4B80184604EBC002401C5260ED
:1022900012602028F8DB1F20087003484B600C30C8
:1022A0008B604060006010BDC40000205C13002003
:1022B00010B5074CA068FEF7D9FE0649401E51F83C
:1022C000300014386060BDE810401C30FDF75FBF7F
:1022D000C40000205C13002001484060006070478B
:1022E000DC0000201FB50B4804220A234060006078
:1022F0000948D1018DE80F000023084A08A1803861
:1023000000F0C0F804B00448BDE81040803800F088
:1023100015B90000E4000020DC140020CD250008E1
:1023200074696D65720000002DE9FF478946DDE99B
:102330000C76824601461D4690460120FFF722FD9D
:10234000041E0DD02846FFF7C3FB60B103968DE84D
:10235000A10043464A4651462046FEF7C3FE2046AA
:1023600004B0BDE8F0872046FFF734FD0020F7E712
:1023700000F0C4B870B513480468FDF7D3FE0546F5
:102380002046FFF7E1FD042084F8340004F14C00FE
:1023900000F0D0F92046FFF77BFD012801D1A06FA6
:1023A00058B104F114010848FFF76BFB2846FDF70C
:1023B000BDFEBDE87040FFF773BD2046FFF71DFD71
:1023C000F4E70000C8000020D000002000F002F870
:1023D000FCE7000070B527E0FDF7A4FE0546FEF718
:1023E00077FE58B318480168A1F11404D1E900023E
:1023F0004260D1E90002106049600960FFF7E4F82B
:10240000A16F09B1204688472046FFF741FD01280A
:102410000FD0FFF7E7F82846FDF788FEA06AFFF720
:10242000FDF82046FFF7D6FCFEF752FE0028D3D178
:1024300070BD2046FFF7E1FCFFF7D4F82846BDE861
:102440007040FDF773BE0000D00000201FB52023B0
:1024500008481F22D9008DE80F000023064A07A173
:10246000803800F00FF804B00248BDE81040803812
:1024700000F064B8BC110020CD2300087469646CBE
:10248000650000002DE9FF5F92460EAA0C4692E817
:10249000E0010A46994683460121FFF7D1FC8DE809
:1024A000E0014B46524621465846FEF71BFE04B05B
:1024B000BDE8F09F70B5044690F8340000F00F00BE
:1024C000022802D04FF0FF3070BDFDF72BFE05460D
:1024D00004F11400FFF7F3FA04F14C0000F0B4F932
:1024E0002846FDF723FE2046FFF706FD002070BDBD
:1024F0000148006870470000C8000020F1B5FDF7F2
:1025000011FE05460C480468204600F02DF804F141
:102510004C006A460021064600F0F4F8304600F010
:1025200035F92846FDF702FEFFF7BAFC206B801C48
:1025300000D120630020F8BDC800002010B590F83D
:102540003610012280F835108A400221826380F81B
:102550003410FFF7AFFF0348006808B1FFF7A0FC95
:10256000002010BDC800002070B5044690F834006B
:1025700000F00F00012802D04FF0FF3070BDFDF7D2
:10258000D1FD054694F8340020F00F00801C84F83B
:1025900034002046FFF7D8FC04F14C0000F054F959
:1025A0002846FDF7C3FD002070BD10B504466FF04E
:1025B0000100206304F11400FFF781FA2046FFF7C1
:1025C0009BFCBDE81040FFF76BBC00006FF00045BE
:1025D0000B4800F0D3F80446401C09D000F042F844
:1025E000201AA84201D2FFF7C3FEFFF79DFDEFE7D7
:1025F000FFF77EFFFFF7B8FFFFF752FCF5E700009B
:10260000E400002070B5FDF78DFD06461348046810
:1026100094F8340000F00F00012819D1D4E9050125
:10262000884215D004F114000546FFF748FA94F8E3
:1026300035000B4901EBC00041680D6041686960DD
:10264000456028603046FDF771FDFFF729FC02E088
:102650003046FDF76BFD002070BD0000C800002073
:102660005C13002001480068704700002000002033
:10267000094810B50168491C0160FFF739FF816CFA
:10268000491E816403D1416C8164FFF7BBFFBDE843
:10269000104000F003B80000200000202DE9F041B8
:1026A000FFF7E0FF0646FDF73DFD0746144D1EE02F
:1026B00060696FF00041301A143C88421AD22046FB
:1026C000FEF758FDD4E907108847FFF7CBFF064611
:1026D000607A810708D5C10706D020F0010060723A
:1026E000204600F053F802E020F0010060722C68F0
:1026F000AC42DDD13846BDE8F041FDF717BD000022
:10270000DC00002049B1012904D0022908D00329A6
:102710000ED109E0406A10600AE01168416207E0EA
:10272000417A21F0020102E0417A41F00201417256
:102730000020704770B50546FDF7F4FC04462846B6
:10274000FEF718FD2046FDF7F1FC2846FFF755FB84
:10275000002070BD2DE9F8439046DDE908450A46A2
:102760001F4606460A21FFF76BFB23463A464146C1
:1027700030460095FEF7F0FCBDE8F8830168814221
:1027800002D14FF0FF30704748697047F8B50446F2
:10279000FDF7C8FC05462046FEF7ECFC607A20F009
:1027A000010060722846FDF7C1FCFFF75BFF616A1C
:1027B0000844A062FDF7B6FC0546607A400701D5E3
:1027C0001F4A01E01E4A083A0020009202EBC002B4
:1027D000694653686FF0004C5DF820200BE01268EA
:1027E000A2EBC0067769A66AB74202D0BE1B664557
:1027F00003D341F820209A42F1D111480C380168E6
:10280000491C016004F114010098FFF741F9607A56
:1028100040F0010060722846FDF788FC607A4007AE
:102820000BD5084890F8340000F00F00012804D0C0
:102830000448FFF73FFEFFF733FB0020F8BD000020
:10284000E40000205C14002070B50446407AC00704
:102850000ED0FDF767FC05462046FEF78BFC2846A8
:10286000FDF764FC607A20F001006072002070BD0A
:102870004FF0FF3070BD00002DE9FF4F8946044640
:1028800000EB090783B080464FF0FF3A4FF0200B72
:10289000A74202D25746C8F1FF3907E1252803D0E5
:1028A000BC4200D2207081E000260599491C0591A8
:1028B00008782D2811D02B2812D0202813D02328B7
:1028C00014D0302815D00A785546303A0A2A13D247
:1028D00005A800F02CF905461AE046F01006E4E7DA
:1028E00046F00406E1E746F00806DEE746F020067B
:1028F000DBE746F00106D8E72A2809D10698491CEB
:10290000059120C80690002D02DA6D4246F01006AF
:10291000CDF800A0059801782E2918D1401C05900B
:102920000178A1F130020A2A04D205A800F0FFF8CC
:10293000009008E02A2908D1401C0590069802C89A
:10294000069000910846002801DA002000900598C2
:1029500000210278682A01D06C2A02D1401C11465D
:10296000059000780A236F287DD00CDC63281FD0E7
:1029700004DC25287BD058280DD17EE0642801D0C6
:10298000692808D17DE070285ED073282CD0752886
:1029900079D0782873D0BC4201D2252020700598C8
:1029A000641C0178D1B3BC4200D22170641C7AE06F
:1029B000F00608D458466D1E002D04DDBC4200D23E
:1029C0002070641CF7E70699BC4211F8040B0691CD
:1029D00000D22070584602E0BC4200D22070641C35
:1029E0006D1E002DF8DC5EE0069808C8069003B95D
:1029F0003EA31846FFF7D0FB0099002902DD88426C
:102A000000DD0846F1060AD459462A466D1E824268
:102A100005DDBC4200D22170641CF6E752E00021C3
:102A200006E0BC4201D21A782270491C5B1C641C6F
:102A30008142F6DB5A4629466D1E814233DDBC4297
:102A400000D22270641CF6E7681C02D1082546F00B
:102A5000010600980296CDE90050069810233946E9
:102A600004C806901BE006E001E00CE007E0BC4271
:102A70009CD2252016E7082305E046F040061023E7
:102A800001E046F002066C2901D068291DD00698A5
:102A900004C8069000983946CDE9005002962046B9
:102AA000FEF7C8FC04460598401C05900598007880
:102AB00000287FF4F3AEB9F1000F11D0BC420DD263
:102AC00020700DE0401E0590EDE7069830F8041BDD
:102AD00006908AB2B007DDD512B2DBE707F8010C29
:102AE00007B0A4EB0800BDE8F08F0000284E554C5D
:102AF0004C290000002070470020704700207047DC
:102B00000020704710B5FDF70DFBFEF7F1FDFFF754
:102B1000B3FAFFF7E1FBFFF7B1FBFEF723FDFFF789
:102B2000E1FBFFF793FCFFF7C3FB002010BD10B5DE
:102B3000014600206FF02F0307E0541C0C60127850
:102B400000EB800003EB400010440A681478303C2E
:102B50000A2CF2D310BD00000000000000000102AA
:102B60000304060708090000000001020304000036
:102B70000100020001000300010002000100040046
:102B80000100020001000300010002000100050035
:102B90000100020001000300010002000100040026
:102BA0000100020001000300010002000100060014
:102BB0000100020001000300010002000100040006
:102BC00001000200010003000100020001000500F5
:102BD00001000200010003000100020001000400E6
:102BE00001000200010003000100020001000700D3
:102BF00001000200010003000100020001000400C6
:102C000001000200010003000100020001000500B4
:102C100001000200010003000100020001000400A5
:102C20000100020001000300010002000100060093
:102C30000100020001000300010002000100040085
:102C40000100020001000300010002000100050074
:102C50000100020001000300010002000100040065
:102C600001000200010003000100020001003031F8
:102C70003233343536373839616263646566003023
:102C800031323334353637383941424344454600D2
:102C9000012B0008F92A0008F52A0008FD2A00087F
:102CA000C02C000800000020FC000000B01000084C
:102CB000BC2D0008FC000020E4190000C010000832
:102CC0000000000000000000000000000000000004
:102CD0000100000010000000000000000024F400CB
:102CE00000000000000000000000000000000000E4
:102CF00000000000000000000000000000000000D4
:102D000000000000010000004800002048000020F2
:102D10008000000002000000580000205800002041
:102D20002000000003000000680000206800002070
:102D3000240000000400000078000020780000203B
:102D4000200000000500000088000020880000200E
:102D500030000000060000009800002098000020CD
:102D60003400000008000000A8000020A800002097
:102D7000380000000A000000B8000020B800002061
:102D80002C00000000000000000000000000000017
:102D90000000000000000000000000000000000033
:102DA0000000000000000000000000000000000023
:0C2DB00000000000000000000000000017
:04000005080000ED02
:00000001FF
